{"abi":[{"type":"constructor","inputs":[{"name":"_v","type":"address","internalType":"address"},{"name":"_c","type":"address","internalType":"address"},{"name":"_j","type":"address","internalType":"address"},{"name":"_i","type":"address","internalType":"address"}],"stateMutability":"nonpayable"},{"type":"function","name":"acceptAndPayForShipment","inputs":[{"name":"_shipmentId","type":"uint256","internalType":"uint256"}],"outputs":[],"stateMutability":"payable"},{"type":"function","name":"cancelShipment","inputs":[{"name":"_shipmentId","type":"uint256","internalType":"uint256"}],"outputs":[],"stateMutability":"nonpayable"},{"type":"function","name":"cargoNFT","inputs":[],"outputs":[{"name":"","type":"address","internalType":"contract CargoNFT"}],"stateMutability":"view"},{"type":"function","name":"completeShipment","inputs":[{"name":"_shipmentId","type":"uint256","internalType":"uint256"}],"outputs":[],"stateMutability":"nonpayable"},{"type":"function","name":"insurancePolicyNFT","inputs":[],"outputs":[{"name":"","type":"address","internalType":"contract InsurancePolicyNFT"}],"stateMutability":"view"},{"type":"function","name":"journeyNFT","inputs":[],"outputs":[{"name":"","type":"address","internalType":"contract JourneyNFT"}],"stateMutability":"view"},{"type":"function","name":"proposeShipment","inputs":[{"name":"_journeyTokenId","type":"uint256","internalType":"uint256"},{"name":"_cargoTokenId","type":"uint256","internalType":"uint256"},{"name":"_price","type":"uint256","internalType":"uint256"},{"name":"_penaltyRate","type":"uint256","internalType":"uint256"},{"name":"_maxPenaltyPercentage","type":"uint256","internalType":"uint256"}],"outputs":[],"stateMutability":"nonpayable"},{"type":"function","name":"shipments","inputs":[{"name":"","type":"uint256","internalType":"uint256"}],"outputs":[{"name":"shipmentId","type":"uint256","internalType":"uint256"},{"name":"journeyTokenId","type":"uint256","internalType":"uint256"},{"name":"cargoTokenId","type":"uint256","internalType":"uint256"},{"name":"shipper","type":"address","internalType":"address"},{"name":"vesselOwner","type":"address","internalType":"address"},{"name":"price","type":"uint256","internalType":"uint256"},{"name":"penaltyRate","type":"uint256","internalType":"uint256"},{"name":"maxPenalty","type":"uint256","internalType":"uint256"},{"name":"expectedDeliveryTimestamp","type":"uint256","internalType":"uint256"},{"name":"status","type":"uint8","internalType":"enum Brokerage.ShipmentStatus"}],"stateMutability":"view"},{"type":"function","name":"vesselNFT","inputs":[],"outputs":[{"name":"","type":"address","internalType":"contract VesselNFT"}],"stateMutability":"view"},{"type":"event","name":"ShipmentCancelled","inputs":[{"name":"shipmentId","type":"uint256","indexed":true,"internalType":"uint256"}],"anonymous":false},{"type":"event","name":"ShipmentCompleted","inputs":[{"name":"shipmentId","type":"uint256","indexed":true,"internalType":"uint256"},{"name":"finalPayout","type":"uint256","indexed":false,"internalType":"uint256"},{"name":"penalty","type":"uint256","indexed":false,"internalType":"uint256"}],"anonymous":false},{"type":"event","name":"ShipmentPaid","inputs":[{"name":"shipmentId","type":"uint256","indexed":true,"internalType":"uint256"}],"anonymous":false},{"type":"event","name":"ShipmentProposed","inputs":[{"name":"shipmentId","type":"uint256","indexed":true,"internalType":"uint256"},{"name":"cargoTokenId","type":"uint256","indexed":false,"internalType":"uint256"},{"name":"journeyTokenId","type":"uint256","indexed":false,"internalType":"uint256"},{"name":"price","type":"uint256","indexed":false,"internalType":"uint256"}],"anonymous":false},{"type":"error","name":"ReentrancyGuardReentrantCall","inputs":[]}],"bytecode":{"object":"0x608060405234801561000f575f80fd5b506040516125523803806125528339818101604052810190610031919061019f565b60015f819055508360015f6101000a81548173ffffffffffffffffffffffffffffffffffffffff021916908373ffffffffffffffffffffffffffffffffffffffff1602179055508260025f6101000a81548173ffffffffffffffffffffffffffffffffffffffff021916908373ffffffffffffffffffffffffffffffffffffffff1602179055508160035f6101000a81548173ffffffffffffffffffffffffffffffffffffffff021916908373ffffffffffffffffffffffffffffffffffffffff1602179055508060045f6101000a81548173ffffffffffffffffffffffffffffffffffffffff021916908373ffffffffffffffffffffffffffffffffffffffff16021790555050505050610203565b5f80fd5b5f73ffffffffffffffffffffffffffffffffffffffff82169050919050565b5f61016e82610145565b9050919050565b61017e81610164565b8114610188575f80fd5b50565b5f8151905061019981610175565b92915050565b5f805f80608085870312156101b7576101b6610141565b5b5f6101c48782880161018b565b94505060206101d58782880161018b565b93505060406101e68782880161018b565b92505060606101f78782880161018b565b91505092959194509250565b612342806102105f395ff3fe608060405260043610610085575f3560e01c80637faa7bc7116100585780637faa7bc71461014a57806383e1148914610172578063b321d4af1461019c578063d81f84db146101c6578063f15456b5146101e257610085565b80631e92351c146100895780632ac08a93146100b3578063554296e0146100f8578063798a1c4014610120575b5f80fd5b348015610094575f80fd5b5061009d61020a565b6040516100aa9190611418565b60405180910390f35b3480156100be575f80fd5b506100d960048036038101906100d49190611475565b61022f565b6040516100ef9a99989796959493929190611542565b60405180910390f35b348015610103575f80fd5b5061011e600480360381019061011991906115dc565b6102c9565b005b34801561012b575f80fd5b506101346107f7565b6040516101419190611673565b60405180910390f35b348015610155575f80fd5b50610170600480360381019061016b9190611475565b61081c565b005b34801561017d575f80fd5b50610186610ba2565b60405161019391906116ac565b60405180910390f35b3480156101a7575f80fd5b506101b0610bc7565b6040516101bd91906116e5565b60405180910390f35b6101e060048036038101906101db9190611475565b610bec565b005b3480156101ed575f80fd5b5061020860048036038101906102039190611475565b610fa1565b005b60015f9054906101000a900473ffffffffffffffffffffffffffffffffffffffff1681565b6005602052805f5260405f205f91509050805f015490806001015490806002015490806003015f9054906101000a900473ffffffffffffffffffffffffffffffffffffffff1690806004015f9054906101000a900473ffffffffffffffffffffffffffffffffffffffff1690806005015490806006015490806007015490806008015490806009015f9054906101000a900460ff1690508a565b3373ffffffffffffffffffffffffffffffffffffffff1660025f9054906101000a900473ffffffffffffffffffffffffffffffffffffffff1673ffffffffffffffffffffffffffffffffffffffff16636352211e866040518263ffffffff1660e01b815260040161033a91906116fe565b602060405180830381865afa158015610355573d5f803e3d5ffd5b505050506040513d601f19601f820116820180604052508101906103799190611741565b73ffffffffffffffffffffffffffffffffffffffff16146103cf576040517f08c379a00000000000000000000000000000000000000000000000000000000081526004016103c6906117c6565b60405180910390fd5b5f60035f9054906101000a900473ffffffffffffffffffffffffffffffffffffffff1673ffffffffffffffffffffffffffffffffffffffff16639cb50c9f876040518263ffffffff1660e01b815260040161042a91906116fe565b5f60405180830381865afa158015610444573d5f803e3d5ffd5b505050506040513d5f823e3d601f19601f8201168201806040525081019061046c9190611a70565b90505f60025f9054906101000a900473ffffffffffffffffffffffffffffffffffffffff1673ffffffffffffffffffffffffffffffffffffffff166302289648876040518263ffffffff1660e01b81526004016104c991906116fe565b5f60405180830381865afa1580156104e3573d5f803e3d5ffd5b505050506040513d5f823e3d601f19601f8201168201806040525081019061050b9190611bc4565b90508160e00151610551576040517f08c379a000000000000000000000000000000000000000000000000000000000815260040161054890611c55565b60405180910390fd5b8160c001518160400151111561059c576040517f08c379a000000000000000000000000000000000000000000000000000000000815260040161059390611cbd565b60405180910390fd5b60648311156105e0576040517f08c379a00000000000000000000000000000000000000000000000000000000081526004016105d790611d4b565b60405180910390fd5b5f60065f8154809291906105f390611d96565b9190505590506040518061014001604052808281526020018981526020018881526020013373ffffffffffffffffffffffffffffffffffffffff168152602001846020015173ffffffffffffffffffffffffffffffffffffffff1681526020018781526020018681526020016064868961066d9190611ddd565b6106779190611e4b565b81526020018460a0015181526020015f6004811115610699576106986114cf565b5b81525060055f8381526020019081526020015f205f820151815f015560208201518160010155604082015181600201556060820151816003015f6101000a81548173ffffffffffffffffffffffffffffffffffffffff021916908373ffffffffffffffffffffffffffffffffffffffff1602179055506080820151816004015f6101000a81548173ffffffffffffffffffffffffffffffffffffffff021916908373ffffffffffffffffffffffffffffffffffffffff16021790555060a0820151816005015560c0820151816006015560e082015181600701556101008201518160080155610120820151816009015f6101000a81548160ff021916908360048111156107a9576107a86114cf565b5b0217905550905050807fa2b506aadcbab52e8566796854a53ff8336db2c831057fb9001242bf33abaa22888a896040516107e593929190611e7b565b60405180910390a25050505050505050565b60045f9054906101000a900473ffffffffffffffffffffffffffffffffffffffff1681565b610824611351565b5f60055f8381526020019081526020015f2090503373ffffffffffffffffffffffffffffffffffffffff16816003015f9054906101000a900473ffffffffffffffffffffffffffffffffffffffff1673ffffffffffffffffffffffffffffffffffffffff16146108c9576040517f08c379a00000000000000000000000000000000000000000000000000000000081526004016108c090611f20565b60405180910390fd5b5f60048111156108dc576108db6114cf565b5b816009015f9054906101000a900460ff1660048111156108ff576108fe6114cf565b5b148061093f57506001600481111561091a576109196114cf565b5b816009015f9054906101000a900460ff16600481111561093d5761093c6114cf565b5b145b61097e576040517f08c379a000000000000000000000000000000000000000000000000000000000815260040161097590611f88565b60405180910390fd5b60016004811115610992576109916114cf565b5b816009015f9054906101000a900460ff1660048111156109b5576109b46114cf565b5b03610b3d5760025f9054906101000a900473ffffffffffffffffffffffffffffffffffffffff1673ffffffffffffffffffffffffffffffffffffffff166323b872dd30836003015f9054906101000a900473ffffffffffffffffffffffffffffffffffffffff1684600201546040518463ffffffff1660e01b8152600401610a3f93929190611fa6565b5f604051808303815f87803b158015610a56575f80fd5b505af1158015610a68573d5f803e3d5ffd5b505050505f816003015f9054906101000a900473ffffffffffffffffffffffffffffffffffffffff1673ffffffffffffffffffffffffffffffffffffffff168260050154604051610ab890612008565b5f6040518083038185875af1925050503d805f8114610af2576040519150601f19603f3d011682016040523d82523d5f602084013e610af7565b606091505b5050905080610b3b576040517f08c379a0000000000000000000000000000000000000000000000000000000008152600401610b3290612066565b60405180910390fd5b505b6004816009015f6101000a81548160ff02191690836004811115610b6457610b636114cf565b5b0217905550817f6c369efdf73d335dd2773310e330a52db609150879cf9b2a1969b6eaf80b0e6260405160405180910390a250610b9f611395565b50565b60025f9054906101000a900473ffffffffffffffffffffffffffffffffffffffff1681565b60035f9054906101000a900473ffffffffffffffffffffffffffffffffffffffff1681565b610bf4611351565b5f60055f8381526020019081526020015f2090503373ffffffffffffffffffffffffffffffffffffffff16816004015f9054906101000a900473ffffffffffffffffffffffffffffffffffffffff1673ffffffffffffffffffffffffffffffffffffffff1614610c99576040517f08c379a0000000000000000000000000000000000000000000000000000000008152600401610c90906120ce565b60405180910390fd5b5f6004811115610cac57610cab6114cf565b5b816009015f9054906101000a900460ff166004811115610ccf57610cce6114cf565b5b14610d0f576040517f08c379a0000000000000000000000000000000000000000000000000000000008152600401610d0690612136565b60405180910390fd5b80600501543414610d55576040517f08c379a0000000000000000000000000000000000000000000000000000000008152600401610d4c906121c4565b60405180910390fd5b60025f9054906101000a900473ffffffffffffffffffffffffffffffffffffffff1673ffffffffffffffffffffffffffffffffffffffff166323b872dd826003015f9054906101000a900473ffffffffffffffffffffffffffffffffffffffff163084600201546040518463ffffffff1660e01b8152600401610dda93929190611fa6565b5f604051808303815f87803b158015610df1575f80fd5b505af1158015610e03573d5f803e3d5ffd5b505050505f60025f9054906101000a900473ffffffffffffffffffffffffffffffffffffffff1673ffffffffffffffffffffffffffffffffffffffff16630228964883600201546040518263ffffffff1660e01b8152600401610e6691906116fe565b5f60405180830381865afa158015610e80573d5f803e3d5ffd5b505050506040513d5f823e3d601f19601f82011682018060405250810190610ea89190611bc4565b905060035f9054906101000a900473ffffffffffffffffffffffffffffffffffffffff1673ffffffffffffffffffffffffffffffffffffffff166351dfa0cd836001015483604001516040518363ffffffff1660e01b8152600401610f0e9291906121e2565b5f604051808303815f87803b158015610f25575f80fd5b505af1158015610f37573d5f803e3d5ffd5b505050506001826009015f6101000a81548160ff02191690836004811115610f6257610f616114cf565b5b0217905550827fb332f632575bf05ac6ce9c120bc5cdd86f8330c8974dc6138385228b1b34112760405160405180910390a25050610f9e611395565b50565b610fa9611351565b5f60055f8381526020019081526020015f2090503373ffffffffffffffffffffffffffffffffffffffff16816004015f9054906101000a900473ffffffffffffffffffffffffffffffffffffffff1673ffffffffffffffffffffffffffffffffffffffff161461104e576040517f08c379a0000000000000000000000000000000000000000000000000000000008152600401611045906120ce565b60405180910390fd5b60016004811115611062576110616114cf565b5b816009015f9054906101000a900460ff166004811115611085576110846114cf565b5b14806110c55750600260048111156110a05761109f6114cf565b5b816009015f9054906101000a900460ff1660048111156110c3576110c26114cf565b5b145b611104576040517f08c379a00000000000000000000000000000000000000000000000000000000081526004016110fb90612253565b60405180910390fd5b5f816008015442111561114c575f8260080154426111229190612271565b90508260060154816111349190611ddd565b9150826007015482111561114a57826007015491505b505b5f81836005015461115d9190612271565b90506003836009015f6101000a81548160ff02191690836004811115611186576111856114cf565b5b021790555060025f9054906101000a900473ffffffffffffffffffffffffffffffffffffffff1673ffffffffffffffffffffffffffffffffffffffff166323b872dd30856003015f9054906101000a900473ffffffffffffffffffffffffffffffffffffffff1686600201546040518463ffffffff1660e01b815260040161121093929190611fa6565b5f604051808303815f87803b158015611227575f80fd5b505af1158015611239573d5f803e3d5ffd5b505050505f836004015f9054906101000a900473ffffffffffffffffffffffffffffffffffffffff1673ffffffffffffffffffffffffffffffffffffffff168260405161128590612008565b5f6040518083038185875af1925050503d805f81146112bf576040519150601f19603f3d011682016040523d82523d5f602084013e6112c4565b606091505b5050905080611308576040517f08c379a00000000000000000000000000000000000000000000000000000000081526004016112ff906122ee565b60405180910390fd5b847f66abd79e66ff2a48fc2cf962627588ac4bfb40426393d48b87781f03a44ca7ec838560405161133a9291906121e2565b60405180910390a25050505061134e611395565b50565b60025f540361138c576040517f3ee5aeb500000000000000000000000000000000000000000000000000000000815260040160405180910390fd5b60025f81905550565b60015f81905550565b5f73ffffffffffffffffffffffffffffffffffffffff82169050919050565b5f819050919050565b5f6113e06113db6113d68461139e565b6113bd565b61139e565b9050919050565b5f6113f1826113c6565b9050919050565b5f611402826113e7565b9050919050565b611412816113f8565b82525050565b5f60208201905061142b5f830184611409565b92915050565b5f604051905090565b5f80fd5b5f80fd5b5f819050919050565b61145481611442565b811461145e575f80fd5b50565b5f8135905061146f8161144b565b92915050565b5f6020828403121561148a5761148961143a565b5b5f61149784828501611461565b91505092915050565b6114a981611442565b82525050565b5f6114b98261139e565b9050919050565b6114c9816114af565b82525050565b7f4e487b71000000000000000000000000000000000000000000000000000000005f52602160045260245ffd5b6005811061150d5761150c6114cf565b5b50565b5f81905061151d826114fc565b919050565b5f61152c82611510565b9050919050565b61153c81611522565b82525050565b5f610140820190506115565f83018d6114a0565b611563602083018c6114a0565b611570604083018b6114a0565b61157d606083018a6114c0565b61158a60808301896114c0565b61159760a08301886114a0565b6115a460c08301876114a0565b6115b160e08301866114a0565b6115bf6101008301856114a0565b6115cd610120830184611533565b9b9a5050505050505050505050565b5f805f805f60a086880312156115f5576115f461143a565b5b5f61160288828901611461565b955050602061161388828901611461565b945050604061162488828901611461565b935050606061163588828901611461565b925050608061164688828901611461565b9150509295509295909350565b5f61165d826113e7565b9050919050565b61166d81611653565b82525050565b5f6020820190506116865f830184611664565b92915050565b5f611696826113e7565b9050919050565b6116a68161168c565b82525050565b5f6020820190506116bf5f83018461169d565b92915050565b5f6116cf826113e7565b9050919050565b6116df816116c5565b82525050565b5f6020820190506116f85f8301846116d6565b92915050565b5f6020820190506117115f8301846114a0565b92915050565b611720816114af565b811461172a575f80fd5b50565b5f8151905061173b81611717565b92915050565b5f602082840312156117565761175561143a565b5b5f6117638482850161172d565b91505092915050565b5f82825260208201905092915050565b7f42524f4b45524147453a204e6f7420636172676f206f776e65720000000000005f82015250565b5f6117b0601a8361176c565b91506117bb8261177c565b602082019050919050565b5f6020820190508181035f8301526117dd816117a4565b9050919050565b5f80fd5b5f601f19601f8301169050919050565b7f4e487b71000000000000000000000000000000000000000000000000000000005f52604160045260245ffd5b61182e826117e8565b810181811067ffffffffffffffff8211171561184d5761184c6117f8565b5b80604052505050565b5f61185f611431565b905061186b8282611825565b919050565b5f80fd5b5f815190506118828161144b565b92915050565b5f80fd5b5f80fd5b5f67ffffffffffffffff8211156118aa576118a96117f8565b5b6118b3826117e8565b9050602081019050919050565b8281835e5f83830152505050565b5f6118e06118db84611890565b611856565b9050828152602081018484840111156118fc576118fb61188c565b5b6119078482856118c0565b509392505050565b5f82601f83011261192357611922611888565b5b81516119338482602086016118ce565b91505092915050565b5f8115159050919050565b6119508161193c565b811461195a575f80fd5b50565b5f8151905061196b81611947565b92915050565b5f6101008284031215611987576119866117e4565b5b611992610100611856565b90505f6119a184828501611874565b5f8301525060206119b48482850161172d565b602083015250604082015167ffffffffffffffff8111156119d8576119d7611870565b5b6119e48482850161190f565b604083015250606082015167ffffffffffffffff811115611a0857611a07611870565b5b611a148482850161190f565b6060830152506080611a2884828501611874565b60808301525060a0611a3c84828501611874565b60a08301525060c0611a5084828501611874565b60c08301525060e0611a648482850161195d565b60e08301525092915050565b5f60208284031215611a8557611a8461143a565b5b5f82015167ffffffffffffffff811115611aa257611aa161143e565b5b611aae84828501611971565b91505092915050565b5f60c08284031215611acc57611acb6117e4565b5b611ad660c0611856565b90505f82015167ffffffffffffffff811115611af557611af4611870565b5b611b018482850161190f565b5f83015250602082015167ffffffffffffffff811115611b2457611b23611870565b5b611b308482850161190f565b6020830152506040611b4484828501611874565b6040830152506060611b5884828501611874565b606083015250608082015167ffffffffffffffff811115611b7c57611b7b611870565b5b611b888482850161190f565b60808301525060a082015167ffffffffffffffff811115611bac57611bab611870565b5b611bb88482850161190f565b60a08301525092915050565b5f60208284031215611bd957611bd861143a565b5b5f82015167ffffffffffffffff811115611bf657611bf561143e565b5b611c0284828501611ab7565b91505092915050565b7f42524f4b45524147453a204a6f75726e6579206e6f74206c69737465640000005f82015250565b5f611c3f601d8361176c565b9150611c4a82611c0b565b602082019050919050565b5f6020820190508181035f830152611c6c81611c33565b9050919050565b7f42524f4b45524147453a20496e73756666696369656e742063617061636974795f82015250565b5f611ca760208361176c565b9150611cb282611c73565b602082019050919050565b5f6020820190508181035f830152611cd481611c9b565b9050919050565b7f42524f4b45524147453a204d61782070656e616c74792063616e6e6f742065785f8201527f6365656420313030250000000000000000000000000000000000000000000000602082015250565b5f611d3560298361176c565b9150611d4082611cdb565b604082019050919050565b5f6020820190508181035f830152611d6281611d29565b9050919050565b7f4e487b71000000000000000000000000000000000000000000000000000000005f52601160045260245ffd5b5f611da082611442565b91507fffffffffffffffffffffffffffffffffffffffffffffffffffffffffffffffff8203611dd257611dd1611d69565b5b600182019050919050565b5f611de782611442565b9150611df283611442565b9250828202611e0081611442565b91508282048414831517611e1757611e16611d69565b5b5092915050565b7f4e487b71000000000000000000000000000000000000000000000000000000005f52601260045260245ffd5b5f611e5582611442565b9150611e6083611442565b925082611e7057611e6f611e1e565b5b828204905092915050565b5f606082019050611e8e5f8301866114a0565b611e9b60208301856114a0565b611ea860408301846114a0565b949350505050565b7f42524f4b45524147453a204f6e6c7920736869707065722063616e2063616e635f8201527f656c000000000000000000000000000000000000000000000000000000000000602082015250565b5f611f0a60228361176c565b9150611f1582611eb0565b604082019050919050565b5f6020820190508181035f830152611f3781611efe565b9050919050565b7f42524f4b45524147453a2043616e6e6f742063616e63656c206e6f77000000005f82015250565b5f611f72601c8361176c565b9150611f7d82611f3e565b602082019050919050565b5f6020820190508181035f830152611f9f81611f66565b9050919050565b5f606082019050611fb95f8301866114c0565b611fc660208301856114c0565b611fd360408301846114a0565b949350505050565b5f81905092915050565b50565b5f611ff35f83611fdb565b9150611ffe82611fe5565b5f82019050919050565b5f61201282611fe8565b9150819050919050565b7f42524f4b45524147453a20526566756e64206661696c656400000000000000005f82015250565b5f61205060188361176c565b915061205b8261201c565b602082019050919050565b5f6020820190508181035f83015261207d81612044565b9050919050565b7f42524f4b45524147453a204e6f742076657373656c206f776e657200000000005f82015250565b5f6120b8601b8361176c565b91506120c382612084565b602082019050919050565b5f6020820190508181035f8301526120e5816120ac565b9050919050565b7f42524f4b45524147453a204e6f742070726f706f7365640000000000000000005f82015250565b5f61212060178361176c565b915061212b826120ec565b602082019050919050565b5f6020820190508181035f83015261214d81612114565b9050919050565b7f42524f4b45524147453a20496e636f7272656374207061796d656e7420616d6f5f8201527f756e740000000000000000000000000000000000000000000000000000000000602082015250565b5f6121ae60238361176c565b91506121b982612154565b604082019050919050565b5f6020820190508181035f8301526121db816121a2565b9050919050565b5f6040820190506121f55f8301856114a0565b61220260208301846114a0565b9392505050565b7f42524f4b45524147453a204e6f7420696e2070726f67726573730000000000005f82015250565b5f61223d601a8361176c565b915061224882612209565b602082019050919050565b5f6020820190508181035f83015261226a81612231565b9050919050565b5f61227b82611442565b915061228683611442565b925082820390508181111561229e5761229d611d69565b5b92915050565b7f42524f4b45524147453a205061796d656e74206661696c6564000000000000005f82015250565b5f6122d860198361176c565b91506122e3826122a4565b602082019050919050565b5f6020820190508181035f830152612305816122cc565b905091905056fea2646970667358221220994ba17830476844111726ce751d2e4f157523db88c6f07e26e9354306ecc3c464736f6c634300081a0033","linkReferences":{}},"methodIdentifiers":{"acceptAndPayForShipment(uint256)":"d81f84db","cancelShipment(uint256)":"7faa7bc7","cargoNFT()":"83e11489","completeShipment(uint256)":"f15456b5","insurancePolicyNFT()":"798a1c40","journeyNFT()":"b321d4af","proposeShipment(uint256,uint256,uint256,uint256,uint256)":"554296e0","shipments(uint256)":"2ac08a93","vesselNFT()":"1e92351c"},"id":28}