{
  "abi": [
    {
      "type": "constructor",
      "inputs": [
        {
          "name": "_vesselNFT",
          "type": "address",
          "internalType": "address"
        },
        {
          "name": "_cargoNFT",
          "type": "address",
          "internalType": "address"
        },
        {
          "name": "_journeyManager",
          "type": "address",
          "internalType": "address"
        },
        {
          "name": "_insuranceManager",
          "type": "address",
          "internalType": "address"
        }
      ],
      "stateMutability": "nonpayable"
    },
    {
      "type": "function",
      "name": "acceptShipment",
      "inputs": [
        {
          "name": "_shipmentId",
          "type": "uint256",
          "internalType": "uint256"
        }
      ],
      "outputs": [],
      "stateMutability": "nonpayable"
    },
    {
      "type": "function",
      "name": "cancelShipment",
      "inputs": [
        {
          "name": "_shipmentId",
          "type": "uint256",
          "internalType": "uint256"
        }
      ],
      "outputs": [],
      "stateMutability": "nonpayable"
    },
    {
      "type": "function",
      "name": "cargoNFT",
      "inputs": [],
      "outputs": [
        {
          "name": "",
          "type": "address",
          "internalType": "contract CargoNFT"
        }
      ],
      "stateMutability": "view"
    },
    {
      "type": "function",
      "name": "completeShipment",
      "inputs": [
        {
          "name": "_shipmentId",
          "type": "uint256",
          "internalType": "uint256"
        }
      ],
      "outputs": [],
      "stateMutability": "nonpayable"
    },
    {
      "type": "function",
      "name": "insuranceManager",
      "inputs": [],
      "outputs": [
        {
          "name": "",
          "type": "address",
          "internalType": "contract InsuranceManager"
        }
      ],
      "stateMutability": "view"
    },
    {
      "type": "function",
      "name": "journeyManager",
      "inputs": [],
      "outputs": [
        {
          "name": "",
          "type": "address",
          "internalType": "contract JourneyManager"
        }
      ],
      "stateMutability": "view"
    },
    {
      "type": "function",
      "name": "proposeShipment",
      "inputs": [
        {
          "name": "_journeyId",
          "type": "uint256",
          "internalType": "uint256"
        },
        {
          "name": "_cargoTokenId",
          "type": "uint256",
          "internalType": "uint256"
        },
        {
          "name": "_price",
          "type": "uint256",
          "internalType": "uint256"
        }
      ],
      "outputs": [],
      "stateMutability": "nonpayable"
    },
    {
      "type": "function",
      "name": "shipments",
      "inputs": [
        {
          "name": "",
          "type": "uint256",
          "internalType": "uint256"
        }
      ],
      "outputs": [
        {
          "name": "shipmentId",
          "type": "uint256",
          "internalType": "uint256"
        },
        {
          "name": "journeyId",
          "type": "uint256",
          "internalType": "uint256"
        },
        {
          "name": "cargoTokenId",
          "type": "uint256",
          "internalType": "uint256"
        },
        {
          "name": "shipper",
          "type": "address",
          "internalType": "address"
        },
        {
          "name": "vesselOwner",
          "type": "address",
          "internalType": "address"
        },
        {
          "name": "price",
          "type": "uint256",
          "internalType": "uint256"
        },
        {
          "name": "status",
          "type": "uint8",
          "internalType": "enum Brokerage.ShipmentStatus"
        }
      ],
      "stateMutability": "view"
    },
    {
      "type": "function",
      "name": "vesselNFT",
      "inputs": [],
      "outputs": [
        {
          "name": "",
          "type": "address",
          "internalType": "contract VesselNFT"
        }
      ],
      "stateMutability": "view"
    },
    {
      "type": "event",
      "name": "ShipmentProposed",
      "inputs": [
        {
          "name": "shipmentId",
          "type": "uint256",
          "indexed": true,
          "internalType": "uint256"
        },
        {
          "name": "cargoTokenId",
          "type": "uint256",
          "indexed": false,
          "internalType": "uint256"
        },
        {
          "name": "journeyId",
          "type": "uint256",
          "indexed": false,
          "internalType": "uint256"
        }
      ],
      "anonymous": false
    },
    {
      "type": "event",
      "name": "ShipmentStatusChanged",
      "inputs": [
        {
          "name": "shipmentId",
          "type": "uint256",
          "indexed": true,
          "internalType": "uint256"
        },
        {
          "name": "newStatus",
          "type": "uint8",
          "indexed": false,
          "internalType": "enum Brokerage.ShipmentStatus"
        }
      ],
      "anonymous": false
    }
  ],
  "bytecode": {
    "object": "0x608060405234801561000f575f80fd5b506040516124a23803806124a283398181016040528101906100319190610197565b835f806101000a81548173ffffffffffffffffffffffffffffffffffffffff021916908373ffffffffffffffffffffffffffffffffffffffff1602179055508260015f6101000a81548173ffffffffffffffffffffffffffffffffffffffff021916908373ffffffffffffffffffffffffffffffffffffffff1602179055508160025f6101000a81548173ffffffffffffffffffffffffffffffffffffffff021916908373ffffffffffffffffffffffffffffffffffffffff1602179055508060035f6101000a81548173ffffffffffffffffffffffffffffffffffffffff021916908373ffffffffffffffffffffffffffffffffffffffff160217905550505050506101fb565b5f80fd5b5f73ffffffffffffffffffffffffffffffffffffffff82169050919050565b5f6101668261013d565b9050919050565b6101768161015c565b8114610180575f80fd5b50565b5f815190506101918161016d565b92915050565b5f805f80608085870312156101af576101ae610139565b5b5f6101bc87828801610183565b94505060206101cd87828801610183565b93505060406101de87828801610183565b92505060606101ef87828801610183565b91505092959194509250565b61229a806102085f395ff3fe608060405234801561000f575f80fd5b5060043610610091575f3560e01c8063f15456b511610064578063f15456b514610123578063f32ea0b51461013f578063f3523fa41461015b578063f7e194b814610179578063f9ed54b51461019557610091565b80631e92351c146100955780632ac08a93146100b35780637faa7bc7146100e957806383e1148914610105575b5f80fd5b61009d6101b3565b6040516100aa91906113d2565b60405180910390f35b6100cd60048036038101906100c8919061142f565b6101d6565b6040516100e097969594939291906114fc565b60405180910390f35b61010360048036038101906100fe919061142f565b61025e565b005b61010d610569565b60405161011a9190611589565b60405180910390f35b61013d6004803603810190610138919061142f565b61058e565b005b610159600480360381019061015491906115a2565b61085d565b005b610163610fa3565b6040516101709190611612565b60405180910390f35b610193600480360381019061018e919061142f565b610fc8565b005b61019d611333565b6040516101aa919061164b565b60405180910390f35b5f8054906101000a900473ffffffffffffffffffffffffffffffffffffffff1681565b6004602052805f5260405f205f91509050805f015490806001015490806002015490806003015f9054906101000a900473ffffffffffffffffffffffffffffffffffffffff1690806004015f9054906101000a900473ffffffffffffffffffffffffffffffffffffffff1690806005015490806006015f9054906101000a900460ff16905087565b5f60045f8381526020019081526020015f2090503373ffffffffffffffffffffffffffffffffffffffff16816003015f9054906101000a900473ffffffffffffffffffffffffffffffffffffffff1673ffffffffffffffffffffffffffffffffffffffff16148061031d57503373ffffffffffffffffffffffffffffffffffffffff16816004015f9054906101000a900473ffffffffffffffffffffffffffffffffffffffff1673ffffffffffffffffffffffffffffffffffffffff16145b61035c576040517f08c379a0000000000000000000000000000000000000000000000000000000008152600401610353906116be565b60405180910390fd5b5f600481111561036f5761036e611489565b5b816006015f9054906101000a900460ff16600481111561039257610391611489565b5b14806103d25750600160048111156103ad576103ac611489565b5b816006015f9054906101000a900460ff1660048111156103d0576103cf611489565b5b145b610411576040517f08c379a000000000000000000000000000000000000000000000000000000000815260040161040890611726565b60405180910390fd5b6001600481111561042557610424611489565b5b816006015f9054906101000a900460ff16600481111561044857610447611489565b5b036105005760015f9054906101000a900473ffffffffffffffffffffffffffffffffffffffff1673ffffffffffffffffffffffffffffffffffffffff166323b872dd30836003015f9054906101000a900473ffffffffffffffffffffffffffffffffffffffff1684600201546040518463ffffffff1660e01b81526004016104d293929190611744565b5f604051808303815f87803b1580156104e9575f80fd5b505af11580156104fb573d5f803e3d5ffd5b505050505b6004816006015f6101000a81548160ff0219169083600481111561052757610526611489565b5b0217905550817f7c1c93f72f29b8a1fc6fc85eed990d133b1ffac80c962b521abb12f38f2ff9af600460405161055d9190611779565b60405180910390a25050565b60015f9054906101000a900473ffffffffffffffffffffffffffffffffffffffff1681565b5f60045f8381526020019081526020015f2090503373ffffffffffffffffffffffffffffffffffffffff16816003015f9054906101000a900473ffffffffffffffffffffffffffffffffffffffff1673ffffffffffffffffffffffffffffffffffffffff16148061064d57503373ffffffffffffffffffffffffffffffffffffffff16816004015f9054906101000a900473ffffffffffffffffffffffffffffffffffffffff1673ffffffffffffffffffffffffffffffffffffffff16145b61068c576040517f08c379a000000000000000000000000000000000000000000000000000000000815260040161068390611802565b60405180910390fd5b600160048111156106a05761069f611489565b5b816006015f9054906101000a900460ff1660048111156106c3576106c2611489565b5b14806107035750600260048111156106de576106dd611489565b5b816006015f9054906101000a900460ff16600481111561070157610700611489565b5b145b610742576040517f08c379a000000000000000000000000000000000000000000000000000000000815260040161073990611890565b60405180910390fd5b60015f9054906101000a900473ffffffffffffffffffffffffffffffffffffffff1673ffffffffffffffffffffffffffffffffffffffff166323b872dd30836003015f9054906101000a900473ffffffffffffffffffffffffffffffffffffffff1684600201546040518463ffffffff1660e01b81526004016107c793929190611744565b5f604051808303815f87803b1580156107de575f80fd5b505af11580156107f0573d5f803e3d5ffd5b505050506003816006015f6101000a81548160ff0219169083600481111561081b5761081a611489565b5b0217905550817f7c1c93f72f29b8a1fc6fc85eed990d133b1ffac80c962b521abb12f38f2ff9af60036040516108519190611779565b60405180910390a25050565b3373ffffffffffffffffffffffffffffffffffffffff1660015f9054906101000a900473ffffffffffffffffffffffffffffffffffffffff1673ffffffffffffffffffffffffffffffffffffffff16636352211e846040518263ffffffff1660e01b81526004016108ce91906118ae565b602060405180830381865afa1580156108e9573d5f803e3d5ffd5b505050506040513d601f19601f8201168201806040525081019061090d91906118f1565b73ffffffffffffffffffffffffffffffffffffffff1614610963576040517f08c379a000000000000000000000000000000000000000000000000000000000815260040161095a90611966565b60405180910390fd5b5f60015f9054906101000a900473ffffffffffffffffffffffffffffffffffffffff1673ffffffffffffffffffffffffffffffffffffffff166302289648846040518263ffffffff1660e01b81526004016109be91906118ae565b5f60405180830381865afa1580156109d8573d5f803e3d5ffd5b505050506040513d5f823e3d601f19601f82011682018060405250810190610a009190611ba5565b90505f60025f9054906101000a900473ffffffffffffffffffffffffffffffffffffffff1673ffffffffffffffffffffffffffffffffffffffff16639cb50c9f866040518263ffffffff1660e01b8152600401610a5d91906118ae565b5f60405180830381865afa158015610a77573d5f803e3d5ffd5b505050506040513d5f823e3d601f19601f82011682018060405250810190610a9f9190611d20565b90508060e00151610ae5576040517f08c379a0000000000000000000000000000000000000000000000000000000008152600401610adc90611db1565b60405180910390fd5b8060c0015182602001511115610b30576040517f08c379a0000000000000000000000000000000000000000000000000000000008152600401610b2790611e3f565b60405180910390fd5b8060600151604051602001610b459190611ea1565b604051602081830303815290604052805190602001208260400151604051602001610b709190611ea1565b60405160208183030381529060405280519060200120148015610be657508060800151604051602001610ba39190611ea1565b604051602081830303815290604052805190602001208260600151604051602001610bce9190611ea1565b60405160208183030381529060405280519060200120145b610c25576040517f08c379a0000000000000000000000000000000000000000000000000000000008152600401610c1c90611f01565b60405180910390fd5b60035f9054906101000a900473ffffffffffffffffffffffffffffffffffffffff1673ffffffffffffffffffffffffffffffffffffffff1663094815ef6001866040518363ffffffff1660e01b8152600401610c82929190611f65565b602060405180830381865afa158015610c9d573d5f803e3d5ffd5b505050506040513d601f19601f82011682018060405250810190610cc19190611f8c565b610d00576040517f08c379a0000000000000000000000000000000000000000000000000000000008152600401610cf790612027565b60405180910390fd5b60035f9054906101000a900473ffffffffffffffffffffffffffffffffffffffff1673ffffffffffffffffffffffffffffffffffffffff1663094815ef5f83602001516040518363ffffffff1660e01b8152600401610d60929190611f65565b602060405180830381865afa158015610d7b573d5f803e3d5ffd5b505050506040513d601f19601f82011682018060405250810190610d9f9190611f8c565b610dde576040517f08c379a0000000000000000000000000000000000000000000000000000000008152600401610dd5906120b5565b60405180910390fd5b5f60055f815480929190610df190612100565b9190505590506040518060e001604052808281526020018781526020018681526020013373ffffffffffffffffffffffffffffffffffffffff168152602001836040015173ffffffffffffffffffffffffffffffffffffffff1681526020018581526020015f6004811115610e6957610e68611489565b5b81525060045f8381526020019081526020015f205f820151815f015560208201518160010155604082015181600201556060820151816003015f6101000a81548173ffffffffffffffffffffffffffffffffffffffff021916908373ffffffffffffffffffffffffffffffffffffffff1602179055506080820151816004015f6101000a81548173ffffffffffffffffffffffffffffffffffffffff021916908373ffffffffffffffffffffffffffffffffffffffff16021790555060a0820151816005015560c0820151816006015f6101000a81548160ff02191690836004811115610f5957610f58611489565b5b0217905550905050807f106896b79454bb646f801583d47f25d8ceb3a2c3844e01ddc65674416c0938698688604051610f93929190612147565b60405180910390a2505050505050565b60035f9054906101000a900473ffffffffffffffffffffffffffffffffffffffff1681565b5f60045f8381526020019081526020015f2090503373ffffffffffffffffffffffffffffffffffffffff16816004015f9054906101000a900473ffffffffffffffffffffffffffffffffffffffff1673ffffffffffffffffffffffffffffffffffffffff161461106d576040517f08c379a0000000000000000000000000000000000000000000000000000000008152600401611064906121b8565b60405180910390fd5b5f60048111156110805761107f611489565b5b816006015f9054906101000a900460ff1660048111156110a3576110a2611489565b5b146110e3576040517f08c379a00000000000000000000000000000000000000000000000000000000081526004016110da90612246565b60405180910390fd5b60015f9054906101000a900473ffffffffffffffffffffffffffffffffffffffff1673ffffffffffffffffffffffffffffffffffffffff166323b872dd826003015f9054906101000a900473ffffffffffffffffffffffffffffffffffffffff163084600201546040518463ffffffff1660e01b815260040161116893929190611744565b5f604051808303815f87803b15801561117f575f80fd5b505af1158015611191573d5f803e3d5ffd5b505050505f60015f9054906101000a900473ffffffffffffffffffffffffffffffffffffffff1673ffffffffffffffffffffffffffffffffffffffff16630228964883600201546040518263ffffffff1660e01b81526004016111f491906118ae565b5f60405180830381865afa15801561120e573d5f803e3d5ffd5b505050506040513d5f823e3d601f19601f820116820180604052508101906112369190611ba5565b905060025f9054906101000a900473ffffffffffffffffffffffffffffffffffffffff1673ffffffffffffffffffffffffffffffffffffffff166351dfa0cd836001015483602001516040518363ffffffff1660e01b815260040161129c929190612147565b5f604051808303815f87803b1580156112b3575f80fd5b505af11580156112c5573d5f803e3d5ffd5b505050506001826006015f6101000a81548160ff021916908360048111156112f0576112ef611489565b5b0217905550827f7c1c93f72f29b8a1fc6fc85eed990d133b1ffac80c962b521abb12f38f2ff9af60016040516113269190611779565b60405180910390a2505050565b60025f9054906101000a900473ffffffffffffffffffffffffffffffffffffffff1681565b5f73ffffffffffffffffffffffffffffffffffffffff82169050919050565b5f819050919050565b5f61139a61139561139084611358565b611377565b611358565b9050919050565b5f6113ab82611380565b9050919050565b5f6113bc826113a1565b9050919050565b6113cc816113b2565b82525050565b5f6020820190506113e55f8301846113c3565b92915050565b5f604051905090565b5f80fd5b5f80fd5b5f819050919050565b61140e816113fc565b8114611418575f80fd5b50565b5f8135905061142981611405565b92915050565b5f60208284031215611444576114436113f4565b5b5f6114518482850161141b565b91505092915050565b611463816113fc565b82525050565b5f61147382611358565b9050919050565b61148381611469565b82525050565b7f4e487b71000000000000000000000000000000000000000000000000000000005f52602160045260245ffd5b600581106114c7576114c6611489565b5b50565b5f8190506114d7826114b6565b919050565b5f6114e6826114ca565b9050919050565b6114f6816114dc565b82525050565b5f60e08201905061150f5f83018a61145a565b61151c602083018961145a565b611529604083018861145a565b611536606083018761147a565b611543608083018661147a565b61155060a083018561145a565b61155d60c08301846114ed565b98975050505050505050565b5f611573826113a1565b9050919050565b61158381611569565b82525050565b5f60208201905061159c5f83018461157a565b92915050565b5f805f606084860312156115b9576115b86113f4565b5b5f6115c68682870161141b565b93505060206115d78682870161141b565b92505060406115e88682870161141b565b9150509250925092565b5f6115fc826113a1565b9050919050565b61160c816115f2565b82525050565b5f6020820190506116255f830184611603565b92915050565b5f611635826113a1565b9050919050565b6116458161162b565b82525050565b5f60208201905061165e5f83018461163c565b92915050565b5f82825260208201905092915050565b7f42524f4b45524147453a204e6f7420617574686f72697a65642e0000000000005f82015250565b5f6116a8601a83611664565b91506116b382611674565b602082019050919050565b5f6020820190508181035f8301526116d58161169c565b9050919050565b7f42524f4b45524147453a2043616e6e6f742063616e63656c206e6f772e0000005f82015250565b5f611710601d83611664565b915061171b826116dc565b602082019050919050565b5f6020820190508181035f83015261173d81611704565b9050919050565b5f6060820190506117575f83018661147a565b611764602083018561147a565b611771604083018461145a565b949350505050565b5f60208201905061178c5f8301846114ed565b92915050565b7f42524f4b45524147453a204e6f74206120706172747920746f207468652073685f8201527f69706d656e742e00000000000000000000000000000000000000000000000000602082015250565b5f6117ec602783611664565b91506117f782611792565b604082019050919050565b5f6020820190508181035f830152611819816117e0565b9050919050565b7f42524f4b45524147453a20536869706d656e74206e6f7420696e2070726f67725f8201527f6573732e00000000000000000000000000000000000000000000000000000000602082015250565b5f61187a602483611664565b915061188582611820565b604082019050919050565b5f6020820190508181035f8301526118a78161186e565b9050919050565b5f6020820190506118c15f83018461145a565b92915050565b6118d081611469565b81146118da575f80fd5b50565b5f815190506118eb816118c7565b92915050565b5f60208284031215611906576119056113f4565b5b5f611913848285016118dd565b91505092915050565b7f42524f4b45524147453a204e6f742074686520636172676f206f776e65722e005f82015250565b5f611950601f83611664565b915061195b8261191c565b602082019050919050565b5f6020820190508181035f83015261197d81611944565b9050919050565b5f80fd5b5f601f19601f8301169050919050565b7f4e487b71000000000000000000000000000000000000000000000000000000005f52604160045260245ffd5b6119ce82611988565b810181811067ffffffffffffffff821117156119ed576119ec611998565b5b80604052505050565b5f6119ff6113eb565b9050611a0b82826119c5565b919050565b5f80fd5b5f80fd5b5f80fd5b5f67ffffffffffffffff821115611a3657611a35611998565b5b611a3f82611988565b9050602081019050919050565b8281835e5f83830152505050565b5f611a6c611a6784611a1c565b6119f6565b905082815260208101848484011115611a8857611a87611a18565b5b611a93848285611a4c565b509392505050565b5f82601f830112611aaf57611aae611a14565b5b8151611abf848260208601611a5a565b91505092915050565b5f81519050611ad681611405565b92915050565b5f60808284031215611af157611af0611984565b5b611afb60806119f6565b90505f82015167ffffffffffffffff811115611b1a57611b19611a10565b5b611b2684828501611a9b565b5f830152506020611b3984828501611ac8565b602083015250604082015167ffffffffffffffff811115611b5d57611b5c611a10565b5b611b6984828501611a9b565b604083015250606082015167ffffffffffffffff811115611b8d57611b8c611a10565b5b611b9984828501611a9b565b60608301525092915050565b5f60208284031215611bba57611bb96113f4565b5b5f82015167ffffffffffffffff811115611bd757611bd66113f8565b5b611be384828501611adc565b91505092915050565b5f8115159050919050565b611c0081611bec565b8114611c0a575f80fd5b50565b5f81519050611c1b81611bf7565b92915050565b5f6101008284031215611c3757611c36611984565b5b611c426101006119f6565b90505f611c5184828501611ac8565b5f830152506020611c6484828501611ac8565b6020830152506040611c78848285016118dd565b604083015250606082015167ffffffffffffffff811115611c9c57611c9b611a10565b5b611ca884828501611a9b565b606083015250608082015167ffffffffffffffff811115611ccc57611ccb611a10565b5b611cd884828501611a9b565b60808301525060a0611cec84828501611ac8565b60a08301525060c0611d0084828501611ac8565b60c08301525060e0611d1484828501611c0d565b60e08301525092915050565b5f60208284031215611d3557611d346113f4565b5b5f82015167ffffffffffffffff811115611d5257611d516113f8565b5b611d5e84828501611c21565b91505092915050565b7f42524f4b45524147453a204a6f75726e6579206e6f74206c69737465642e00005f82015250565b5f611d9b601e83611664565b9150611da682611d67565b602082019050919050565b5f6020820190508181035f830152611dc881611d8f565b9050919050565b7f42524f4b45524147453a20496e73756666696369656e742063617061636974795f8201527f2e00000000000000000000000000000000000000000000000000000000000000602082015250565b5f611e29602183611664565b9150611e3482611dcf565b604082019050919050565b5f6020820190508181035f830152611e5681611e1d565b9050919050565b5f81519050919050565b5f81905092915050565b5f611e7b82611e5d565b611e858185611e67565b9350611e95818560208601611a4c565b80840191505092915050565b5f611eac8284611e71565b915081905092915050565b7f42524f4b45524147453a20506f727473206d757374206d617463682e000000005f82015250565b5f611eeb601c83611664565b9150611ef682611eb7565b602082019050919050565b5f6020820190508181035f830152611f1881611edf565b9050919050565b60028110611f3057611f2f611489565b5b50565b5f819050611f4082611f1f565b919050565b5f611f4f82611f33565b9050919050565b611f5f81611f45565b82525050565b5f604082019050611f785f830185611f56565b611f85602083018461145a565b9392505050565b5f60208284031215611fa157611fa06113f4565b5b5f611fae84828501611c0d565b91505092915050565b7f42524f4b45524147453a20436172676f206d75737420626520696e73757265645f8201527f2e00000000000000000000000000000000000000000000000000000000000000602082015250565b5f612011602183611664565b915061201c82611fb7565b604082019050919050565b5f6020820190508181035f83015261203e81612005565b9050919050565b7f42524f4b45524147453a2056657373656c206d75737420626520696e737572655f8201527f642e000000000000000000000000000000000000000000000000000000000000602082015250565b5f61209f602283611664565b91506120aa82612045565b604082019050919050565b5f6020820190508181035f8301526120cc81612093565b9050919050565b7f4e487b71000000000000000000000000000000000000000000000000000000005f52601160045260245ffd5b5f61210a826113fc565b91507fffffffffffffffffffffffffffffffffffffffffffffffffffffffffffffffff820361213c5761213b6120d3565b5b600182019050919050565b5f60408201905061215a5f83018561145a565b612167602083018461145a565b9392505050565b7f42524f4b45524147453a204e6f74207468652076657373656c206f776e65722e5f82015250565b5f6121a2602083611664565b91506121ad8261216e565b602082019050919050565b5f6020820190508181035f8301526121cf81612196565b9050919050565b7f42524f4b45524147453a20536869706d656e74206e6f742070726f706f7365645f8201527f2e00000000000000000000000000000000000000000000000000000000000000602082015250565b5f612230602183611664565b915061223b826121d6565b604082019050919050565b5f6020820190508181035f83015261225d81612224565b905091905056fea2646970667358221220c248ebb25384adbd6a2d7047aa80387da6364352cd39109d598b810aca9f4e9864736f6c634300081a0033",
    "linkReferences": {}
  },
  "methodIdentifiers": {
    "acceptShipment(uint256)": "f7e194b8",
    "cancelShipment(uint256)": "7faa7bc7",
    "cargoNFT()": "83e11489",
    "completeShipment(uint256)": "f15456b5",
    "insuranceManager()": "f3523fa4",
    "journeyManager()": "f9ed54b5",
    "proposeShipment(uint256,uint256,uint256)": "f32ea0b5",
    "shipments(uint256)": "2ac08a93",
    "vesselNFT()": "1e92351c"
  },
  "id": 11
}