{
  "abi": [
    {
      "type": "constructor",
      "inputs": [],
      "stateMutability": "nonpayable"
    },
    {
      "type": "function",
      "name": "approve",
      "inputs": [
        {
          "name": "to",
          "type": "address",
          "internalType": "address"
        },
        {
          "name": "tokenId",
          "type": "uint256",
          "internalType": "uint256"
        }
      ],
      "outputs": [],
      "stateMutability": "nonpayable"
    },
    {
      "type": "function",
      "name": "balanceOf",
      "inputs": [
        {
          "name": "owner",
          "type": "address",
          "internalType": "address"
        }
      ],
      "outputs": [
        {
          "name": "",
          "type": "uint256",
          "internalType": "uint256"
        }
      ],
      "stateMutability": "view"
    },
    {
      "type": "function",
      "name": "cargoDetails",
      "inputs": [
        {
          "name": "",
          "type": "uint256",
          "internalType": "uint256"
        }
      ],
      "outputs": [
        {
          "name": "description",
          "type": "string",
          "internalType": "string"
        },
        {
          "name": "weight",
          "type": "uint256",
          "internalType": "uint256"
        },
        {
          "name": "originPort",
          "type": "string",
          "internalType": "string"
        },
        {
          "name": "destinationPort",
          "type": "string",
          "internalType": "string"
        }
      ],
      "stateMutability": "view"
    },
    {
      "type": "function",
      "name": "getApproved",
      "inputs": [
        {
          "name": "tokenId",
          "type": "uint256",
          "internalType": "uint256"
        }
      ],
      "outputs": [
        {
          "name": "",
          "type": "address",
          "internalType": "address"
        }
      ],
      "stateMutability": "view"
    },
    {
      "type": "function",
      "name": "getCargoDetails",
      "inputs": [
        {
          "name": "tokenId",
          "type": "uint256",
          "internalType": "uint256"
        }
      ],
      "outputs": [
        {
          "name": "",
          "type": "tuple",
          "internalType": "struct CargoNFT.CargoDetails",
          "components": [
            {
              "name": "description",
              "type": "string",
              "internalType": "string"
            },
            {
              "name": "weight",
              "type": "uint256",
              "internalType": "uint256"
            },
            {
              "name": "originPort",
              "type": "string",
              "internalType": "string"
            },
            {
              "name": "destinationPort",
              "type": "string",
              "internalType": "string"
            }
          ]
        }
      ],
      "stateMutability": "view"
    },
    {
      "type": "function",
      "name": "isApprovedForAll",
      "inputs": [
        {
          "name": "owner",
          "type": "address",
          "internalType": "address"
        },
        {
          "name": "operator",
          "type": "address",
          "internalType": "address"
        }
      ],
      "outputs": [
        {
          "name": "",
          "type": "bool",
          "internalType": "bool"
        }
      ],
      "stateMutability": "view"
    },
    {
      "type": "function",
      "name": "mintCargo",
      "inputs": [
        {
          "name": "shipper",
          "type": "address",
          "internalType": "address"
        },
        {
          "name": "description",
          "type": "string",
          "internalType": "string"
        },
        {
          "name": "weight",
          "type": "uint256",
          "internalType": "uint256"
        },
        {
          "name": "originPort",
          "type": "string",
          "internalType": "string"
        },
        {
          "name": "destinationPort",
          "type": "string",
          "internalType": "string"
        }
      ],
      "outputs": [],
      "stateMutability": "nonpayable"
    },
    {
      "type": "function",
      "name": "name",
      "inputs": [],
      "outputs": [
        {
          "name": "",
          "type": "string",
          "internalType": "string"
        }
      ],
      "stateMutability": "view"
    },
    {
      "type": "function",
      "name": "ownerOf",
      "inputs": [
        {
          "name": "tokenId",
          "type": "uint256",
          "internalType": "uint256"
        }
      ],
      "outputs": [
        {
          "name": "",
          "type": "address",
          "internalType": "address"
        }
      ],
      "stateMutability": "view"
    },
    {
      "type": "function",
      "name": "safeTransferFrom",
      "inputs": [
        {
          "name": "from",
          "type": "address",
          "internalType": "address"
        },
        {
          "name": "to",
          "type": "address",
          "internalType": "address"
        },
        {
          "name": "tokenId",
          "type": "uint256",
          "internalType": "uint256"
        }
      ],
      "outputs": [],
      "stateMutability": "nonpayable"
    },
    {
      "type": "function",
      "name": "safeTransferFrom",
      "inputs": [
        {
          "name": "from",
          "type": "address",
          "internalType": "address"
        },
        {
          "name": "to",
          "type": "address",
          "internalType": "address"
        },
        {
          "name": "tokenId",
          "type": "uint256",
          "internalType": "uint256"
        },
        {
          "name": "data",
          "type": "bytes",
          "internalType": "bytes"
        }
      ],
      "outputs": [],
      "stateMutability": "nonpayable"
    },
    {
      "type": "function",
      "name": "setApprovalForAll",
      "inputs": [
        {
          "name": "operator",
          "type": "address",
          "internalType": "address"
        },
        {
          "name": "approved",
          "type": "bool",
          "internalType": "bool"
        }
      ],
      "outputs": [],
      "stateMutability": "nonpayable"
    },
    {
      "type": "function",
      "name": "supportsInterface",
      "inputs": [
        {
          "name": "interfaceId",
          "type": "bytes4",
          "internalType": "bytes4"
        }
      ],
      "outputs": [
        {
          "name": "",
          "type": "bool",
          "internalType": "bool"
        }
      ],
      "stateMutability": "view"
    },
    {
      "type": "function",
      "name": "symbol",
      "inputs": [],
      "outputs": [
        {
          "name": "",
          "type": "string",
          "internalType": "string"
        }
      ],
      "stateMutability": "view"
    },
    {
      "type": "function",
      "name": "tokenURI",
      "inputs": [
        {
          "name": "tokenId",
          "type": "uint256",
          "internalType": "uint256"
        }
      ],
      "outputs": [
        {
          "name": "",
          "type": "string",
          "internalType": "string"
        }
      ],
      "stateMutability": "view"
    },
    {
      "type": "function",
      "name": "transferFrom",
      "inputs": [
        {
          "name": "from",
          "type": "address",
          "internalType": "address"
        },
        {
          "name": "to",
          "type": "address",
          "internalType": "address"
        },
        {
          "name": "tokenId",
          "type": "uint256",
          "internalType": "uint256"
        }
      ],
      "outputs": [],
      "stateMutability": "nonpayable"
    },
    {
      "type": "event",
      "name": "Approval",
      "inputs": [
        {
          "name": "owner",
          "type": "address",
          "indexed": true,
          "internalType": "address"
        },
        {
          "name": "approved",
          "type": "address",
          "indexed": true,
          "internalType": "address"
        },
        {
          "name": "tokenId",
          "type": "uint256",
          "indexed": true,
          "internalType": "uint256"
        }
      ],
      "anonymous": false
    },
    {
      "type": "event",
      "name": "ApprovalForAll",
      "inputs": [
        {
          "name": "owner",
          "type": "address",
          "indexed": true,
          "internalType": "address"
        },
        {
          "name": "operator",
          "type": "address",
          "indexed": true,
          "internalType": "address"
        },
        {
          "name": "approved",
          "type": "bool",
          "indexed": false,
          "internalType": "bool"
        }
      ],
      "anonymous": false
    },
    {
      "type": "event",
      "name": "CargoMinted",
      "inputs": [
        {
          "name": "tokenId",
          "type": "uint256",
          "indexed": true,
          "internalType": "uint256"
        },
        {
          "name": "shipper",
          "type": "address",
          "indexed": true,
          "internalType": "address"
        },
        {
          "name": "weight",
          "type": "uint256",
          "indexed": false,
          "internalType": "uint256"
        }
      ],
      "anonymous": false
    },
    {
      "type": "event",
      "name": "Transfer",
      "inputs": [
        {
          "name": "from",
          "type": "address",
          "indexed": true,
          "internalType": "address"
        },
        {
          "name": "to",
          "type": "address",
          "indexed": true,
          "internalType": "address"
        },
        {
          "name": "tokenId",
          "type": "uint256",
          "indexed": true,
          "internalType": "uint256"
        }
      ],
      "anonymous": false
    },
    {
      "type": "error",
      "name": "ERC721IncorrectOwner",
      "inputs": [
        {
          "name": "sender",
          "type": "address",
          "internalType": "address"
        },
        {
          "name": "tokenId",
          "type": "uint256",
          "internalType": "uint256"
        },
        {
          "name": "owner",
          "type": "address",
          "internalType": "address"
        }
      ]
    },
    {
      "type": "error",
      "name": "ERC721InsufficientApproval",
      "inputs": [
        {
          "name": "operator",
          "type": "address",
          "internalType": "address"
        },
        {
          "name": "tokenId",
          "type": "uint256",
          "internalType": "uint256"
        }
      ]
    },
    {
      "type": "error",
      "name": "ERC721InvalidApprover",
      "inputs": [
        {
          "name": "approver",
          "type": "address",
          "internalType": "address"
        }
      ]
    },
    {
      "type": "error",
      "name": "ERC721InvalidOperator",
      "inputs": [
        {
          "name": "operator",
          "type": "address",
          "internalType": "address"
        }
      ]
    },
    {
      "type": "error",
      "name": "ERC721InvalidOwner",
      "inputs": [
        {
          "name": "owner",
          "type": "address",
          "internalType": "address"
        }
      ]
    },
    {
      "type": "error",
      "name": "ERC721InvalidReceiver",
      "inputs": [
        {
          "name": "receiver",
          "type": "address",
          "internalType": "address"
        }
      ]
    },
    {
      "type": "error",
      "name": "ERC721InvalidSender",
      "inputs": [
        {
          "name": "sender",
          "type": "address",
          "internalType": "address"
        }
      ]
    },
    {
      "type": "error",
      "name": "ERC721NonexistentToken",
      "inputs": [
        {
          "name": "tokenId",
          "type": "uint256",
          "internalType": "uint256"
        }
      ]
    }
  ],
  "bytecode": {
    "object": "0x608060405234801561000f575f80fd5b506040518060400160405280601281526020017f5368697042726f6b6572616765436172676f00000000000000000000000000008152506040518060400160405280600381526020017f5342430000000000000000000000000000000000000000000000000000000000815250815f908161008a91906102dc565b50806001908161009a91906102dc565b5050506103ab565b5f81519050919050565b7f4e487b71000000000000000000000000000000000000000000000000000000005f52604160045260245ffd5b7f4e487b71000000000000000000000000000000000000000000000000000000005f52602260045260245ffd5b5f600282049050600182168061011d57607f821691505b6020821081036101305761012f6100d9565b5b50919050565b5f819050815f5260205f209050919050565b5f6020601f8301049050919050565b5f82821b905092915050565b5f600883026101927fffffffffffffffffffffffffffffffffffffffffffffffffffffffffffffffff82610157565b61019c8683610157565b95508019841693508086168417925050509392505050565b5f819050919050565b5f819050919050565b5f6101e06101db6101d6846101b4565b6101bd565b6101b4565b9050919050565b5f819050919050565b6101f9836101c6565b61020d610205826101e7565b848454610163565b825550505050565b5f90565b610221610215565b61022c8184846101f0565b505050565b5b8181101561024f576102445f82610219565b600181019050610232565b5050565b601f8211156102945761026581610136565b61026e84610148565b8101602085101561027d578190505b61029161028985610148565b830182610231565b50505b505050565b5f82821c905092915050565b5f6102b45f1984600802610299565b1980831691505092915050565b5f6102cc83836102a5565b9150826002028217905092915050565b6102e5826100a2565b67ffffffffffffffff8111156102fe576102fd6100ac565b5b6103088254610106565b610313828285610253565b5f60209050601f831160018114610344575f8415610332578287015190505b61033c85826102c1565b8655506103a3565b601f19841661035286610136565b5f5b8281101561037957848901518255600182019150602085019450602081019050610354565b868310156103965784890151610392601f8916826102a5565b8355505b6001600288020188555050505b505050505050565b612882806103b85f395ff3fe608060405234801561000f575f80fd5b50600436106100fe575f3560e01c80636352211e11610095578063b88d4fde11610064578063b88d4fde146102d1578063c228c88f146102ed578063c87b56dd14610309578063e985e9c514610339576100fe565b80636352211e1461023757806370a082311461026757806395d89b4114610297578063a22cb465146102b5576100fe565b8063095ea7b3116100d1578063095ea7b3146101b057806323b872dd146101cc578063342ce91b146101e857806342842e0e1461021b576100fe565b806301ffc9a714610102578063022896481461013257806306fdde0314610162578063081812fc14610180575b5f80fd5b61011c60048036038101906101179190611bdc565b610369565b6040516101299190611c21565b60405180910390f35b61014c60048036038101906101479190611c6d565b61044a565b6040516101599190611d85565b60405180910390f35b61016a61062e565b6040516101779190611ded565b60405180910390f35b61019a60048036038101906101959190611c6d565b6106bd565b6040516101a79190611e4c565b60405180910390f35b6101ca60048036038101906101c59190611e8f565b6106d8565b005b6101e660048036038101906101e19190611ecd565b6106ee565b005b61020260048036038101906101fd9190611c6d565b6107ed565b6040516102129493929190611f2c565b60405180910390f35b61023560048036038101906102309190611ecd565b6109ab565b005b610251600480360381019061024c9190611c6d565b6109ca565b60405161025e9190611e4c565b60405180910390f35b610281600480360381019061027c9190611f84565b6109db565b60405161028e9190611faf565b60405180910390f35b61029f610a91565b6040516102ac9190611ded565b60405180910390f35b6102cf60048036038101906102ca9190611ff2565b610b21565b005b6102eb60048036038101906102e6919061215c565b610b37565b005b61030760048036038101906103029190612239565b610b54565b005b610323600480360381019061031e9190611c6d565b610d1d565b6040516103309190611ded565b60405180910390f35b610353600480360381019061034e9190612310565b610d83565b6040516103609190611c21565b60405180910390f35b5f7f80ac58cd000000000000000000000000000000000000000000000000000000007bffffffffffffffffffffffffffffffffffffffffffffffffffffffff1916827bffffffffffffffffffffffffffffffffffffffffffffffffffffffff1916148061043357507f5b5e139f000000000000000000000000000000000000000000000000000000007bffffffffffffffffffffffffffffffffffffffffffffffffffffffff1916827bffffffffffffffffffffffffffffffffffffffffffffffffffffffff1916145b80610443575061044282610e11565b5b9050919050565b610452611b4f565b60075f8381526020019081526020015f206040518060800160405290815f8201805461047d9061237b565b80601f01602080910402602001604051908101604052809291908181526020018280546104a99061237b565b80156104f45780601f106104cb576101008083540402835291602001916104f4565b820191905f5260205f20905b8154815290600101906020018083116104d757829003601f168201915b50505050508152602001600182015481526020016002820180546105179061237b565b80601f01602080910402602001604051908101604052809291908181526020018280546105439061237b565b801561058e5780601f106105655761010080835404028352916020019161058e565b820191905f5260205f20905b81548152906001019060200180831161057157829003601f168201915b505050505081526020016003820180546105a79061237b565b80601f01602080910402602001604051908101604052809291908181526020018280546105d39061237b565b801561061e5780601f106105f55761010080835404028352916020019161061e565b820191905f5260205f20905b81548152906001019060200180831161060157829003601f168201915b5050505050815250509050919050565b60605f805461063c9061237b565b80601f01602080910402602001604051908101604052809291908181526020018280546106689061237b565b80156106b35780601f1061068a576101008083540402835291602001916106b3565b820191905f5260205f20905b81548152906001019060200180831161069657829003601f168201915b5050505050905090565b5f6106c782610e7a565b506106d182610f00565b9050919050565b6106ea82826106e5610f39565b610f40565b5050565b5f73ffffffffffffffffffffffffffffffffffffffff168273ffffffffffffffffffffffffffffffffffffffff160361075e575f6040517f64a0ae920000000000000000000000000000000000000000000000000000000081526004016107559190611e4c565b60405180910390fd5b5f610771838361076c610f39565b610f52565b90508373ffffffffffffffffffffffffffffffffffffffff168173ffffffffffffffffffffffffffffffffffffffff16146107e7578382826040517f64283d7b0000000000000000000000000000000000000000000000000000000081526004016107de939291906123ab565b60405180910390fd5b50505050565b6007602052805f5260405f205f91509050805f01805461080c9061237b565b80601f01602080910402602001604051908101604052809291908181526020018280546108389061237b565b80156108835780601f1061085a57610100808354040283529160200191610883565b820191905f5260205f20905b81548152906001019060200180831161086657829003601f168201915b50505050509080600101549080600201805461089e9061237b565b80601f01602080910402602001604051908101604052809291908181526020018280546108ca9061237b565b80156109155780601f106108ec57610100808354040283529160200191610915565b820191905f5260205f20905b8154815290600101906020018083116108f857829003601f168201915b50505050509080600301805461092a9061237b565b80601f01602080910402602001604051908101604052809291908181526020018280546109569061237b565b80156109a15780601f10610978576101008083540402835291602001916109a1565b820191905f5260205f20905b81548152906001019060200180831161098457829003601f168201915b5050505050905084565b6109c583838360405180602001604052805f815250610b37565b505050565b5f6109d482610e7a565b9050919050565b5f8073ffffffffffffffffffffffffffffffffffffffff168273ffffffffffffffffffffffffffffffffffffffff1603610a4c575f6040517f89c62b64000000000000000000000000000000000000000000000000000000008152600401610a439190611e4c565b60405180910390fd5b60035f8373ffffffffffffffffffffffffffffffffffffffff1673ffffffffffffffffffffffffffffffffffffffff1681526020019081526020015f20549050919050565b606060018054610aa09061237b565b80601f0160208091040260200160405190810160405280929190818152602001828054610acc9061237b565b8015610b175780601f10610aee57610100808354040283529160200191610b17565b820191905f5260205f20905b815481529060010190602001808311610afa57829003601f168201915b5050505050905090565b610b33610b2c610f39565b838361115d565b5050565b610b428484846106ee565b610b4e848484846112c6565b50505050565b5f6006549050610b648982611478565b604051806080016040528089898080601f0160208091040260200160405190810160405280939291908181526020018383808284375f81840152601f19601f82011690508083019250505050505050815260200187815260200186868080601f0160208091040260200160405190810160405280939291908181526020018383808284375f81840152601f19601f82011690508083019250505050505050815260200184848080601f0160208091040260200160405190810160405280939291908181526020018383808284375f81840152601f19601f8201169050808301925050505050505081525060075f8381526020019081526020015f205f820151815f019081610c72919061257d565b50602082015181600101556040820151816002019081610c92919061257d565b506060820151816003019081610ca8919061257d565b5090505060065f815480929190610cbe90612679565b91905055508873ffffffffffffffffffffffffffffffffffffffff16817ff5170fae5e3751479125bf4d65e53d8b19b301b6474d7fe3e2540a0ede67279a88604051610d0a9190611faf565b60405180910390a3505050505050505050565b6060610d2882610e7a565b505f610d32611495565b90505f815111610d505760405180602001604052805f815250610d7b565b80610d5a846114ab565b604051602001610d6b9291906126fa565b6040516020818303038152906040525b915050919050565b5f60055f8473ffffffffffffffffffffffffffffffffffffffff1673ffffffffffffffffffffffffffffffffffffffff1681526020019081526020015f205f8373ffffffffffffffffffffffffffffffffffffffff1673ffffffffffffffffffffffffffffffffffffffff1681526020019081526020015f205f9054906101000a900460ff16905092915050565b5f7f01ffc9a7000000000000000000000000000000000000000000000000000000007bffffffffffffffffffffffffffffffffffffffffffffffffffffffff1916827bffffffffffffffffffffffffffffffffffffffffffffffffffffffff1916149050919050565b5f80610e8583611575565b90505f73ffffffffffffffffffffffffffffffffffffffff168173ffffffffffffffffffffffffffffffffffffffff1603610ef757826040517f7e273289000000000000000000000000000000000000000000000000000000008152600401610eee9190611faf565b60405180910390fd5b80915050919050565b5f60045f8381526020019081526020015f205f9054906101000a900473ffffffffffffffffffffffffffffffffffffffff169050919050565b5f33905090565b610f4d83838360016115ae565b505050565b5f80610f5d84611575565b90505f73ffffffffffffffffffffffffffffffffffffffff168373ffffffffffffffffffffffffffffffffffffffff1614610f9e57610f9d81848661176d565b5b5f73ffffffffffffffffffffffffffffffffffffffff168173ffffffffffffffffffffffffffffffffffffffff161461102957610fdd5f855f806115ae565b600160035f8373ffffffffffffffffffffffffffffffffffffffff1673ffffffffffffffffffffffffffffffffffffffff1681526020019081526020015f205f82825403925050819055505b5f73ffffffffffffffffffffffffffffffffffffffff168573ffffffffffffffffffffffffffffffffffffffff16146110a857600160035f8773ffffffffffffffffffffffffffffffffffffffff1673ffffffffffffffffffffffffffffffffffffffff1681526020019081526020015f205f82825401925050819055505b8460025f8681526020019081526020015f205f6101000a81548173ffffffffffffffffffffffffffffffffffffffff021916908373ffffffffffffffffffffffffffffffffffffffff160217905550838573ffffffffffffffffffffffffffffffffffffffff168273ffffffffffffffffffffffffffffffffffffffff167fddf252ad1be2c89b69c2b068fc378daa952ba7f163c4a11628f55a4df523b3ef60405160405180910390a4809150509392505050565b5f73ffffffffffffffffffffffffffffffffffffffff168273ffffffffffffffffffffffffffffffffffffffff16036111cd57816040517f5b08ba180000000000000000000000000000000000000000000000000000000081526004016111c49190611e4c565b60405180910390fd5b8060055f8573ffffffffffffffffffffffffffffffffffffffff1673ffffffffffffffffffffffffffffffffffffffff1681526020019081526020015f205f8473ffffffffffffffffffffffffffffffffffffffff1673ffffffffffffffffffffffffffffffffffffffff1681526020019081526020015f205f6101000a81548160ff0219169083151502179055508173ffffffffffffffffffffffffffffffffffffffff168373ffffffffffffffffffffffffffffffffffffffff167f17307eab39ab6107e8899845ad3d59bd9653f200f220920489ca2b5937696c31836040516112b99190611c21565b60405180910390a3505050565b5f8373ffffffffffffffffffffffffffffffffffffffff163b1115611472578273ffffffffffffffffffffffffffffffffffffffff1663150b7a02611309610f39565b8685856040518563ffffffff1660e01b815260040161132b949392919061276f565b6020604051808303815f875af192505050801561136657506040513d601f19601f8201168201806040525081019061136391906127cd565b60015b6113e7573d805f8114611394576040519150601f19603f3d011682016040523d82523d5f602084013e611399565b606091505b505f8151036113df57836040517f64a0ae920000000000000000000000000000000000000000000000000000000081526004016113d69190611e4c565b60405180910390fd5b805181602001fd5b63150b7a0260e01b7bffffffffffffffffffffffffffffffffffffffffffffffffffffffff1916817bffffffffffffffffffffffffffffffffffffffffffffffffffffffff19161461147057836040517f64a0ae920000000000000000000000000000000000000000000000000000000081526004016114679190611e4c565b60405180910390fd5b505b50505050565b611491828260405180602001604052805f815250611830565b5050565b606060405180602001604052805f815250905090565b60605f60016114b98461184b565b0190505f8167ffffffffffffffff8111156114d7576114d6612038565b5b6040519080825280601f01601f1916602001820160405280156115095781602001600182028036833780820191505090505b5090505f82602001820190505b60011561156a578080600190039150507f3031323334353637383961626364656600000000000000000000000000000000600a86061a8153600a858161155f5761155e6127f8565b5b0494505f8503611516575b819350505050919050565b5f60025f8381526020019081526020015f205f9054906101000a900473ffffffffffffffffffffffffffffffffffffffff169050919050565b80806115e657505f73ffffffffffffffffffffffffffffffffffffffff168273ffffffffffffffffffffffffffffffffffffffff1614155b15611718575f6115f584610e7a565b90505f73ffffffffffffffffffffffffffffffffffffffff168373ffffffffffffffffffffffffffffffffffffffff161415801561165f57508273ffffffffffffffffffffffffffffffffffffffff168173ffffffffffffffffffffffffffffffffffffffff1614155b801561167257506116708184610d83565b155b156116b457826040517fa9fbf51f0000000000000000000000000000000000000000000000000000000081526004016116ab9190611e4c565b60405180910390fd5b811561171657838573ffffffffffffffffffffffffffffffffffffffff168273ffffffffffffffffffffffffffffffffffffffff167f8c5be1e5ebec7d5bd14f71427d1e84f3dd0314c0f7b2291e5b200ac8c7c3b92560405160405180910390a45b505b8360045f8581526020019081526020015f205f6101000a81548173ffffffffffffffffffffffffffffffffffffffff021916908373ffffffffffffffffffffffffffffffffffffffff16021790555050505050565b61177883838361199c565b61182b575f73ffffffffffffffffffffffffffffffffffffffff168373ffffffffffffffffffffffffffffffffffffffff16036117ec57806040517f7e2732890000000000000000000000000000000000000000000000000000000081526004016117e39190611faf565b60405180910390fd5b81816040517f177e802f000000000000000000000000000000000000000000000000000000008152600401611822929190612825565b60405180910390fd5b505050565b61183a8383611a5c565b6118465f8484846112c6565b505050565b5f805f90507a184f03e93ff9f4daa797ed6e38ed64bf6a1f01000000000000000083106118a7577a184f03e93ff9f4daa797ed6e38ed64bf6a1f010000000000000000838161189d5761189c6127f8565b5b0492506040810190505b6d04ee2d6d415b85acef810000000083106118e4576d04ee2d6d415b85acef810000000083816118da576118d96127f8565b5b0492506020810190505b662386f26fc10000831061191357662386f26fc100008381611909576119086127f8565b5b0492506010810190505b6305f5e100831061193c576305f5e1008381611932576119316127f8565b5b0492506008810190505b6127108310611961576127108381611957576119566127f8565b5b0492506004810190505b60648310611984576064838161197a576119796127f8565b5b0492506002810190505b600a8310611993576001810190505b80915050919050565b5f8073ffffffffffffffffffffffffffffffffffffffff168373ffffffffffffffffffffffffffffffffffffffff1614158015611a5357508273ffffffffffffffffffffffffffffffffffffffff168473ffffffffffffffffffffffffffffffffffffffff161480611a145750611a138484610d83565b5b80611a5257508273ffffffffffffffffffffffffffffffffffffffff16611a3a83610f00565b73ffffffffffffffffffffffffffffffffffffffff16145b5b90509392505050565b5f73ffffffffffffffffffffffffffffffffffffffff168273ffffffffffffffffffffffffffffffffffffffff1603611acc575f6040517f64a0ae92000000000000000000000000000000000000000000000000000000008152600401611ac39190611e4c565b60405180910390fd5b5f611ad883835f610f52565b90505f73ffffffffffffffffffffffffffffffffffffffff168173ffffffffffffffffffffffffffffffffffffffff1614611b4a575f6040517f73c6ac6e000000000000000000000000000000000000000000000000000000008152600401611b419190611e4c565b60405180910390fd5b505050565b6040518060800160405280606081526020015f815260200160608152602001606081525090565b5f604051905090565b5f80fd5b5f80fd5b5f7fffffffff0000000000000000000000000000000000000000000000000000000082169050919050565b611bbb81611b87565b8114611bc5575f80fd5b50565b5f81359050611bd681611bb2565b92915050565b5f60208284031215611bf157611bf0611b7f565b5b5f611bfe84828501611bc8565b91505092915050565b5f8115159050919050565b611c1b81611c07565b82525050565b5f602082019050611c345f830184611c12565b92915050565b5f819050919050565b611c4c81611c3a565b8114611c56575f80fd5b50565b5f81359050611c6781611c43565b92915050565b5f60208284031215611c8257611c81611b7f565b5b5f611c8f84828501611c59565b91505092915050565b5f81519050919050565b5f82825260208201905092915050565b8281835e5f83830152505050565b5f601f19601f8301169050919050565b5f611cda82611c98565b611ce48185611ca2565b9350611cf4818560208601611cb2565b611cfd81611cc0565b840191505092915050565b611d1181611c3a565b82525050565b5f608083015f8301518482035f860152611d318282611cd0565b9150506020830151611d466020860182611d08565b5060408301518482036040860152611d5e8282611cd0565b91505060608301518482036060860152611d788282611cd0565b9150508091505092915050565b5f6020820190508181035f830152611d9d8184611d17565b905092915050565b5f82825260208201905092915050565b5f611dbf82611c98565b611dc98185611da5565b9350611dd9818560208601611cb2565b611de281611cc0565b840191505092915050565b5f6020820190508181035f830152611e058184611db5565b905092915050565b5f73ffffffffffffffffffffffffffffffffffffffff82169050919050565b5f611e3682611e0d565b9050919050565b611e4681611e2c565b82525050565b5f602082019050611e5f5f830184611e3d565b92915050565b611e6e81611e2c565b8114611e78575f80fd5b50565b5f81359050611e8981611e65565b92915050565b5f8060408385031215611ea557611ea4611b7f565b5b5f611eb285828601611e7b565b9250506020611ec385828601611c59565b9150509250929050565b5f805f60608486031215611ee457611ee3611b7f565b5b5f611ef186828701611e7b565b9350506020611f0286828701611e7b565b9250506040611f1386828701611c59565b9150509250925092565b611f2681611c3a565b82525050565b5f6080820190508181035f830152611f448187611db5565b9050611f536020830186611f1d565b8181036040830152611f658185611db5565b90508181036060830152611f798184611db5565b905095945050505050565b5f60208284031215611f9957611f98611b7f565b5b5f611fa684828501611e7b565b91505092915050565b5f602082019050611fc25f830184611f1d565b92915050565b611fd181611c07565b8114611fdb575f80fd5b50565b5f81359050611fec81611fc8565b92915050565b5f806040838503121561200857612007611b7f565b5b5f61201585828601611e7b565b925050602061202685828601611fde565b9150509250929050565b5f80fd5b5f80fd5b7f4e487b71000000000000000000000000000000000000000000000000000000005f52604160045260245ffd5b61206e82611cc0565b810181811067ffffffffffffffff8211171561208d5761208c612038565b5b80604052505050565b5f61209f611b76565b90506120ab8282612065565b919050565b5f67ffffffffffffffff8211156120ca576120c9612038565b5b6120d382611cc0565b9050602081019050919050565b828183375f83830152505050565b5f6121006120fb846120b0565b612096565b90508281526020810184848401111561211c5761211b612034565b5b6121278482856120e0565b509392505050565b5f82601f83011261214357612142612030565b5b81356121538482602086016120ee565b91505092915050565b5f805f806080858703121561217457612173611b7f565b5b5f61218187828801611e7b565b945050602061219287828801611e7b565b93505060406121a387828801611c59565b925050606085013567ffffffffffffffff8111156121c4576121c3611b83565b5b6121d08782880161212f565b91505092959194509250565b5f80fd5b5f80fd5b5f8083601f8401126121f9576121f8612030565b5b8235905067ffffffffffffffff811115612216576122156121dc565b5b602083019150836001820283011115612232576122316121e0565b5b9250929050565b5f805f805f805f8060a0898b03121561225557612254611b7f565b5b5f6122628b828c01611e7b565b985050602089013567ffffffffffffffff81111561228357612282611b83565b5b61228f8b828c016121e4565b975097505060406122a28b828c01611c59565b955050606089013567ffffffffffffffff8111156122c3576122c2611b83565b5b6122cf8b828c016121e4565b9450945050608089013567ffffffffffffffff8111156122f2576122f1611b83565b5b6122fe8b828c016121e4565b92509250509295985092959890939650565b5f806040838503121561232657612325611b7f565b5b5f61233385828601611e7b565b925050602061234485828601611e7b565b9150509250929050565b7f4e487b71000000000000000000000000000000000000000000000000000000005f52602260045260245ffd5b5f600282049050600182168061239257607f821691505b6020821081036123a5576123a461234e565b5b50919050565b5f6060820190506123be5f830186611e3d565b6123cb6020830185611f1d565b6123d86040830184611e3d565b949350505050565b5f819050815f5260205f209050919050565b5f6020601f8301049050919050565b5f82821b905092915050565b5f6008830261243c7fffffffffffffffffffffffffffffffffffffffffffffffffffffffffffffffff82612401565b6124468683612401565b95508019841693508086168417925050509392505050565b5f819050919050565b5f61248161247c61247784611c3a565b61245e565b611c3a565b9050919050565b5f819050919050565b61249a83612467565b6124ae6124a682612488565b84845461240d565b825550505050565b5f90565b6124c26124b6565b6124cd818484612491565b505050565b5b818110156124f0576124e55f826124ba565b6001810190506124d3565b5050565b601f82111561253557612506816123e0565b61250f846123f2565b8101602085101561251e578190505b61253261252a856123f2565b8301826124d2565b50505b505050565b5f82821c905092915050565b5f6125555f198460080261253a565b1980831691505092915050565b5f61256d8383612546565b9150826002028217905092915050565b61258682611c98565b67ffffffffffffffff81111561259f5761259e612038565b5b6125a9825461237b565b6125b48282856124f4565b5f60209050601f8311600181146125e5575f84156125d3578287015190505b6125dd8582612562565b865550612644565b601f1984166125f3866123e0565b5f5b8281101561261a578489015182556001820191506020850194506020810190506125f5565b868310156126375784890151612633601f891682612546565b8355505b6001600288020188555050505b505050505050565b7f4e487b71000000000000000000000000000000000000000000000000000000005f52601160045260245ffd5b5f61268382611c3a565b91507fffffffffffffffffffffffffffffffffffffffffffffffffffffffffffffffff82036126b5576126b461264c565b5b600182019050919050565b5f81905092915050565b5f6126d482611c98565b6126de81856126c0565b93506126ee818560208601611cb2565b80840191505092915050565b5f61270582856126ca565b915061271182846126ca565b91508190509392505050565b5f81519050919050565b5f82825260208201905092915050565b5f6127418261271d565b61274b8185612727565b935061275b818560208601611cb2565b61276481611cc0565b840191505092915050565b5f6080820190506127825f830187611e3d565b61278f6020830186611e3d565b61279c6040830185611f1d565b81810360608301526127ae8184612737565b905095945050505050565b5f815190506127c781611bb2565b92915050565b5f602082840312156127e2576127e1611b7f565b5b5f6127ef848285016127b9565b91505092915050565b7f4e487b71000000000000000000000000000000000000000000000000000000005f52601260045260245ffd5b5f6040820190506128385f830185611e3d565b6128456020830184611f1d565b939250505056fea264697066735822122028531c30fb327e12b89a2ef91535d70a813c91ffc7fe4f5fc0588c7715b5a73a64736f6c634300081a0033",
    "linkReferences": {}
  },
  "methodIdentifiers": {
    "approve(address,uint256)": "095ea7b3",
    "balanceOf(address)": "70a08231",
    "cargoDetails(uint256)": "342ce91b",
    "getApproved(uint256)": "081812fc",
    "getCargoDetails(uint256)": "02289648",
    "isApprovedForAll(address,address)": "e985e9c5",
    "mintCargo(address,string,uint256,string,string)": "c228c88f",
    "name()": "06fdde03",
    "ownerOf(uint256)": "6352211e",
    "safeTransferFrom(address,address,uint256)": "42842e0e",
    "safeTransferFrom(address,address,uint256,bytes)": "b88d4fde",
    "setApprovalForAll(address,bool)": "a22cb465",
    "supportsInterface(bytes4)": "01ffc9a7",
    "symbol()": "95d89b41",
    "tokenURI(uint256)": "c87b56dd",
    "transferFrom(address,address,uint256)": "23b872dd"
  },
  "id": 12
}