{
  "abi": [
    {
      "type": "constructor",
      "inputs": [],
      "stateMutability": "nonpayable"
    },
    {
      "type": "function",
      "name": "approve",
      "inputs": [
        {
          "name": "to",
          "type": "address",
          "internalType": "address"
        },
        {
          "name": "tokenId",
          "type": "uint256",
          "internalType": "uint256"
        }
      ],
      "outputs": [],
      "stateMutability": "nonpayable"
    },
    {
      "type": "function",
      "name": "balanceOf",
      "inputs": [
        {
          "name": "owner",
          "type": "address",
          "internalType": "address"
        }
      ],
      "outputs": [
        {
          "name": "",
          "type": "uint256",
          "internalType": "uint256"
        }
      ],
      "stateMutability": "view"
    },
    {
      "type": "function",
      "name": "cargoDetails",
      "inputs": [
        {
          "name": "",
          "type": "uint256",
          "internalType": "uint256"
        }
      ],
      "outputs": [
        {
          "name": "description",
          "type": "string",
          "internalType": "string"
        },
        {
          "name": "cargoType",
          "type": "string",
          "internalType": "string"
        },
        {
          "name": "weight",
          "type": "uint256",
          "internalType": "uint256"
        },
        {
          "name": "volumeCBM",
          "type": "uint256",
          "internalType": "uint256"
        },
        {
          "name": "originPort",
          "type": "string",
          "internalType": "string"
        },
        {
          "name": "destinationPort",
          "type": "string",
          "internalType": "string"
        }
      ],
      "stateMutability": "view"
    },
    {
      "type": "function",
      "name": "getApproved",
      "inputs": [
        {
          "name": "tokenId",
          "type": "uint256",
          "internalType": "uint256"
        }
      ],
      "outputs": [
        {
          "name": "",
          "type": "address",
          "internalType": "address"
        }
      ],
      "stateMutability": "view"
    },
    {
      "type": "function",
      "name": "getCargoDetails",
      "inputs": [
        {
          "name": "tokenId",
          "type": "uint256",
          "internalType": "uint256"
        }
      ],
      "outputs": [
        {
          "name": "",
          "type": "tuple",
          "internalType": "struct CargoNFT.CargoDetails",
          "components": [
            {
              "name": "description",
              "type": "string",
              "internalType": "string"
            },
            {
              "name": "cargoType",
              "type": "string",
              "internalType": "string"
            },
            {
              "name": "weight",
              "type": "uint256",
              "internalType": "uint256"
            },
            {
              "name": "volumeCBM",
              "type": "uint256",
              "internalType": "uint256"
            },
            {
              "name": "originPort",
              "type": "string",
              "internalType": "string"
            },
            {
              "name": "destinationPort",
              "type": "string",
              "internalType": "string"
            }
          ]
        }
      ],
      "stateMutability": "view"
    },
    {
      "type": "function",
      "name": "isApprovedForAll",
      "inputs": [
        {
          "name": "owner",
          "type": "address",
          "internalType": "address"
        },
        {
          "name": "operator",
          "type": "address",
          "internalType": "address"
        }
      ],
      "outputs": [
        {
          "name": "",
          "type": "bool",
          "internalType": "bool"
        }
      ],
      "stateMutability": "view"
    },
    {
      "type": "function",
      "name": "mintCargo",
      "inputs": [
        {
          "name": "shipper",
          "type": "address",
          "internalType": "address"
        },
        {
          "name": "description",
          "type": "string",
          "internalType": "string"
        },
        {
          "name": "cargoType",
          "type": "string",
          "internalType": "string"
        },
        {
          "name": "weight",
          "type": "uint256",
          "internalType": "uint256"
        },
        {
          "name": "volumeCBM",
          "type": "uint256",
          "internalType": "uint256"
        },
        {
          "name": "originPort",
          "type": "string",
          "internalType": "string"
        },
        {
          "name": "destinationPort",
          "type": "string",
          "internalType": "string"
        }
      ],
      "outputs": [],
      "stateMutability": "nonpayable"
    },
    {
      "type": "function",
      "name": "name",
      "inputs": [],
      "outputs": [
        {
          "name": "",
          "type": "string",
          "internalType": "string"
        }
      ],
      "stateMutability": "view"
    },
    {
      "type": "function",
      "name": "ownerOf",
      "inputs": [
        {
          "name": "tokenId",
          "type": "uint256",
          "internalType": "uint256"
        }
      ],
      "outputs": [
        {
          "name": "",
          "type": "address",
          "internalType": "address"
        }
      ],
      "stateMutability": "view"
    },
    {
      "type": "function",
      "name": "safeTransferFrom",
      "inputs": [
        {
          "name": "from",
          "type": "address",
          "internalType": "address"
        },
        {
          "name": "to",
          "type": "address",
          "internalType": "address"
        },
        {
          "name": "tokenId",
          "type": "uint256",
          "internalType": "uint256"
        }
      ],
      "outputs": [],
      "stateMutability": "nonpayable"
    },
    {
      "type": "function",
      "name": "safeTransferFrom",
      "inputs": [
        {
          "name": "from",
          "type": "address",
          "internalType": "address"
        },
        {
          "name": "to",
          "type": "address",
          "internalType": "address"
        },
        {
          "name": "tokenId",
          "type": "uint256",
          "internalType": "uint256"
        },
        {
          "name": "data",
          "type": "bytes",
          "internalType": "bytes"
        }
      ],
      "outputs": [],
      "stateMutability": "nonpayable"
    },
    {
      "type": "function",
      "name": "setApprovalForAll",
      "inputs": [
        {
          "name": "operator",
          "type": "address",
          "internalType": "address"
        },
        {
          "name": "approved",
          "type": "bool",
          "internalType": "bool"
        }
      ],
      "outputs": [],
      "stateMutability": "nonpayable"
    },
    {
      "type": "function",
      "name": "supportsInterface",
      "inputs": [
        {
          "name": "interfaceId",
          "type": "bytes4",
          "internalType": "bytes4"
        }
      ],
      "outputs": [
        {
          "name": "",
          "type": "bool",
          "internalType": "bool"
        }
      ],
      "stateMutability": "view"
    },
    {
      "type": "function",
      "name": "symbol",
      "inputs": [],
      "outputs": [
        {
          "name": "",
          "type": "string",
          "internalType": "string"
        }
      ],
      "stateMutability": "view"
    },
    {
      "type": "function",
      "name": "tokenURI",
      "inputs": [
        {
          "name": "tokenId",
          "type": "uint256",
          "internalType": "uint256"
        }
      ],
      "outputs": [
        {
          "name": "",
          "type": "string",
          "internalType": "string"
        }
      ],
      "stateMutability": "view"
    },
    {
      "type": "function",
      "name": "transferFrom",
      "inputs": [
        {
          "name": "from",
          "type": "address",
          "internalType": "address"
        },
        {
          "name": "to",
          "type": "address",
          "internalType": "address"
        },
        {
          "name": "tokenId",
          "type": "uint256",
          "internalType": "uint256"
        }
      ],
      "outputs": [],
      "stateMutability": "nonpayable"
    },
    {
      "type": "event",
      "name": "Approval",
      "inputs": [
        {
          "name": "owner",
          "type": "address",
          "indexed": true,
          "internalType": "address"
        },
        {
          "name": "approved",
          "type": "address",
          "indexed": true,
          "internalType": "address"
        },
        {
          "name": "tokenId",
          "type": "uint256",
          "indexed": true,
          "internalType": "uint256"
        }
      ],
      "anonymous": false
    },
    {
      "type": "event",
      "name": "ApprovalForAll",
      "inputs": [
        {
          "name": "owner",
          "type": "address",
          "indexed": true,
          "internalType": "address"
        },
        {
          "name": "operator",
          "type": "address",
          "indexed": true,
          "internalType": "address"
        },
        {
          "name": "approved",
          "type": "bool",
          "indexed": false,
          "internalType": "bool"
        }
      ],
      "anonymous": false
    },
    {
      "type": "event",
      "name": "CargoMinted",
      "inputs": [
        {
          "name": "tokenId",
          "type": "uint256",
          "indexed": true,
          "internalType": "uint256"
        },
        {
          "name": "shipper",
          "type": "address",
          "indexed": true,
          "internalType": "address"
        },
        {
          "name": "weight",
          "type": "uint256",
          "indexed": false,
          "internalType": "uint256"
        }
      ],
      "anonymous": false
    },
    {
      "type": "event",
      "name": "Transfer",
      "inputs": [
        {
          "name": "from",
          "type": "address",
          "indexed": true,
          "internalType": "address"
        },
        {
          "name": "to",
          "type": "address",
          "indexed": true,
          "internalType": "address"
        },
        {
          "name": "tokenId",
          "type": "uint256",
          "indexed": true,
          "internalType": "uint256"
        }
      ],
      "anonymous": false
    },
    {
      "type": "error",
      "name": "ERC721IncorrectOwner",
      "inputs": [
        {
          "name": "sender",
          "type": "address",
          "internalType": "address"
        },
        {
          "name": "tokenId",
          "type": "uint256",
          "internalType": "uint256"
        },
        {
          "name": "owner",
          "type": "address",
          "internalType": "address"
        }
      ]
    },
    {
      "type": "error",
      "name": "ERC721InsufficientApproval",
      "inputs": [
        {
          "name": "operator",
          "type": "address",
          "internalType": "address"
        },
        {
          "name": "tokenId",
          "type": "uint256",
          "internalType": "uint256"
        }
      ]
    },
    {
      "type": "error",
      "name": "ERC721InvalidApprover",
      "inputs": [
        {
          "name": "approver",
          "type": "address",
          "internalType": "address"
        }
      ]
    },
    {
      "type": "error",
      "name": "ERC721InvalidOperator",
      "inputs": [
        {
          "name": "operator",
          "type": "address",
          "internalType": "address"
        }
      ]
    },
    {
      "type": "error",
      "name": "ERC721InvalidOwner",
      "inputs": [
        {
          "name": "owner",
          "type": "address",
          "internalType": "address"
        }
      ]
    },
    {
      "type": "error",
      "name": "ERC721InvalidReceiver",
      "inputs": [
        {
          "name": "receiver",
          "type": "address",
          "internalType": "address"
        }
      ]
    },
    {
      "type": "error",
      "name": "ERC721InvalidSender",
      "inputs": [
        {
          "name": "sender",
          "type": "address",
          "internalType": "address"
        }
      ]
    },
    {
      "type": "error",
      "name": "ERC721NonexistentToken",
      "inputs": [
        {
          "name": "tokenId",
          "type": "uint256",
          "internalType": "uint256"
        }
      ]
    }
  ],
  "bytecode": {
    "object": "0x608060405234801561000f575f80fd5b506040518060400160405280601281526020017f5368697042726f6b6572616765436172676f00000000000000000000000000008152506040518060400160405280600381526020017f5342430000000000000000000000000000000000000000000000000000000000815250815f908161008a91906102dc565b50806001908161009a91906102dc565b5050506103ab565b5f81519050919050565b7f4e487b71000000000000000000000000000000000000000000000000000000005f52604160045260245ffd5b7f4e487b71000000000000000000000000000000000000000000000000000000005f52602260045260245ffd5b5f600282049050600182168061011d57607f821691505b6020821081036101305761012f6100d9565b5b50919050565b5f819050815f5260205f209050919050565b5f6020601f8301049050919050565b5f82821b905092915050565b5f600883026101927fffffffffffffffffffffffffffffffffffffffffffffffffffffffffffffffff82610157565b61019c8683610157565b95508019841693508086168417925050509392505050565b5f819050919050565b5f819050919050565b5f6101e06101db6101d6846101b4565b6101bd565b6101b4565b9050919050565b5f819050919050565b6101f9836101c6565b61020d610205826101e7565b848454610163565b825550505050565b5f90565b610221610215565b61022c8184846101f0565b505050565b5b8181101561024f576102445f82610219565b600181019050610232565b5050565b601f8211156102945761026581610136565b61026e84610148565b8101602085101561027d578190505b61029161028985610148565b830182610231565b50505b505050565b5f82821c905092915050565b5f6102b45f1984600802610299565b1980831691505092915050565b5f6102cc83836102a5565b9150826002028217905092915050565b6102e5826100a2565b67ffffffffffffffff8111156102fe576102fd6100ac565b5b6103088254610106565b610313828285610253565b5f60209050601f831160018114610344575f8415610332578287015190505b61033c85826102c1565b8655506103a3565b601f19841661035286610136565b5f5b8281101561037957848901518255600182019150602085019450602081019050610354565b868310156103965784890151610392601f8916826102a5565b8355505b6001600288020188555050505b505050505050565b612ac0806103b85f395ff3fe608060405234801561000f575f80fd5b50600436106100fd575f3560e01c806342842e0e11610095578063a22cb46511610064578063a22cb465146102d2578063b88d4fde146102ee578063c87b56dd1461030a578063e985e9c51461033a576100fd565b806342842e0e146102385780636352211e1461025457806370a082311461028457806395d89b41146102b4576100fd565b8063081812fc116100d1578063081812fc1461019b578063095ea7b3146101cb57806323b872dd146101e7578063342ce91b14610203576100fd565b8062db41511461010157806301ffc9a71461011d578063022896481461014d57806306fdde031461017d575b5f80fd5b61011b60048036038101906101169190611e1d565b61036a565b005b61013760048036038101906101329190611f8f565b6105a1565b6040516101449190611fd4565b60405180910390f35b61016760048036038101906101629190611fed565b610682565b6040516101749190612132565b60405180910390f35b610185610900565b604051610192919061219a565b60405180910390f35b6101b560048036038101906101b09190611fed565b61098f565b6040516101c291906121c9565b60405180910390f35b6101e560048036038101906101e091906121e2565b6109aa565b005b61020160048036038101906101fc9190612220565b6109c0565b005b61021d60048036038101906102189190611fed565b610abf565b60405161022f9695949392919061227f565b60405180910390f35b610252600480360381019061024d9190612220565b610d0f565b005b61026e60048036038101906102699190611fed565b610d2e565b60405161027b91906121c9565b60405180910390f35b61029e600480360381019061029991906122fa565b610d3f565b6040516102ab9190612325565b60405180910390f35b6102bc610df5565b6040516102c9919061219a565b60405180910390f35b6102ec60048036038101906102e79190612368565b610e85565b005b610308600480360381019061030391906124ce565b610e9b565b005b610324600480360381019061031f9190611fed565b610eb8565b604051610331919061219a565b60405180910390f35b610354600480360381019061034f919061254e565b610f1e565b6040516103619190611fd4565b60405180910390f35b5f60065f81548092919061037d906125b9565b91905055905061038d8c82610fac565b6040518060c001604052808c8c8080601f0160208091040260200160405190810160405280939291908181526020018383808284375f81840152601f19601f8201169050808301925050505050505081526020018a8a8080601f0160208091040260200160405190810160405280939291908181526020018383808284375f81840152601f19601f82011690508083019250505050505050815260200188815260200187815260200186868080601f0160208091040260200160405190810160405280939291908181526020018383808284375f81840152601f19601f82011690508083019250505050505050815260200184848080601f0160208091040260200160405190810160405280939291908181526020018383808284375f81840152601f19601f8201169050808301925050505050505081525060075f8381526020019081526020015f205f820151815f0190816104ea91906127fa565b50602082015181600101908161050091906127fa565b506040820151816002015560608201518160030155608082015181600401908161052a91906127fa565b5060a082015181600501908161054091906127fa565b509050508b73ffffffffffffffffffffffffffffffffffffffff16817ff5170fae5e3751479125bf4d65e53d8b19b301b6474d7fe3e2540a0ede67279a8960405161058b9190612325565b60405180910390a3505050505050505050505050565b5f7f80ac58cd000000000000000000000000000000000000000000000000000000007bffffffffffffffffffffffffffffffffffffffffffffffffffffffff1916827bffffffffffffffffffffffffffffffffffffffffffffffffffffffff1916148061066b57507f5b5e139f000000000000000000000000000000000000000000000000000000007bffffffffffffffffffffffffffffffffffffffffffffffffffffffff1916827bffffffffffffffffffffffffffffffffffffffffffffffffffffffff1916145b8061067b575061067a82610fc9565b5b9050919050565b61068a611cea565b60075f8381526020019081526020015f206040518060c00160405290815f820180546106b59061262d565b80601f01602080910402602001604051908101604052809291908181526020018280546106e19061262d565b801561072c5780601f106107035761010080835404028352916020019161072c565b820191905f5260205f20905b81548152906001019060200180831161070f57829003601f168201915b505050505081526020016001820180546107459061262d565b80601f01602080910402602001604051908101604052809291908181526020018280546107719061262d565b80156107bc5780601f10610793576101008083540402835291602001916107bc565b820191905f5260205f20905b81548152906001019060200180831161079f57829003601f168201915b5050505050815260200160028201548152602001600382015481526020016004820180546107e99061262d565b80601f01602080910402602001604051908101604052809291908181526020018280546108159061262d565b80156108605780601f1061083757610100808354040283529160200191610860565b820191905f5260205f20905b81548152906001019060200180831161084357829003601f168201915b505050505081526020016005820180546108799061262d565b80601f01602080910402602001604051908101604052809291908181526020018280546108a59061262d565b80156108f05780601f106108c7576101008083540402835291602001916108f0565b820191905f5260205f20905b8154815290600101906020018083116108d357829003601f168201915b5050505050815250509050919050565b60605f805461090e9061262d565b80601f016020809104026020016040519081016040528092919081815260200182805461093a9061262d565b80156109855780601f1061095c57610100808354040283529160200191610985565b820191905f5260205f20905b81548152906001019060200180831161096857829003601f168201915b5050505050905090565b5f61099982611032565b506109a3826110b8565b9050919050565b6109bc82826109b76110f1565b6110f8565b5050565b5f73ffffffffffffffffffffffffffffffffffffffff168273ffffffffffffffffffffffffffffffffffffffff1603610a30575f6040517f64a0ae92000000000000000000000000000000000000000000000000000000008152600401610a2791906121c9565b60405180910390fd5b5f610a438383610a3e6110f1565b61110a565b90508373ffffffffffffffffffffffffffffffffffffffff168173ffffffffffffffffffffffffffffffffffffffff1614610ab9578382826040517f64283d7b000000000000000000000000000000000000000000000000000000008152600401610ab0939291906128c9565b60405180910390fd5b50505050565b6007602052805f5260405f205f91509050805f018054610ade9061262d565b80601f0160208091040260200160405190810160405280929190818152602001828054610b0a9061262d565b8015610b555780601f10610b2c57610100808354040283529160200191610b55565b820191905f5260205f20905b815481529060010190602001808311610b3857829003601f168201915b505050505090806001018054610b6a9061262d565b80601f0160208091040260200160405190810160405280929190818152602001828054610b969061262d565b8015610be15780601f10610bb857610100808354040283529160200191610be1565b820191905f5260205f20905b815481529060010190602001808311610bc457829003601f168201915b505050505090806002015490806003015490806004018054610c029061262d565b80601f0160208091040260200160405190810160405280929190818152602001828054610c2e9061262d565b8015610c795780601f10610c5057610100808354040283529160200191610c79565b820191905f5260205f20905b815481529060010190602001808311610c5c57829003601f168201915b505050505090806005018054610c8e9061262d565b80601f0160208091040260200160405190810160405280929190818152602001828054610cba9061262d565b8015610d055780601f10610cdc57610100808354040283529160200191610d05565b820191905f5260205f20905b815481529060010190602001808311610ce857829003601f168201915b5050505050905086565b610d2983838360405180602001604052805f815250610e9b565b505050565b5f610d3882611032565b9050919050565b5f8073ffffffffffffffffffffffffffffffffffffffff168273ffffffffffffffffffffffffffffffffffffffff1603610db0575f6040517f89c62b64000000000000000000000000000000000000000000000000000000008152600401610da791906121c9565b60405180910390fd5b60035f8373ffffffffffffffffffffffffffffffffffffffff1673ffffffffffffffffffffffffffffffffffffffff1681526020019081526020015f20549050919050565b606060018054610e049061262d565b80601f0160208091040260200160405190810160405280929190818152602001828054610e309061262d565b8015610e7b5780601f10610e5257610100808354040283529160200191610e7b565b820191905f5260205f20905b815481529060010190602001808311610e5e57829003601f168201915b5050505050905090565b610e97610e906110f1565b8383611315565b5050565b610ea68484846109c0565b610eb28484848461147e565b50505050565b6060610ec382611032565b505f610ecd611630565b90505f815111610eeb5760405180602001604052805f815250610f16565b80610ef584611646565b604051602001610f06929190612938565b6040516020818303038152906040525b915050919050565b5f60055f8473ffffffffffffffffffffffffffffffffffffffff1673ffffffffffffffffffffffffffffffffffffffff1681526020019081526020015f205f8373ffffffffffffffffffffffffffffffffffffffff1673ffffffffffffffffffffffffffffffffffffffff1681526020019081526020015f205f9054906101000a900460ff16905092915050565b610fc5828260405180602001604052805f815250611710565b5050565b5f7f01ffc9a7000000000000000000000000000000000000000000000000000000007bffffffffffffffffffffffffffffffffffffffffffffffffffffffff1916827bffffffffffffffffffffffffffffffffffffffffffffffffffffffff1916149050919050565b5f8061103d8361172b565b90505f73ffffffffffffffffffffffffffffffffffffffff168173ffffffffffffffffffffffffffffffffffffffff16036110af57826040517f7e2732890000000000000000000000000000000000000000000000000000000081526004016110a69190612325565b60405180910390fd5b80915050919050565b5f60045f8381526020019081526020015f205f9054906101000a900473ffffffffffffffffffffffffffffffffffffffff169050919050565b5f33905090565b6111058383836001611764565b505050565b5f806111158461172b565b90505f73ffffffffffffffffffffffffffffffffffffffff168373ffffffffffffffffffffffffffffffffffffffff161461115657611155818486611923565b5b5f73ffffffffffffffffffffffffffffffffffffffff168173ffffffffffffffffffffffffffffffffffffffff16146111e1576111955f855f80611764565b600160035f8373ffffffffffffffffffffffffffffffffffffffff1673ffffffffffffffffffffffffffffffffffffffff1681526020019081526020015f205f82825403925050819055505b5f73ffffffffffffffffffffffffffffffffffffffff168573ffffffffffffffffffffffffffffffffffffffff161461126057600160035f8773ffffffffffffffffffffffffffffffffffffffff1673ffffffffffffffffffffffffffffffffffffffff1681526020019081526020015f205f82825401925050819055505b8460025f8681526020019081526020015f205f6101000a81548173ffffffffffffffffffffffffffffffffffffffff021916908373ffffffffffffffffffffffffffffffffffffffff160217905550838573ffffffffffffffffffffffffffffffffffffffff168273ffffffffffffffffffffffffffffffffffffffff167fddf252ad1be2c89b69c2b068fc378daa952ba7f163c4a11628f55a4df523b3ef60405160405180910390a4809150509392505050565b5f73ffffffffffffffffffffffffffffffffffffffff168273ffffffffffffffffffffffffffffffffffffffff160361138557816040517f5b08ba1800000000000000000000000000000000000000000000000000000000815260040161137c91906121c9565b60405180910390fd5b8060055f8573ffffffffffffffffffffffffffffffffffffffff1673ffffffffffffffffffffffffffffffffffffffff1681526020019081526020015f205f8473ffffffffffffffffffffffffffffffffffffffff1673ffffffffffffffffffffffffffffffffffffffff1681526020019081526020015f205f6101000a81548160ff0219169083151502179055508173ffffffffffffffffffffffffffffffffffffffff168373ffffffffffffffffffffffffffffffffffffffff167f17307eab39ab6107e8899845ad3d59bd9653f200f220920489ca2b5937696c31836040516114719190611fd4565b60405180910390a3505050565b5f8373ffffffffffffffffffffffffffffffffffffffff163b111561162a578273ffffffffffffffffffffffffffffffffffffffff1663150b7a026114c16110f1565b8685856040518563ffffffff1660e01b81526004016114e394939291906129ad565b6020604051808303815f875af192505050801561151e57506040513d601f19601f8201168201806040525081019061151b9190612a0b565b60015b61159f573d805f811461154c576040519150601f19603f3d011682016040523d82523d5f602084013e611551565b606091505b505f81510361159757836040517f64a0ae9200000000000000000000000000000000000000000000000000000000815260040161158e91906121c9565b60405180910390fd5b805181602001fd5b63150b7a0260e01b7bffffffffffffffffffffffffffffffffffffffffffffffffffffffff1916817bffffffffffffffffffffffffffffffffffffffffffffffffffffffff19161461162857836040517f64a0ae9200000000000000000000000000000000000000000000000000000000815260040161161f91906121c9565b60405180910390fd5b505b50505050565b606060405180602001604052805f815250905090565b60605f6001611654846119e6565b0190505f8167ffffffffffffffff811115611672576116716123aa565b5b6040519080825280601f01601f1916602001820160405280156116a45781602001600182028036833780820191505090505b5090505f82602001820190505b600115611705578080600190039150507f3031323334353637383961626364656600000000000000000000000000000000600a86061a8153600a85816116fa576116f9612a36565b5b0494505f85036116b1575b819350505050919050565b61171a8383611b37565b6117265f84848461147e565b505050565b5f60025f8381526020019081526020015f205f9054906101000a900473ffffffffffffffffffffffffffffffffffffffff169050919050565b808061179c57505f73ffffffffffffffffffffffffffffffffffffffff168273ffffffffffffffffffffffffffffffffffffffff1614155b156118ce575f6117ab84611032565b90505f73ffffffffffffffffffffffffffffffffffffffff168373ffffffffffffffffffffffffffffffffffffffff161415801561181557508273ffffffffffffffffffffffffffffffffffffffff168173ffffffffffffffffffffffffffffffffffffffff1614155b801561182857506118268184610f1e565b155b1561186a57826040517fa9fbf51f00000000000000000000000000000000000000000000000000000000815260040161186191906121c9565b60405180910390fd5b81156118cc57838573ffffffffffffffffffffffffffffffffffffffff168273ffffffffffffffffffffffffffffffffffffffff167f8c5be1e5ebec7d5bd14f71427d1e84f3dd0314c0f7b2291e5b200ac8c7c3b92560405160405180910390a45b505b8360045f8581526020019081526020015f205f6101000a81548173ffffffffffffffffffffffffffffffffffffffff021916908373ffffffffffffffffffffffffffffffffffffffff16021790555050505050565b61192e838383611c2a565b6119e1575f73ffffffffffffffffffffffffffffffffffffffff168373ffffffffffffffffffffffffffffffffffffffff16036119a257806040517f7e2732890000000000000000000000000000000000000000000000000000000081526004016119999190612325565b60405180910390fd5b81816040517f177e802f0000000000000000000000000000000000000000000000000000000081526004016119d8929190612a63565b60405180910390fd5b505050565b5f805f90507a184f03e93ff9f4daa797ed6e38ed64bf6a1f0100000000000000008310611a42577a184f03e93ff9f4daa797ed6e38ed64bf6a1f0100000000000000008381611a3857611a37612a36565b5b0492506040810190505b6d04ee2d6d415b85acef81000000008310611a7f576d04ee2d6d415b85acef81000000008381611a7557611a74612a36565b5b0492506020810190505b662386f26fc100008310611aae57662386f26fc100008381611aa457611aa3612a36565b5b0492506010810190505b6305f5e1008310611ad7576305f5e1008381611acd57611acc612a36565b5b0492506008810190505b6127108310611afc576127108381611af257611af1612a36565b5b0492506004810190505b60648310611b1f5760648381611b1557611b14612a36565b5b0492506002810190505b600a8310611b2e576001810190505b80915050919050565b5f73ffffffffffffffffffffffffffffffffffffffff168273ffffffffffffffffffffffffffffffffffffffff1603611ba7575f6040517f64a0ae92000000000000000000000000000000000000000000000000000000008152600401611b9e91906121c9565b60405180910390fd5b5f611bb383835f61110a565b90505f73ffffffffffffffffffffffffffffffffffffffff168173ffffffffffffffffffffffffffffffffffffffff1614611c25575f6040517f73c6ac6e000000000000000000000000000000000000000000000000000000008152600401611c1c91906121c9565b60405180910390fd5b505050565b5f8073ffffffffffffffffffffffffffffffffffffffff168373ffffffffffffffffffffffffffffffffffffffff1614158015611ce157508273ffffffffffffffffffffffffffffffffffffffff168473ffffffffffffffffffffffffffffffffffffffff161480611ca25750611ca18484610f1e565b5b80611ce057508273ffffffffffffffffffffffffffffffffffffffff16611cc8836110b8565b73ffffffffffffffffffffffffffffffffffffffff16145b5b90509392505050565b6040518060c0016040528060608152602001606081526020015f81526020015f815260200160608152602001606081525090565b5f604051905090565b5f80fd5b5f80fd5b5f73ffffffffffffffffffffffffffffffffffffffff82169050919050565b5f611d5882611d2f565b9050919050565b611d6881611d4e565b8114611d72575f80fd5b50565b5f81359050611d8381611d5f565b92915050565b5f80fd5b5f80fd5b5f80fd5b5f8083601f840112611daa57611da9611d89565b5b8235905067ffffffffffffffff811115611dc757611dc6611d8d565b5b602083019150836001820283011115611de357611de2611d91565b5b9250929050565b5f819050919050565b611dfc81611dea565b8114611e06575f80fd5b50565b5f81359050611e1781611df3565b92915050565b5f805f805f805f805f805f60e08c8e031215611e3c57611e3b611d27565b5b5f611e498e828f01611d75565b9b505060208c013567ffffffffffffffff811115611e6a57611e69611d2b565b5b611e768e828f01611d95565b9a509a505060408c013567ffffffffffffffff811115611e9957611e98611d2b565b5b611ea58e828f01611d95565b98509850506060611eb88e828f01611e09565b9650506080611ec98e828f01611e09565b95505060a08c013567ffffffffffffffff811115611eea57611ee9611d2b565b5b611ef68e828f01611d95565b945094505060c08c013567ffffffffffffffff811115611f1957611f18611d2b565b5b611f258e828f01611d95565b92509250509295989b509295989b9093969950565b5f7fffffffff0000000000000000000000000000000000000000000000000000000082169050919050565b611f6e81611f3a565b8114611f78575f80fd5b50565b5f81359050611f8981611f65565b92915050565b5f60208284031215611fa457611fa3611d27565b5b5f611fb184828501611f7b565b91505092915050565b5f8115159050919050565b611fce81611fba565b82525050565b5f602082019050611fe75f830184611fc5565b92915050565b5f6020828403121561200257612001611d27565b5b5f61200f84828501611e09565b91505092915050565b5f81519050919050565b5f82825260208201905092915050565b8281835e5f83830152505050565b5f601f19601f8301169050919050565b5f61205a82612018565b6120648185612022565b9350612074818560208601612032565b61207d81612040565b840191505092915050565b61209181611dea565b82525050565b5f60c083015f8301518482035f8601526120b18282612050565b915050602083015184820360208601526120cb8282612050565b91505060408301516120e06040860182612088565b5060608301516120f36060860182612088565b506080830151848203608086015261210b8282612050565b91505060a083015184820360a08601526121258282612050565b9150508091505092915050565b5f6020820190508181035f83015261214a8184612097565b905092915050565b5f82825260208201905092915050565b5f61216c82612018565b6121768185612152565b9350612186818560208601612032565b61218f81612040565b840191505092915050565b5f6020820190508181035f8301526121b28184612162565b905092915050565b6121c381611d4e565b82525050565b5f6020820190506121dc5f8301846121ba565b92915050565b5f80604083850312156121f8576121f7611d27565b5b5f61220585828601611d75565b925050602061221685828601611e09565b9150509250929050565b5f805f6060848603121561223757612236611d27565b5b5f61224486828701611d75565b935050602061225586828701611d75565b925050604061226686828701611e09565b9150509250925092565b61227981611dea565b82525050565b5f60c0820190508181035f8301526122978189612162565b905081810360208301526122ab8188612162565b90506122ba6040830187612270565b6122c76060830186612270565b81810360808301526122d98185612162565b905081810360a08301526122ed8184612162565b9050979650505050505050565b5f6020828403121561230f5761230e611d27565b5b5f61231c84828501611d75565b91505092915050565b5f6020820190506123385f830184612270565b92915050565b61234781611fba565b8114612351575f80fd5b50565b5f813590506123628161233e565b92915050565b5f806040838503121561237e5761237d611d27565b5b5f61238b85828601611d75565b925050602061239c85828601612354565b9150509250929050565b5f80fd5b7f4e487b71000000000000000000000000000000000000000000000000000000005f52604160045260245ffd5b6123e082612040565b810181811067ffffffffffffffff821117156123ff576123fe6123aa565b5b80604052505050565b5f612411611d1e565b905061241d82826123d7565b919050565b5f67ffffffffffffffff82111561243c5761243b6123aa565b5b61244582612040565b9050602081019050919050565b828183375f83830152505050565b5f61247261246d84612422565b612408565b90508281526020810184848401111561248e5761248d6123a6565b5b612499848285612452565b509392505050565b5f82601f8301126124b5576124b4611d89565b5b81356124c5848260208601612460565b91505092915050565b5f805f80608085870312156124e6576124e5611d27565b5b5f6124f387828801611d75565b945050602061250487828801611d75565b935050604061251587828801611e09565b925050606085013567ffffffffffffffff81111561253657612535611d2b565b5b612542878288016124a1565b91505092959194509250565b5f806040838503121561256457612563611d27565b5b5f61257185828601611d75565b925050602061258285828601611d75565b9150509250929050565b7f4e487b71000000000000000000000000000000000000000000000000000000005f52601160045260245ffd5b5f6125c382611dea565b91507fffffffffffffffffffffffffffffffffffffffffffffffffffffffffffffffff82036125f5576125f461258c565b5b600182019050919050565b7f4e487b71000000000000000000000000000000000000000000000000000000005f52602260045260245ffd5b5f600282049050600182168061264457607f821691505b60208210810361265757612656612600565b5b50919050565b5f819050815f5260205f209050919050565b5f6020601f8301049050919050565b5f82821b905092915050565b5f600883026126b97fffffffffffffffffffffffffffffffffffffffffffffffffffffffffffffffff8261267e565b6126c3868361267e565b95508019841693508086168417925050509392505050565b5f819050919050565b5f6126fe6126f96126f484611dea565b6126db565b611dea565b9050919050565b5f819050919050565b612717836126e4565b61272b61272382612705565b84845461268a565b825550505050565b5f90565b61273f612733565b61274a81848461270e565b505050565b5b8181101561276d576127625f82612737565b600181019050612750565b5050565b601f8211156127b2576127838161265d565b61278c8461266f565b8101602085101561279b578190505b6127af6127a78561266f565b83018261274f565b50505b505050565b5f82821c905092915050565b5f6127d25f19846008026127b7565b1980831691505092915050565b5f6127ea83836127c3565b9150826002028217905092915050565b61280382612018565b67ffffffffffffffff81111561281c5761281b6123aa565b5b612826825461262d565b612831828285612771565b5f60209050601f831160018114612862575f8415612850578287015190505b61285a85826127df565b8655506128c1565b601f1984166128708661265d565b5f5b8281101561289757848901518255600182019150602085019450602081019050612872565b868310156128b457848901516128b0601f8916826127c3565b8355505b6001600288020188555050505b505050505050565b5f6060820190506128dc5f8301866121ba565b6128e96020830185612270565b6128f660408301846121ba565b949350505050565b5f81905092915050565b5f61291282612018565b61291c81856128fe565b935061292c818560208601612032565b80840191505092915050565b5f6129438285612908565b915061294f8284612908565b91508190509392505050565b5f81519050919050565b5f82825260208201905092915050565b5f61297f8261295b565b6129898185612965565b9350612999818560208601612032565b6129a281612040565b840191505092915050565b5f6080820190506129c05f8301876121ba565b6129cd60208301866121ba565b6129da6040830185612270565b81810360608301526129ec8184612975565b905095945050505050565b5f81519050612a0581611f65565b92915050565b5f60208284031215612a2057612a1f611d27565b5b5f612a2d848285016129f7565b91505092915050565b7f4e487b71000000000000000000000000000000000000000000000000000000005f52601260045260245ffd5b5f604082019050612a765f8301856121ba565b612a836020830184612270565b939250505056fea2646970667358221220264d691c0984818beb2f7c8e61ff9003492c8aad79784e29171a4d2ae204b60664736f6c634300081a0033",
    "linkReferences": {}
  },
  "methodIdentifiers": {
    "approve(address,uint256)": "095ea7b3",
    "balanceOf(address)": "70a08231",
    "cargoDetails(uint256)": "342ce91b",
    "getApproved(uint256)": "081812fc",
    "getCargoDetails(uint256)": "02289648",
    "isApprovedForAll(address,address)": "e985e9c5",
    "mintCargo(address,string,string,uint256,uint256,string,string)": "00db4151",
    "name()": "06fdde03",
    "ownerOf(uint256)": "6352211e",
    "safeTransferFrom(address,address,uint256)": "42842e0e",
    "safeTransferFrom(address,address,uint256,bytes)": "b88d4fde",
    "setApprovalForAll(address,bool)": "a22cb465",
    "supportsInterface(bytes4)": "01ffc9a7",
    "symbol()": "95d89b41",
    "tokenURI(uint256)": "c87b56dd",
    "transferFrom(address,address,uint256)": "23b872dd"
  },
  "id": 29
}