{"abi":[{"type":"constructor","inputs":[],"stateMutability":"nonpayable"},{"type":"function","name":"approve","inputs":[{"name":"to","type":"address","internalType":"address"},{"name":"tokenId","type":"uint256","internalType":"uint256"}],"outputs":[],"stateMutability":"nonpayable"},{"type":"function","name":"balanceOf","inputs":[{"name":"owner","type":"address","internalType":"address"}],"outputs":[{"name":"","type":"uint256","internalType":"uint256"}],"stateMutability":"view"},{"type":"function","name":"checkInsurance","inputs":[{"name":"_policyType","type":"uint8","internalType":"enum InsurancePolicyNFT.PolicyType"},{"name":"_tokenId","type":"uint256","internalType":"uint256"}],"outputs":[{"name":"","type":"bool","internalType":"bool"}],"stateMutability":"view"},{"type":"function","name":"claimPayout","inputs":[{"name":"policyTokenId","type":"uint256","internalType":"uint256"}],"outputs":[],"stateMutability":"nonpayable"},{"type":"function","name":"fulfillPayout","inputs":[{"name":"policyTokenId","type":"uint256","internalType":"uint256"},{"name":"value","type":"int256","internalType":"int256"}],"outputs":[],"stateMutability":"nonpayable"},{"type":"function","name":"getApproved","inputs":[{"name":"tokenId","type":"uint256","internalType":"uint256"}],"outputs":[{"name":"","type":"address","internalType":"address"}],"stateMutability":"view"},{"type":"function","name":"isApprovedForAll","inputs":[{"name":"owner","type":"address","internalType":"address"},{"name":"operator","type":"address","internalType":"address"}],"outputs":[{"name":"","type":"bool","internalType":"bool"}],"stateMutability":"view"},{"type":"function","name":"isInsured","inputs":[{"name":"","type":"uint256","internalType":"uint256"},{"name":"","type":"uint256","internalType":"uint256"}],"outputs":[{"name":"","type":"bool","internalType":"bool"}],"stateMutability":"view"},{"type":"function","name":"mintPolicy","inputs":[{"name":"_policyType","type":"uint8","internalType":"enum InsurancePolicyNFT.PolicyType"},{"name":"_insuredTokenId","type":"uint256","internalType":"uint256"},{"name":"_payoutAmount","type":"uint256","internalType":"uint256"},{"name":"_triggerCondition","type":"uint8","internalType":"enum InsurancePolicyNFT.TriggerCondition"},{"name":"_dataSource","type":"bytes32","internalType":"bytes32"},{"name":"_threshold","type":"int256","internalType":"int256"},{"name":"_expiryTimestamp","type":"uint256","internalType":"uint256"}],"outputs":[],"stateMutability":"payable"},{"type":"function","name":"name","inputs":[],"outputs":[{"name":"","type":"string","internalType":"string"}],"stateMutability":"view"},{"type":"function","name":"oracle","inputs":[],"outputs":[{"name":"","type":"address","internalType":"address"}],"stateMutability":"view"},{"type":"function","name":"ownerOf","inputs":[{"name":"tokenId","type":"uint256","internalType":"uint256"}],"outputs":[{"name":"","type":"address","internalType":"address"}],"stateMutability":"view"},{"type":"function","name":"policies","inputs":[{"name":"","type":"uint256","internalType":"uint256"}],"outputs":[{"name":"policyHolder","type":"address","internalType":"address"},{"name":"policyType","type":"uint8","internalType":"enum InsurancePolicyNFT.PolicyType"},{"name":"insuredTokenId","type":"uint256","internalType":"uint256"},{"name":"payoutAmount","type":"uint256","internalType":"uint256"},{"name":"premium","type":"uint256","internalType":"uint256"},{"name":"expiryTimestamp","type":"uint256","internalType":"uint256"},{"name":"triggerCondition","type":"uint8","internalType":"enum InsurancePolicyNFT.TriggerCondition"},{"name":"dataSource","type":"bytes32","internalType":"bytes32"},{"name":"threshold","type":"int256","internalType":"int256"},{"name":"isActive","type":"bool","internalType":"bool"}],"stateMutability":"view"},{"type":"function","name":"safeTransferFrom","inputs":[{"name":"from","type":"address","internalType":"address"},{"name":"to","type":"address","internalType":"address"},{"name":"tokenId","type":"uint256","internalType":"uint256"}],"outputs":[],"stateMutability":"nonpayable"},{"type":"function","name":"safeTransferFrom","inputs":[{"name":"from","type":"address","internalType":"address"},{"name":"to","type":"address","internalType":"address"},{"name":"tokenId","type":"uint256","internalType":"uint256"},{"name":"data","type":"bytes","internalType":"bytes"}],"outputs":[],"stateMutability":"nonpayable"},{"type":"function","name":"setApprovalForAll","inputs":[{"name":"operator","type":"address","internalType":"address"},{"name":"approved","type":"bool","internalType":"bool"}],"outputs":[],"stateMutability":"nonpayable"},{"type":"function","name":"supportsInterface","inputs":[{"name":"interfaceId","type":"bytes4","internalType":"bytes4"}],"outputs":[{"name":"","type":"bool","internalType":"bool"}],"stateMutability":"view"},{"type":"function","name":"symbol","inputs":[],"outputs":[{"name":"","type":"string","internalType":"string"}],"stateMutability":"view"},{"type":"function","name":"tokenURI","inputs":[{"name":"tokenId","type":"uint256","internalType":"uint256"}],"outputs":[{"name":"","type":"string","internalType":"string"}],"stateMutability":"view"},{"type":"function","name":"transferFrom","inputs":[{"name":"from","type":"address","internalType":"address"},{"name":"to","type":"address","internalType":"address"},{"name":"tokenId","type":"uint256","internalType":"uint256"}],"outputs":[],"stateMutability":"nonpayable"},{"type":"event","name":"Approval","inputs":[{"name":"owner","type":"address","indexed":true,"internalType":"address"},{"name":"approved","type":"address","indexed":true,"internalType":"address"},{"name":"tokenId","type":"uint256","indexed":true,"internalType":"uint256"}],"anonymous":false},{"type":"event","name":"ApprovalForAll","inputs":[{"name":"owner","type":"address","indexed":true,"internalType":"address"},{"name":"operator","type":"address","indexed":true,"internalType":"address"},{"name":"approved","type":"bool","indexed":false,"internalType":"bool"}],"anonymous":false},{"type":"event","name":"PayoutClaimed","inputs":[{"name":"policyTokenId","type":"uint256","indexed":true,"internalType":"uint256"},{"name":"amount","type":"uint256","indexed":false,"internalType":"uint256"}],"anonymous":false},{"type":"event","name":"PolicyMinted","inputs":[{"name":"policyTokenId","type":"uint256","indexed":true,"internalType":"uint256"},{"name":"policyHolder","type":"address","indexed":true,"internalType":"address"},{"name":"triggerCondition","type":"uint8","indexed":false,"internalType":"enum InsurancePolicyNFT.TriggerCondition"},{"name":"payoutAmount","type":"uint256","indexed":false,"internalType":"uint256"}],"anonymous":false},{"type":"event","name":"Transfer","inputs":[{"name":"from","type":"address","indexed":true,"internalType":"address"},{"name":"to","type":"address","indexed":true,"internalType":"address"},{"name":"tokenId","type":"uint256","indexed":true,"internalType":"uint256"}],"anonymous":false},{"type":"error","name":"ERC721IncorrectOwner","inputs":[{"name":"sender","type":"address","internalType":"address"},{"name":"tokenId","type":"uint256","internalType":"uint256"},{"name":"owner","type":"address","internalType":"address"}]},{"type":"error","name":"ERC721InsufficientApproval","inputs":[{"name":"operator","type":"address","internalType":"address"},{"name":"tokenId","type":"uint256","internalType":"uint256"}]},{"type":"error","name":"ERC721InvalidApprover","inputs":[{"name":"approver","type":"address","internalType":"address"}]},{"type":"error","name":"ERC721InvalidOperator","inputs":[{"name":"operator","type":"address","internalType":"address"}]},{"type":"error","name":"ERC721InvalidOwner","inputs":[{"name":"owner","type":"address","internalType":"address"}]},{"type":"error","name":"ERC721InvalidReceiver","inputs":[{"name":"receiver","type":"address","internalType":"address"}]},{"type":"error","name":"ERC721InvalidSender","inputs":[{"name":"sender","type":"address","internalType":"address"}]},{"type":"error","name":"ERC721NonexistentToken","inputs":[{"name":"tokenId","type":"uint256","internalType":"uint256"}]},{"type":"error","name":"ReentrancyGuardReentrantCall","inputs":[]}],"bytecode":{"object":"0x608060405234801561000f575f80fd5b506040518060400160405280601681526020017f5368697042726f6b6572616765496e737572616e6365000000000000000000008152506040518060400160405280600381526020017f5342490000000000000000000000000000000000000000000000000000000000815250815f908161008a91906102e4565b50806001908161009a91906102e4565b50505060016006819055506103b3565b5f81519050919050565b7f4e487b71000000000000000000000000000000000000000000000000000000005f52604160045260245ffd5b7f4e487b71000000000000000000000000000000000000000000000000000000005f52602260045260245ffd5b5f600282049050600182168061012557607f821691505b602082108103610138576101376100e1565b5b50919050565b5f819050815f5260205f209050919050565b5f6020601f8301049050919050565b5f82821b905092915050565b5f6008830261019a7fffffffffffffffffffffffffffffffffffffffffffffffffffffffffffffffff8261015f565b6101a4868361015f565b95508019841693508086168417925050509392505050565b5f819050919050565b5f819050919050565b5f6101e86101e36101de846101bc565b6101c5565b6101bc565b9050919050565b5f819050919050565b610201836101ce565b61021561020d826101ef565b84845461016b565b825550505050565b5f90565b61022961021d565b6102348184846101f8565b505050565b5b818110156102575761024c5f82610221565b60018101905061023a565b5050565b601f82111561029c5761026d8161013e565b61027684610150565b81016020851015610285578190505b61029961029185610150565b830182610239565b50505b505050565b5f82821c905092915050565b5f6102bc5f19846008026102a1565b1980831691505092915050565b5f6102d483836102ad565b9150826002028217905092915050565b6102ed826100aa565b67ffffffffffffffff811115610306576103056100b4565b5b610310825461010e565b61031b82828561025b565b5f60209050601f83116001811461034c575f841561033a578287015190505b61034485826102c9565b8655506103ab565b601f19841661035a8661013e565b5f5b828110156103815784890151825560018201915060208501945060208101905061035c565b8683101561039e578489015161039a601f8916826102ad565b8355505b6001600288020188555050505b505050505050565b612be3806103c05f395ff3fe60806040526004361061011e575f3560e01c80637dc0d1d01161009f578063c298445c11610063578063c298445c146103d8578063c87b56dd14610400578063d3e894831461043c578063e19cdacd14610481578063e985e9c5146104bd5761011e565b80637dc0d1d01461030c5780638a69614e1461033657806395d89b411461035e578063a22cb46514610388578063b88d4fde146103b05761011e565b806323b872dd116100e657806323b872dd1461022857806342842e0e14610250578063496afcfa146102785780636352211e1461029457806370a08231146102d05761011e565b806301ffc9a71461012257806306fdde031461015e578063081812fc14610188578063094815ef146101c4578063095ea7b314610200575b5f80fd5b34801561012d575f80fd5b5061014860048036038101906101439190611e9e565b6104f9565b6040516101559190611ee3565b60405180910390f35b348015610169575f80fd5b506101726105da565b60405161017f9190611f6c565b60405180910390f35b348015610193575f80fd5b506101ae60048036038101906101a99190611fbf565b610669565b6040516101bb9190612029565b60405180910390f35b3480156101cf575f80fd5b506101ea60048036038101906101e59190612065565b610684565b6040516101f79190611ee3565b60405180910390f35b34801561020b575f80fd5b50610226600480360381019061022191906120cd565b6106cc565b005b348015610233575f80fd5b5061024e6004803603810190610249919061210b565b6106e2565b005b34801561025b575f80fd5b506102766004803603810190610271919061210b565b6107e1565b005b610292600480360381019061028d91906121e4565b610800565b005b34801561029f575f80fd5b506102ba60048036038101906102b59190611fbf565b610aaa565b6040516102c79190612029565b60405180910390f35b3480156102db575f80fd5b506102f660048036038101906102f19190612281565b610abb565b60405161030391906122bb565b60405180910390f35b348015610317575f80fd5b50610320610b71565b60405161032d9190612029565b60405180910390f35b348015610341575f80fd5b5061035c60048036038101906103579190611fbf565b610b96565b005b348015610369575f80fd5b50610372610bf9565b60405161037f9190611f6c565b60405180910390f35b348015610393575f80fd5b506103ae60048036038101906103a991906122fe565b610c89565b005b3480156103bb575f80fd5b506103d660048036038101906103d19190612468565b610c9f565b005b3480156103e3575f80fd5b506103fe60048036038101906103f991906124e8565b610cbc565b005b34801561040b575f80fd5b5061042660048036038101906104219190611fbf565b610ef9565b6040516104339190611f6c565b60405180910390f35b348015610447575f80fd5b50610462600480360381019061045d9190611fbf565b610f5f565b6040516104789a999897969594939291906125fd565b60405180910390f35b34801561048c575f80fd5b506104a760048036038101906104a29190612697565b610ff2565b6040516104b49190611ee3565b60405180910390f35b3480156104c8575f80fd5b506104e360048036038101906104de91906126d5565b61101c565b6040516104f09190611ee3565b60405180910390f35b5f7f80ac58cd000000000000000000000000000000000000000000000000000000007bffffffffffffffffffffffffffffffffffffffffffffffffffffffff1916827bffffffffffffffffffffffffffffffffffffffffffffffffffffffff191614806105c357507f5b5e139f000000000000000000000000000000000000000000000000000000007bffffffffffffffffffffffffffffffffffffffffffffffffffffffff1916827bffffffffffffffffffffffffffffffffffffffffffffffffffffffff1916145b806105d357506105d2826110aa565b5b9050919050565b60605f80546105e890612740565b80601f016020809104026020016040519081016040528092919081815260200182805461061490612740565b801561065f5780601f106106365761010080835404028352916020019161065f565b820191905f5260205f20905b81548152906001019060200180831161064257829003601f168201915b5050505050905090565b5f61067382611113565b5061067d82611199565b9050919050565b5f60085f84600181111561069b5761069a612526565b5b81526020019081526020015f205f8381526020019081526020015f205f9054906101000a900460ff16905092915050565b6106de82826106d96111d2565b6111d9565b5050565b5f73ffffffffffffffffffffffffffffffffffffffff168273ffffffffffffffffffffffffffffffffffffffff1603610752575f6040517f64a0ae920000000000000000000000000000000000000000000000000000000081526004016107499190612029565b60405180910390fd5b5f61076583836107606111d2565b6111eb565b90508373ffffffffffffffffffffffffffffffffffffffff168173ffffffffffffffffffffffffffffffffffffffff16146107db578382826040517f64283d7b0000000000000000000000000000000000000000000000000000000081526004016107d293929190612770565b60405180910390fd5b50505050565b6107fb83838360405180602001604052805f815250610c9f565b505050565b5f3490505f8111610846576040517f08c379a000000000000000000000000000000000000000000000000000000000815260040161083d906127ef565b60405180910390fd5b5f60095f8154809291906108599061283a565b9190505590505f33905061086d81836113f6565b6040518061014001604052808273ffffffffffffffffffffffffffffffffffffffff1681526020018b60018111156108a8576108a7612526565b5b81526020018a81526020018981526020018481526020018581526020018860038111156108d8576108d7612526565b5b81526020018781526020018681526020016001151581525060075f8481526020019081526020015f205f820151815f015f6101000a81548173ffffffffffffffffffffffffffffffffffffffff021916908373ffffffffffffffffffffffffffffffffffffffff1602179055506020820151815f0160146101000a81548160ff0219169083600181111561096f5761096e612526565b5b021790555060408201518160010155606082015181600201556080820151816003015560a0820151816004015560c0820151816005015f6101000a81548160ff021916908360038111156109c6576109c5612526565b5b021790555060e082015181600601556101008201518160070155610120820151816008015f6101000a81548160ff021916908315150217905550905050600160085f8c6001811115610a1b57610a1a612526565b5b81526020019081526020015f205f8b81526020019081526020015f205f6101000a81548160ff0219169083151502179055508073ffffffffffffffffffffffffffffffffffffffff16827f5b5b62329a106ac0ccfcb19c21d50b6a98aef9c84e63d0cd23f0dbc300493a53898b604051610a96929190612881565b60405180910390a350505050505050505050565b5f610ab482611113565b9050919050565b5f8073ffffffffffffffffffffffffffffffffffffffff168273ffffffffffffffffffffffffffffffffffffffff1603610b2c575f6040517f89c62b64000000000000000000000000000000000000000000000000000000008152600401610b239190612029565b60405180910390fd5b60035f8373ffffffffffffffffffffffffffffffffffffffff1673ffffffffffffffffffffffffffffffffffffffff1681526020019081526020015f20549050919050565b600a5f9054906101000a900473ffffffffffffffffffffffffffffffffffffffff1681565b60075f8281526020019081526020015f206008015f9054906101000a900460ff16610bf6576040517f08c379a0000000000000000000000000000000000000000000000000000000008152600401610bed906128f2565b60405180910390fd5b50565b606060018054610c0890612740565b80601f0160208091040260200160405190810160405280929190818152602001828054610c3490612740565b8015610c7f5780601f10610c5657610100808354040283529160200191610c7f565b820191905f5260205f20905b815481529060010190602001808311610c6257829003601f168201915b5050505050905090565b610c9b610c946111d2565b8383611413565b5050565b610caa8484846106e2565b610cb68484848461157c565b50505050565b610cc461172e565b5f60075f8481526020019081526020015f209050806008015f9054906101000a900460ff16610d28576040517f08c379a0000000000000000000000000000000000000000000000000000000008152600401610d1f906128f2565b60405180910390fd5b8060040154421115610d6f576040517f08c379a0000000000000000000000000000000000000000000000000000000008152600401610d669061295a565b60405180910390fd5b5f60016003811115610d8457610d83612526565b5b826005015f9054906101000a900460ff166003811115610da757610da6612526565b5b03610dbe578160070154831315610dbd57600190505b5b8015610eeb575f826008015f6101000a81548160ff0219169083151502179055505f825f015f9054906101000a900473ffffffffffffffffffffffffffffffffffffffff1673ffffffffffffffffffffffffffffffffffffffff168360020154604051610e2a906129a5565b5f6040518083038185875af1925050503d805f8114610e64576040519150601f19603f3d011682016040523d82523d5f602084013e610e69565b606091505b5050905080610ead576040517f08c379a0000000000000000000000000000000000000000000000000000000008152600401610ea490612a03565b60405180910390fd5b847f2a1bbd303862c79f3c425af8629534a4b6676d51dd3db2a62c97027802d0ad988460020154604051610ee191906122bb565b60405180910390a2505b5050610ef5611774565b5050565b6060610f0482611113565b505f610f0e61177e565b90505f815111610f2c5760405180602001604052805f815250610f57565b80610f3684611794565b604051602001610f47929190612a5b565b6040516020818303038152906040525b915050919050565b6007602052805f5260405f205f91509050805f015f9054906101000a900473ffffffffffffffffffffffffffffffffffffffff1690805f0160149054906101000a900460ff1690806001015490806002015490806003015490806004015490806005015f9054906101000a900460ff1690806006015490806007015490806008015f9054906101000a900460ff1690508a565b6008602052815f5260405f20602052805f5260405f205f915091509054906101000a900460ff1681565b5f60055f8473ffffffffffffffffffffffffffffffffffffffff1673ffffffffffffffffffffffffffffffffffffffff1681526020019081526020015f205f8373ffffffffffffffffffffffffffffffffffffffff1673ffffffffffffffffffffffffffffffffffffffff1681526020019081526020015f205f9054906101000a900460ff16905092915050565b5f7f01ffc9a7000000000000000000000000000000000000000000000000000000007bffffffffffffffffffffffffffffffffffffffffffffffffffffffff1916827bffffffffffffffffffffffffffffffffffffffffffffffffffffffff1916149050919050565b5f8061111e8361185e565b90505f73ffffffffffffffffffffffffffffffffffffffff168173ffffffffffffffffffffffffffffffffffffffff160361119057826040517f7e27328900000000000000000000000000000000000000000000000000000000815260040161118791906122bb565b60405180910390fd5b80915050919050565b5f60045f8381526020019081526020015f205f9054906101000a900473ffffffffffffffffffffffffffffffffffffffff169050919050565b5f33905090565b6111e68383836001611897565b505050565b5f806111f68461185e565b90505f73ffffffffffffffffffffffffffffffffffffffff168373ffffffffffffffffffffffffffffffffffffffff161461123757611236818486611a56565b5b5f73ffffffffffffffffffffffffffffffffffffffff168173ffffffffffffffffffffffffffffffffffffffff16146112c2576112765f855f80611897565b600160035f8373ffffffffffffffffffffffffffffffffffffffff1673ffffffffffffffffffffffffffffffffffffffff1681526020019081526020015f205f82825403925050819055505b5f73ffffffffffffffffffffffffffffffffffffffff168573ffffffffffffffffffffffffffffffffffffffff161461134157600160035f8773ffffffffffffffffffffffffffffffffffffffff1673ffffffffffffffffffffffffffffffffffffffff1681526020019081526020015f205f82825401925050819055505b8460025f8681526020019081526020015f205f6101000a81548173ffffffffffffffffffffffffffffffffffffffff021916908373ffffffffffffffffffffffffffffffffffffffff160217905550838573ffffffffffffffffffffffffffffffffffffffff168273ffffffffffffffffffffffffffffffffffffffff167fddf252ad1be2c89b69c2b068fc378daa952ba7f163c4a11628f55a4df523b3ef60405160405180910390a4809150509392505050565b61140f828260405180602001604052805f815250611b19565b5050565b5f73ffffffffffffffffffffffffffffffffffffffff168273ffffffffffffffffffffffffffffffffffffffff160361148357816040517f5b08ba1800000000000000000000000000000000000000000000000000000000815260040161147a9190612029565b60405180910390fd5b8060055f8573ffffffffffffffffffffffffffffffffffffffff1673ffffffffffffffffffffffffffffffffffffffff1681526020019081526020015f205f8473ffffffffffffffffffffffffffffffffffffffff1673ffffffffffffffffffffffffffffffffffffffff1681526020019081526020015f205f6101000a81548160ff0219169083151502179055508173ffffffffffffffffffffffffffffffffffffffff168373ffffffffffffffffffffffffffffffffffffffff167f17307eab39ab6107e8899845ad3d59bd9653f200f220920489ca2b5937696c318360405161156f9190611ee3565b60405180910390a3505050565b5f8373ffffffffffffffffffffffffffffffffffffffff163b1115611728578273ffffffffffffffffffffffffffffffffffffffff1663150b7a026115bf6111d2565b8685856040518563ffffffff1660e01b81526004016115e19493929190612ad0565b6020604051808303815f875af192505050801561161c57506040513d601f19601f820116820180604052508101906116199190612b2e565b60015b61169d573d805f811461164a576040519150601f19603f3d011682016040523d82523d5f602084013e61164f565b606091505b505f81510361169557836040517f64a0ae9200000000000000000000000000000000000000000000000000000000815260040161168c9190612029565b60405180910390fd5b805181602001fd5b63150b7a0260e01b7bffffffffffffffffffffffffffffffffffffffffffffffffffffffff1916817bffffffffffffffffffffffffffffffffffffffffffffffffffffffff19161461172657836040517f64a0ae9200000000000000000000000000000000000000000000000000000000815260040161171d9190612029565b60405180910390fd5b505b50505050565b60026006540361176a576040517f3ee5aeb500000000000000000000000000000000000000000000000000000000815260040160405180910390fd5b6002600681905550565b6001600681905550565b606060405180602001604052805f815250905090565b60605f60016117a284611b34565b0190505f8167ffffffffffffffff8111156117c0576117bf612344565b5b6040519080825280601f01601f1916602001820160405280156117f25781602001600182028036833780820191505090505b5090505f82602001820190505b600115611853578080600190039150507f3031323334353637383961626364656600000000000000000000000000000000600a86061a8153600a858161184857611847612b59565b5b0494505f85036117ff575b819350505050919050565b5f60025f8381526020019081526020015f205f9054906101000a900473ffffffffffffffffffffffffffffffffffffffff169050919050565b80806118cf57505f73ffffffffffffffffffffffffffffffffffffffff168273ffffffffffffffffffffffffffffffffffffffff1614155b15611a01575f6118de84611113565b90505f73ffffffffffffffffffffffffffffffffffffffff168373ffffffffffffffffffffffffffffffffffffffff161415801561194857508273ffffffffffffffffffffffffffffffffffffffff168173ffffffffffffffffffffffffffffffffffffffff1614155b801561195b5750611959818461101c565b155b1561199d57826040517fa9fbf51f0000000000000000000000000000000000000000000000000000000081526004016119949190612029565b60405180910390fd5b81156119ff57838573ffffffffffffffffffffffffffffffffffffffff168273ffffffffffffffffffffffffffffffffffffffff167f8c5be1e5ebec7d5bd14f71427d1e84f3dd0314c0f7b2291e5b200ac8c7c3b92560405160405180910390a45b505b8360045f8581526020019081526020015f205f6101000a81548173ffffffffffffffffffffffffffffffffffffffff021916908373ffffffffffffffffffffffffffffffffffffffff16021790555050505050565b611a61838383611c85565b611b14575f73ffffffffffffffffffffffffffffffffffffffff168373ffffffffffffffffffffffffffffffffffffffff1603611ad557806040517f7e273289000000000000000000000000000000000000000000000000000000008152600401611acc91906122bb565b60405180910390fd5b81816040517f177e802f000000000000000000000000000000000000000000000000000000008152600401611b0b929190612b86565b60405180910390fd5b505050565b611b238383611d45565b611b2f5f84848461157c565b505050565b5f805f90507a184f03e93ff9f4daa797ed6e38ed64bf6a1f0100000000000000008310611b90577a184f03e93ff9f4daa797ed6e38ed64bf6a1f0100000000000000008381611b8657611b85612b59565b5b0492506040810190505b6d04ee2d6d415b85acef81000000008310611bcd576d04ee2d6d415b85acef81000000008381611bc357611bc2612b59565b5b0492506020810190505b662386f26fc100008310611bfc57662386f26fc100008381611bf257611bf1612b59565b5b0492506010810190505b6305f5e1008310611c25576305f5e1008381611c1b57611c1a612b59565b5b0492506008810190505b6127108310611c4a576127108381611c4057611c3f612b59565b5b0492506004810190505b60648310611c6d5760648381611c6357611c62612b59565b5b0492506002810190505b600a8310611c7c576001810190505b80915050919050565b5f8073ffffffffffffffffffffffffffffffffffffffff168373ffffffffffffffffffffffffffffffffffffffff1614158015611d3c57508273ffffffffffffffffffffffffffffffffffffffff168473ffffffffffffffffffffffffffffffffffffffff161480611cfd5750611cfc848461101c565b5b80611d3b57508273ffffffffffffffffffffffffffffffffffffffff16611d2383611199565b73ffffffffffffffffffffffffffffffffffffffff16145b5b90509392505050565b5f73ffffffffffffffffffffffffffffffffffffffff168273ffffffffffffffffffffffffffffffffffffffff1603611db5575f6040517f64a0ae92000000000000000000000000000000000000000000000000000000008152600401611dac9190612029565b60405180910390fd5b5f611dc183835f6111eb565b90505f73ffffffffffffffffffffffffffffffffffffffff168173ffffffffffffffffffffffffffffffffffffffff1614611e33575f6040517f73c6ac6e000000000000000000000000000000000000000000000000000000008152600401611e2a9190612029565b60405180910390fd5b505050565b5f604051905090565b5f80fd5b5f80fd5b5f7fffffffff0000000000000000000000000000000000000000000000000000000082169050919050565b611e7d81611e49565b8114611e87575f80fd5b50565b5f81359050611e9881611e74565b92915050565b5f60208284031215611eb357611eb2611e41565b5b5f611ec084828501611e8a565b91505092915050565b5f8115159050919050565b611edd81611ec9565b82525050565b5f602082019050611ef65f830184611ed4565b92915050565b5f81519050919050565b5f82825260208201905092915050565b8281835e5f83830152505050565b5f601f19601f8301169050919050565b5f611f3e82611efc565b611f488185611f06565b9350611f58818560208601611f16565b611f6181611f24565b840191505092915050565b5f6020820190508181035f830152611f848184611f34565b905092915050565b5f819050919050565b611f9e81611f8c565b8114611fa8575f80fd5b50565b5f81359050611fb981611f95565b92915050565b5f60208284031215611fd457611fd3611e41565b5b5f611fe184828501611fab565b91505092915050565b5f73ffffffffffffffffffffffffffffffffffffffff82169050919050565b5f61201382611fea565b9050919050565b61202381612009565b82525050565b5f60208201905061203c5f83018461201a565b92915050565b6002811061204e575f80fd5b50565b5f8135905061205f81612042565b92915050565b5f806040838503121561207b5761207a611e41565b5b5f61208885828601612051565b925050602061209985828601611fab565b9150509250929050565b6120ac81612009565b81146120b6575f80fd5b50565b5f813590506120c7816120a3565b92915050565b5f80604083850312156120e3576120e2611e41565b5b5f6120f0858286016120b9565b925050602061210185828601611fab565b9150509250929050565b5f805f6060848603121561212257612121611e41565b5b5f61212f868287016120b9565b9350506020612140868287016120b9565b925050604061215186828701611fab565b9150509250925092565b60048110612167575f80fd5b50565b5f813590506121788161215b565b92915050565b5f819050919050565b6121908161217e565b811461219a575f80fd5b50565b5f813590506121ab81612187565b92915050565b5f819050919050565b6121c3816121b1565b81146121cd575f80fd5b50565b5f813590506121de816121ba565b92915050565b5f805f805f805f60e0888a0312156121ff576121fe611e41565b5b5f61220c8a828b01612051565b975050602061221d8a828b01611fab565b965050604061222e8a828b01611fab565b955050606061223f8a828b0161216a565b94505060806122508a828b0161219d565b93505060a06122618a828b016121d0565b92505060c06122728a828b01611fab565b91505092959891949750929550565b5f6020828403121561229657612295611e41565b5b5f6122a3848285016120b9565b91505092915050565b6122b581611f8c565b82525050565b5f6020820190506122ce5f8301846122ac565b92915050565b6122dd81611ec9565b81146122e7575f80fd5b50565b5f813590506122f8816122d4565b92915050565b5f806040838503121561231457612313611e41565b5b5f612321858286016120b9565b9250506020612332858286016122ea565b9150509250929050565b5f80fd5b5f80fd5b7f4e487b71000000000000000000000000000000000000000000000000000000005f52604160045260245ffd5b61237a82611f24565b810181811067ffffffffffffffff8211171561239957612398612344565b5b80604052505050565b5f6123ab611e38565b90506123b78282612371565b919050565b5f67ffffffffffffffff8211156123d6576123d5612344565b5b6123df82611f24565b9050602081019050919050565b828183375f83830152505050565b5f61240c612407846123bc565b6123a2565b90508281526020810184848401111561242857612427612340565b5b6124338482856123ec565b509392505050565b5f82601f83011261244f5761244e61233c565b5b813561245f8482602086016123fa565b91505092915050565b5f805f80608085870312156124805761247f611e41565b5b5f61248d878288016120b9565b945050602061249e878288016120b9565b93505060406124af87828801611fab565b925050606085013567ffffffffffffffff8111156124d0576124cf611e45565b5b6124dc8782880161243b565b91505092959194509250565b5f80604083850312156124fe576124fd611e41565b5b5f61250b85828601611fab565b925050602061251c858286016121d0565b9150509250929050565b7f4e487b71000000000000000000000000000000000000000000000000000000005f52602160045260245ffd5b6002811061256457612563612526565b5b50565b5f81905061257482612553565b919050565b5f61258382612567565b9050919050565b61259381612579565b82525050565b600481106125aa576125a9612526565b5b50565b5f8190506125ba82612599565b919050565b5f6125c9826125ad565b9050919050565b6125d9816125bf565b82525050565b6125e88161217e565b82525050565b6125f7816121b1565b82525050565b5f610140820190506126115f83018d61201a565b61261e602083018c61258a565b61262b604083018b6122ac565b612638606083018a6122ac565b61264560808301896122ac565b61265260a08301886122ac565b61265f60c08301876125d0565b61266c60e08301866125df565b61267a6101008301856125ee565b612688610120830184611ed4565b9b9a5050505050505050505050565b5f80604083850312156126ad576126ac611e41565b5b5f6126ba85828601611fab565b92505060206126cb85828601611fab565b9150509250929050565b5f80604083850312156126eb576126ea611e41565b5b5f6126f8858286016120b9565b9250506020612709858286016120b9565b9150509250929050565b7f4e487b71000000000000000000000000000000000000000000000000000000005f52602260045260245ffd5b5f600282049050600182168061275757607f821691505b60208210810361276a57612769612713565b5b50919050565b5f6060820190506127835f83018661201a565b61279060208301856122ac565b61279d604083018461201a565b949350505050565b7f49504e46543a205072656d69756d206d757374206265207061696400000000005f82015250565b5f6127d9601b83611f06565b91506127e4826127a5565b602082019050919050565b5f6020820190508181035f830152612806816127cd565b9050919050565b7f4e487b71000000000000000000000000000000000000000000000000000000005f52601160045260245ffd5b5f61284482611f8c565b91507fffffffffffffffffffffffffffffffffffffffffffffffffffffffffffffffff82036128765761287561280d565b5b600182019050919050565b5f6040820190506128945f8301856125d0565b6128a160208301846122ac565b9392505050565b7f49504e46543a20506f6c696379206973206e6f742061637469766500000000005f82015250565b5f6128dc601b83611f06565b91506128e7826128a8565b602082019050919050565b5f6020820190508181035f830152612909816128d0565b9050919050565b7f49504e46543a20506f6c696379206578706972656400000000000000000000005f82015250565b5f612944601583611f06565b915061294f82612910565b602082019050919050565b5f6020820190508181035f83015261297181612938565b9050919050565b5f81905092915050565b50565b5f6129905f83612978565b915061299b82612982565b5f82019050919050565b5f6129af82612985565b9150819050919050565b7f49504e46543a205061796f7574207472616e73666572206661696c65640000005f82015250565b5f6129ed601d83611f06565b91506129f8826129b9565b602082019050919050565b5f6020820190508181035f830152612a1a816129e1565b9050919050565b5f81905092915050565b5f612a3582611efc565b612a3f8185612a21565b9350612a4f818560208601611f16565b80840191505092915050565b5f612a668285612a2b565b9150612a728284612a2b565b91508190509392505050565b5f81519050919050565b5f82825260208201905092915050565b5f612aa282612a7e565b612aac8185612a88565b9350612abc818560208601611f16565b612ac581611f24565b840191505092915050565b5f608082019050612ae35f83018761201a565b612af0602083018661201a565b612afd60408301856122ac565b8181036060830152612b0f8184612a98565b905095945050505050565b5f81519050612b2881611e74565b92915050565b5f60208284031215612b4357612b42611e41565b5b5f612b5084828501612b1a565b91505092915050565b7f4e487b71000000000000000000000000000000000000000000000000000000005f52601260045260245ffd5b5f604082019050612b995f83018561201a565b612ba660208301846122ac565b939250505056fea2646970667358221220d1aa4aade944a76358d14f8ef5db399ed611ae0065d5f147ebcd7d9b6d32f47d64736f6c634300081a0033","linkReferences":{}},"methodIdentifiers":{"approve(address,uint256)":"095ea7b3","balanceOf(address)":"70a08231","checkInsurance(uint8,uint256)":"094815ef","claimPayout(uint256)":"8a69614e","fulfillPayout(uint256,int256)":"c298445c","getApproved(uint256)":"081812fc","isApprovedForAll(address,address)":"e985e9c5","isInsured(uint256,uint256)":"e19cdacd","mintPolicy(uint8,uint256,uint256,uint8,bytes32,int256,uint256)":"496afcfa","name()":"06fdde03","oracle()":"7dc0d1d0","ownerOf(uint256)":"6352211e","policies(uint256)":"d3e89483","safeTransferFrom(address,address,uint256)":"42842e0e","safeTransferFrom(address,address,uint256,bytes)":"b88d4fde","setApprovalForAll(address,bool)":"a22cb465","supportsInterface(bytes4)":"01ffc9a7","symbol()":"95d89b41","tokenURI(uint256)":"c87b56dd","transferFrom(address,address,uint256)":"23b872dd"},"id":30}