{
  "abi": [
    {
      "type": "function",
      "name": "checkInsurance",
      "inputs": [
        {
          "name": "_policyType",
          "type": "uint8",
          "internalType": "enum InsuranceManager.PolicyType"
        },
        {
          "name": "_tokenId",
          "type": "uint256",
          "internalType": "uint256"
        }
      ],
      "outputs": [
        {
          "name": "",
          "type": "bool",
          "internalType": "bool"
        }
      ],
      "stateMutability": "view"
    },
    {
      "type": "function",
      "name": "isInsured",
      "inputs": [
        {
          "name": "",
          "type": "uint256",
          "internalType": "uint256"
        },
        {
          "name": "",
          "type": "uint256",
          "internalType": "uint256"
        }
      ],
      "outputs": [
        {
          "name": "",
          "type": "bool",
          "internalType": "bool"
        }
      ],
      "stateMutability": "view"
    },
    {
      "type": "function",
      "name": "issuePolicy",
      "inputs": [
        {
          "name": "_policyHolder",
          "type": "address",
          "internalType": "address"
        },
        {
          "name": "_policyType",
          "type": "uint8",
          "internalType": "enum InsuranceManager.PolicyType"
        },
        {
          "name": "_insuredTokenId",
          "type": "uint256",
          "internalType": "uint256"
        },
        {
          "name": "_coverageAmount",
          "type": "uint256",
          "internalType": "uint256"
        },
        {
          "name": "_premium",
          "type": "uint256",
          "internalType": "uint256"
        },
        {
          "name": "_expiryTimestamp",
          "type": "uint256",
          "internalType": "uint256"
        }
      ],
      "outputs": [],
      "stateMutability": "payable"
    },
    {
      "type": "function",
      "name": "policies",
      "inputs": [
        {
          "name": "",
          "type": "uint256",
          "internalType": "uint256"
        }
      ],
      "outputs": [
        {
          "name": "policyId",
          "type": "uint256",
          "internalType": "uint256"
        },
        {
          "name": "policyHolder",
          "type": "address",
          "internalType": "address"
        },
        {
          "name": "policyType",
          "type": "uint8",
          "internalType": "enum InsuranceManager.PolicyType"
        },
        {
          "name": "insuredTokenId",
          "type": "uint256",
          "internalType": "uint256"
        },
        {
          "name": "coverageAmount",
          "type": "uint256",
          "internalType": "uint256"
        },
        {
          "name": "premium",
          "type": "uint256",
          "internalType": "uint256"
        },
        {
          "name": "expiryTimestamp",
          "type": "uint256",
          "internalType": "uint256"
        },
        {
          "name": "isActive",
          "type": "bool",
          "internalType": "bool"
        }
      ],
      "stateMutability": "view"
    },
    {
      "type": "event",
      "name": "PolicyIssued",
      "inputs": [
        {
          "name": "policyId",
          "type": "uint256",
          "indexed": true,
          "internalType": "uint256"
        },
        {
          "name": "policyHolder",
          "type": "address",
          "indexed": true,
          "internalType": "address"
        },
        {
          "name": "policyType",
          "type": "uint8",
          "indexed": false,
          "internalType": "enum InsuranceManager.PolicyType"
        },
        {
          "name": "insuredTokenId",
          "type": "uint256",
          "indexed": true,
          "internalType": "uint256"
        },
        {
          "name": "coverageAmount",
          "type": "uint256",
          "indexed": false,
          "internalType": "uint256"
        }
      ],
      "anonymous": false
    }
  ],
  "bytecode": {
    "object": "0x6080604052348015600e575f80fd5b50610a558061001c5f395ff3fe60806040526004361061003e575f3560e01c8063094815ef14610042578063d3e894831461007e578063e19cdacd146100c1578063f618c68a146100fd575b5f80fd5b34801561004d575f80fd5b506100686004803603810190610063919061054c565b610119565b60405161007591906105a4565b60405180910390f35b348015610089575f80fd5b506100a4600480360381019061009f91906105bd565b610161565b6040516100b89897969594939291906106a9565b60405180910390f35b3480156100cc575f80fd5b506100e760048036038101906100e29190610725565b6101dc565b6040516100f491906105a4565b60405180910390f35b6101176004803603810190610112919061078d565b610206565b005b5f60015f8460018111156101305761012f610636565b5b81526020019081526020015f205f8381526020019081526020015f205f9054906101000a900460ff16905092915050565b5f602052805f5260405f205f91509050805f015490806001015f9054906101000a900473ffffffffffffffffffffffffffffffffffffffff16908060010160149054906101000a900460ff1690806002015490806003015490806004015490806005015490806006015f9054906101000a900460ff16905088565b6001602052815f5260405f20602052805f5260405f205f915091509054906101000a900460ff1681565b813414610248576040517f08c379a000000000000000000000000000000000000000000000000000000000815260040161023f90610870565b60405180910390fd5b42811161028a576040517f08c379a0000000000000000000000000000000000000000000000000000000008152600401610281906108fe565b60405180910390fd5b3373ffffffffffffffffffffffffffffffffffffffff168673ffffffffffffffffffffffffffffffffffffffff16146102f8576040517f08c379a00000000000000000000000000000000000000000000000000000000081526004016102ef90610966565b60405180910390fd5b5f60025f81548092919061030b906109b1565b9190505590506040518061010001604052808281526020018873ffffffffffffffffffffffffffffffffffffffff16815260200187600181111561035257610351610636565b5b8152602001868152602001858152602001848152602001838152602001600115158152505f808381526020019081526020015f205f820151815f01556020820151816001015f6101000a81548173ffffffffffffffffffffffffffffffffffffffff021916908373ffffffffffffffffffffffffffffffffffffffff16021790555060408201518160010160146101000a81548160ff021916908360018111156103ff576103fe610636565b5b0217905550606082015181600201556080820151816003015560a0820151816004015560c0820151816005015560e0820151816006015f6101000a81548160ff0219169083151502179055509050506001805f88600181111561046557610464610636565b5b81526020019081526020015f205f8781526020019081526020015f205f6101000a81548160ff021916908315150217905550848773ffffffffffffffffffffffffffffffffffffffff16827fde9514a7184b752a12694183e1fe9978402c994cf3142a51203bfa71408fa54689886040516104e19291906109f8565b60405180910390a450505050505050565b5f80fd5b60028110610502575f80fd5b50565b5f81359050610513816104f6565b92915050565b5f819050919050565b61052b81610519565b8114610535575f80fd5b50565b5f8135905061054681610522565b92915050565b5f8060408385031215610562576105616104f2565b5b5f61056f85828601610505565b925050602061058085828601610538565b9150509250929050565b5f8115159050919050565b61059e8161058a565b82525050565b5f6020820190506105b75f830184610595565b92915050565b5f602082840312156105d2576105d16104f2565b5b5f6105df84828501610538565b91505092915050565b6105f181610519565b82525050565b5f73ffffffffffffffffffffffffffffffffffffffff82169050919050565b5f610620826105f7565b9050919050565b61063081610616565b82525050565b7f4e487b71000000000000000000000000000000000000000000000000000000005f52602160045260245ffd5b6002811061067457610673610636565b5b50565b5f81905061068482610663565b919050565b5f61069382610677565b9050919050565b6106a381610689565b82525050565b5f610100820190506106bd5f83018b6105e8565b6106ca602083018a610627565b6106d7604083018961069a565b6106e460608301886105e8565b6106f160808301876105e8565b6106fe60a08301866105e8565b61070b60c08301856105e8565b61071860e0830184610595565b9998505050505050505050565b5f806040838503121561073b5761073a6104f2565b5b5f61074885828601610538565b925050602061075985828601610538565b9150509250929050565b61076c81610616565b8114610776575f80fd5b50565b5f8135905061078781610763565b92915050565b5f805f805f8060c087890312156107a7576107a66104f2565b5b5f6107b489828a01610779565b96505060206107c589828a01610505565b95505060406107d689828a01610538565b94505060606107e789828a01610538565b93505060806107f889828a01610538565b92505060a061080989828a01610538565b9150509295509295509295565b5f82825260208201905092915050565b7f494d3a20496e636f7272656374207072656d69756d20706169640000000000005f82015250565b5f61085a601a83610816565b915061086582610826565b602082019050919050565b5f6020820190508181035f8301526108878161084e565b9050919050565b7f494d3a20506f6c696379206d7573742065787069726520696e207468652066755f8201527f7475726500000000000000000000000000000000000000000000000000000000602082015250565b5f6108e8602483610816565b91506108f38261088e565b604082019050919050565b5f6020820190508181035f830152610915816108dc565b9050919050565b7f494d3a2043616c6c6572206d75737420626520706f6c69637920686f6c6465725f82015250565b5f610950602083610816565b915061095b8261091c565b602082019050919050565b5f6020820190508181035f83015261097d81610944565b9050919050565b7f4e487b71000000000000000000000000000000000000000000000000000000005f52601160045260245ffd5b5f6109bb82610519565b91507fffffffffffffffffffffffffffffffffffffffffffffffffffffffffffffffff82036109ed576109ec610984565b5b600182019050919050565b5f604082019050610a0b5f83018561069a565b610a1860208301846105e8565b939250505056fea26469706673582212207e0884492764dc4bcab76bd63eeab0c4ea0f6dad71f9076e2172ed90a8cf77c264736f6c634300081a0033",
    "linkReferences": {}
  },
  "methodIdentifiers": {
    "checkInsurance(uint8,uint256)": "094815ef",
    "isInsured(uint256,uint256)": "e19cdacd",
    "issuePolicy(address,uint8,uint256,uint256,uint256,uint256)": "f618c68a",
    "policies(uint256)": "d3e89483"
  },
  "id": 13
}