{"abi":[{"type":"constructor","inputs":[],"stateMutability":"nonpayable"},{"type":"function","name":"approve","inputs":[{"name":"to","type":"address","internalType":"address"},{"name":"tokenId","type":"uint256","internalType":"uint256"}],"outputs":[],"stateMutability":"nonpayable"},{"type":"function","name":"assetToPolicies","inputs":[{"name":"","type":"uint256","internalType":"uint256"},{"name":"","type":"uint256","internalType":"uint256"},{"name":"","type":"uint256","internalType":"uint256"}],"outputs":[{"name":"","type":"uint256","internalType":"uint256"}],"stateMutability":"view"},{"type":"function","name":"balanceOf","inputs":[{"name":"owner","type":"address","internalType":"address"}],"outputs":[{"name":"","type":"uint256","internalType":"uint256"}],"stateMutability":"view"},{"type":"function","name":"checkInsurance","inputs":[{"name":"_policyType","type":"uint8","internalType":"enum InsurancePolicyNFT.PolicyType"},{"name":"_tokenId","type":"uint256","internalType":"uint256"}],"outputs":[{"name":"","type":"bool","internalType":"bool"}],"stateMutability":"view"},{"type":"function","name":"claimPayout","inputs":[{"name":"policyTokenId","type":"uint256","internalType":"uint256"}],"outputs":[],"stateMutability":"nonpayable"},{"type":"function","name":"fulfillPayout","inputs":[{"name":"policyTokenId","type":"uint256","internalType":"uint256"},{"name":"value","type":"int256","internalType":"int256"}],"outputs":[],"stateMutability":"nonpayable"},{"type":"function","name":"getApproved","inputs":[{"name":"tokenId","type":"uint256","internalType":"uint256"}],"outputs":[{"name":"","type":"address","internalType":"address"}],"stateMutability":"view"},{"type":"function","name":"getPoliciesForAsset","inputs":[{"name":"_policyType","type":"uint8","internalType":"enum InsurancePolicyNFT.PolicyType"},{"name":"_assetTokenId","type":"uint256","internalType":"uint256"}],"outputs":[{"name":"","type":"uint256[]","internalType":"uint256[]"}],"stateMutability":"view"},{"type":"function","name":"isApprovedForAll","inputs":[{"name":"owner","type":"address","internalType":"address"},{"name":"operator","type":"address","internalType":"address"}],"outputs":[{"name":"","type":"bool","internalType":"bool"}],"stateMutability":"view"},{"type":"function","name":"isInsured","inputs":[{"name":"","type":"uint256","internalType":"uint256"},{"name":"","type":"uint256","internalType":"uint256"}],"outputs":[{"name":"","type":"bool","internalType":"bool"}],"stateMutability":"view"},{"type":"function","name":"mintPolicy","inputs":[{"name":"_policyType","type":"uint8","internalType":"enum InsurancePolicyNFT.PolicyType"},{"name":"_insuredTokenId","type":"uint256","internalType":"uint256"},{"name":"_payoutAmount","type":"uint256","internalType":"uint256"},{"name":"_triggerCondition","type":"uint8","internalType":"enum InsurancePolicyNFT.TriggerCondition"},{"name":"_dataSource","type":"bytes32","internalType":"bytes32"},{"name":"_threshold","type":"int256","internalType":"int256"},{"name":"_expiryTimestamp","type":"uint256","internalType":"uint256"}],"outputs":[],"stateMutability":"payable"},{"type":"function","name":"name","inputs":[],"outputs":[{"name":"","type":"string","internalType":"string"}],"stateMutability":"view"},{"type":"function","name":"oracle","inputs":[],"outputs":[{"name":"","type":"address","internalType":"address"}],"stateMutability":"view"},{"type":"function","name":"ownerOf","inputs":[{"name":"tokenId","type":"uint256","internalType":"uint256"}],"outputs":[{"name":"","type":"address","internalType":"address"}],"stateMutability":"view"},{"type":"function","name":"policies","inputs":[{"name":"","type":"uint256","internalType":"uint256"}],"outputs":[{"name":"policyHolder","type":"address","internalType":"address"},{"name":"policyType","type":"uint8","internalType":"enum InsurancePolicyNFT.PolicyType"},{"name":"insuredTokenId","type":"uint256","internalType":"uint256"},{"name":"payoutAmount","type":"uint256","internalType":"uint256"},{"name":"premium","type":"uint256","internalType":"uint256"},{"name":"expiryTimestamp","type":"uint256","internalType":"uint256"},{"name":"triggerCondition","type":"uint8","internalType":"enum InsurancePolicyNFT.TriggerCondition"},{"name":"dataSource","type":"bytes32","internalType":"bytes32"},{"name":"threshold","type":"int256","internalType":"int256"},{"name":"isActive","type":"bool","internalType":"bool"}],"stateMutability":"view"},{"type":"function","name":"safeTransferFrom","inputs":[{"name":"from","type":"address","internalType":"address"},{"name":"to","type":"address","internalType":"address"},{"name":"tokenId","type":"uint256","internalType":"uint256"}],"outputs":[],"stateMutability":"nonpayable"},{"type":"function","name":"safeTransferFrom","inputs":[{"name":"from","type":"address","internalType":"address"},{"name":"to","type":"address","internalType":"address"},{"name":"tokenId","type":"uint256","internalType":"uint256"},{"name":"data","type":"bytes","internalType":"bytes"}],"outputs":[],"stateMutability":"nonpayable"},{"type":"function","name":"setApprovalForAll","inputs":[{"name":"operator","type":"address","internalType":"address"},{"name":"approved","type":"bool","internalType":"bool"}],"outputs":[],"stateMutability":"nonpayable"},{"type":"function","name":"supportsInterface","inputs":[{"name":"interfaceId","type":"bytes4","internalType":"bytes4"}],"outputs":[{"name":"","type":"bool","internalType":"bool"}],"stateMutability":"view"},{"type":"function","name":"symbol","inputs":[],"outputs":[{"name":"","type":"string","internalType":"string"}],"stateMutability":"view"},{"type":"function","name":"tokenURI","inputs":[{"name":"tokenId","type":"uint256","internalType":"uint256"}],"outputs":[{"name":"","type":"string","internalType":"string"}],"stateMutability":"view"},{"type":"function","name":"transferFrom","inputs":[{"name":"from","type":"address","internalType":"address"},{"name":"to","type":"address","internalType":"address"},{"name":"tokenId","type":"uint256","internalType":"uint256"}],"outputs":[],"stateMutability":"nonpayable"},{"type":"event","name":"Approval","inputs":[{"name":"owner","type":"address","indexed":true,"internalType":"address"},{"name":"approved","type":"address","indexed":true,"internalType":"address"},{"name":"tokenId","type":"uint256","indexed":true,"internalType":"uint256"}],"anonymous":false},{"type":"event","name":"ApprovalForAll","inputs":[{"name":"owner","type":"address","indexed":true,"internalType":"address"},{"name":"operator","type":"address","indexed":true,"internalType":"address"},{"name":"approved","type":"bool","indexed":false,"internalType":"bool"}],"anonymous":false},{"type":"event","name":"PayoutClaimed","inputs":[{"name":"policyTokenId","type":"uint256","indexed":true,"internalType":"uint256"},{"name":"amount","type":"uint256","indexed":false,"internalType":"uint256"}],"anonymous":false},{"type":"event","name":"PolicyMinted","inputs":[{"name":"policyTokenId","type":"uint256","indexed":true,"internalType":"uint256"},{"name":"policyHolder","type":"address","indexed":true,"internalType":"address"},{"name":"triggerCondition","type":"uint8","indexed":false,"internalType":"enum InsurancePolicyNFT.TriggerCondition"},{"name":"payoutAmount","type":"uint256","indexed":false,"internalType":"uint256"}],"anonymous":false},{"type":"event","name":"Transfer","inputs":[{"name":"from","type":"address","indexed":true,"internalType":"address"},{"name":"to","type":"address","indexed":true,"internalType":"address"},{"name":"tokenId","type":"uint256","indexed":true,"internalType":"uint256"}],"anonymous":false},{"type":"error","name":"ERC721IncorrectOwner","inputs":[{"name":"sender","type":"address","internalType":"address"},{"name":"tokenId","type":"uint256","internalType":"uint256"},{"name":"owner","type":"address","internalType":"address"}]},{"type":"error","name":"ERC721InsufficientApproval","inputs":[{"name":"operator","type":"address","internalType":"address"},{"name":"tokenId","type":"uint256","internalType":"uint256"}]},{"type":"error","name":"ERC721InvalidApprover","inputs":[{"name":"approver","type":"address","internalType":"address"}]},{"type":"error","name":"ERC721InvalidOperator","inputs":[{"name":"operator","type":"address","internalType":"address"}]},{"type":"error","name":"ERC721InvalidOwner","inputs":[{"name":"owner","type":"address","internalType":"address"}]},{"type":"error","name":"ERC721InvalidReceiver","inputs":[{"name":"receiver","type":"address","internalType":"address"}]},{"type":"error","name":"ERC721InvalidSender","inputs":[{"name":"sender","type":"address","internalType":"address"}]},{"type":"error","name":"ERC721NonexistentToken","inputs":[{"name":"tokenId","type":"uint256","internalType":"uint256"}]},{"type":"error","name":"ReentrancyGuardReentrantCall","inputs":[]}],"bytecode":{"object":"0x608060405234801561000f575f80fd5b506040518060400160405280601681526020017f5368697042726f6b6572616765496e737572616e6365000000000000000000008152506040518060400160405280600381526020017f5342490000000000000000000000000000000000000000000000000000000000815250815f908161008a91906102e4565b50806001908161009a91906102e4565b50505060016006819055506103b3565b5f81519050919050565b7f4e487b71000000000000000000000000000000000000000000000000000000005f52604160045260245ffd5b7f4e487b71000000000000000000000000000000000000000000000000000000005f52602260045260245ffd5b5f600282049050600182168061012557607f821691505b602082108103610138576101376100e1565b5b50919050565b5f819050815f5260205f209050919050565b5f6020601f8301049050919050565b5f82821b905092915050565b5f6008830261019a7fffffffffffffffffffffffffffffffffffffffffffffffffffffffffffffffff8261015f565b6101a4868361015f565b95508019841693508086168417925050509392505050565b5f819050919050565b5f819050919050565b5f6101e86101e36101de846101bc565b6101c5565b6101bc565b9050919050565b5f819050919050565b610201836101ce565b61021561020d826101ef565b84845461016b565b825550505050565b5f90565b61022961021d565b6102348184846101f8565b505050565b5b818110156102575761024c5f82610221565b60018101905061023a565b5050565b601f82111561029c5761026d8161013e565b61027684610150565b81016020851015610285578190505b61029961029185610150565b830182610239565b50505b505050565b5f82821c905092915050565b5f6102bc5f19846008026102a1565b1980831691505092915050565b5f6102d483836102ad565b9150826002028217905092915050565b6102ed826100aa565b67ffffffffffffffff811115610306576103056100b4565b5b610310825461010e565b61031b82828561025b565b5f60209050601f83116001811461034c575f841561033a578287015190505b61034485826102c9565b8655506103ab565b601f19841661035a8661013e565b5f5b828110156103815784890151825560018201915060208501945060208101905061035c565b8683101561039e578489015161039a601f8916826102ad565b8355505b6001600288020188555050505b505050505050565b612ead806103c05f395ff3fe608060405260043610610134575f3560e01c806370a08231116100aa578063b88d4fde1161006e578063b88d4fde1461043e578063c298445c14610466578063c87b56dd1461048e578063d3e89483146104ca578063e19cdacd1461050f578063e985e9c51461054b57610134565b806370a082311461035e5780637dc0d1d01461039a5780638a69614e146103c457806395d89b41146103ec578063a22cb4651461041657610134565b806319a787b6116100fc57806319a787b61461023e57806323b872dd1461027a57806342842e0e146102a2578063496afcfa146102ca5780635437be58146102e65780636352211e1461032257610134565b806301ffc9a71461013857806306fdde0314610174578063081812fc1461019e578063094815ef146101da578063095ea7b314610216575b5f80fd5b348015610143575f80fd5b5061015e60048036038101906101599190612041565b610587565b60405161016b9190612086565b60405180910390f35b34801561017f575f80fd5b50610188610668565b604051610195919061210f565b60405180910390f35b3480156101a9575f80fd5b506101c460048036038101906101bf9190612162565b6106f7565b6040516101d191906121cc565b60405180910390f35b3480156101e5575f80fd5b5061020060048036038101906101fb9190612208565b610712565b60405161020d9190612086565b60405180910390f35b348015610221575f80fd5b5061023c60048036038101906102379190612270565b61075a565b005b348015610249575f80fd5b50610264600480360381019061025f91906122ae565b610770565b604051610271919061230d565b60405180910390f35b348015610285575f80fd5b506102a0600480360381019061029b9190612326565b6107a6565b005b3480156102ad575f80fd5b506102c860048036038101906102c39190612326565b6108a5565b005b6102e460048036038101906102df91906123ff565b6108c4565b005b3480156102f1575f80fd5b5061030c60048036038101906103079190612208565b610bc4565b6040516103199190612553565b60405180910390f35b34801561032d575f80fd5b5061034860048036038101906103439190612162565b610c4d565b60405161035591906121cc565b60405180910390f35b348015610369575f80fd5b50610384600480360381019061037f9190612573565b610c5e565b604051610391919061230d565b60405180910390f35b3480156103a5575f80fd5b506103ae610d14565b6040516103bb91906121cc565b60405180910390f35b3480156103cf575f80fd5b506103ea60048036038101906103e59190612162565b610d39565b005b3480156103f7575f80fd5b50610400610d9c565b60405161040d919061210f565b60405180910390f35b348015610421575f80fd5b5061043c600480360381019061043791906125c8565b610e2c565b005b348015610449575f80fd5b50610464600480360381019061045f9190612732565b610e42565b005b348015610471575f80fd5b5061048c600480360381019061048791906127b2565b610e5f565b005b348015610499575f80fd5b506104b460048036038101906104af9190612162565b61109c565b6040516104c1919061210f565b60405180910390f35b3480156104d5575f80fd5b506104f060048036038101906104eb9190612162565b611102565b6040516105069a999897969594939291906128c7565b60405180910390f35b34801561051a575f80fd5b5061053560048036038101906105309190612961565b611195565b6040516105429190612086565b60405180910390f35b348015610556575f80fd5b50610571600480360381019061056c919061299f565b6111bf565b60405161057e9190612086565b60405180910390f35b5f7f80ac58cd000000000000000000000000000000000000000000000000000000007bffffffffffffffffffffffffffffffffffffffffffffffffffffffff1916827bffffffffffffffffffffffffffffffffffffffffffffffffffffffff1916148061065157507f5b5e139f000000000000000000000000000000000000000000000000000000007bffffffffffffffffffffffffffffffffffffffffffffffffffffffff1916827bffffffffffffffffffffffffffffffffffffffffffffffffffffffff1916145b8061066157506106608261124d565b5b9050919050565b60605f805461067690612a0a565b80601f01602080910402602001604051908101604052809291908181526020018280546106a290612a0a565b80156106ed5780601f106106c4576101008083540402835291602001916106ed565b820191905f5260205f20905b8154815290600101906020018083116106d057829003601f168201915b5050505050905090565b5f610701826112b6565b5061070b8261133c565b9050919050565b5f60085f846001811115610729576107286127f0565b5b81526020019081526020015f205f8381526020019081526020015f205f9054906101000a900460ff16905092915050565b61076c8282610767611375565b61137c565b5050565b6009602052825f5260405f20602052815f5260405f208181548110610793575f80fd5b905f5260205f20015f9250925050505481565b5f73ffffffffffffffffffffffffffffffffffffffff168273ffffffffffffffffffffffffffffffffffffffff1603610816575f6040517f64a0ae9200000000000000000000000000000000000000000000000000000000815260040161080d91906121cc565b60405180910390fd5b5f6108298383610824611375565b61138e565b90508373ffffffffffffffffffffffffffffffffffffffff168173ffffffffffffffffffffffffffffffffffffffff161461089f578382826040517f64283d7b00000000000000000000000000000000000000000000000000000000815260040161089693929190612a3a565b60405180910390fd5b50505050565b6108bf83838360405180602001604052805f815250610e42565b505050565b5f3490505f811161090a576040517f08c379a000000000000000000000000000000000000000000000000000000000815260040161090190612ab9565b60405180910390fd5b5f600a5f81548092919061091d90612b04565b9190505590505f3390506109318183611599565b6040518061014001604052808273ffffffffffffffffffffffffffffffffffffffff1681526020018b600181111561096c5761096b6127f0565b5b81526020018a815260200189815260200184815260200185815260200188600381111561099c5761099b6127f0565b5b81526020018781526020018681526020016001151581525060075f8481526020019081526020015f205f820151815f015f6101000a81548173ffffffffffffffffffffffffffffffffffffffff021916908373ffffffffffffffffffffffffffffffffffffffff1602179055506020820151815f0160146101000a81548160ff02191690836001811115610a3357610a326127f0565b5b021790555060408201518160010155606082015181600201556080820151816003015560a0820151816004015560c0820151816005015f6101000a81548160ff02191690836003811115610a8a57610a896127f0565b5b021790555060e082015181600601556101008201518160070155610120820151816008015f6101000a81548160ff021916908315150217905550905050600160085f8c6001811115610adf57610ade6127f0565b5b81526020019081526020015f205f8b81526020019081526020015f205f6101000a81548160ff02191690831515021790555060095f8b6001811115610b2757610b266127f0565b5b81526020019081526020015f205f8a81526020019081526020015f2082908060018154018082558091505060019003905f5260205f20015f90919091909150558073ffffffffffffffffffffffffffffffffffffffff16827f5b5b62329a106ac0ccfcb19c21d50b6a98aef9c84e63d0cd23f0dbc300493a53898b604051610bb0929190612b4b565b60405180910390a350505050505050505050565b606060095f846001811115610bdc57610bdb6127f0565b5b81526020019081526020015f205f8381526020019081526020015f20805480602002602001604051908101604052809291908181526020018280548015610c4057602002820191905f5260205f20905b815481526020019060010190808311610c2c575b5050505050905092915050565b5f610c57826112b6565b9050919050565b5f8073ffffffffffffffffffffffffffffffffffffffff168273ffffffffffffffffffffffffffffffffffffffff1603610ccf575f6040517f89c62b64000000000000000000000000000000000000000000000000000000008152600401610cc691906121cc565b60405180910390fd5b60035f8373ffffffffffffffffffffffffffffffffffffffff1673ffffffffffffffffffffffffffffffffffffffff1681526020019081526020015f20549050919050565b600b5f9054906101000a900473ffffffffffffffffffffffffffffffffffffffff1681565b60075f8281526020019081526020015f206008015f9054906101000a900460ff16610d99576040517f08c379a0000000000000000000000000000000000000000000000000000000008152600401610d9090612bbc565b60405180910390fd5b50565b606060018054610dab90612a0a565b80601f0160208091040260200160405190810160405280929190818152602001828054610dd790612a0a565b8015610e225780601f10610df957610100808354040283529160200191610e22565b820191905f5260205f20905b815481529060010190602001808311610e0557829003601f168201915b5050505050905090565b610e3e610e37611375565b83836115b6565b5050565b610e4d8484846107a6565b610e598484848461171f565b50505050565b610e676118d1565b5f60075f8481526020019081526020015f209050806008015f9054906101000a900460ff16610ecb576040517f08c379a0000000000000000000000000000000000000000000000000000000008152600401610ec290612bbc565b60405180910390fd5b8060040154421115610f12576040517f08c379a0000000000000000000000000000000000000000000000000000000008152600401610f0990612c24565b60405180910390fd5b5f60016003811115610f2757610f266127f0565b5b826005015f9054906101000a900460ff166003811115610f4a57610f496127f0565b5b03610f61578160070154831315610f6057600190505b5b801561108e575f826008015f6101000a81548160ff0219169083151502179055505f825f015f9054906101000a900473ffffffffffffffffffffffffffffffffffffffff1673ffffffffffffffffffffffffffffffffffffffff168360020154604051610fcd90612c6f565b5f6040518083038185875af1925050503d805f8114611007576040519150601f19603f3d011682016040523d82523d5f602084013e61100c565b606091505b5050905080611050576040517f08c379a000000000000000000000000000000000000000000000000000000000815260040161104790612ccd565b60405180910390fd5b847f2a1bbd303862c79f3c425af8629534a4b6676d51dd3db2a62c97027802d0ad988460020154604051611084919061230d565b60405180910390a2505b5050611098611917565b5050565b60606110a7826112b6565b505f6110b1611921565b90505f8151116110cf5760405180602001604052805f8152506110fa565b806110d984611937565b6040516020016110ea929190612d25565b6040516020818303038152906040525b915050919050565b6007602052805f5260405f205f91509050805f015f9054906101000a900473ffffffffffffffffffffffffffffffffffffffff1690805f0160149054906101000a900460ff1690806001015490806002015490806003015490806004015490806005015f9054906101000a900460ff1690806006015490806007015490806008015f9054906101000a900460ff1690508a565b6008602052815f5260405f20602052805f5260405f205f915091509054906101000a900460ff1681565b5f60055f8473ffffffffffffffffffffffffffffffffffffffff1673ffffffffffffffffffffffffffffffffffffffff1681526020019081526020015f205f8373ffffffffffffffffffffffffffffffffffffffff1673ffffffffffffffffffffffffffffffffffffffff1681526020019081526020015f205f9054906101000a900460ff16905092915050565b5f7f01ffc9a7000000000000000000000000000000000000000000000000000000007bffffffffffffffffffffffffffffffffffffffffffffffffffffffff1916827bffffffffffffffffffffffffffffffffffffffffffffffffffffffff1916149050919050565b5f806112c183611a01565b90505f73ffffffffffffffffffffffffffffffffffffffff168173ffffffffffffffffffffffffffffffffffffffff160361133357826040517f7e27328900000000000000000000000000000000000000000000000000000000815260040161132a919061230d565b60405180910390fd5b80915050919050565b5f60045f8381526020019081526020015f205f9054906101000a900473ffffffffffffffffffffffffffffffffffffffff169050919050565b5f33905090565b6113898383836001611a3a565b505050565b5f8061139984611a01565b90505f73ffffffffffffffffffffffffffffffffffffffff168373ffffffffffffffffffffffffffffffffffffffff16146113da576113d9818486611bf9565b5b5f73ffffffffffffffffffffffffffffffffffffffff168173ffffffffffffffffffffffffffffffffffffffff1614611465576114195f855f80611a3a565b600160035f8373ffffffffffffffffffffffffffffffffffffffff1673ffffffffffffffffffffffffffffffffffffffff1681526020019081526020015f205f82825403925050819055505b5f73ffffffffffffffffffffffffffffffffffffffff168573ffffffffffffffffffffffffffffffffffffffff16146114e457600160035f8773ffffffffffffffffffffffffffffffffffffffff1673ffffffffffffffffffffffffffffffffffffffff1681526020019081526020015f205f82825401925050819055505b8460025f8681526020019081526020015f205f6101000a81548173ffffffffffffffffffffffffffffffffffffffff021916908373ffffffffffffffffffffffffffffffffffffffff160217905550838573ffffffffffffffffffffffffffffffffffffffff168273ffffffffffffffffffffffffffffffffffffffff167fddf252ad1be2c89b69c2b068fc378daa952ba7f163c4a11628f55a4df523b3ef60405160405180910390a4809150509392505050565b6115b2828260405180602001604052805f815250611cbc565b5050565b5f73ffffffffffffffffffffffffffffffffffffffff168273ffffffffffffffffffffffffffffffffffffffff160361162657816040517f5b08ba1800000000000000000000000000000000000000000000000000000000815260040161161d91906121cc565b60405180910390fd5b8060055f8573ffffffffffffffffffffffffffffffffffffffff1673ffffffffffffffffffffffffffffffffffffffff1681526020019081526020015f205f8473ffffffffffffffffffffffffffffffffffffffff1673ffffffffffffffffffffffffffffffffffffffff1681526020019081526020015f205f6101000a81548160ff0219169083151502179055508173ffffffffffffffffffffffffffffffffffffffff168373ffffffffffffffffffffffffffffffffffffffff167f17307eab39ab6107e8899845ad3d59bd9653f200f220920489ca2b5937696c31836040516117129190612086565b60405180910390a3505050565b5f8373ffffffffffffffffffffffffffffffffffffffff163b11156118cb578273ffffffffffffffffffffffffffffffffffffffff1663150b7a02611762611375565b8685856040518563ffffffff1660e01b81526004016117849493929190612d9a565b6020604051808303815f875af19250505080156117bf57506040513d601f19601f820116820180604052508101906117bc9190612df8565b60015b611840573d805f81146117ed576040519150601f19603f3d011682016040523d82523d5f602084013e6117f2565b606091505b505f81510361183857836040517f64a0ae9200000000000000000000000000000000000000000000000000000000815260040161182f91906121cc565b60405180910390fd5b805181602001fd5b63150b7a0260e01b7bffffffffffffffffffffffffffffffffffffffffffffffffffffffff1916817bffffffffffffffffffffffffffffffffffffffffffffffffffffffff1916146118c957836040517f64a0ae920000000000000000000000000000000000000000000000000000000081526004016118c091906121cc565b60405180910390fd5b505b50505050565b60026006540361190d576040517f3ee5aeb500000000000000000000000000000000000000000000000000000000815260040160405180910390fd5b6002600681905550565b6001600681905550565b606060405180602001604052805f815250905090565b60605f600161194584611cd7565b0190505f8167ffffffffffffffff8111156119635761196261260e565b5b6040519080825280601f01601f1916602001820160405280156119955781602001600182028036833780820191505090505b5090505f82602001820190505b6001156119f6578080600190039150507f3031323334353637383961626364656600000000000000000000000000000000600a86061a8153600a85816119eb576119ea612e23565b5b0494505f85036119a2575b819350505050919050565b5f60025f8381526020019081526020015f205f9054906101000a900473ffffffffffffffffffffffffffffffffffffffff169050919050565b8080611a7257505f73ffffffffffffffffffffffffffffffffffffffff168273ffffffffffffffffffffffffffffffffffffffff1614155b15611ba4575f611a81846112b6565b90505f73ffffffffffffffffffffffffffffffffffffffff168373ffffffffffffffffffffffffffffffffffffffff1614158015611aeb57508273ffffffffffffffffffffffffffffffffffffffff168173ffffffffffffffffffffffffffffffffffffffff1614155b8015611afe5750611afc81846111bf565b155b15611b4057826040517fa9fbf51f000000000000000000000000000000000000000000000000000000008152600401611b3791906121cc565b60405180910390fd5b8115611ba257838573ffffffffffffffffffffffffffffffffffffffff168273ffffffffffffffffffffffffffffffffffffffff167f8c5be1e5ebec7d5bd14f71427d1e84f3dd0314c0f7b2291e5b200ac8c7c3b92560405160405180910390a45b505b8360045f8581526020019081526020015f205f6101000a81548173ffffffffffffffffffffffffffffffffffffffff021916908373ffffffffffffffffffffffffffffffffffffffff16021790555050505050565b611c04838383611e28565b611cb7575f73ffffffffffffffffffffffffffffffffffffffff168373ffffffffffffffffffffffffffffffffffffffff1603611c7857806040517f7e273289000000000000000000000000000000000000000000000000000000008152600401611c6f919061230d565b60405180910390fd5b81816040517f177e802f000000000000000000000000000000000000000000000000000000008152600401611cae929190612e50565b60405180910390fd5b505050565b611cc68383611ee8565b611cd25f84848461171f565b505050565b5f805f90507a184f03e93ff9f4daa797ed6e38ed64bf6a1f0100000000000000008310611d33577a184f03e93ff9f4daa797ed6e38ed64bf6a1f0100000000000000008381611d2957611d28612e23565b5b0492506040810190505b6d04ee2d6d415b85acef81000000008310611d70576d04ee2d6d415b85acef81000000008381611d6657611d65612e23565b5b0492506020810190505b662386f26fc100008310611d9f57662386f26fc100008381611d9557611d94612e23565b5b0492506010810190505b6305f5e1008310611dc8576305f5e1008381611dbe57611dbd612e23565b5b0492506008810190505b6127108310611ded576127108381611de357611de2612e23565b5b0492506004810190505b60648310611e105760648381611e0657611e05612e23565b5b0492506002810190505b600a8310611e1f576001810190505b80915050919050565b5f8073ffffffffffffffffffffffffffffffffffffffff168373ffffffffffffffffffffffffffffffffffffffff1614158015611edf57508273ffffffffffffffffffffffffffffffffffffffff168473ffffffffffffffffffffffffffffffffffffffff161480611ea05750611e9f84846111bf565b5b80611ede57508273ffffffffffffffffffffffffffffffffffffffff16611ec68361133c565b73ffffffffffffffffffffffffffffffffffffffff16145b5b90509392505050565b5f73ffffffffffffffffffffffffffffffffffffffff168273ffffffffffffffffffffffffffffffffffffffff1603611f58575f6040517f64a0ae92000000000000000000000000000000000000000000000000000000008152600401611f4f91906121cc565b60405180910390fd5b5f611f6483835f61138e565b90505f73ffffffffffffffffffffffffffffffffffffffff168173ffffffffffffffffffffffffffffffffffffffff1614611fd6575f6040517f73c6ac6e000000000000000000000000000000000000000000000000000000008152600401611fcd91906121cc565b60405180910390fd5b505050565b5f604051905090565b5f80fd5b5f80fd5b5f7fffffffff0000000000000000000000000000000000000000000000000000000082169050919050565b61202081611fec565b811461202a575f80fd5b50565b5f8135905061203b81612017565b92915050565b5f6020828403121561205657612055611fe4565b5b5f6120638482850161202d565b91505092915050565b5f8115159050919050565b6120808161206c565b82525050565b5f6020820190506120995f830184612077565b92915050565b5f81519050919050565b5f82825260208201905092915050565b8281835e5f83830152505050565b5f601f19601f8301169050919050565b5f6120e18261209f565b6120eb81856120a9565b93506120fb8185602086016120b9565b612104816120c7565b840191505092915050565b5f6020820190508181035f83015261212781846120d7565b905092915050565b5f819050919050565b6121418161212f565b811461214b575f80fd5b50565b5f8135905061215c81612138565b92915050565b5f6020828403121561217757612176611fe4565b5b5f6121848482850161214e565b91505092915050565b5f73ffffffffffffffffffffffffffffffffffffffff82169050919050565b5f6121b68261218d565b9050919050565b6121c6816121ac565b82525050565b5f6020820190506121df5f8301846121bd565b92915050565b600281106121f1575f80fd5b50565b5f81359050612202816121e5565b92915050565b5f806040838503121561221e5761221d611fe4565b5b5f61222b858286016121f4565b925050602061223c8582860161214e565b9150509250929050565b61224f816121ac565b8114612259575f80fd5b50565b5f8135905061226a81612246565b92915050565b5f806040838503121561228657612285611fe4565b5b5f6122938582860161225c565b92505060206122a48582860161214e565b9150509250929050565b5f805f606084860312156122c5576122c4611fe4565b5b5f6122d28682870161214e565b93505060206122e38682870161214e565b92505060406122f48682870161214e565b9150509250925092565b6123078161212f565b82525050565b5f6020820190506123205f8301846122fe565b92915050565b5f805f6060848603121561233d5761233c611fe4565b5b5f61234a8682870161225c565b935050602061235b8682870161225c565b925050604061236c8682870161214e565b9150509250925092565b60048110612382575f80fd5b50565b5f8135905061239381612376565b92915050565b5f819050919050565b6123ab81612399565b81146123b5575f80fd5b50565b5f813590506123c6816123a2565b92915050565b5f819050919050565b6123de816123cc565b81146123e8575f80fd5b50565b5f813590506123f9816123d5565b92915050565b5f805f805f805f60e0888a03121561241a57612419611fe4565b5b5f6124278a828b016121f4565b97505060206124388a828b0161214e565b96505060406124498a828b0161214e565b955050606061245a8a828b01612385565b945050608061246b8a828b016123b8565b93505060a061247c8a828b016123eb565b92505060c061248d8a828b0161214e565b91505092959891949750929550565b5f81519050919050565b5f82825260208201905092915050565b5f819050602082019050919050565b6124ce8161212f565b82525050565b5f6124df83836124c5565b60208301905092915050565b5f602082019050919050565b5f6125018261249c565b61250b81856124a6565b9350612516836124b6565b805f5b8381101561254657815161252d88826124d4565b9750612538836124eb565b925050600181019050612519565b5085935050505092915050565b5f6020820190508181035f83015261256b81846124f7565b905092915050565b5f6020828403121561258857612587611fe4565b5b5f6125958482850161225c565b91505092915050565b6125a78161206c565b81146125b1575f80fd5b50565b5f813590506125c28161259e565b92915050565b5f80604083850312156125de576125dd611fe4565b5b5f6125eb8582860161225c565b92505060206125fc858286016125b4565b9150509250929050565b5f80fd5b5f80fd5b7f4e487b71000000000000000000000000000000000000000000000000000000005f52604160045260245ffd5b612644826120c7565b810181811067ffffffffffffffff821117156126635761266261260e565b5b80604052505050565b5f612675611fdb565b9050612681828261263b565b919050565b5f67ffffffffffffffff8211156126a05761269f61260e565b5b6126a9826120c7565b9050602081019050919050565b828183375f83830152505050565b5f6126d66126d184612686565b61266c565b9050828152602081018484840111156126f2576126f161260a565b5b6126fd8482856126b6565b509392505050565b5f82601f83011261271957612718612606565b5b81356127298482602086016126c4565b91505092915050565b5f805f806080858703121561274a57612749611fe4565b5b5f6127578782880161225c565b94505060206127688782880161225c565b93505060406127798782880161214e565b925050606085013567ffffffffffffffff81111561279a57612799611fe8565b5b6127a687828801612705565b91505092959194509250565b5f80604083850312156127c8576127c7611fe4565b5b5f6127d58582860161214e565b92505060206127e6858286016123eb565b9150509250929050565b7f4e487b71000000000000000000000000000000000000000000000000000000005f52602160045260245ffd5b6002811061282e5761282d6127f0565b5b50565b5f81905061283e8261281d565b919050565b5f61284d82612831565b9050919050565b61285d81612843565b82525050565b60048110612874576128736127f0565b5b50565b5f81905061288482612863565b919050565b5f61289382612877565b9050919050565b6128a381612889565b82525050565b6128b281612399565b82525050565b6128c1816123cc565b82525050565b5f610140820190506128db5f83018d6121bd565b6128e8602083018c612854565b6128f5604083018b6122fe565b612902606083018a6122fe565b61290f60808301896122fe565b61291c60a08301886122fe565b61292960c083018761289a565b61293660e08301866128a9565b6129446101008301856128b8565b612952610120830184612077565b9b9a5050505050505050505050565b5f806040838503121561297757612976611fe4565b5b5f6129848582860161214e565b92505060206129958582860161214e565b9150509250929050565b5f80604083850312156129b5576129b4611fe4565b5b5f6129c28582860161225c565b92505060206129d38582860161225c565b9150509250929050565b7f4e487b71000000000000000000000000000000000000000000000000000000005f52602260045260245ffd5b5f6002820490506001821680612a2157607f821691505b602082108103612a3457612a336129dd565b5b50919050565b5f606082019050612a4d5f8301866121bd565b612a5a60208301856122fe565b612a6760408301846121bd565b949350505050565b7f49504e46543a205072656d69756d206d757374206265207061696400000000005f82015250565b5f612aa3601b836120a9565b9150612aae82612a6f565b602082019050919050565b5f6020820190508181035f830152612ad081612a97565b9050919050565b7f4e487b71000000000000000000000000000000000000000000000000000000005f52601160045260245ffd5b5f612b0e8261212f565b91507fffffffffffffffffffffffffffffffffffffffffffffffffffffffffffffffff8203612b4057612b3f612ad7565b5b600182019050919050565b5f604082019050612b5e5f83018561289a565b612b6b60208301846122fe565b9392505050565b7f49504e46543a20506f6c696379206973206e6f742061637469766500000000005f82015250565b5f612ba6601b836120a9565b9150612bb182612b72565b602082019050919050565b5f6020820190508181035f830152612bd381612b9a565b9050919050565b7f49504e46543a20506f6c696379206578706972656400000000000000000000005f82015250565b5f612c0e6015836120a9565b9150612c1982612bda565b602082019050919050565b5f6020820190508181035f830152612c3b81612c02565b9050919050565b5f81905092915050565b50565b5f612c5a5f83612c42565b9150612c6582612c4c565b5f82019050919050565b5f612c7982612c4f565b9150819050919050565b7f49504e46543a205061796f7574207472616e73666572206661696c65640000005f82015250565b5f612cb7601d836120a9565b9150612cc282612c83565b602082019050919050565b5f6020820190508181035f830152612ce481612cab565b9050919050565b5f81905092915050565b5f612cff8261209f565b612d098185612ceb565b9350612d198185602086016120b9565b80840191505092915050565b5f612d308285612cf5565b9150612d3c8284612cf5565b91508190509392505050565b5f81519050919050565b5f82825260208201905092915050565b5f612d6c82612d48565b612d768185612d52565b9350612d868185602086016120b9565b612d8f816120c7565b840191505092915050565b5f608082019050612dad5f8301876121bd565b612dba60208301866121bd565b612dc760408301856122fe565b8181036060830152612dd98184612d62565b905095945050505050565b5f81519050612df281612017565b92915050565b5f60208284031215612e0d57612e0c611fe4565b5b5f612e1a84828501612de4565b91505092915050565b7f4e487b71000000000000000000000000000000000000000000000000000000005f52601260045260245ffd5b5f604082019050612e635f8301856121bd565b612e7060208301846122fe565b939250505056fea264697066735822122023088a8f7b374b803c715207bc2cefa6ac0c3b76eddf9ea99526bec86ed4d99a64736f6c634300081a0033","linkReferences":{}},"methodIdentifiers":{"approve(address,uint256)":"095ea7b3","assetToPolicies(uint256,uint256,uint256)":"19a787b6","balanceOf(address)":"70a08231","checkInsurance(uint8,uint256)":"094815ef","claimPayout(uint256)":"8a69614e","fulfillPayout(uint256,int256)":"c298445c","getApproved(uint256)":"081812fc","getPoliciesForAsset(uint8,uint256)":"5437be58","isApprovedForAll(address,address)":"e985e9c5","isInsured(uint256,uint256)":"e19cdacd","mintPolicy(uint8,uint256,uint256,uint8,bytes32,int256,uint256)":"496afcfa","name()":"06fdde03","oracle()":"7dc0d1d0","ownerOf(uint256)":"6352211e","policies(uint256)":"d3e89483","safeTransferFrom(address,address,uint256)":"42842e0e","safeTransferFrom(address,address,uint256,bytes)":"b88d4fde","setApprovalForAll(address,bool)":"a22cb465","supportsInterface(bytes4)":"01ffc9a7","symbol()":"95d89b41","tokenURI(uint256)":"c87b56dd","transferFrom(address,address,uint256)":"23b872dd"},"id":30}