{
  "abi": [
    {
      "type": "constructor",
      "inputs": [],
      "stateMutability": "nonpayable"
    },
    {
      "type": "function",
      "name": "approve",
      "inputs": [
        {
          "name": "to",
          "type": "address",
          "internalType": "address"
        },
        {
          "name": "tokenId",
          "type": "uint256",
          "internalType": "uint256"
        }
      ],
      "outputs": [],
      "stateMutability": "nonpayable"
    },
    {
      "type": "function",
      "name": "balanceOf",
      "inputs": [
        {
          "name": "owner",
          "type": "address",
          "internalType": "address"
        }
      ],
      "outputs": [
        {
          "name": "",
          "type": "uint256",
          "internalType": "uint256"
        }
      ],
      "stateMutability": "view"
    },
    {
      "type": "function",
      "name": "checkInsurance",
      "inputs": [
        {
          "name": "_policyType",
          "type": "uint8",
          "internalType": "enum InsurancePolicyNFT.PolicyType"
        },
        {
          "name": "_tokenId",
          "type": "uint256",
          "internalType": "uint256"
        }
      ],
      "outputs": [
        {
          "name": "",
          "type": "bool",
          "internalType": "bool"
        }
      ],
      "stateMutability": "view"
    },
    {
      "type": "function",
      "name": "getApproved",
      "inputs": [
        {
          "name": "tokenId",
          "type": "uint256",
          "internalType": "uint256"
        }
      ],
      "outputs": [
        {
          "name": "",
          "type": "address",
          "internalType": "address"
        }
      ],
      "stateMutability": "view"
    },
    {
      "type": "function",
      "name": "isApprovedForAll",
      "inputs": [
        {
          "name": "owner",
          "type": "address",
          "internalType": "address"
        },
        {
          "name": "operator",
          "type": "address",
          "internalType": "address"
        }
      ],
      "outputs": [
        {
          "name": "",
          "type": "bool",
          "internalType": "bool"
        }
      ],
      "stateMutability": "view"
    },
    {
      "type": "function",
      "name": "isInsured",
      "inputs": [
        {
          "name": "",
          "type": "uint256",
          "internalType": "uint256"
        },
        {
          "name": "",
          "type": "uint256",
          "internalType": "uint256"
        }
      ],
      "outputs": [
        {
          "name": "",
          "type": "bool",
          "internalType": "bool"
        }
      ],
      "stateMutability": "view"
    },
    {
      "type": "function",
      "name": "mintPolicy",
      "inputs": [
        {
          "name": "_policyType",
          "type": "uint8",
          "internalType": "enum InsurancePolicyNFT.PolicyType"
        },
        {
          "name": "_insuredTokenId",
          "type": "uint256",
          "internalType": "uint256"
        },
        {
          "name": "_coverageAmount",
          "type": "uint256",
          "internalType": "uint256"
        },
        {
          "name": "_premium",
          "type": "uint256",
          "internalType": "uint256"
        },
        {
          "name": "_expiryTimestamp",
          "type": "uint256",
          "internalType": "uint256"
        }
      ],
      "outputs": [],
      "stateMutability": "payable"
    },
    {
      "type": "function",
      "name": "name",
      "inputs": [],
      "outputs": [
        {
          "name": "",
          "type": "string",
          "internalType": "string"
        }
      ],
      "stateMutability": "view"
    },
    {
      "type": "function",
      "name": "ownerOf",
      "inputs": [
        {
          "name": "tokenId",
          "type": "uint256",
          "internalType": "uint256"
        }
      ],
      "outputs": [
        {
          "name": "",
          "type": "address",
          "internalType": "address"
        }
      ],
      "stateMutability": "view"
    },
    {
      "type": "function",
      "name": "policies",
      "inputs": [
        {
          "name": "",
          "type": "uint256",
          "internalType": "uint256"
        }
      ],
      "outputs": [
        {
          "name": "policyHolder",
          "type": "address",
          "internalType": "address"
        },
        {
          "name": "policyType",
          "type": "uint8",
          "internalType": "enum InsurancePolicyNFT.PolicyType"
        },
        {
          "name": "insuredTokenId",
          "type": "uint256",
          "internalType": "uint256"
        },
        {
          "name": "coverageAmount",
          "type": "uint256",
          "internalType": "uint256"
        },
        {
          "name": "premium",
          "type": "uint256",
          "internalType": "uint256"
        },
        {
          "name": "expiryTimestamp",
          "type": "uint256",
          "internalType": "uint256"
        },
        {
          "name": "isActive",
          "type": "bool",
          "internalType": "bool"
        }
      ],
      "stateMutability": "view"
    },
    {
      "type": "function",
      "name": "safeTransferFrom",
      "inputs": [
        {
          "name": "from",
          "type": "address",
          "internalType": "address"
        },
        {
          "name": "to",
          "type": "address",
          "internalType": "address"
        },
        {
          "name": "tokenId",
          "type": "uint256",
          "internalType": "uint256"
        }
      ],
      "outputs": [],
      "stateMutability": "nonpayable"
    },
    {
      "type": "function",
      "name": "safeTransferFrom",
      "inputs": [
        {
          "name": "from",
          "type": "address",
          "internalType": "address"
        },
        {
          "name": "to",
          "type": "address",
          "internalType": "address"
        },
        {
          "name": "tokenId",
          "type": "uint256",
          "internalType": "uint256"
        },
        {
          "name": "data",
          "type": "bytes",
          "internalType": "bytes"
        }
      ],
      "outputs": [],
      "stateMutability": "nonpayable"
    },
    {
      "type": "function",
      "name": "setApprovalForAll",
      "inputs": [
        {
          "name": "operator",
          "type": "address",
          "internalType": "address"
        },
        {
          "name": "approved",
          "type": "bool",
          "internalType": "bool"
        }
      ],
      "outputs": [],
      "stateMutability": "nonpayable"
    },
    {
      "type": "function",
      "name": "supportsInterface",
      "inputs": [
        {
          "name": "interfaceId",
          "type": "bytes4",
          "internalType": "bytes4"
        }
      ],
      "outputs": [
        {
          "name": "",
          "type": "bool",
          "internalType": "bool"
        }
      ],
      "stateMutability": "view"
    },
    {
      "type": "function",
      "name": "symbol",
      "inputs": [],
      "outputs": [
        {
          "name": "",
          "type": "string",
          "internalType": "string"
        }
      ],
      "stateMutability": "view"
    },
    {
      "type": "function",
      "name": "tokenURI",
      "inputs": [
        {
          "name": "tokenId",
          "type": "uint256",
          "internalType": "uint256"
        }
      ],
      "outputs": [
        {
          "name": "",
          "type": "string",
          "internalType": "string"
        }
      ],
      "stateMutability": "view"
    },
    {
      "type": "function",
      "name": "transferFrom",
      "inputs": [
        {
          "name": "from",
          "type": "address",
          "internalType": "address"
        },
        {
          "name": "to",
          "type": "address",
          "internalType": "address"
        },
        {
          "name": "tokenId",
          "type": "uint256",
          "internalType": "uint256"
        }
      ],
      "outputs": [],
      "stateMutability": "nonpayable"
    },
    {
      "type": "event",
      "name": "Approval",
      "inputs": [
        {
          "name": "owner",
          "type": "address",
          "indexed": true,
          "internalType": "address"
        },
        {
          "name": "approved",
          "type": "address",
          "indexed": true,
          "internalType": "address"
        },
        {
          "name": "tokenId",
          "type": "uint256",
          "indexed": true,
          "internalType": "uint256"
        }
      ],
      "anonymous": false
    },
    {
      "type": "event",
      "name": "ApprovalForAll",
      "inputs": [
        {
          "name": "owner",
          "type": "address",
          "indexed": true,
          "internalType": "address"
        },
        {
          "name": "operator",
          "type": "address",
          "indexed": true,
          "internalType": "address"
        },
        {
          "name": "approved",
          "type": "bool",
          "indexed": false,
          "internalType": "bool"
        }
      ],
      "anonymous": false
    },
    {
      "type": "event",
      "name": "PolicyMinted",
      "inputs": [
        {
          "name": "policyTokenId",
          "type": "uint256",
          "indexed": true,
          "internalType": "uint256"
        },
        {
          "name": "policyHolder",
          "type": "address",
          "indexed": true,
          "internalType": "address"
        },
        {
          "name": "policyType",
          "type": "uint8",
          "indexed": false,
          "internalType": "enum InsurancePolicyNFT.PolicyType"
        },
        {
          "name": "insuredTokenId",
          "type": "uint256",
          "indexed": true,
          "internalType": "uint256"
        },
        {
          "name": "coverageAmount",
          "type": "uint256",
          "indexed": false,
          "internalType": "uint256"
        }
      ],
      "anonymous": false
    },
    {
      "type": "event",
      "name": "Transfer",
      "inputs": [
        {
          "name": "from",
          "type": "address",
          "indexed": true,
          "internalType": "address"
        },
        {
          "name": "to",
          "type": "address",
          "indexed": true,
          "internalType": "address"
        },
        {
          "name": "tokenId",
          "type": "uint256",
          "indexed": true,
          "internalType": "uint256"
        }
      ],
      "anonymous": false
    },
    {
      "type": "error",
      "name": "ERC721IncorrectOwner",
      "inputs": [
        {
          "name": "sender",
          "type": "address",
          "internalType": "address"
        },
        {
          "name": "tokenId",
          "type": "uint256",
          "internalType": "uint256"
        },
        {
          "name": "owner",
          "type": "address",
          "internalType": "address"
        }
      ]
    },
    {
      "type": "error",
      "name": "ERC721InsufficientApproval",
      "inputs": [
        {
          "name": "operator",
          "type": "address",
          "internalType": "address"
        },
        {
          "name": "tokenId",
          "type": "uint256",
          "internalType": "uint256"
        }
      ]
    },
    {
      "type": "error",
      "name": "ERC721InvalidApprover",
      "inputs": [
        {
          "name": "approver",
          "type": "address",
          "internalType": "address"
        }
      ]
    },
    {
      "type": "error",
      "name": "ERC721InvalidOperator",
      "inputs": [
        {
          "name": "operator",
          "type": "address",
          "internalType": "address"
        }
      ]
    },
    {
      "type": "error",
      "name": "ERC721InvalidOwner",
      "inputs": [
        {
          "name": "owner",
          "type": "address",
          "internalType": "address"
        }
      ]
    },
    {
      "type": "error",
      "name": "ERC721InvalidReceiver",
      "inputs": [
        {
          "name": "receiver",
          "type": "address",
          "internalType": "address"
        }
      ]
    },
    {
      "type": "error",
      "name": "ERC721InvalidSender",
      "inputs": [
        {
          "name": "sender",
          "type": "address",
          "internalType": "address"
        }
      ]
    },
    {
      "type": "error",
      "name": "ERC721NonexistentToken",
      "inputs": [
        {
          "name": "tokenId",
          "type": "uint256",
          "internalType": "uint256"
        }
      ]
    }
  ],
  "bytecode": {
    "object": "0x608060405234801561000f575f80fd5b506040518060400160405280601681526020017f5368697042726f6b6572616765496e737572616e6365000000000000000000008152506040518060400160405280600381526020017f5342490000000000000000000000000000000000000000000000000000000000815250815f908161008a91906102dc565b50806001908161009a91906102dc565b5050506103ab565b5f81519050919050565b7f4e487b71000000000000000000000000000000000000000000000000000000005f52604160045260245ffd5b7f4e487b71000000000000000000000000000000000000000000000000000000005f52602260045260245ffd5b5f600282049050600182168061011d57607f821691505b6020821081036101305761012f6100d9565b5b50919050565b5f819050815f5260205f209050919050565b5f6020601f8301049050919050565b5f82821b905092915050565b5f600883026101927fffffffffffffffffffffffffffffffffffffffffffffffffffffffffffffffff82610157565b61019c8683610157565b95508019841693508086168417925050509392505050565b5f819050919050565b5f819050919050565b5f6101e06101db6101d6846101b4565b6101bd565b6101b4565b9050919050565b5f819050919050565b6101f9836101c6565b61020d610205826101e7565b848454610163565b825550505050565b5f90565b610221610215565b61022c8184846101f0565b505050565b5b8181101561024f576102445f82610219565b600181019050610232565b5050565b601f8211156102945761026581610136565b61026e84610148565b8101602085101561027d578190505b61029161028985610148565b830182610231565b50505b505050565b5f82821c905092915050565b5f6102b45f1984600802610299565b1980831691505092915050565b5f6102cc83836102a5565b9150826002028217905092915050565b6102e5826100a2565b67ffffffffffffffff8111156102fe576102fd6100ac565b5b6103088254610106565b610313828285610253565b5f60209050601f831160018114610344575f8415610332578287015190505b61033c85826102c1565b8655506103a3565b601f19841661035286610136565b5f5b8281101561037957848901518255600182019150602085019450602081019050610354565b868310156103965784890151610392601f8916826102a5565b8355505b6001600288020188555050505b505050505050565b61257b806103b85f395ff3fe6080604052600436106100fd575f3560e01c806370a0823111610094578063c87b56dd11610063578063c87b56dd14610349578063d3e8948314610385578063e19cdacd146103c7578063e985e9c514610403578063fb7f23121461043f576100fd565b806370a082311461029357806395d89b41146102cf578063a22cb465146102f9578063b88d4fde14610321576100fd565b8063095ea7b3116100d0578063095ea7b3146101df57806323b872dd1461020757806342842e0e1461022f5780636352211e14610257576100fd565b806301ffc9a71461010157806306fdde031461013d578063081812fc14610167578063094815ef146101a3575b5f80fd5b34801561010c575f80fd5b5061012760048036038101906101229190611a9f565b61045b565b6040516101349190611ae4565b60405180910390f35b348015610148575f80fd5b5061015161053c565b60405161015e9190611b6d565b60405180910390f35b348015610172575f80fd5b5061018d60048036038101906101889190611bc0565b6105cb565b60405161019a9190611c2a565b60405180910390f35b3480156101ae575f80fd5b506101c960048036038101906101c49190611c66565b6105e6565b6040516101d69190611ae4565b60405180910390f35b3480156101ea575f80fd5b5061020560048036038101906102009190611cce565b61062e565b005b348015610212575f80fd5b5061022d60048036038101906102289190611d0c565b610644565b005b34801561023a575f80fd5b5061025560048036038101906102509190611d0c565b610743565b005b348015610262575f80fd5b5061027d60048036038101906102789190611bc0565b610762565b60405161028a9190611c2a565b60405180910390f35b34801561029e575f80fd5b506102b960048036038101906102b49190611d5c565b610773565b6040516102c69190611d96565b60405180910390f35b3480156102da575f80fd5b506102e3610829565b6040516102f09190611b6d565b60405180910390f35b348015610304575f80fd5b5061031f600480360381019061031a9190611dd9565b6108b9565b005b34801561032c575f80fd5b5061034760048036038101906103429190611f43565b6108cf565b005b348015610354575f80fd5b5061036f600480360381019061036a9190611bc0565b6108ec565b60405161037c9190611b6d565b60405180910390f35b348015610390575f80fd5b506103ab60048036038101906103a69190611bc0565b610952565b6040516103be9796959493929190612036565b60405180910390f35b3480156103d2575f80fd5b506103ed60048036038101906103e891906120a3565b6109c7565b6040516103fa9190611ae4565b60405180910390f35b34801561040e575f80fd5b50610429600480360381019061042491906120e1565b6109f1565b6040516104369190611ae4565b60405180910390f35b6104596004803603810190610454919061211f565b610a7f565b005b5f7f80ac58cd000000000000000000000000000000000000000000000000000000007bffffffffffffffffffffffffffffffffffffffffffffffffffffffff1916827bffffffffffffffffffffffffffffffffffffffffffffffffffffffff1916148061052557507f5b5e139f000000000000000000000000000000000000000000000000000000007bffffffffffffffffffffffffffffffffffffffffffffffffffffffff1916827bffffffffffffffffffffffffffffffffffffffffffffffffffffffff1916145b80610535575061053482610cfb565b5b9050919050565b60605f805461054a906121c3565b80601f0160208091040260200160405190810160405280929190818152602001828054610576906121c3565b80156105c15780601f10610598576101008083540402835291602001916105c1565b820191905f5260205f20905b8154815290600101906020018083116105a457829003601f168201915b5050505050905090565b5f6105d582610d64565b506105df82610dea565b9050919050565b5f60075f8460018111156105fd576105fc611fc3565b5b81526020019081526020015f205f8381526020019081526020015f205f9054906101000a900460ff16905092915050565b610640828261063b610e23565b610e2a565b5050565b5f73ffffffffffffffffffffffffffffffffffffffff168273ffffffffffffffffffffffffffffffffffffffff16036106b4575f6040517f64a0ae920000000000000000000000000000000000000000000000000000000081526004016106ab9190611c2a565b60405180910390fd5b5f6106c783836106c2610e23565b610e3c565b90508373ffffffffffffffffffffffffffffffffffffffff168173ffffffffffffffffffffffffffffffffffffffff161461073d578382826040517f64283d7b000000000000000000000000000000000000000000000000000000008152600401610734939291906121f3565b60405180910390fd5b50505050565b61075d83838360405180602001604052805f8152506108cf565b505050565b5f61076c82610d64565b9050919050565b5f8073ffffffffffffffffffffffffffffffffffffffff168273ffffffffffffffffffffffffffffffffffffffff16036107e4575f6040517f89c62b640000000000000000000000000000000000000000000000000000000081526004016107db9190611c2a565b60405180910390fd5b60035f8373ffffffffffffffffffffffffffffffffffffffff1673ffffffffffffffffffffffffffffffffffffffff1681526020019081526020015f20549050919050565b606060018054610838906121c3565b80601f0160208091040260200160405190810160405280929190818152602001828054610864906121c3565b80156108af5780601f10610886576101008083540402835291602001916108af565b820191905f5260205f20905b81548152906001019060200180831161089257829003601f168201915b5050505050905090565b6108cb6108c4610e23565b8383611047565b5050565b6108da848484610644565b6108e6848484846111b0565b50505050565b60606108f782610d64565b505f610901611362565b90505f81511161091f5760405180602001604052805f81525061094a565b8061092984611378565b60405160200161093a929190612262565b6040516020818303038152906040525b915050919050565b6006602052805f5260405f205f91509050805f015f9054906101000a900473ffffffffffffffffffffffffffffffffffffffff1690805f0160149054906101000a900460ff1690806001015490806002015490806003015490806004015490806005015f9054906101000a900460ff16905087565b6007602052815f5260405f20602052805f5260405f205f915091509054906101000a900460ff1681565b5f60055f8473ffffffffffffffffffffffffffffffffffffffff1673ffffffffffffffffffffffffffffffffffffffff1681526020019081526020015f205f8373ffffffffffffffffffffffffffffffffffffffff1673ffffffffffffffffffffffffffffffffffffffff1681526020019081526020015f205f9054906101000a900460ff16905092915050565b813414610ac1576040517f08c379a0000000000000000000000000000000000000000000000000000000008152600401610ab8906122cf565b60405180910390fd5b428111610b03576040517f08c379a0000000000000000000000000000000000000000000000000000000008152600401610afa9061235d565b60405180910390fd5b5f60085f815480929190610b16906123a8565b9190505590505f339050610b2a8183611442565b6040518060e001604052808273ffffffffffffffffffffffffffffffffffffffff168152602001886001811115610b6457610b63611fc3565b5b81526020018781526020018681526020018581526020018481526020016001151581525060065f8481526020019081526020015f205f820151815f015f6101000a81548173ffffffffffffffffffffffffffffffffffffffff021916908373ffffffffffffffffffffffffffffffffffffffff1602179055506020820151815f0160146101000a81548160ff02191690836001811115610c0757610c06611fc3565b5b021790555060408201518160010155606082015181600201556080820151816003015560a0820151816004015560c0820151816005015f6101000a81548160ff021916908315150217905550905050600160075f896001811115610c6e57610c6d611fc3565b5b81526020019081526020015f205f8881526020019081526020015f205f6101000a81548160ff021916908315150217905550858173ffffffffffffffffffffffffffffffffffffffff16837f784ee2db912178a4a6133cb74b5ef0513b18040b99cd0d312611a437be2f38bc8a89604051610cea9291906123ef565b60405180910390a450505050505050565b5f7f01ffc9a7000000000000000000000000000000000000000000000000000000007bffffffffffffffffffffffffffffffffffffffffffffffffffffffff1916827bffffffffffffffffffffffffffffffffffffffffffffffffffffffff1916149050919050565b5f80610d6f8361145f565b90505f73ffffffffffffffffffffffffffffffffffffffff168173ffffffffffffffffffffffffffffffffffffffff1603610de157826040517f7e273289000000000000000000000000000000000000000000000000000000008152600401610dd89190611d96565b60405180910390fd5b80915050919050565b5f60045f8381526020019081526020015f205f9054906101000a900473ffffffffffffffffffffffffffffffffffffffff169050919050565b5f33905090565b610e378383836001611498565b505050565b5f80610e478461145f565b90505f73ffffffffffffffffffffffffffffffffffffffff168373ffffffffffffffffffffffffffffffffffffffff1614610e8857610e87818486611657565b5b5f73ffffffffffffffffffffffffffffffffffffffff168173ffffffffffffffffffffffffffffffffffffffff1614610f1357610ec75f855f80611498565b600160035f8373ffffffffffffffffffffffffffffffffffffffff1673ffffffffffffffffffffffffffffffffffffffff1681526020019081526020015f205f82825403925050819055505b5f73ffffffffffffffffffffffffffffffffffffffff168573ffffffffffffffffffffffffffffffffffffffff1614610f9257600160035f8773ffffffffffffffffffffffffffffffffffffffff1673ffffffffffffffffffffffffffffffffffffffff1681526020019081526020015f205f82825401925050819055505b8460025f8681526020019081526020015f205f6101000a81548173ffffffffffffffffffffffffffffffffffffffff021916908373ffffffffffffffffffffffffffffffffffffffff160217905550838573ffffffffffffffffffffffffffffffffffffffff168273ffffffffffffffffffffffffffffffffffffffff167fddf252ad1be2c89b69c2b068fc378daa952ba7f163c4a11628f55a4df523b3ef60405160405180910390a4809150509392505050565b5f73ffffffffffffffffffffffffffffffffffffffff168273ffffffffffffffffffffffffffffffffffffffff16036110b757816040517f5b08ba180000000000000000000000000000000000000000000000000000000081526004016110ae9190611c2a565b60405180910390fd5b8060055f8573ffffffffffffffffffffffffffffffffffffffff1673ffffffffffffffffffffffffffffffffffffffff1681526020019081526020015f205f8473ffffffffffffffffffffffffffffffffffffffff1673ffffffffffffffffffffffffffffffffffffffff1681526020019081526020015f205f6101000a81548160ff0219169083151502179055508173ffffffffffffffffffffffffffffffffffffffff168373ffffffffffffffffffffffffffffffffffffffff167f17307eab39ab6107e8899845ad3d59bd9653f200f220920489ca2b5937696c31836040516111a39190611ae4565b60405180910390a3505050565b5f8373ffffffffffffffffffffffffffffffffffffffff163b111561135c578273ffffffffffffffffffffffffffffffffffffffff1663150b7a026111f3610e23565b8685856040518563ffffffff1660e01b81526004016112159493929190612468565b6020604051808303815f875af192505050801561125057506040513d601f19601f8201168201806040525081019061124d91906124c6565b60015b6112d1573d805f811461127e576040519150601f19603f3d011682016040523d82523d5f602084013e611283565b606091505b505f8151036112c957836040517f64a0ae920000000000000000000000000000000000000000000000000000000081526004016112c09190611c2a565b60405180910390fd5b805181602001fd5b63150b7a0260e01b7bffffffffffffffffffffffffffffffffffffffffffffffffffffffff1916817bffffffffffffffffffffffffffffffffffffffffffffffffffffffff19161461135a57836040517f64a0ae920000000000000000000000000000000000000000000000000000000081526004016113519190611c2a565b60405180910390fd5b505b50505050565b606060405180602001604052805f815250905090565b60605f60016113868461171a565b0190505f8167ffffffffffffffff8111156113a4576113a3611e1f565b5b6040519080825280601f01601f1916602001820160405280156113d65781602001600182028036833780820191505090505b5090505f82602001820190505b600115611437578080600190039150507f3031323334353637383961626364656600000000000000000000000000000000600a86061a8153600a858161142c5761142b6124f1565b5b0494505f85036113e3575b819350505050919050565b61145b828260405180602001604052805f81525061186b565b5050565b5f60025f8381526020019081526020015f205f9054906101000a900473ffffffffffffffffffffffffffffffffffffffff169050919050565b80806114d057505f73ffffffffffffffffffffffffffffffffffffffff168273ffffffffffffffffffffffffffffffffffffffff1614155b15611602575f6114df84610d64565b90505f73ffffffffffffffffffffffffffffffffffffffff168373ffffffffffffffffffffffffffffffffffffffff161415801561154957508273ffffffffffffffffffffffffffffffffffffffff168173ffffffffffffffffffffffffffffffffffffffff1614155b801561155c575061155a81846109f1565b155b1561159e57826040517fa9fbf51f0000000000000000000000000000000000000000000000000000000081526004016115959190611c2a565b60405180910390fd5b811561160057838573ffffffffffffffffffffffffffffffffffffffff168273ffffffffffffffffffffffffffffffffffffffff167f8c5be1e5ebec7d5bd14f71427d1e84f3dd0314c0f7b2291e5b200ac8c7c3b92560405160405180910390a45b505b8360045f8581526020019081526020015f205f6101000a81548173ffffffffffffffffffffffffffffffffffffffff021916908373ffffffffffffffffffffffffffffffffffffffff16021790555050505050565b611662838383611886565b611715575f73ffffffffffffffffffffffffffffffffffffffff168373ffffffffffffffffffffffffffffffffffffffff16036116d657806040517f7e2732890000000000000000000000000000000000000000000000000000000081526004016116cd9190611d96565b60405180910390fd5b81816040517f177e802f00000000000000000000000000000000000000000000000000000000815260040161170c92919061251e565b60405180910390fd5b505050565b5f805f90507a184f03e93ff9f4daa797ed6e38ed64bf6a1f0100000000000000008310611776577a184f03e93ff9f4daa797ed6e38ed64bf6a1f010000000000000000838161176c5761176b6124f1565b5b0492506040810190505b6d04ee2d6d415b85acef810000000083106117b3576d04ee2d6d415b85acef810000000083816117a9576117a86124f1565b5b0492506020810190505b662386f26fc1000083106117e257662386f26fc1000083816117d8576117d76124f1565b5b0492506010810190505b6305f5e100831061180b576305f5e1008381611801576118006124f1565b5b0492506008810190505b6127108310611830576127108381611826576118256124f1565b5b0492506004810190505b606483106118535760648381611849576118486124f1565b5b0492506002810190505b600a8310611862576001810190505b80915050919050565b6118758383611946565b6118815f8484846111b0565b505050565b5f8073ffffffffffffffffffffffffffffffffffffffff168373ffffffffffffffffffffffffffffffffffffffff161415801561193d57508273ffffffffffffffffffffffffffffffffffffffff168473ffffffffffffffffffffffffffffffffffffffff1614806118fe57506118fd84846109f1565b5b8061193c57508273ffffffffffffffffffffffffffffffffffffffff1661192483610dea565b73ffffffffffffffffffffffffffffffffffffffff16145b5b90509392505050565b5f73ffffffffffffffffffffffffffffffffffffffff168273ffffffffffffffffffffffffffffffffffffffff16036119b6575f6040517f64a0ae920000000000000000000000000000000000000000000000000000000081526004016119ad9190611c2a565b60405180910390fd5b5f6119c283835f610e3c565b90505f73ffffffffffffffffffffffffffffffffffffffff168173ffffffffffffffffffffffffffffffffffffffff1614611a34575f6040517f73c6ac6e000000000000000000000000000000000000000000000000000000008152600401611a2b9190611c2a565b60405180910390fd5b505050565b5f604051905090565b5f80fd5b5f80fd5b5f7fffffffff0000000000000000000000000000000000000000000000000000000082169050919050565b611a7e81611a4a565b8114611a88575f80fd5b50565b5f81359050611a9981611a75565b92915050565b5f60208284031215611ab457611ab3611a42565b5b5f611ac184828501611a8b565b91505092915050565b5f8115159050919050565b611ade81611aca565b82525050565b5f602082019050611af75f830184611ad5565b92915050565b5f81519050919050565b5f82825260208201905092915050565b8281835e5f83830152505050565b5f601f19601f8301169050919050565b5f611b3f82611afd565b611b498185611b07565b9350611b59818560208601611b17565b611b6281611b25565b840191505092915050565b5f6020820190508181035f830152611b858184611b35565b905092915050565b5f819050919050565b611b9f81611b8d565b8114611ba9575f80fd5b50565b5f81359050611bba81611b96565b92915050565b5f60208284031215611bd557611bd4611a42565b5b5f611be284828501611bac565b91505092915050565b5f73ffffffffffffffffffffffffffffffffffffffff82169050919050565b5f611c1482611beb565b9050919050565b611c2481611c0a565b82525050565b5f602082019050611c3d5f830184611c1b565b92915050565b60028110611c4f575f80fd5b50565b5f81359050611c6081611c43565b92915050565b5f8060408385031215611c7c57611c7b611a42565b5b5f611c8985828601611c52565b9250506020611c9a85828601611bac565b9150509250929050565b611cad81611c0a565b8114611cb7575f80fd5b50565b5f81359050611cc881611ca4565b92915050565b5f8060408385031215611ce457611ce3611a42565b5b5f611cf185828601611cba565b9250506020611d0285828601611bac565b9150509250929050565b5f805f60608486031215611d2357611d22611a42565b5b5f611d3086828701611cba565b9350506020611d4186828701611cba565b9250506040611d5286828701611bac565b9150509250925092565b5f60208284031215611d7157611d70611a42565b5b5f611d7e84828501611cba565b91505092915050565b611d9081611b8d565b82525050565b5f602082019050611da95f830184611d87565b92915050565b611db881611aca565b8114611dc2575f80fd5b50565b5f81359050611dd381611daf565b92915050565b5f8060408385031215611def57611dee611a42565b5b5f611dfc85828601611cba565b9250506020611e0d85828601611dc5565b9150509250929050565b5f80fd5b5f80fd5b7f4e487b71000000000000000000000000000000000000000000000000000000005f52604160045260245ffd5b611e5582611b25565b810181811067ffffffffffffffff82111715611e7457611e73611e1f565b5b80604052505050565b5f611e86611a39565b9050611e928282611e4c565b919050565b5f67ffffffffffffffff821115611eb157611eb0611e1f565b5b611eba82611b25565b9050602081019050919050565b828183375f83830152505050565b5f611ee7611ee284611e97565b611e7d565b905082815260208101848484011115611f0357611f02611e1b565b5b611f0e848285611ec7565b509392505050565b5f82601f830112611f2a57611f29611e17565b5b8135611f3a848260208601611ed5565b91505092915050565b5f805f8060808587031215611f5b57611f5a611a42565b5b5f611f6887828801611cba565b9450506020611f7987828801611cba565b9350506040611f8a87828801611bac565b925050606085013567ffffffffffffffff811115611fab57611faa611a46565b5b611fb787828801611f16565b91505092959194509250565b7f4e487b71000000000000000000000000000000000000000000000000000000005f52602160045260245ffd5b6002811061200157612000611fc3565b5b50565b5f81905061201182611ff0565b919050565b5f61202082612004565b9050919050565b61203081612016565b82525050565b5f60e0820190506120495f83018a611c1b565b6120566020830189612027565b6120636040830188611d87565b6120706060830187611d87565b61207d6080830186611d87565b61208a60a0830185611d87565b61209760c0830184611ad5565b98975050505050505050565b5f80604083850312156120b9576120b8611a42565b5b5f6120c685828601611bac565b92505060206120d785828601611bac565b9150509250929050565b5f80604083850312156120f7576120f6611a42565b5b5f61210485828601611cba565b925050602061211585828601611cba565b9150509250929050565b5f805f805f60a0868803121561213857612137611a42565b5b5f61214588828901611c52565b955050602061215688828901611bac565b945050604061216788828901611bac565b935050606061217888828901611bac565b925050608061218988828901611bac565b9150509295509295909350565b7f4e487b71000000000000000000000000000000000000000000000000000000005f52602260045260245ffd5b5f60028204905060018216806121da57607f821691505b6020821081036121ed576121ec612196565b5b50919050565b5f6060820190506122065f830186611c1b565b6122136020830185611d87565b6122206040830184611c1b565b949350505050565b5f81905092915050565b5f61223c82611afd565b6122468185612228565b9350612256818560208601611b17565b80840191505092915050565b5f61226d8285612232565b91506122798284612232565b91508190509392505050565b7f49504e46543a20496e636f7272656374207072656d69756d20706169640000005f82015250565b5f6122b9601d83611b07565b91506122c482612285565b602082019050919050565b5f6020820190508181035f8301526122e6816122ad565b9050919050565b7f49504e46543a20506f6c696379206d7573742065787069726520696e207468655f8201527f2066757475726500000000000000000000000000000000000000000000000000602082015250565b5f612347602783611b07565b9150612352826122ed565b604082019050919050565b5f6020820190508181035f8301526123748161233b565b9050919050565b7f4e487b71000000000000000000000000000000000000000000000000000000005f52601160045260245ffd5b5f6123b282611b8d565b91507fffffffffffffffffffffffffffffffffffffffffffffffffffffffffffffffff82036123e4576123e361237b565b5b600182019050919050565b5f6040820190506124025f830185612027565b61240f6020830184611d87565b9392505050565b5f81519050919050565b5f82825260208201905092915050565b5f61243a82612416565b6124448185612420565b9350612454818560208601611b17565b61245d81611b25565b840191505092915050565b5f60808201905061247b5f830187611c1b565b6124886020830186611c1b565b6124956040830185611d87565b81810360608301526124a78184612430565b905095945050505050565b5f815190506124c081611a75565b92915050565b5f602082840312156124db576124da611a42565b5b5f6124e8848285016124b2565b91505092915050565b7f4e487b71000000000000000000000000000000000000000000000000000000005f52601260045260245ffd5b5f6040820190506125315f830185611c1b565b61253e6020830184611d87565b939250505056fea264697066735822122059625cf2c10485467b7d4683801f875f28223f4231e7aa829e90d96f1127465e64736f6c634300081a0033",
    "linkReferences": {}
  },
  "methodIdentifiers": {
    "approve(address,uint256)": "095ea7b3",
    "balanceOf(address)": "70a08231",
    "checkInsurance(uint8,uint256)": "094815ef",
    "getApproved(uint256)": "081812fc",
    "isApprovedForAll(address,address)": "e985e9c5",
    "isInsured(uint256,uint256)": "e19cdacd",
    "mintPolicy(uint8,uint256,uint256,uint256,uint256)": "fb7f2312",
    "name()": "06fdde03",
    "ownerOf(uint256)": "6352211e",
    "policies(uint256)": "d3e89483",
    "safeTransferFrom(address,address,uint256)": "42842e0e",
    "safeTransferFrom(address,address,uint256,bytes)": "b88d4fde",
    "setApprovalForAll(address,bool)": "a22cb465",
    "supportsInterface(bytes4)": "01ffc9a7",
    "symbol()": "95d89b41",
    "tokenURI(uint256)": "c87b56dd",
    "transferFrom(address,address,uint256)": "23b872dd"
  },
  "id": 13
}