{
  "abi": [
    {
      "type": "constructor",
      "inputs": [
        {
          "name": "_vesselNFTAddress",
          "type": "address",
          "internalType": "address"
        }
      ],
      "stateMutability": "nonpayable"
    },
    {
      "type": "function",
      "name": "decreaseJourneyCapacity",
      "inputs": [
        {
          "name": "_journeyId",
          "type": "uint256",
          "internalType": "uint256"
        },
        {
          "name": "_cargoWeight",
          "type": "uint256",
          "internalType": "uint256"
        }
      ],
      "outputs": [],
      "stateMutability": "nonpayable"
    },
    {
      "type": "function",
      "name": "getJourneyDetails",
      "inputs": [
        {
          "name": "_journeyId",
          "type": "uint256",
          "internalType": "uint256"
        }
      ],
      "outputs": [
        {
          "name": "",
          "type": "tuple",
          "internalType": "struct JourneyManager.Journey",
          "components": [
            {
              "name": "journeyId",
              "type": "uint256",
              "internalType": "uint256"
            },
            {
              "name": "vesselTokenId",
              "type": "uint256",
              "internalType": "uint256"
            },
            {
              "name": "vesselOwner",
              "type": "address",
              "internalType": "address"
            },
            {
              "name": "originPort",
              "type": "string",
              "internalType": "string"
            },
            {
              "name": "destinationPort",
              "type": "string",
              "internalType": "string"
            },
            {
              "name": "departureTimestamp",
              "type": "uint256",
              "internalType": "uint256"
            },
            {
              "name": "availableCapacity",
              "type": "uint256",
              "internalType": "uint256"
            },
            {
              "name": "isListed",
              "type": "bool",
              "internalType": "bool"
            }
          ]
        }
      ],
      "stateMutability": "view"
    },
    {
      "type": "function",
      "name": "journeys",
      "inputs": [
        {
          "name": "",
          "type": "uint256",
          "internalType": "uint256"
        }
      ],
      "outputs": [
        {
          "name": "journeyId",
          "type": "uint256",
          "internalType": "uint256"
        },
        {
          "name": "vesselTokenId",
          "type": "uint256",
          "internalType": "uint256"
        },
        {
          "name": "vesselOwner",
          "type": "address",
          "internalType": "address"
        },
        {
          "name": "originPort",
          "type": "string",
          "internalType": "string"
        },
        {
          "name": "destinationPort",
          "type": "string",
          "internalType": "string"
        },
        {
          "name": "departureTimestamp",
          "type": "uint256",
          "internalType": "uint256"
        },
        {
          "name": "availableCapacity",
          "type": "uint256",
          "internalType": "uint256"
        },
        {
          "name": "isListed",
          "type": "bool",
          "internalType": "bool"
        }
      ],
      "stateMutability": "view"
    },
    {
      "type": "function",
      "name": "listJourney",
      "inputs": [
        {
          "name": "_vesselTokenId",
          "type": "uint256",
          "internalType": "uint256"
        },
        {
          "name": "_originPort",
          "type": "string",
          "internalType": "string"
        },
        {
          "name": "_destinationPort",
          "type": "string",
          "internalType": "string"
        },
        {
          "name": "_departureTimestamp",
          "type": "uint256",
          "internalType": "uint256"
        },
        {
          "name": "_availableCapacity",
          "type": "uint256",
          "internalType": "uint256"
        }
      ],
      "outputs": [],
      "stateMutability": "nonpayable"
    },
    {
      "type": "function",
      "name": "vesselNFT",
      "inputs": [],
      "outputs": [
        {
          "name": "",
          "type": "address",
          "internalType": "contract IVesselNFT"
        }
      ],
      "stateMutability": "view"
    },
    {
      "type": "event",
      "name": "JourneyListed",
      "inputs": [
        {
          "name": "journeyId",
          "type": "uint256",
          "indexed": true,
          "internalType": "uint256"
        },
        {
          "name": "vesselTokenId",
          "type": "uint256",
          "indexed": true,
          "internalType": "uint256"
        },
        {
          "name": "vesselOwner",
          "type": "address",
          "indexed": true,
          "internalType": "address"
        },
        {
          "name": "availableCapacity",
          "type": "uint256",
          "indexed": false,
          "internalType": "uint256"
        }
      ],
      "anonymous": false
    }
  ],
  "bytecode": {
    "object": "0x608060405234801561000f575f80fd5b5060405161160d38038061160d833981810160405281019061003191906100d4565b805f806101000a81548173ffffffffffffffffffffffffffffffffffffffff021916908373ffffffffffffffffffffffffffffffffffffffff160217905550506100ff565b5f80fd5b5f73ffffffffffffffffffffffffffffffffffffffff82169050919050565b5f6100a38261007a565b9050919050565b6100b381610099565b81146100bd575f80fd5b50565b5f815190506100ce816100aa565b92915050565b5f602082840312156100e9576100e8610076565b5b5f6100f6848285016100c0565b91505092915050565b6115018061010c5f395ff3fe608060405234801561000f575f80fd5b5060043610610055575f3560e01c80631e92351c1461005957806351dfa0cd146100775780638df5a9fa146100935780639cb50c9f146100ca578063f369c0d3146100fa575b5f80fd5b610061610116565b60405161006e9190610a3a565b60405180910390f35b610091600480360381019061008c9190610a8e565b610139565b005b6100ad60048036038101906100a89190610acc565b610203565b6040516100c1989796959493929190610bb0565b60405180910390f35b6100e460048036038101906100df9190610acc565b61037e565b6040516100f19190610d63565b60405180910390f35b610114600480360381019061010f9190610de4565b6105c0565b005b5f8054906101000a900473ffffffffffffffffffffffffffffffffffffffff1681565b5f60015f8481526020019081526020015f209050806007015f9054906101000a900460ff1661019d576040517f08c379a000000000000000000000000000000000000000000000000000000000815260040161019490610ee5565b60405180910390fd5b81816006015410156101e4576040517f08c379a00000000000000000000000000000000000000000000000000000000081526004016101db90610f4d565b60405180910390fd5b81816006015f8282546101f79190610f98565b92505081905550505050565b6001602052805f5260405f205f91509050805f015490806001015490806002015f9054906101000a900473ffffffffffffffffffffffffffffffffffffffff169080600301805461025390610ff8565b80601f016020809104026020016040519081016040528092919081815260200182805461027f90610ff8565b80156102ca5780601f106102a1576101008083540402835291602001916102ca565b820191905f5260205f20905b8154815290600101906020018083116102ad57829003601f168201915b5050505050908060040180546102df90610ff8565b80601f016020809104026020016040519081016040528092919081815260200182805461030b90610ff8565b80156103565780601f1061032d57610100808354040283529160200191610356565b820191905f5260205f20905b81548152906001019060200180831161033957829003601f168201915b505050505090806005015490806006015490806007015f9054906101000a900460ff16905088565b610386610969565b60015f8381526020019081526020015f206007015f9054906101000a900460ff166103e6576040517f08c379a00000000000000000000000000000000000000000000000000000000081526004016103dd90610ee5565b60405180910390fd5b60015f8381526020019081526020015f20604051806101000160405290815f820154815260200160018201548152602001600282015f9054906101000a900473ffffffffffffffffffffffffffffffffffffffff1673ffffffffffffffffffffffffffffffffffffffff1673ffffffffffffffffffffffffffffffffffffffff16815260200160038201805461047b90610ff8565b80601f01602080910402602001604051908101604052809291908181526020018280546104a790610ff8565b80156104f25780601f106104c9576101008083540402835291602001916104f2565b820191905f5260205f20905b8154815290600101906020018083116104d557829003601f168201915b5050505050815260200160048201805461050b90610ff8565b80601f016020809104026020016040519081016040528092919081815260200182805461053790610ff8565b80156105825780601f1061055957610100808354040283529160200191610582565b820191905f5260205f20905b81548152906001019060200180831161056557829003601f168201915b505050505081526020016005820154815260200160068201548152602001600782015f9054906101000a900460ff1615151515815250509050919050565b5f805f9054906101000a900473ffffffffffffffffffffffffffffffffffffffff1673ffffffffffffffffffffffffffffffffffffffff16636352211e896040518263ffffffff1660e01b815260040161061a9190611028565b602060405180830381865afa158015610635573d5f803e3d5ffd5b505050506040513d601f19601f82011682018060405250810190610659919061106b565b90503373ffffffffffffffffffffffffffffffffffffffff168173ffffffffffffffffffffffffffffffffffffffff16146106c9576040517f08c379a00000000000000000000000000000000000000000000000000000000081526004016106c0906110e0565b60405180910390fd5b5f821161070b576040517f08c379a000000000000000000000000000000000000000000000000000000000815260040161070290611148565b60405180910390fd5b42831161074d576040517f08c379a0000000000000000000000000000000000000000000000000000000008152600401610744906111d6565b60405180910390fd5b5f60025490506040518061010001604052808281526020018a81526020018373ffffffffffffffffffffffffffffffffffffffff16815260200189898080601f0160208091040260200160405190810160405280939291908181526020018383808284375f81840152601f19601f82011690508083019250505050505050815260200187878080601f0160208091040260200160405190810160405280939291908181526020018383808284375f81840152601f19601f8201169050808301925050505050505081526020018581526020018481526020016001151581525060015f8381526020019081526020015f205f820151815f0155602082015181600101556040820151816002015f6101000a81548173ffffffffffffffffffffffffffffffffffffffff021916908373ffffffffffffffffffffffffffffffffffffffff16021790555060608201518160030190816108aa91906113b5565b5060808201518160040190816108c091906113b5565b5060a0820151816005015560c0820151816006015560e0820151816007015f6101000a81548160ff02191690831515021790555090505060025f81548092919061090990611484565b91905055508173ffffffffffffffffffffffffffffffffffffffff1689827f1a7ec30a0dcd34961374d2526df5fd151e04de44d103730bb94ad378af978178866040516109569190611028565b60405180910390a4505050505050505050565b6040518061010001604052805f81526020015f81526020015f73ffffffffffffffffffffffffffffffffffffffff16815260200160608152602001606081526020015f81526020015f81526020015f151581525090565b5f73ffffffffffffffffffffffffffffffffffffffff82169050919050565b5f819050919050565b5f610a026109fd6109f8846109c0565b6109df565b6109c0565b9050919050565b5f610a13826109e8565b9050919050565b5f610a2482610a09565b9050919050565b610a3481610a1a565b82525050565b5f602082019050610a4d5f830184610a2b565b92915050565b5f80fd5b5f80fd5b5f819050919050565b610a6d81610a5b565b8114610a77575f80fd5b50565b5f81359050610a8881610a64565b92915050565b5f8060408385031215610aa457610aa3610a53565b5b5f610ab185828601610a7a565b9250506020610ac285828601610a7a565b9150509250929050565b5f60208284031215610ae157610ae0610a53565b5b5f610aee84828501610a7a565b91505092915050565b610b0081610a5b565b82525050565b5f610b10826109c0565b9050919050565b610b2081610b06565b82525050565b5f81519050919050565b5f82825260208201905092915050565b8281835e5f83830152505050565b5f601f19601f8301169050919050565b5f610b6882610b26565b610b728185610b30565b9350610b82818560208601610b40565b610b8b81610b4e565b840191505092915050565b5f8115159050919050565b610baa81610b96565b82525050565b5f61010082019050610bc45f83018b610af7565b610bd1602083018a610af7565b610bde6040830189610b17565b8181036060830152610bf08188610b5e565b90508181036080830152610c048187610b5e565b9050610c1360a0830186610af7565b610c2060c0830185610af7565b610c2d60e0830184610ba1565b9998505050505050505050565b610c4381610a5b565b82525050565b610c5281610b06565b82525050565b5f82825260208201905092915050565b5f610c7282610b26565b610c7c8185610c58565b9350610c8c818560208601610b40565b610c9581610b4e565b840191505092915050565b610ca981610b96565b82525050565b5f61010083015f830151610cc55f860182610c3a565b506020830151610cd86020860182610c3a565b506040830151610ceb6040860182610c49565b5060608301518482036060860152610d038282610c68565b91505060808301518482036080860152610d1d8282610c68565b91505060a0830151610d3260a0860182610c3a565b5060c0830151610d4560c0860182610c3a565b5060e0830151610d5860e0860182610ca0565b508091505092915050565b5f6020820190508181035f830152610d7b8184610caf565b905092915050565b5f80fd5b5f80fd5b5f80fd5b5f8083601f840112610da457610da3610d83565b5b8235905067ffffffffffffffff811115610dc157610dc0610d87565b5b602083019150836001820283011115610ddd57610ddc610d8b565b5b9250929050565b5f805f805f805f60a0888a031215610dff57610dfe610a53565b5b5f610e0c8a828b01610a7a565b975050602088013567ffffffffffffffff811115610e2d57610e2c610a57565b5b610e398a828b01610d8f565b9650965050604088013567ffffffffffffffff811115610e5c57610e5b610a57565b5b610e688a828b01610d8f565b94509450506060610e7b8a828b01610a7a565b9250506080610e8c8a828b01610a7a565b91505092959891949750929550565b7f4a4d3a204a6f75726e657920646f6573206e6f742065786973740000000000005f82015250565b5f610ecf601a83610b30565b9150610eda82610e9b565b602082019050919050565b5f6020820190508181035f830152610efc81610ec3565b9050919050565b7f4a4d3a20496e73756666696369656e74206361706163697479000000000000005f82015250565b5f610f37601983610b30565b9150610f4282610f03565b602082019050919050565b5f6020820190508181035f830152610f6481610f2b565b9050919050565b7f4e487b71000000000000000000000000000000000000000000000000000000005f52601160045260245ffd5b5f610fa282610a5b565b9150610fad83610a5b565b9250828203905081811115610fc557610fc4610f6b565b5b92915050565b7f4e487b71000000000000000000000000000000000000000000000000000000005f52602260045260245ffd5b5f600282049050600182168061100f57607f821691505b60208210810361102257611021610fcb565b5b50919050565b5f60208201905061103b5f830184610af7565b92915050565b61104a81610b06565b8114611054575f80fd5b50565b5f8151905061106581611041565b92915050565b5f602082840312156110805761107f610a53565b5b5f61108d84828501611057565b91505092915050565b7f4a4d3a204e6f74207468652076657373656c206f776e657200000000000000005f82015250565b5f6110ca601883610b30565b91506110d582611096565b602082019050919050565b5f6020820190508181035f8301526110f7816110be565b9050919050565b7f4a4d3a204361706163697479206d75737420626520706f7369746976650000005f82015250565b5f611132601d83610b30565b915061113d826110fe565b602082019050919050565b5f6020820190508181035f83015261115f81611126565b9050919050565b7f4a4d3a20446570617274757265206d75737420626520696e20746865206675745f8201527f7572650000000000000000000000000000000000000000000000000000000000602082015250565b5f6111c0602383610b30565b91506111cb82611166565b604082019050919050565b5f6020820190508181035f8301526111ed816111b4565b9050919050565b7f4e487b71000000000000000000000000000000000000000000000000000000005f52604160045260245ffd5b5f819050815f5260205f209050919050565b5f6020601f8301049050919050565b5f82821b905092915050565b5f6008830261127d7fffffffffffffffffffffffffffffffffffffffffffffffffffffffffffffffff82611242565b6112878683611242565b95508019841693508086168417925050509392505050565b5f6112b96112b46112af84610a5b565b6109df565b610a5b565b9050919050565b5f819050919050565b6112d28361129f565b6112e66112de826112c0565b84845461124e565b825550505050565b5f90565b6112fa6112ee565b6113058184846112c9565b505050565b5b818110156113285761131d5f826112f2565b60018101905061130b565b5050565b601f82111561136d5761133e81611221565b61134784611233565b81016020851015611356578190505b61136a61136285611233565b83018261130a565b50505b505050565b5f82821c905092915050565b5f61138d5f1984600802611372565b1980831691505092915050565b5f6113a5838361137e565b9150826002028217905092915050565b6113be82610b26565b67ffffffffffffffff8111156113d7576113d66111f4565b5b6113e18254610ff8565b6113ec82828561132c565b5f60209050601f83116001811461141d575f841561140b578287015190505b611415858261139a565b86555061147c565b601f19841661142b86611221565b5f5b828110156114525784890151825560018201915060208501945060208101905061142d565b8683101561146f578489015161146b601f89168261137e565b8355505b6001600288020188555050505b505050505050565b5f61148e82610a5b565b91507fffffffffffffffffffffffffffffffffffffffffffffffffffffffffffffffff82036114c0576114bf610f6b565b5b60018201905091905056fea2646970667358221220f39b8de6ae539fec18c9eda4bd3ec62fd2b9bb3cd5fec165a8d9f82152baaf8c64736f6c634300081a0033",
    "linkReferences": {}
  },
  "methodIdentifiers": {
    "decreaseJourneyCapacity(uint256,uint256)": "51dfa0cd",
    "getJourneyDetails(uint256)": "9cb50c9f",
    "journeys(uint256)": "8df5a9fa",
    "listJourney(uint256,string,string,uint256,uint256)": "f369c0d3",
    "vesselNFT()": "1e92351c"
  },
  "id": 14
}