{"abi":[{"type":"constructor","inputs":[{"name":"_vesselNFTAddress","type":"address","internalType":"address"}],"stateMutability":"nonpayable"},{"type":"function","name":"addStopToRoute","inputs":[{"name":"_journeyTokenId","type":"uint256","internalType":"uint256"},{"name":"_location","type":"string","internalType":"string"}],"outputs":[],"stateMutability":"nonpayable"},{"type":"function","name":"approve","inputs":[{"name":"to","type":"address","internalType":"address"},{"name":"tokenId","type":"uint256","internalType":"uint256"}],"outputs":[],"stateMutability":"nonpayable"},{"type":"function","name":"arriveAtStop","inputs":[{"name":"_journeyTokenId","type":"uint256","internalType":"uint256"},{"name":"_stopIndex","type":"uint256","internalType":"uint256"}],"outputs":[],"stateMutability":"nonpayable"},{"type":"function","name":"balanceOf","inputs":[{"name":"owner","type":"address","internalType":"address"}],"outputs":[{"name":"","type":"uint256","internalType":"uint256"}],"stateMutability":"view"},{"type":"function","name":"decreaseJourneyCapacity","inputs":[{"name":"_journeyTokenId","type":"uint256","internalType":"uint256"},{"name":"_cargoWeight","type":"uint256","internalType":"uint256"}],"outputs":[],"stateMutability":"nonpayable"},{"type":"function","name":"getApproved","inputs":[{"name":"tokenId","type":"uint256","internalType":"uint256"}],"outputs":[{"name":"","type":"address","internalType":"address"}],"stateMutability":"view"},{"type":"function","name":"getJourneyDetails","inputs":[{"name":"_journeyTokenId","type":"uint256","internalType":"uint256"}],"outputs":[{"name":"","type":"tuple","internalType":"struct JourneyNFT.Journey","components":[{"name":"vesselTokenId","type":"uint256","internalType":"uint256"},{"name":"vesselOwner","type":"address","internalType":"address"},{"name":"originPort","type":"string","internalType":"string"},{"name":"destinationPort","type":"string","internalType":"string"},{"name":"departureTimestamp","type":"uint256","internalType":"uint256"},{"name":"expectedArrivalTimestamp","type":"uint256","internalType":"uint256"},{"name":"availableCapacity","type":"uint256","internalType":"uint256"},{"name":"isListed","type":"bool","internalType":"bool"}]}],"stateMutability":"view"},{"type":"function","name":"getJourneyRoute","inputs":[{"name":"_journeyTokenId","type":"uint256","internalType":"uint256"}],"outputs":[{"name":"","type":"tuple[]","internalType":"struct JourneyNFT.RouteStop[]","components":[{"name":"location","type":"string","internalType":"string"},{"name":"arrivalTimestamp","type":"uint256","internalType":"uint256"}]}],"stateMutability":"view"},{"type":"function","name":"getJourneysForVessel","inputs":[{"name":"_vesselTokenId","type":"uint256","internalType":"uint256"}],"outputs":[{"name":"","type":"uint256[]","internalType":"uint256[]"}],"stateMutability":"view"},{"type":"function","name":"isApprovedForAll","inputs":[{"name":"owner","type":"address","internalType":"address"},{"name":"operator","type":"address","internalType":"address"}],"outputs":[{"name":"","type":"bool","internalType":"bool"}],"stateMutability":"view"},{"type":"function","name":"journeyRoute","inputs":[{"name":"","type":"uint256","internalType":"uint256"},{"name":"","type":"uint256","internalType":"uint256"}],"outputs":[{"name":"location","type":"string","internalType":"string"},{"name":"arrivalTimestamp","type":"uint256","internalType":"uint256"}],"stateMutability":"view"},{"type":"function","name":"journeys","inputs":[{"name":"","type":"uint256","internalType":"uint256"}],"outputs":[{"name":"vesselTokenId","type":"uint256","internalType":"uint256"},{"name":"vesselOwner","type":"address","internalType":"address"},{"name":"originPort","type":"string","internalType":"string"},{"name":"destinationPort","type":"string","internalType":"string"},{"name":"departureTimestamp","type":"uint256","internalType":"uint256"},{"name":"expectedArrivalTimestamp","type":"uint256","internalType":"uint256"},{"name":"availableCapacity","type":"uint256","internalType":"uint256"},{"name":"isListed","type":"bool","internalType":"bool"}],"stateMutability":"view"},{"type":"function","name":"mintJourney","inputs":[{"name":"_vesselTokenId","type":"uint256","internalType":"uint256"},{"name":"_originPort","type":"string","internalType":"string"},{"name":"_destinationPort","type":"string","internalType":"string"},{"name":"_departureTimestamp","type":"uint256","internalType":"uint256"},{"name":"_expectedArrivalTimestamp","type":"uint256","internalType":"uint256"},{"name":"_availableCapacity","type":"uint256","internalType":"uint256"}],"outputs":[],"stateMutability":"nonpayable"},{"type":"function","name":"name","inputs":[],"outputs":[{"name":"","type":"string","internalType":"string"}],"stateMutability":"view"},{"type":"function","name":"ownerOf","inputs":[{"name":"tokenId","type":"uint256","internalType":"uint256"}],"outputs":[{"name":"","type":"address","internalType":"address"}],"stateMutability":"view"},{"type":"function","name":"safeTransferFrom","inputs":[{"name":"from","type":"address","internalType":"address"},{"name":"to","type":"address","internalType":"address"},{"name":"tokenId","type":"uint256","internalType":"uint256"}],"outputs":[],"stateMutability":"nonpayable"},{"type":"function","name":"safeTransferFrom","inputs":[{"name":"from","type":"address","internalType":"address"},{"name":"to","type":"address","internalType":"address"},{"name":"tokenId","type":"uint256","internalType":"uint256"},{"name":"data","type":"bytes","internalType":"bytes"}],"outputs":[],"stateMutability":"nonpayable"},{"type":"function","name":"setApprovalForAll","inputs":[{"name":"operator","type":"address","internalType":"address"},{"name":"approved","type":"bool","internalType":"bool"}],"outputs":[],"stateMutability":"nonpayable"},{"type":"function","name":"supportsInterface","inputs":[{"name":"interfaceId","type":"bytes4","internalType":"bytes4"}],"outputs":[{"name":"","type":"bool","internalType":"bool"}],"stateMutability":"view"},{"type":"function","name":"symbol","inputs":[],"outputs":[{"name":"","type":"string","internalType":"string"}],"stateMutability":"view"},{"type":"function","name":"tokenURI","inputs":[{"name":"tokenId","type":"uint256","internalType":"uint256"}],"outputs":[{"name":"","type":"string","internalType":"string"}],"stateMutability":"view"},{"type":"function","name":"transferFrom","inputs":[{"name":"from","type":"address","internalType":"address"},{"name":"to","type":"address","internalType":"address"},{"name":"tokenId","type":"uint256","internalType":"uint256"}],"outputs":[],"stateMutability":"nonpayable"},{"type":"function","name":"vesselNFT","inputs":[],"outputs":[{"name":"","type":"address","internalType":"contract VesselNFT"}],"stateMutability":"view"},{"type":"function","name":"vesselToJourneys","inputs":[{"name":"","type":"uint256","internalType":"uint256"},{"name":"","type":"uint256","internalType":"uint256"}],"outputs":[{"name":"","type":"uint256","internalType":"uint256"}],"stateMutability":"view"},{"type":"event","name":"Approval","inputs":[{"name":"owner","type":"address","indexed":true,"internalType":"address"},{"name":"approved","type":"address","indexed":true,"internalType":"address"},{"name":"tokenId","type":"uint256","indexed":true,"internalType":"uint256"}],"anonymous":false},{"type":"event","name":"ApprovalForAll","inputs":[{"name":"owner","type":"address","indexed":true,"internalType":"address"},{"name":"operator","type":"address","indexed":true,"internalType":"address"},{"name":"approved","type":"bool","indexed":false,"internalType":"bool"}],"anonymous":false},{"type":"event","name":"ArrivedAtStop","inputs":[{"name":"journeyTokenId","type":"uint256","indexed":true,"internalType":"uint256"},{"name":"stopIndex","type":"uint256","indexed":false,"internalType":"uint256"},{"name":"location","type":"string","indexed":false,"internalType":"string"},{"name":"arrivalTimestamp","type":"uint256","indexed":false,"internalType":"uint256"}],"anonymous":false},{"type":"event","name":"JourneyMinted","inputs":[{"name":"journeyTokenId","type":"uint256","indexed":true,"internalType":"uint256"},{"name":"vesselTokenId","type":"uint256","indexed":true,"internalType":"uint256"},{"name":"vesselOwner","type":"address","indexed":true,"internalType":"address"}],"anonymous":false},{"type":"event","name":"StopAddedToRoute","inputs":[{"name":"journeyTokenId","type":"uint256","indexed":true,"internalType":"uint256"},{"name":"newStopIndex","type":"uint256","indexed":false,"internalType":"uint256"},{"name":"location","type":"string","indexed":false,"internalType":"string"}],"anonymous":false},{"type":"event","name":"Transfer","inputs":[{"name":"from","type":"address","indexed":true,"internalType":"address"},{"name":"to","type":"address","indexed":true,"internalType":"address"},{"name":"tokenId","type":"uint256","indexed":true,"internalType":"uint256"}],"anonymous":false},{"type":"error","name":"ERC721IncorrectOwner","inputs":[{"name":"sender","type":"address","internalType":"address"},{"name":"tokenId","type":"uint256","internalType":"uint256"},{"name":"owner","type":"address","internalType":"address"}]},{"type":"error","name":"ERC721InsufficientApproval","inputs":[{"name":"operator","type":"address","internalType":"address"},{"name":"tokenId","type":"uint256","internalType":"uint256"}]},{"type":"error","name":"ERC721InvalidApprover","inputs":[{"name":"approver","type":"address","internalType":"address"}]},{"type":"error","name":"ERC721InvalidOperator","inputs":[{"name":"operator","type":"address","internalType":"address"}]},{"type":"error","name":"ERC721InvalidOwner","inputs":[{"name":"owner","type":"address","internalType":"address"}]},{"type":"error","name":"ERC721InvalidReceiver","inputs":[{"name":"receiver","type":"address","internalType":"address"}]},{"type":"error","name":"ERC721InvalidSender","inputs":[{"name":"sender","type":"address","internalType":"address"}]},{"type":"error","name":"ERC721NonexistentToken","inputs":[{"name":"tokenId","type":"uint256","internalType":"uint256"}]}],"bytecode":{"object":"0x608060405234801561000f575f80fd5b50604051613f69380380613f6983398181016040528101906100319190610162565b6040518060400160405280601481526020017f5368697042726f6b65726167654a6f75726e65790000000000000000000000008152506040518060400160405280600381526020017f53424a0000000000000000000000000000000000000000000000000000000000815250815f90816100ab91906103c7565b5080600190816100bb91906103c7565b5050508060065f6101000a81548173ffffffffffffffffffffffffffffffffffffffff021916908373ffffffffffffffffffffffffffffffffffffffff16021790555050610496565b5f80fd5b5f73ffffffffffffffffffffffffffffffffffffffff82169050919050565b5f61013182610108565b9050919050565b61014181610127565b811461014b575f80fd5b50565b5f8151905061015c81610138565b92915050565b5f6020828403121561017757610176610104565b5b5f6101848482850161014e565b91505092915050565b5f81519050919050565b7f4e487b71000000000000000000000000000000000000000000000000000000005f52604160045260245ffd5b7f4e487b71000000000000000000000000000000000000000000000000000000005f52602260045260245ffd5b5f600282049050600182168061020857607f821691505b60208210810361021b5761021a6101c4565b5b50919050565b5f819050815f5260205f209050919050565b5f6020601f8301049050919050565b5f82821b905092915050565b5f6008830261027d7fffffffffffffffffffffffffffffffffffffffffffffffffffffffffffffffff82610242565b6102878683610242565b95508019841693508086168417925050509392505050565b5f819050919050565b5f819050919050565b5f6102cb6102c66102c18461029f565b6102a8565b61029f565b9050919050565b5f819050919050565b6102e4836102b1565b6102f86102f0826102d2565b84845461024e565b825550505050565b5f90565b61030c610300565b6103178184846102db565b505050565b5b8181101561033a5761032f5f82610304565b60018101905061031d565b5050565b601f82111561037f5761035081610221565b61035984610233565b81016020851015610368578190505b61037c61037485610233565b83018261031c565b50505b505050565b5f82821c905092915050565b5f61039f5f1984600802610384565b1980831691505092915050565b5f6103b78383610390565b9150826002028217905092915050565b6103d08261018d565b67ffffffffffffffff8111156103e9576103e8610197565b5b6103f382546101f1565b6103fe82828561033e565b5f60209050601f83116001811461042f575f841561041d578287015190505b61042785826103ac565b86555061048e565b601f19841661043d86610221565b5f5b828110156104645784890151825560018201915060208501945060208101905061043f565b86831015610481578489015161047d601f891682610390565b8355505b6001600288020188555050505b505050505050565b613ac6806104a35f395ff3fe608060405234801561000f575f80fd5b5060043610610156575f3560e01c80635420d883116100c157806395d89b411161007a57806395d89b41146104125780639cb50c9f14610430578063a22cb46514610460578063b88d4fde1461047c578063c87b56dd14610498578063e985e9c5146104c857610156565b80635420d883146102ff5780636352211e1461032f578063667cd02d1461035f57806370a082311461037b5780637d989ddc146103ab5780638df5a9fa146103db57610156565b80631e493595116101135780631e4935951461022c5780631e92351c1461025c57806323b872dd1461027a5780633c336b091461029657806342842e0e146102c757806351dfa0cd146102e357610156565b806301ffc9a71461015a57806306381f961461018a57806306ceeb30146101a657806306fdde03146101c2578063081812fc146101e0578063095ea7b314610210575b5f80fd5b610174600480360381019061016f91906125d0565b6104f8565b6040516101819190612615565b60405180910390f35b6101a4600480360381019061019f91906126c2565b6105d9565b005b6101c060048036038101906101bb919061271f565b61074d565b005b6101ca610ae6565b6040516101d79190612859565b60405180910390f35b6101fa60048036038101906101f59190612879565b610b75565b60405161020791906128e3565b60405180910390f35b61022a60048036038101906102259190612926565b610b90565b005b61024660048036038101906102419190612879565b610ba6565b6040516102539190612a1b565b60405180910390f35b610264610c0d565b6040516102719190612a96565b60405180910390f35b610294600480360381019061028f9190612aaf565b610c32565b005b6102b060048036038101906102ab9190612aff565b610d31565b6040516102be929190612b4c565b60405180910390f35b6102e160048036038101906102dc9190612aaf565b610df1565b005b6102fd60048036038101906102f89190612aff565b610e10565b005b61031960048036038101906103149190612879565b610eda565b6040516103269190612cb7565b60405180910390f35b61034960048036038101906103449190612879565b610fe0565b60405161035691906128e3565b60405180910390f35b61037960048036038101906103749190612aff565b610ff1565b005b61039560048036038101906103909190612cd7565b611180565b6040516103a29190612d02565b60405180910390f35b6103c560048036038101906103c09190612aff565b611236565b6040516103d29190612d02565b60405180910390f35b6103f560048036038101906103f09190612879565b611261565b604051610409989796959493929190612d1b565b60405180910390f35b61041a6113dc565b6040516104279190612859565b60405180910390f35b61044a60048036038101906104459190612879565b61146c565b6040516104579190612e77565b60405180910390f35b61047a60048036038101906104759190612ec1565b6116ae565b005b61049660048036038101906104919190613027565b6116c4565b005b6104b260048036038101906104ad9190612879565b6116e1565b6040516104bf9190612859565b60405180910390f35b6104e260048036038101906104dd91906130a7565b611747565b6040516104ef9190612615565b60405180910390f35b5f7f80ac58cd000000000000000000000000000000000000000000000000000000007bffffffffffffffffffffffffffffffffffffffffffffffffffffffff1916827bffffffffffffffffffffffffffffffffffffffffffffffffffffffff191614806105c257507f5b5e139f000000000000000000000000000000000000000000000000000000007bffffffffffffffffffffffffffffffffffffffffffffffffffffffff1916827bffffffffffffffffffffffffffffffffffffffffffffffffffffffff1916145b806105d257506105d1826117d5565b5b9050919050565b3373ffffffffffffffffffffffffffffffffffffffff166105f984610fe0565b73ffffffffffffffffffffffffffffffffffffffff161461064f576040517f08c379a00000000000000000000000000000000000000000000000000000000081526004016106469061312f565b60405180910390fd5b5f60085f8581526020019081526020015f2090505f8180549050905081604051806040016040528086868080601f0160208091040260200160405190810160405280939291908181526020018383808284375f81840152601f19601f8201169050808301925050505050505081526020015f815250908060018154018082558091505060019003905f5260205f2090600202015f909190919091505f820151815f0190816106fd919061333e565b50602082015181600101555050847f54bf1b02f86deb44b4a098f76f847ea08e4460a1650a71fa7f9d03a863a5fe6f82868660405161073e93929190613439565b60405180910390a25050505050565b5f60065f9054906101000a900473ffffffffffffffffffffffffffffffffffffffff1673ffffffffffffffffffffffffffffffffffffffff16636352211e8a6040518263ffffffff1660e01b81526004016107a89190612d02565b602060405180830381865afa1580156107c3573d5f803e3d5ffd5b505050506040513d601f19601f820116820180604052508101906107e7919061347d565b90503373ffffffffffffffffffffffffffffffffffffffff168173ffffffffffffffffffffffffffffffffffffffff1614610857576040517f08c379a000000000000000000000000000000000000000000000000000000000815260040161084e906134f2565b60405180910390fd5b838311610899576040517f08c379a000000000000000000000000000000000000000000000000000000000815260040161089090613580565b60405180910390fd5b5f600a5f8154809291906108ac906135cb565b9190505590506108bc828261183e565b6040518061010001604052808b81526020018373ffffffffffffffffffffffffffffffffffffffff1681526020018a8a8080601f0160208091040260200160405190810160405280939291908181526020018383808284375f81840152601f19601f82011690508083019250505050505050815260200188888080601f0160208091040260200160405190810160405280939291908181526020018383808284375f81840152601f19601f8201169050808301925050505050505081526020018681526020018581526020018481526020016001151581525060075f8381526020019081526020015f205f820151815f01556020820151816001015f6101000a81548173ffffffffffffffffffffffffffffffffffffffff021916908373ffffffffffffffffffffffffffffffffffffffff1602179055506040820151816002019081610a09919061333e565b506060820151816003019081610a1f919061333e565b506080820151816004015560a0820151816005015560c0820151816006015560e0820151816007015f6101000a81548160ff02191690831515021790555090505060095f8b81526020019081526020015f2081908060018154018082558091505060019003905f5260205f20015f90919091909150558173ffffffffffffffffffffffffffffffffffffffff168a827f1621d8fe2da9c189da8e831ce04c294a3f37281d15b9b3a73472e4476d65655460405160405180910390a450505050505050505050565b60605f8054610af49061317a565b80601f0160208091040260200160405190810160405280929190818152602001828054610b209061317a565b8015610b6b5780601f10610b4257610100808354040283529160200191610b6b565b820191905f5260205f20905b815481529060010190602001808311610b4e57829003601f168201915b5050505050905090565b5f610b7f8261185b565b50610b89826118e1565b9050919050565b610ba28282610b9d61191a565b611921565b5050565b606060095f8381526020019081526020015f20805480602002602001604051908101604052809291908181526020018280548015610c0157602002820191905f5260205f20905b815481526020019060010190808311610bed575b50505050509050919050565b60065f9054906101000a900473ffffffffffffffffffffffffffffffffffffffff1681565b5f73ffffffffffffffffffffffffffffffffffffffff168273ffffffffffffffffffffffffffffffffffffffff1603610ca2575f6040517f64a0ae92000000000000000000000000000000000000000000000000000000008152600401610c9991906128e3565b60405180910390fd5b5f610cb58383610cb061191a565b611933565b90508373ffffffffffffffffffffffffffffffffffffffff168173ffffffffffffffffffffffffffffffffffffffff1614610d2b578382826040517f64283d7b000000000000000000000000000000000000000000000000000000008152600401610d2293929190613612565b60405180910390fd5b50505050565b6008602052815f5260405f208181548110610d4a575f80fd5b905f5260205f2090600202015f9150915050805f018054610d6a9061317a565b80601f0160208091040260200160405190810160405280929190818152602001828054610d969061317a565b8015610de15780601f10610db857610100808354040283529160200191610de1565b820191905f5260205f20905b815481529060010190602001808311610dc457829003601f168201915b5050505050908060010154905082565b610e0b83838360405180602001604052805f8152506116c4565b505050565b5f60075f8481526020019081526020015f209050806007015f9054906101000a900460ff16610e74576040517f08c379a0000000000000000000000000000000000000000000000000000000008152600401610e6b90613691565b60405180910390fd5b8181600601541015610ebb576040517f08c379a0000000000000000000000000000000000000000000000000000000008152600401610eb2906136f9565b60405180910390fd5b81816006015f828254610ece9190613717565b92505081905550505050565b606060085f8381526020019081526020015f20805480602002602001604051908101604052809291908181526020015f905b82821015610fd5578382905f5260205f2090600202016040518060400160405290815f82018054610f3c9061317a565b80601f0160208091040260200160405190810160405280929190818152602001828054610f689061317a565b8015610fb35780601f10610f8a57610100808354040283529160200191610fb3565b820191905f5260205f20905b815481529060010190602001808311610f9657829003601f168201915b5050505050815260200160018201548152505081526020019060010190610f0c565b505050509050919050565b5f610fea8261185b565b9050919050565b3373ffffffffffffffffffffffffffffffffffffffff1661101183610fe0565b73ffffffffffffffffffffffffffffffffffffffff1614611067576040517f08c379a000000000000000000000000000000000000000000000000000000000815260040161105e9061312f565b60405180910390fd5b5f60085f8481526020019081526020015f20828154811061108b5761108a61374a565b5b905f5260205f20906002020190505f815f0180546110a89061317a565b9050116110ea576040517f08c379a00000000000000000000000000000000000000000000000000000000081526004016110e1906137c1565b60405180910390fd5b5f816001015414611130576040517f08c379a000000000000000000000000000000000000000000000000000000000815260040161112790613829565b60405180910390fd5b428160010181905550827f77fdf4043753439f234d076009504a661c3c69d2fe3abb7f43c43a49fe63641983835f018460010154604051611173939291906138c8565b60405180910390a2505050565b5f8073ffffffffffffffffffffffffffffffffffffffff168273ffffffffffffffffffffffffffffffffffffffff16036111f1575f6040517f89c62b640000000000000000000000000000000000000000000000000000000081526004016111e891906128e3565b60405180910390fd5b60035f8373ffffffffffffffffffffffffffffffffffffffff1673ffffffffffffffffffffffffffffffffffffffff1681526020019081526020015f20549050919050565b6009602052815f5260405f20818154811061124f575f80fd5b905f5260205f20015f91509150505481565b6007602052805f5260405f205f91509050805f015490806001015f9054906101000a900473ffffffffffffffffffffffffffffffffffffffff16908060020180546112ab9061317a565b80601f01602080910402602001604051908101604052809291908181526020018280546112d79061317a565b80156113225780601f106112f957610100808354040283529160200191611322565b820191905f5260205f20905b81548152906001019060200180831161130557829003601f168201915b5050505050908060030180546113379061317a565b80601f01602080910402602001604051908101604052809291908181526020018280546113639061317a565b80156113ae5780601f10611385576101008083540402835291602001916113ae565b820191905f5260205f20905b81548152906001019060200180831161139157829003601f168201915b505050505090806004015490806005015490806006015490806007015f9054906101000a900460ff16905088565b6060600180546113eb9061317a565b80601f01602080910402602001604051908101604052809291908181526020018280546114179061317a565b80156114625780601f1061143957610100808354040283529160200191611462565b820191905f5260205f20905b81548152906001019060200180831161144557829003601f168201915b5050505050905090565b611474612513565b60075f8381526020019081526020015f206007015f9054906101000a900460ff166114d4576040517f08c379a00000000000000000000000000000000000000000000000000000000081526004016114cb90613691565b60405180910390fd5b60075f8381526020019081526020015f20604051806101000160405290815f8201548152602001600182015f9054906101000a900473ffffffffffffffffffffffffffffffffffffffff1673ffffffffffffffffffffffffffffffffffffffff1673ffffffffffffffffffffffffffffffffffffffff16815260200160028201805461155f9061317a565b80601f016020809104026020016040519081016040528092919081815260200182805461158b9061317a565b80156115d65780601f106115ad576101008083540402835291602001916115d6565b820191905f5260205f20905b8154815290600101906020018083116115b957829003601f168201915b505050505081526020016003820180546115ef9061317a565b80601f016020809104026020016040519081016040528092919081815260200182805461161b9061317a565b80156116665780601f1061163d57610100808354040283529160200191611666565b820191905f5260205f20905b81548152906001019060200180831161164957829003601f168201915b50505050508152602001600482015481526020016005820154815260200160068201548152602001600782015f9054906101000a900460ff1615151515815250509050919050565b6116c06116b961191a565b8383611b3e565b5050565b6116cf848484610c32565b6116db84848484611ca7565b50505050565b60606116ec8261185b565b505f6116f6611e59565b90505f8151116117145760405180602001604052805f81525061173f565b8061171e84611e6f565b60405160200161172f92919061393e565b6040516020818303038152906040525b915050919050565b5f60055f8473ffffffffffffffffffffffffffffffffffffffff1673ffffffffffffffffffffffffffffffffffffffff1681526020019081526020015f205f8373ffffffffffffffffffffffffffffffffffffffff1673ffffffffffffffffffffffffffffffffffffffff1681526020019081526020015f205f9054906101000a900460ff16905092915050565b5f7f01ffc9a7000000000000000000000000000000000000000000000000000000007bffffffffffffffffffffffffffffffffffffffffffffffffffffffff1916827bffffffffffffffffffffffffffffffffffffffffffffffffffffffff1916149050919050565b611857828260405180602001604052805f815250611f39565b5050565b5f8061186683611f54565b90505f73ffffffffffffffffffffffffffffffffffffffff168173ffffffffffffffffffffffffffffffffffffffff16036118d857826040517f7e2732890000000000000000000000000000000000000000000000000000000081526004016118cf9190612d02565b60405180910390fd5b80915050919050565b5f60045f8381526020019081526020015f205f9054906101000a900473ffffffffffffffffffffffffffffffffffffffff169050919050565b5f33905090565b61192e8383836001611f8d565b505050565b5f8061193e84611f54565b90505f73ffffffffffffffffffffffffffffffffffffffff168373ffffffffffffffffffffffffffffffffffffffff161461197f5761197e81848661214c565b5b5f73ffffffffffffffffffffffffffffffffffffffff168173ffffffffffffffffffffffffffffffffffffffff1614611a0a576119be5f855f80611f8d565b600160035f8373ffffffffffffffffffffffffffffffffffffffff1673ffffffffffffffffffffffffffffffffffffffff1681526020019081526020015f205f82825403925050819055505b5f73ffffffffffffffffffffffffffffffffffffffff168573ffffffffffffffffffffffffffffffffffffffff1614611a8957600160035f8773ffffffffffffffffffffffffffffffffffffffff1673ffffffffffffffffffffffffffffffffffffffff1681526020019081526020015f205f82825401925050819055505b8460025f8681526020019081526020015f205f6101000a81548173ffffffffffffffffffffffffffffffffffffffff021916908373ffffffffffffffffffffffffffffffffffffffff160217905550838573ffffffffffffffffffffffffffffffffffffffff168273ffffffffffffffffffffffffffffffffffffffff167fddf252ad1be2c89b69c2b068fc378daa952ba7f163c4a11628f55a4df523b3ef60405160405180910390a4809150509392505050565b5f73ffffffffffffffffffffffffffffffffffffffff168273ffffffffffffffffffffffffffffffffffffffff1603611bae57816040517f5b08ba18000000000000000000000000000000000000000000000000000000008152600401611ba591906128e3565b60405180910390fd5b8060055f8573ffffffffffffffffffffffffffffffffffffffff1673ffffffffffffffffffffffffffffffffffffffff1681526020019081526020015f205f8473ffffffffffffffffffffffffffffffffffffffff1673ffffffffffffffffffffffffffffffffffffffff1681526020019081526020015f205f6101000a81548160ff0219169083151502179055508173ffffffffffffffffffffffffffffffffffffffff168373ffffffffffffffffffffffffffffffffffffffff167f17307eab39ab6107e8899845ad3d59bd9653f200f220920489ca2b5937696c3183604051611c9a9190612615565b60405180910390a3505050565b5f8373ffffffffffffffffffffffffffffffffffffffff163b1115611e53578273ffffffffffffffffffffffffffffffffffffffff1663150b7a02611cea61191a565b8685856040518563ffffffff1660e01b8152600401611d0c94939291906139b3565b6020604051808303815f875af1925050508015611d4757506040513d601f19601f82011682018060405250810190611d449190613a11565b60015b611dc8573d805f8114611d75576040519150601f19603f3d011682016040523d82523d5f602084013e611d7a565b606091505b505f815103611dc057836040517f64a0ae92000000000000000000000000000000000000000000000000000000008152600401611db791906128e3565b60405180910390fd5b805181602001fd5b63150b7a0260e01b7bffffffffffffffffffffffffffffffffffffffffffffffffffffffff1916817bffffffffffffffffffffffffffffffffffffffffffffffffffffffff191614611e5157836040517f64a0ae92000000000000000000000000000000000000000000000000000000008152600401611e4891906128e3565b60405180910390fd5b505b50505050565b606060405180602001604052805f815250905090565b60605f6001611e7d8461220f565b0190505f8167ffffffffffffffff811115611e9b57611e9a612f03565b5b6040519080825280601f01601f191660200182016040528015611ecd5781602001600182028036833780820191505090505b5090505f82602001820190505b600115611f2e578080600190039150507f3031323334353637383961626364656600000000000000000000000000000000600a86061a8153600a8581611f2357611f22613a3c565b5b0494505f8503611eda575b819350505050919050565b611f438383612360565b611f4f5f848484611ca7565b505050565b5f60025f8381526020019081526020015f205f9054906101000a900473ffffffffffffffffffffffffffffffffffffffff169050919050565b8080611fc557505f73ffffffffffffffffffffffffffffffffffffffff168273ffffffffffffffffffffffffffffffffffffffff1614155b156120f7575f611fd48461185b565b90505f73ffffffffffffffffffffffffffffffffffffffff168373ffffffffffffffffffffffffffffffffffffffff161415801561203e57508273ffffffffffffffffffffffffffffffffffffffff168173ffffffffffffffffffffffffffffffffffffffff1614155b8015612051575061204f8184611747565b155b1561209357826040517fa9fbf51f00000000000000000000000000000000000000000000000000000000815260040161208a91906128e3565b60405180910390fd5b81156120f557838573ffffffffffffffffffffffffffffffffffffffff168273ffffffffffffffffffffffffffffffffffffffff167f8c5be1e5ebec7d5bd14f71427d1e84f3dd0314c0f7b2291e5b200ac8c7c3b92560405160405180910390a45b505b8360045f8581526020019081526020015f205f6101000a81548173ffffffffffffffffffffffffffffffffffffffff021916908373ffffffffffffffffffffffffffffffffffffffff16021790555050505050565b612157838383612453565b61220a575f73ffffffffffffffffffffffffffffffffffffffff168373ffffffffffffffffffffffffffffffffffffffff16036121cb57806040517f7e2732890000000000000000000000000000000000000000000000000000000081526004016121c29190612d02565b60405180910390fd5b81816040517f177e802f000000000000000000000000000000000000000000000000000000008152600401612201929190613a69565b60405180910390fd5b505050565b5f805f90507a184f03e93ff9f4daa797ed6e38ed64bf6a1f010000000000000000831061226b577a184f03e93ff9f4daa797ed6e38ed64bf6a1f010000000000000000838161226157612260613a3c565b5b0492506040810190505b6d04ee2d6d415b85acef810000000083106122a8576d04ee2d6d415b85acef8100000000838161229e5761229d613a3c565b5b0492506020810190505b662386f26fc1000083106122d757662386f26fc1000083816122cd576122cc613a3c565b5b0492506010810190505b6305f5e1008310612300576305f5e10083816122f6576122f5613a3c565b5b0492506008810190505b612710831061232557612710838161231b5761231a613a3c565b5b0492506004810190505b60648310612348576064838161233e5761233d613a3c565b5b0492506002810190505b600a8310612357576001810190505b80915050919050565b5f73ffffffffffffffffffffffffffffffffffffffff168273ffffffffffffffffffffffffffffffffffffffff16036123d0575f6040517f64a0ae920000000000000000000000000000000000000000000000000000000081526004016123c791906128e3565b60405180910390fd5b5f6123dc83835f611933565b90505f73ffffffffffffffffffffffffffffffffffffffff168173ffffffffffffffffffffffffffffffffffffffff161461244e575f6040517f73c6ac6e00000000000000000000000000000000000000000000000000000000815260040161244591906128e3565b60405180910390fd5b505050565b5f8073ffffffffffffffffffffffffffffffffffffffff168373ffffffffffffffffffffffffffffffffffffffff161415801561250a57508273ffffffffffffffffffffffffffffffffffffffff168473ffffffffffffffffffffffffffffffffffffffff1614806124cb57506124ca8484611747565b5b8061250957508273ffffffffffffffffffffffffffffffffffffffff166124f1836118e1565b73ffffffffffffffffffffffffffffffffffffffff16145b5b90509392505050565b6040518061010001604052805f81526020015f73ffffffffffffffffffffffffffffffffffffffff16815260200160608152602001606081526020015f81526020015f81526020015f81526020015f151581525090565b5f604051905090565b5f80fd5b5f80fd5b5f7fffffffff0000000000000000000000000000000000000000000000000000000082169050919050565b6125af8161257b565b81146125b9575f80fd5b50565b5f813590506125ca816125a6565b92915050565b5f602082840312156125e5576125e4612573565b5b5f6125f2848285016125bc565b91505092915050565b5f8115159050919050565b61260f816125fb565b82525050565b5f6020820190506126285f830184612606565b92915050565b5f819050919050565b6126408161262e565b811461264a575f80fd5b50565b5f8135905061265b81612637565b92915050565b5f80fd5b5f80fd5b5f80fd5b5f8083601f84011261268257612681612661565b5b8235905067ffffffffffffffff81111561269f5761269e612665565b5b6020830191508360018202830111156126bb576126ba612669565b5b9250929050565b5f805f604084860312156126d9576126d8612573565b5b5f6126e68682870161264d565b935050602084013567ffffffffffffffff81111561270757612706612577565b5b6127138682870161266d565b92509250509250925092565b5f805f805f805f8060c0898b03121561273b5761273a612573565b5b5f6127488b828c0161264d565b985050602089013567ffffffffffffffff81111561276957612768612577565b5b6127758b828c0161266d565b9750975050604089013567ffffffffffffffff81111561279857612797612577565b5b6127a48b828c0161266d565b955095505060606127b78b828c0161264d565b93505060806127c88b828c0161264d565b92505060a06127d98b828c0161264d565b9150509295985092959890939650565b5f81519050919050565b5f82825260208201905092915050565b8281835e5f83830152505050565b5f601f19601f8301169050919050565b5f61282b826127e9565b61283581856127f3565b9350612845818560208601612803565b61284e81612811565b840191505092915050565b5f6020820190508181035f8301526128718184612821565b905092915050565b5f6020828403121561288e5761288d612573565b5b5f61289b8482850161264d565b91505092915050565b5f73ffffffffffffffffffffffffffffffffffffffff82169050919050565b5f6128cd826128a4565b9050919050565b6128dd816128c3565b82525050565b5f6020820190506128f65f8301846128d4565b92915050565b612905816128c3565b811461290f575f80fd5b50565b5f81359050612920816128fc565b92915050565b5f806040838503121561293c5761293b612573565b5b5f61294985828601612912565b925050602061295a8582860161264d565b9150509250929050565b5f81519050919050565b5f82825260208201905092915050565b5f819050602082019050919050565b6129968161262e565b82525050565b5f6129a7838361298d565b60208301905092915050565b5f602082019050919050565b5f6129c982612964565b6129d3818561296e565b93506129de8361297e565b805f5b83811015612a0e5781516129f5888261299c565b9750612a00836129b3565b9250506001810190506129e1565b5085935050505092915050565b5f6020820190508181035f830152612a3381846129bf565b905092915050565b5f819050919050565b5f612a5e612a59612a54846128a4565b612a3b565b6128a4565b9050919050565b5f612a6f82612a44565b9050919050565b5f612a8082612a65565b9050919050565b612a9081612a76565b82525050565b5f602082019050612aa95f830184612a87565b92915050565b5f805f60608486031215612ac657612ac5612573565b5b5f612ad386828701612912565b9350506020612ae486828701612912565b9250506040612af58682870161264d565b9150509250925092565b5f8060408385031215612b1557612b14612573565b5b5f612b228582860161264d565b9250506020612b338582860161264d565b9150509250929050565b612b468161262e565b82525050565b5f6040820190508181035f830152612b648185612821565b9050612b736020830184612b3d565b9392505050565b5f81519050919050565b5f82825260208201905092915050565b5f819050602082019050919050565b5f82825260208201905092915050565b5f612bbd826127e9565b612bc78185612ba3565b9350612bd7818560208601612803565b612be081612811565b840191505092915050565b5f604083015f8301518482035f860152612c058282612bb3565b9150506020830151612c1a602086018261298d565b508091505092915050565b5f612c308383612beb565b905092915050565b5f602082019050919050565b5f612c4e82612b7a565b612c588185612b84565b935083602082028501612c6a85612b94565b805f5b85811015612ca55784840389528151612c868582612c25565b9450612c9183612c38565b925060208a01995050600181019050612c6d565b50829750879550505050505092915050565b5f6020820190508181035f830152612ccf8184612c44565b905092915050565b5f60208284031215612cec57612ceb612573565b5b5f612cf984828501612912565b91505092915050565b5f602082019050612d155f830184612b3d565b92915050565b5f61010082019050612d2f5f83018b612b3d565b612d3c602083018a6128d4565b8181036040830152612d4e8189612821565b90508181036060830152612d628188612821565b9050612d716080830187612b3d565b612d7e60a0830186612b3d565b612d8b60c0830185612b3d565b612d9860e0830184612606565b9998505050505050505050565b612dae816128c3565b82525050565b612dbd816125fb565b82525050565b5f61010083015f830151612dd95f86018261298d565b506020830151612dec6020860182612da5565b5060408301518482036040860152612e048282612bb3565b91505060608301518482036060860152612e1e8282612bb3565b9150506080830151612e33608086018261298d565b5060a0830151612e4660a086018261298d565b5060c0830151612e5960c086018261298d565b5060e0830151612e6c60e0860182612db4565b508091505092915050565b5f6020820190508181035f830152612e8f8184612dc3565b905092915050565b612ea0816125fb565b8114612eaa575f80fd5b50565b5f81359050612ebb81612e97565b92915050565b5f8060408385031215612ed757612ed6612573565b5b5f612ee485828601612912565b9250506020612ef585828601612ead565b9150509250929050565b5f80fd5b7f4e487b71000000000000000000000000000000000000000000000000000000005f52604160045260245ffd5b612f3982612811565b810181811067ffffffffffffffff82111715612f5857612f57612f03565b5b80604052505050565b5f612f6a61256a565b9050612f768282612f30565b919050565b5f67ffffffffffffffff821115612f9557612f94612f03565b5b612f9e82612811565b9050602081019050919050565b828183375f83830152505050565b5f612fcb612fc684612f7b565b612f61565b905082815260208101848484011115612fe757612fe6612eff565b5b612ff2848285612fab565b509392505050565b5f82601f83011261300e5761300d612661565b5b813561301e848260208601612fb9565b91505092915050565b5f805f806080858703121561303f5761303e612573565b5b5f61304c87828801612912565b945050602061305d87828801612912565b935050604061306e8782880161264d565b925050606085013567ffffffffffffffff81111561308f5761308e612577565b5b61309b87828801612ffa565b91505092959194509250565b5f80604083850312156130bd576130bc612573565b5b5f6130ca85828601612912565b92505060206130db85828601612912565b9150509250929050565b7f4a4e46543a204e6f7420746865206a6f75726e6579206f776e657200000000005f82015250565b5f613119601b836127f3565b9150613124826130e5565b602082019050919050565b5f6020820190508181035f8301526131468161310d565b9050919050565b7f4e487b71000000000000000000000000000000000000000000000000000000005f52602260045260245ffd5b5f600282049050600182168061319157607f821691505b6020821081036131a4576131a361314d565b5b50919050565b5f819050815f5260205f209050919050565b5f6020601f8301049050919050565b5f82821b905092915050565b5f600883026132067fffffffffffffffffffffffffffffffffffffffffffffffffffffffffffffffff826131cb565b61321086836131cb565b95508019841693508086168417925050509392505050565b5f61324261323d6132388461262e565b612a3b565b61262e565b9050919050565b5f819050919050565b61325b83613228565b61326f61326782613249565b8484546131d7565b825550505050565b5f90565b613283613277565b61328e818484613252565b505050565b5b818110156132b1576132a65f8261327b565b600181019050613294565b5050565b601f8211156132f6576132c7816131aa565b6132d0846131bc565b810160208510156132df578190505b6132f36132eb856131bc565b830182613293565b50505b505050565b5f82821c905092915050565b5f6133165f19846008026132fb565b1980831691505092915050565b5f61332e8383613307565b9150826002028217905092915050565b613347826127e9565b67ffffffffffffffff8111156133605761335f612f03565b5b61336a825461317a565b6133758282856132b5565b5f60209050601f8311600181146133a6575f8415613394578287015190505b61339e8582613323565b865550613405565b601f1984166133b4866131aa565b5f5b828110156133db578489015182556001820191506020850194506020810190506133b6565b868310156133f857848901516133f4601f891682613307565b8355505b6001600288020188555050505b505050505050565b5f61341883856127f3565b9350613425838584612fab565b61342e83612811565b840190509392505050565b5f60408201905061344c5f830186612b3d565b818103602083015261345f81848661340d565b9050949350505050565b5f81519050613477816128fc565b92915050565b5f6020828403121561349257613491612573565b5b5f61349f84828501613469565b91505092915050565b7f4a4e46543a204e6f74207468652076657373656c206f776e65720000000000005f82015250565b5f6134dc601a836127f3565b91506134e7826134a8565b602082019050919050565b5f6020820190508181035f830152613509816134d0565b9050919050565b7f4a4e46543a204172726976616c206d75737420626520616674657220646570615f8201527f7274757265000000000000000000000000000000000000000000000000000000602082015250565b5f61356a6025836127f3565b915061357582613510565b604082019050919050565b5f6020820190508181035f8301526135978161355e565b9050919050565b7f4e487b71000000000000000000000000000000000000000000000000000000005f52601160045260245ffd5b5f6135d58261262e565b91507fffffffffffffffffffffffffffffffffffffffffffffffffffffffffffffffff82036136075761360661359e565b5b600182019050919050565b5f6060820190506136255f8301866128d4565b6136326020830185612b3d565b61363f60408301846128d4565b949350505050565b7f4a4e46543a204a6f75726e657920646f6573206e6f74206578697374000000005f82015250565b5f61367b601c836127f3565b915061368682613647565b602082019050919050565b5f6020820190508181035f8301526136a88161366f565b9050919050565b7f4a4e46543a20496e73756666696369656e7420636170616369747900000000005f82015250565b5f6136e3601b836127f3565b91506136ee826136af565b602082019050919050565b5f6020820190508181035f830152613710816136d7565b9050919050565b5f6137218261262e565b915061372c8361262e565b92508282039050818111156137445761374361359e565b5b92915050565b7f4e487b71000000000000000000000000000000000000000000000000000000005f52603260045260245ffd5b7f4a4e46543a2053746f7020646f6573206e6f74206578697374000000000000005f82015250565b5f6137ab6019836127f3565b91506137b682613777565b602082019050919050565b5f6020820190508181035f8301526137d88161379f565b9050919050565b7f4a4e46543a204172726976616c20616c7265616479206c6f67676564000000005f82015250565b5f613813601c836127f3565b915061381e826137df565b602082019050919050565b5f6020820190508181035f83015261384081613807565b9050919050565b5f81546138538161317a565b61385d81866127f3565b9450600182165f8114613877576001811461388d576138bf565b60ff1983168652811515602002860193506138bf565b613896856131aa565b5f5b838110156138b757815481890152600182019150602081019050613898565b808801955050505b50505092915050565b5f6060820190506138db5f830186612b3d565b81810360208301526138ed8185613847565b90506138fc6040830184612b3d565b949350505050565b5f81905092915050565b5f613918826127e9565b6139228185613904565b9350613932818560208601612803565b80840191505092915050565b5f613949828561390e565b9150613955828461390e565b91508190509392505050565b5f81519050919050565b5f82825260208201905092915050565b5f61398582613961565b61398f818561396b565b935061399f818560208601612803565b6139a881612811565b840191505092915050565b5f6080820190506139c65f8301876128d4565b6139d360208301866128d4565b6139e06040830185612b3d565b81810360608301526139f2818461397b565b905095945050505050565b5f81519050613a0b816125a6565b92915050565b5f60208284031215613a2657613a25612573565b5b5f613a33848285016139fd565b91505092915050565b7f4e487b71000000000000000000000000000000000000000000000000000000005f52601260045260245ffd5b5f604082019050613a7c5f8301856128d4565b613a896020830184612b3d565b939250505056fea264697066735822122014e1968b0dc2dbb6d1a4e6600b922ef058b69d3c96ef686538220ff723414e2764736f6c634300081a0033","linkReferences":{}},"methodIdentifiers":{"addStopToRoute(uint256,string)":"06381f96","approve(address,uint256)":"095ea7b3","arriveAtStop(uint256,uint256)":"667cd02d","balanceOf(address)":"70a08231","decreaseJourneyCapacity(uint256,uint256)":"51dfa0cd","getApproved(uint256)":"081812fc","getJourneyDetails(uint256)":"9cb50c9f","getJourneyRoute(uint256)":"5420d883","getJourneysForVessel(uint256)":"1e493595","isApprovedForAll(address,address)":"e985e9c5","journeyRoute(uint256,uint256)":"3c336b09","journeys(uint256)":"8df5a9fa","mintJourney(uint256,string,string,uint256,uint256,uint256)":"06ceeb30","name()":"06fdde03","ownerOf(uint256)":"6352211e","safeTransferFrom(address,address,uint256)":"42842e0e","safeTransferFrom(address,address,uint256,bytes)":"b88d4fde","setApprovalForAll(address,bool)":"a22cb465","supportsInterface(bytes4)":"01ffc9a7","symbol()":"95d89b41","tokenURI(uint256)":"c87b56dd","transferFrom(address,address,uint256)":"23b872dd","vesselNFT()":"1e92351c","vesselToJourneys(uint256,uint256)":"7d989ddc"},"id":31}