{
  "abi": [
    {
      "type": "constructor",
      "inputs": [
        {
          "name": "_vesselNFTAddress",
          "type": "address",
          "internalType": "address"
        }
      ],
      "stateMutability": "nonpayable"
    },
    {
      "type": "function",
      "name": "approve",
      "inputs": [
        {
          "name": "to",
          "type": "address",
          "internalType": "address"
        },
        {
          "name": "tokenId",
          "type": "uint256",
          "internalType": "uint256"
        }
      ],
      "outputs": [],
      "stateMutability": "nonpayable"
    },
    {
      "type": "function",
      "name": "balanceOf",
      "inputs": [
        {
          "name": "owner",
          "type": "address",
          "internalType": "address"
        }
      ],
      "outputs": [
        {
          "name": "",
          "type": "uint256",
          "internalType": "uint256"
        }
      ],
      "stateMutability": "view"
    },
    {
      "type": "function",
      "name": "decreaseJourneyCapacity",
      "inputs": [
        {
          "name": "_journeyTokenId",
          "type": "uint256",
          "internalType": "uint256"
        },
        {
          "name": "_cargoWeight",
          "type": "uint256",
          "internalType": "uint256"
        }
      ],
      "outputs": [],
      "stateMutability": "nonpayable"
    },
    {
      "type": "function",
      "name": "getApproved",
      "inputs": [
        {
          "name": "tokenId",
          "type": "uint256",
          "internalType": "uint256"
        }
      ],
      "outputs": [
        {
          "name": "",
          "type": "address",
          "internalType": "address"
        }
      ],
      "stateMutability": "view"
    },
    {
      "type": "function",
      "name": "getJourneyDetails",
      "inputs": [
        {
          "name": "_journeyTokenId",
          "type": "uint256",
          "internalType": "uint256"
        }
      ],
      "outputs": [
        {
          "name": "",
          "type": "tuple",
          "internalType": "struct JourneyNFT.Journey",
          "components": [
            {
              "name": "vesselTokenId",
              "type": "uint256",
              "internalType": "uint256"
            },
            {
              "name": "vesselOwner",
              "type": "address",
              "internalType": "address"
            },
            {
              "name": "originPort",
              "type": "string",
              "internalType": "string"
            },
            {
              "name": "destinationPort",
              "type": "string",
              "internalType": "string"
            },
            {
              "name": "departureTimestamp",
              "type": "uint256",
              "internalType": "uint256"
            },
            {
              "name": "availableCapacity",
              "type": "uint256",
              "internalType": "uint256"
            },
            {
              "name": "isListed",
              "type": "bool",
              "internalType": "bool"
            }
          ]
        }
      ],
      "stateMutability": "view"
    },
    {
      "type": "function",
      "name": "isApprovedForAll",
      "inputs": [
        {
          "name": "owner",
          "type": "address",
          "internalType": "address"
        },
        {
          "name": "operator",
          "type": "address",
          "internalType": "address"
        }
      ],
      "outputs": [
        {
          "name": "",
          "type": "bool",
          "internalType": "bool"
        }
      ],
      "stateMutability": "view"
    },
    {
      "type": "function",
      "name": "journeys",
      "inputs": [
        {
          "name": "",
          "type": "uint256",
          "internalType": "uint256"
        }
      ],
      "outputs": [
        {
          "name": "vesselTokenId",
          "type": "uint256",
          "internalType": "uint256"
        },
        {
          "name": "vesselOwner",
          "type": "address",
          "internalType": "address"
        },
        {
          "name": "originPort",
          "type": "string",
          "internalType": "string"
        },
        {
          "name": "destinationPort",
          "type": "string",
          "internalType": "string"
        },
        {
          "name": "departureTimestamp",
          "type": "uint256",
          "internalType": "uint256"
        },
        {
          "name": "availableCapacity",
          "type": "uint256",
          "internalType": "uint256"
        },
        {
          "name": "isListed",
          "type": "bool",
          "internalType": "bool"
        }
      ],
      "stateMutability": "view"
    },
    {
      "type": "function",
      "name": "mintJourney",
      "inputs": [
        {
          "name": "_vesselTokenId",
          "type": "uint256",
          "internalType": "uint256"
        },
        {
          "name": "_originPort",
          "type": "string",
          "internalType": "string"
        },
        {
          "name": "_destinationPort",
          "type": "string",
          "internalType": "string"
        },
        {
          "name": "_departureTimestamp",
          "type": "uint256",
          "internalType": "uint256"
        },
        {
          "name": "_availableCapacity",
          "type": "uint256",
          "internalType": "uint256"
        }
      ],
      "outputs": [],
      "stateMutability": "nonpayable"
    },
    {
      "type": "function",
      "name": "name",
      "inputs": [],
      "outputs": [
        {
          "name": "",
          "type": "string",
          "internalType": "string"
        }
      ],
      "stateMutability": "view"
    },
    {
      "type": "function",
      "name": "ownerOf",
      "inputs": [
        {
          "name": "tokenId",
          "type": "uint256",
          "internalType": "uint256"
        }
      ],
      "outputs": [
        {
          "name": "",
          "type": "address",
          "internalType": "address"
        }
      ],
      "stateMutability": "view"
    },
    {
      "type": "function",
      "name": "safeTransferFrom",
      "inputs": [
        {
          "name": "from",
          "type": "address",
          "internalType": "address"
        },
        {
          "name": "to",
          "type": "address",
          "internalType": "address"
        },
        {
          "name": "tokenId",
          "type": "uint256",
          "internalType": "uint256"
        }
      ],
      "outputs": [],
      "stateMutability": "nonpayable"
    },
    {
      "type": "function",
      "name": "safeTransferFrom",
      "inputs": [
        {
          "name": "from",
          "type": "address",
          "internalType": "address"
        },
        {
          "name": "to",
          "type": "address",
          "internalType": "address"
        },
        {
          "name": "tokenId",
          "type": "uint256",
          "internalType": "uint256"
        },
        {
          "name": "data",
          "type": "bytes",
          "internalType": "bytes"
        }
      ],
      "outputs": [],
      "stateMutability": "nonpayable"
    },
    {
      "type": "function",
      "name": "setApprovalForAll",
      "inputs": [
        {
          "name": "operator",
          "type": "address",
          "internalType": "address"
        },
        {
          "name": "approved",
          "type": "bool",
          "internalType": "bool"
        }
      ],
      "outputs": [],
      "stateMutability": "nonpayable"
    },
    {
      "type": "function",
      "name": "supportsInterface",
      "inputs": [
        {
          "name": "interfaceId",
          "type": "bytes4",
          "internalType": "bytes4"
        }
      ],
      "outputs": [
        {
          "name": "",
          "type": "bool",
          "internalType": "bool"
        }
      ],
      "stateMutability": "view"
    },
    {
      "type": "function",
      "name": "symbol",
      "inputs": [],
      "outputs": [
        {
          "name": "",
          "type": "string",
          "internalType": "string"
        }
      ],
      "stateMutability": "view"
    },
    {
      "type": "function",
      "name": "tokenURI",
      "inputs": [
        {
          "name": "tokenId",
          "type": "uint256",
          "internalType": "uint256"
        }
      ],
      "outputs": [
        {
          "name": "",
          "type": "string",
          "internalType": "string"
        }
      ],
      "stateMutability": "view"
    },
    {
      "type": "function",
      "name": "transferFrom",
      "inputs": [
        {
          "name": "from",
          "type": "address",
          "internalType": "address"
        },
        {
          "name": "to",
          "type": "address",
          "internalType": "address"
        },
        {
          "name": "tokenId",
          "type": "uint256",
          "internalType": "uint256"
        }
      ],
      "outputs": [],
      "stateMutability": "nonpayable"
    },
    {
      "type": "function",
      "name": "vesselNFT",
      "inputs": [],
      "outputs": [
        {
          "name": "",
          "type": "address",
          "internalType": "contract VesselNFT"
        }
      ],
      "stateMutability": "view"
    },
    {
      "type": "event",
      "name": "Approval",
      "inputs": [
        {
          "name": "owner",
          "type": "address",
          "indexed": true,
          "internalType": "address"
        },
        {
          "name": "approved",
          "type": "address",
          "indexed": true,
          "internalType": "address"
        },
        {
          "name": "tokenId",
          "type": "uint256",
          "indexed": true,
          "internalType": "uint256"
        }
      ],
      "anonymous": false
    },
    {
      "type": "event",
      "name": "ApprovalForAll",
      "inputs": [
        {
          "name": "owner",
          "type": "address",
          "indexed": true,
          "internalType": "address"
        },
        {
          "name": "operator",
          "type": "address",
          "indexed": true,
          "internalType": "address"
        },
        {
          "name": "approved",
          "type": "bool",
          "indexed": false,
          "internalType": "bool"
        }
      ],
      "anonymous": false
    },
    {
      "type": "event",
      "name": "JourneyMinted",
      "inputs": [
        {
          "name": "journeyTokenId",
          "type": "uint256",
          "indexed": true,
          "internalType": "uint256"
        },
        {
          "name": "vesselTokenId",
          "type": "uint256",
          "indexed": true,
          "internalType": "uint256"
        },
        {
          "name": "vesselOwner",
          "type": "address",
          "indexed": true,
          "internalType": "address"
        },
        {
          "name": "availableCapacity",
          "type": "uint256",
          "indexed": false,
          "internalType": "uint256"
        }
      ],
      "anonymous": false
    },
    {
      "type": "event",
      "name": "Transfer",
      "inputs": [
        {
          "name": "from",
          "type": "address",
          "indexed": true,
          "internalType": "address"
        },
        {
          "name": "to",
          "type": "address",
          "indexed": true,
          "internalType": "address"
        },
        {
          "name": "tokenId",
          "type": "uint256",
          "indexed": true,
          "internalType": "uint256"
        }
      ],
      "anonymous": false
    },
    {
      "type": "error",
      "name": "ERC721IncorrectOwner",
      "inputs": [
        {
          "name": "sender",
          "type": "address",
          "internalType": "address"
        },
        {
          "name": "tokenId",
          "type": "uint256",
          "internalType": "uint256"
        },
        {
          "name": "owner",
          "type": "address",
          "internalType": "address"
        }
      ]
    },
    {
      "type": "error",
      "name": "ERC721InsufficientApproval",
      "inputs": [
        {
          "name": "operator",
          "type": "address",
          "internalType": "address"
        },
        {
          "name": "tokenId",
          "type": "uint256",
          "internalType": "uint256"
        }
      ]
    },
    {
      "type": "error",
      "name": "ERC721InvalidApprover",
      "inputs": [
        {
          "name": "approver",
          "type": "address",
          "internalType": "address"
        }
      ]
    },
    {
      "type": "error",
      "name": "ERC721InvalidOperator",
      "inputs": [
        {
          "name": "operator",
          "type": "address",
          "internalType": "address"
        }
      ]
    },
    {
      "type": "error",
      "name": "ERC721InvalidOwner",
      "inputs": [
        {
          "name": "owner",
          "type": "address",
          "internalType": "address"
        }
      ]
    },
    {
      "type": "error",
      "name": "ERC721InvalidReceiver",
      "inputs": [
        {
          "name": "receiver",
          "type": "address",
          "internalType": "address"
        }
      ]
    },
    {
      "type": "error",
      "name": "ERC721InvalidSender",
      "inputs": [
        {
          "name": "sender",
          "type": "address",
          "internalType": "address"
        }
      ]
    },
    {
      "type": "error",
      "name": "ERC721NonexistentToken",
      "inputs": [
        {
          "name": "tokenId",
          "type": "uint256",
          "internalType": "uint256"
        }
      ]
    }
  ],
  "bytecode": {
    "object": "0x608060405234801561000f575f80fd5b5060405161340c38038061340c83398181016040528101906100319190610162565b6040518060400160405280601481526020017f5368697042726f6b65726167654a6f75726e65790000000000000000000000008152506040518060400160405280600381526020017f53424a0000000000000000000000000000000000000000000000000000000000815250815f90816100ab91906103c7565b5080600190816100bb91906103c7565b5050508060065f6101000a81548173ffffffffffffffffffffffffffffffffffffffff021916908373ffffffffffffffffffffffffffffffffffffffff16021790555050610496565b5f80fd5b5f73ffffffffffffffffffffffffffffffffffffffff82169050919050565b5f61013182610108565b9050919050565b61014181610127565b811461014b575f80fd5b50565b5f8151905061015c81610138565b92915050565b5f6020828403121561017757610176610104565b5b5f6101848482850161014e565b91505092915050565b5f81519050919050565b7f4e487b71000000000000000000000000000000000000000000000000000000005f52604160045260245ffd5b7f4e487b71000000000000000000000000000000000000000000000000000000005f52602260045260245ffd5b5f600282049050600182168061020857607f821691505b60208210810361021b5761021a6101c4565b5b50919050565b5f819050815f5260205f209050919050565b5f6020601f8301049050919050565b5f82821b905092915050565b5f6008830261027d7fffffffffffffffffffffffffffffffffffffffffffffffffffffffffffffffff82610242565b6102878683610242565b95508019841693508086168417925050509392505050565b5f819050919050565b5f819050919050565b5f6102cb6102c66102c18461029f565b6102a8565b61029f565b9050919050565b5f819050919050565b6102e4836102b1565b6102f86102f0826102d2565b84845461024e565b825550505050565b5f90565b61030c610300565b6103178184846102db565b505050565b5b8181101561033a5761032f5f82610304565b60018101905061031d565b5050565b601f82111561037f5761035081610221565b61035984610233565b81016020851015610368578190505b61037c61037485610233565b83018261031c565b50505b505050565b5f82821c905092915050565b5f61039f5f1984600802610384565b1980831691505092915050565b5f6103b78383610390565b9150826002028217905092915050565b6103d08261018d565b67ffffffffffffffff8111156103e9576103e8610197565b5b6103f382546101f1565b6103fe82828561033e565b5f60209050601f83116001811461042f575f841561041d578287015190505b61042785826103ac565b86555061048e565b601f19841661043d86610221565b5f5b828110156104645784890151825560018201915060208501945060208101905061043f565b86831015610481578489015161047d601f891682610390565b8355505b6001600288020188555050505b505050505050565b612f69806104a35f395ff3fe608060405234801561000f575f80fd5b5060043610610114575f3560e01c806370a08231116100a0578063a22cb4651161006f578063a22cb46514610308578063b88d4fde14610324578063c87b56dd14610340578063e985e9c514610370578063ead159bd146103a057610114565b806370a08231146102545780638df5a9fa1461028457806395d89b41146102ba5780639cb50c9f146102d857610114565b80631e92351c116100e75780631e92351c146101b257806323b872dd146101d057806342842e0e146101ec57806351dfa0cd146102085780636352211e1461022457610114565b806301ffc9a71461011857806306fdde0314610148578063081812fc14610166578063095ea7b314610196575b5f80fd5b610132600480360381019061012d9190611f27565b6103bc565b60405161013f9190611f6c565b60405180910390f35b61015061049d565b60405161015d9190611ff5565b60405180910390f35b610180600480360381019061017b9190612048565b61052c565b60405161018d91906120b2565b60405180910390f35b6101b060048036038101906101ab91906120f5565b610547565b005b6101ba61055d565b6040516101c7919061218e565b60405180910390f35b6101ea60048036038101906101e591906121a7565b610582565b005b610206600480360381019061020191906121a7565b610681565b005b610222600480360381019061021d91906121f7565b6106a0565b005b61023e60048036038101906102399190612048565b61076a565b60405161024b91906120b2565b60405180910390f35b61026e60048036038101906102699190612235565b61077b565b60405161027b919061226f565b60405180910390f35b61029e60048036038101906102999190612048565b610831565b6040516102b19796959493929190612288565b60405180910390f35b6102c26109a6565b6040516102cf9190611ff5565b60405180910390f35b6102f260048036038101906102ed9190612048565b610a36565b6040516102ff9190612418565b60405180910390f35b610322600480360381019061031d9190612462565b610c6d565b005b61033e600480360381019061033991906125cc565b610c83565b005b61035a60048036038101906103559190612048565b610ca0565b6040516103679190611ff5565b60405180910390f35b61038a6004803603810190610385919061264c565b610d06565b6040516103979190611f6c565b60405180910390f35b6103ba60048036038101906103b591906126e7565b610d94565b005b5f7f80ac58cd000000000000000000000000000000000000000000000000000000007bffffffffffffffffffffffffffffffffffffffffffffffffffffffff1916827bffffffffffffffffffffffffffffffffffffffffffffffffffffffff1916148061048657507f5b5e139f000000000000000000000000000000000000000000000000000000007bffffffffffffffffffffffffffffffffffffffffffffffffffffffff1916827bffffffffffffffffffffffffffffffffffffffffffffffffffffffff1916145b80610496575061049582611133565b5b9050919050565b60605f80546104ab906127cb565b80601f01602080910402602001604051908101604052809291908181526020018280546104d7906127cb565b80156105225780601f106104f957610100808354040283529160200191610522565b820191905f5260205f20905b81548152906001019060200180831161050557829003601f168201915b5050505050905090565b5f6105368261119c565b5061054082611222565b9050919050565b610559828261055461125b565b611262565b5050565b60065f9054906101000a900473ffffffffffffffffffffffffffffffffffffffff1681565b5f73ffffffffffffffffffffffffffffffffffffffff168273ffffffffffffffffffffffffffffffffffffffff16036105f2575f6040517f64a0ae920000000000000000000000000000000000000000000000000000000081526004016105e991906120b2565b60405180910390fd5b5f610605838361060061125b565b611274565b90508373ffffffffffffffffffffffffffffffffffffffff168173ffffffffffffffffffffffffffffffffffffffff161461067b578382826040517f64283d7b000000000000000000000000000000000000000000000000000000008152600401610672939291906127fb565b60405180910390fd5b50505050565b61069b83838360405180602001604052805f815250610c83565b505050565b5f60075f8481526020019081526020015f209050806006015f9054906101000a900460ff16610704576040517f08c379a00000000000000000000000000000000000000000000000000000000081526004016106fb9061287a565b60405180910390fd5b818160050154101561074b576040517f08c379a0000000000000000000000000000000000000000000000000000000008152600401610742906128e2565b60405180910390fd5b81816005015f82825461075e919061292d565b92505081905550505050565b5f6107748261119c565b9050919050565b5f8073ffffffffffffffffffffffffffffffffffffffff168273ffffffffffffffffffffffffffffffffffffffff16036107ec575f6040517f89c62b640000000000000000000000000000000000000000000000000000000081526004016107e391906120b2565b60405180910390fd5b60035f8373ffffffffffffffffffffffffffffffffffffffff1673ffffffffffffffffffffffffffffffffffffffff1681526020019081526020015f20549050919050565b6007602052805f5260405f205f91509050805f015490806001015f9054906101000a900473ffffffffffffffffffffffffffffffffffffffff169080600201805461087b906127cb565b80601f01602080910402602001604051908101604052809291908181526020018280546108a7906127cb565b80156108f25780601f106108c9576101008083540402835291602001916108f2565b820191905f5260205f20905b8154815290600101906020018083116108d557829003601f168201915b505050505090806003018054610907906127cb565b80601f0160208091040260200160405190810160405280929190818152602001828054610933906127cb565b801561097e5780601f106109555761010080835404028352916020019161097e565b820191905f5260205f20905b81548152906001019060200180831161096157829003601f168201915b505050505090806004015490806005015490806006015f9054906101000a900460ff16905087565b6060600180546109b5906127cb565b80601f01602080910402602001604051908101604052809291908181526020018280546109e1906127cb565b8015610a2c5780601f10610a0357610100808354040283529160200191610a2c565b820191905f5260205f20905b815481529060010190602001808311610a0f57829003601f168201915b5050505050905090565b610a3e611e71565b60075f8381526020019081526020015f206006015f9054906101000a900460ff16610a9e576040517f08c379a0000000000000000000000000000000000000000000000000000000008152600401610a959061287a565b60405180910390fd5b60075f8381526020019081526020015f206040518060e00160405290815f8201548152602001600182015f9054906101000a900473ffffffffffffffffffffffffffffffffffffffff1673ffffffffffffffffffffffffffffffffffffffff1673ffffffffffffffffffffffffffffffffffffffff168152602001600282018054610b28906127cb565b80601f0160208091040260200160405190810160405280929190818152602001828054610b54906127cb565b8015610b9f5780601f10610b7657610100808354040283529160200191610b9f565b820191905f5260205f20905b815481529060010190602001808311610b8257829003601f168201915b50505050508152602001600382018054610bb8906127cb565b80601f0160208091040260200160405190810160405280929190818152602001828054610be4906127cb565b8015610c2f5780601f10610c0657610100808354040283529160200191610c2f565b820191905f5260205f20905b815481529060010190602001808311610c1257829003601f168201915b505050505081526020016004820154815260200160058201548152602001600682015f9054906101000a900460ff1615151515815250509050919050565b610c7f610c7861125b565b838361147f565b5050565b610c8e848484610582565b610c9a848484846115e8565b50505050565b6060610cab8261119c565b505f610cb561179a565b90505f815111610cd35760405180602001604052805f815250610cfe565b80610cdd846117b0565b604051602001610cee92919061299a565b6040516020818303038152906040525b915050919050565b5f60055f8473ffffffffffffffffffffffffffffffffffffffff1673ffffffffffffffffffffffffffffffffffffffff1681526020019081526020015f205f8373ffffffffffffffffffffffffffffffffffffffff1673ffffffffffffffffffffffffffffffffffffffff1681526020019081526020015f205f9054906101000a900460ff16905092915050565b5f60065f9054906101000a900473ffffffffffffffffffffffffffffffffffffffff1673ffffffffffffffffffffffffffffffffffffffff16636352211e896040518263ffffffff1660e01b8152600401610def919061226f565b602060405180830381865afa158015610e0a573d5f803e3d5ffd5b505050506040513d601f19601f82011682018060405250810190610e2e91906129d1565b90503373ffffffffffffffffffffffffffffffffffffffff168173ffffffffffffffffffffffffffffffffffffffff1614610e9e576040517f08c379a0000000000000000000000000000000000000000000000000000000008152600401610e9590612a46565b60405180910390fd5b5f8211610ee0576040517f08c379a0000000000000000000000000000000000000000000000000000000008152600401610ed790612aae565b60405180910390fd5b428311610f22576040517f08c379a0000000000000000000000000000000000000000000000000000000008152600401610f1990612b3c565b60405180910390fd5b5f60085f815480929190610f3590612b5a565b919050559050610f45828261187a565b6040518060e001604052808a81526020018373ffffffffffffffffffffffffffffffffffffffff16815260200189898080601f0160208091040260200160405190810160405280939291908181526020018383808284375f81840152601f19601f82011690508083019250505050505050815260200187878080601f0160208091040260200160405190810160405280939291908181526020018383808284375f81840152601f19601f8201169050808301925050505050505081526020018581526020018481526020016001151581525060075f8381526020019081526020015f205f820151815f01556020820151816001015f6101000a81548173ffffffffffffffffffffffffffffffffffffffff021916908373ffffffffffffffffffffffffffffffffffffffff160217905550604082015181600201908161108b9190612d35565b5060608201518160030190816110a19190612d35565b506080820151816004015560a0820151816005015560c0820151816006015f6101000a81548160ff0219169083151502179055509050508173ffffffffffffffffffffffffffffffffffffffff1689827fed3968d8c7a7793b0bb2e80aead7c583ca0930ca9d91b2c6c2787f56228a73b586604051611120919061226f565b60405180910390a4505050505050505050565b5f7f01ffc9a7000000000000000000000000000000000000000000000000000000007bffffffffffffffffffffffffffffffffffffffffffffffffffffffff1916827bffffffffffffffffffffffffffffffffffffffffffffffffffffffff1916149050919050565b5f806111a783611897565b90505f73ffffffffffffffffffffffffffffffffffffffff168173ffffffffffffffffffffffffffffffffffffffff160361121957826040517f7e273289000000000000000000000000000000000000000000000000000000008152600401611210919061226f565b60405180910390fd5b80915050919050565b5f60045f8381526020019081526020015f205f9054906101000a900473ffffffffffffffffffffffffffffffffffffffff169050919050565b5f33905090565b61126f83838360016118d0565b505050565b5f8061127f84611897565b90505f73ffffffffffffffffffffffffffffffffffffffff168373ffffffffffffffffffffffffffffffffffffffff16146112c0576112bf818486611a8f565b5b5f73ffffffffffffffffffffffffffffffffffffffff168173ffffffffffffffffffffffffffffffffffffffff161461134b576112ff5f855f806118d0565b600160035f8373ffffffffffffffffffffffffffffffffffffffff1673ffffffffffffffffffffffffffffffffffffffff1681526020019081526020015f205f82825403925050819055505b5f73ffffffffffffffffffffffffffffffffffffffff168573ffffffffffffffffffffffffffffffffffffffff16146113ca57600160035f8773ffffffffffffffffffffffffffffffffffffffff1673ffffffffffffffffffffffffffffffffffffffff1681526020019081526020015f205f82825401925050819055505b8460025f8681526020019081526020015f205f6101000a81548173ffffffffffffffffffffffffffffffffffffffff021916908373ffffffffffffffffffffffffffffffffffffffff160217905550838573ffffffffffffffffffffffffffffffffffffffff168273ffffffffffffffffffffffffffffffffffffffff167fddf252ad1be2c89b69c2b068fc378daa952ba7f163c4a11628f55a4df523b3ef60405160405180910390a4809150509392505050565b5f73ffffffffffffffffffffffffffffffffffffffff168273ffffffffffffffffffffffffffffffffffffffff16036114ef57816040517f5b08ba180000000000000000000000000000000000000000000000000000000081526004016114e691906120b2565b60405180910390fd5b8060055f8573ffffffffffffffffffffffffffffffffffffffff1673ffffffffffffffffffffffffffffffffffffffff1681526020019081526020015f205f8473ffffffffffffffffffffffffffffffffffffffff1673ffffffffffffffffffffffffffffffffffffffff1681526020019081526020015f205f6101000a81548160ff0219169083151502179055508173ffffffffffffffffffffffffffffffffffffffff168373ffffffffffffffffffffffffffffffffffffffff167f17307eab39ab6107e8899845ad3d59bd9653f200f220920489ca2b5937696c31836040516115db9190611f6c565b60405180910390a3505050565b5f8373ffffffffffffffffffffffffffffffffffffffff163b1115611794578273ffffffffffffffffffffffffffffffffffffffff1663150b7a0261162b61125b565b8685856040518563ffffffff1660e01b815260040161164d9493929190612e56565b6020604051808303815f875af192505050801561168857506040513d601f19601f820116820180604052508101906116859190612eb4565b60015b611709573d805f81146116b6576040519150601f19603f3d011682016040523d82523d5f602084013e6116bb565b606091505b505f81510361170157836040517f64a0ae920000000000000000000000000000000000000000000000000000000081526004016116f891906120b2565b60405180910390fd5b805181602001fd5b63150b7a0260e01b7bffffffffffffffffffffffffffffffffffffffffffffffffffffffff1916817bffffffffffffffffffffffffffffffffffffffffffffffffffffffff19161461179257836040517f64a0ae9200000000000000000000000000000000000000000000000000000000815260040161178991906120b2565b60405180910390fd5b505b50505050565b606060405180602001604052805f815250905090565b60605f60016117be84611b52565b0190505f8167ffffffffffffffff8111156117dc576117db6124a8565b5b6040519080825280601f01601f19166020018201604052801561180e5781602001600182028036833780820191505090505b5090505f82602001820190505b60011561186f578080600190039150507f3031323334353637383961626364656600000000000000000000000000000000600a86061a8153600a858161186457611863612edf565b5b0494505f850361181b575b819350505050919050565b611893828260405180602001604052805f815250611ca3565b5050565b5f60025f8381526020019081526020015f205f9054906101000a900473ffffffffffffffffffffffffffffffffffffffff169050919050565b808061190857505f73ffffffffffffffffffffffffffffffffffffffff168273ffffffffffffffffffffffffffffffffffffffff1614155b15611a3a575f6119178461119c565b90505f73ffffffffffffffffffffffffffffffffffffffff168373ffffffffffffffffffffffffffffffffffffffff161415801561198157508273ffffffffffffffffffffffffffffffffffffffff168173ffffffffffffffffffffffffffffffffffffffff1614155b801561199457506119928184610d06565b155b156119d657826040517fa9fbf51f0000000000000000000000000000000000000000000000000000000081526004016119cd91906120b2565b60405180910390fd5b8115611a3857838573ffffffffffffffffffffffffffffffffffffffff168273ffffffffffffffffffffffffffffffffffffffff167f8c5be1e5ebec7d5bd14f71427d1e84f3dd0314c0f7b2291e5b200ac8c7c3b92560405160405180910390a45b505b8360045f8581526020019081526020015f205f6101000a81548173ffffffffffffffffffffffffffffffffffffffff021916908373ffffffffffffffffffffffffffffffffffffffff16021790555050505050565b611a9a838383611cbe565b611b4d575f73ffffffffffffffffffffffffffffffffffffffff168373ffffffffffffffffffffffffffffffffffffffff1603611b0e57806040517f7e273289000000000000000000000000000000000000000000000000000000008152600401611b05919061226f565b60405180910390fd5b81816040517f177e802f000000000000000000000000000000000000000000000000000000008152600401611b44929190612f0c565b60405180910390fd5b505050565b5f805f90507a184f03e93ff9f4daa797ed6e38ed64bf6a1f0100000000000000008310611bae577a184f03e93ff9f4daa797ed6e38ed64bf6a1f0100000000000000008381611ba457611ba3612edf565b5b0492506040810190505b6d04ee2d6d415b85acef81000000008310611beb576d04ee2d6d415b85acef81000000008381611be157611be0612edf565b5b0492506020810190505b662386f26fc100008310611c1a57662386f26fc100008381611c1057611c0f612edf565b5b0492506010810190505b6305f5e1008310611c43576305f5e1008381611c3957611c38612edf565b5b0492506008810190505b6127108310611c68576127108381611c5e57611c5d612edf565b5b0492506004810190505b60648310611c8b5760648381611c8157611c80612edf565b5b0492506002810190505b600a8310611c9a576001810190505b80915050919050565b611cad8383611d7e565b611cb95f8484846115e8565b505050565b5f8073ffffffffffffffffffffffffffffffffffffffff168373ffffffffffffffffffffffffffffffffffffffff1614158015611d7557508273ffffffffffffffffffffffffffffffffffffffff168473ffffffffffffffffffffffffffffffffffffffff161480611d365750611d358484610d06565b5b80611d7457508273ffffffffffffffffffffffffffffffffffffffff16611d5c83611222565b73ffffffffffffffffffffffffffffffffffffffff16145b5b90509392505050565b5f73ffffffffffffffffffffffffffffffffffffffff168273ffffffffffffffffffffffffffffffffffffffff1603611dee575f6040517f64a0ae92000000000000000000000000000000000000000000000000000000008152600401611de591906120b2565b60405180910390fd5b5f611dfa83835f611274565b90505f73ffffffffffffffffffffffffffffffffffffffff168173ffffffffffffffffffffffffffffffffffffffff1614611e6c575f6040517f73c6ac6e000000000000000000000000000000000000000000000000000000008152600401611e6391906120b2565b60405180910390fd5b505050565b6040518060e001604052805f81526020015f73ffffffffffffffffffffffffffffffffffffffff16815260200160608152602001606081526020015f81526020015f81526020015f151581525090565b5f604051905090565b5f80fd5b5f80fd5b5f7fffffffff0000000000000000000000000000000000000000000000000000000082169050919050565b611f0681611ed2565b8114611f10575f80fd5b50565b5f81359050611f2181611efd565b92915050565b5f60208284031215611f3c57611f3b611eca565b5b5f611f4984828501611f13565b91505092915050565b5f8115159050919050565b611f6681611f52565b82525050565b5f602082019050611f7f5f830184611f5d565b92915050565b5f81519050919050565b5f82825260208201905092915050565b8281835e5f83830152505050565b5f601f19601f8301169050919050565b5f611fc782611f85565b611fd18185611f8f565b9350611fe1818560208601611f9f565b611fea81611fad565b840191505092915050565b5f6020820190508181035f83015261200d8184611fbd565b905092915050565b5f819050919050565b61202781612015565b8114612031575f80fd5b50565b5f813590506120428161201e565b92915050565b5f6020828403121561205d5761205c611eca565b5b5f61206a84828501612034565b91505092915050565b5f73ffffffffffffffffffffffffffffffffffffffff82169050919050565b5f61209c82612073565b9050919050565b6120ac81612092565b82525050565b5f6020820190506120c55f8301846120a3565b92915050565b6120d481612092565b81146120de575f80fd5b50565b5f813590506120ef816120cb565b92915050565b5f806040838503121561210b5761210a611eca565b5b5f612118858286016120e1565b925050602061212985828601612034565b9150509250929050565b5f819050919050565b5f61215661215161214c84612073565b612133565b612073565b9050919050565b5f6121678261213c565b9050919050565b5f6121788261215d565b9050919050565b6121888161216e565b82525050565b5f6020820190506121a15f83018461217f565b92915050565b5f805f606084860312156121be576121bd611eca565b5b5f6121cb868287016120e1565b93505060206121dc868287016120e1565b92505060406121ed86828701612034565b9150509250925092565b5f806040838503121561220d5761220c611eca565b5b5f61221a85828601612034565b925050602061222b85828601612034565b9150509250929050565b5f6020828403121561224a57612249611eca565b5b5f612257848285016120e1565b91505092915050565b61226981612015565b82525050565b5f6020820190506122825f830184612260565b92915050565b5f60e08201905061229b5f83018a612260565b6122a860208301896120a3565b81810360408301526122ba8188611fbd565b905081810360608301526122ce8187611fbd565b90506122dd6080830186612260565b6122ea60a0830185612260565b6122f760c0830184611f5d565b98975050505050505050565b61230c81612015565b82525050565b61231b81612092565b82525050565b5f82825260208201905092915050565b5f61233b82611f85565b6123458185612321565b9350612355818560208601611f9f565b61235e81611fad565b840191505092915050565b61237281611f52565b82525050565b5f60e083015f83015161238d5f860182612303565b5060208301516123a06020860182612312565b50604083015184820360408601526123b88282612331565b915050606083015184820360608601526123d28282612331565b91505060808301516123e76080860182612303565b5060a08301516123fa60a0860182612303565b5060c083015161240d60c0860182612369565b508091505092915050565b5f6020820190508181035f8301526124308184612378565b905092915050565b61244181611f52565b811461244b575f80fd5b50565b5f8135905061245c81612438565b92915050565b5f806040838503121561247857612477611eca565b5b5f612485858286016120e1565b92505060206124968582860161244e565b9150509250929050565b5f80fd5b5f80fd5b7f4e487b71000000000000000000000000000000000000000000000000000000005f52604160045260245ffd5b6124de82611fad565b810181811067ffffffffffffffff821117156124fd576124fc6124a8565b5b80604052505050565b5f61250f611ec1565b905061251b82826124d5565b919050565b5f67ffffffffffffffff82111561253a576125396124a8565b5b61254382611fad565b9050602081019050919050565b828183375f83830152505050565b5f61257061256b84612520565b612506565b90508281526020810184848401111561258c5761258b6124a4565b5b612597848285612550565b509392505050565b5f82601f8301126125b3576125b26124a0565b5b81356125c384826020860161255e565b91505092915050565b5f805f80608085870312156125e4576125e3611eca565b5b5f6125f1878288016120e1565b9450506020612602878288016120e1565b935050604061261387828801612034565b925050606085013567ffffffffffffffff81111561263457612633611ece565b5b6126408782880161259f565b91505092959194509250565b5f806040838503121561266257612661611eca565b5b5f61266f858286016120e1565b9250506020612680858286016120e1565b9150509250929050565b5f80fd5b5f80fd5b5f8083601f8401126126a7576126a66124a0565b5b8235905067ffffffffffffffff8111156126c4576126c361268a565b5b6020830191508360018202830111156126e0576126df61268e565b5b9250929050565b5f805f805f805f60a0888a03121561270257612701611eca565b5b5f61270f8a828b01612034565b975050602088013567ffffffffffffffff8111156127305761272f611ece565b5b61273c8a828b01612692565b9650965050604088013567ffffffffffffffff81111561275f5761275e611ece565b5b61276b8a828b01612692565b9450945050606061277e8a828b01612034565b925050608061278f8a828b01612034565b91505092959891949750929550565b7f4e487b71000000000000000000000000000000000000000000000000000000005f52602260045260245ffd5b5f60028204905060018216806127e257607f821691505b6020821081036127f5576127f461279e565b5b50919050565b5f60608201905061280e5f8301866120a3565b61281b6020830185612260565b61282860408301846120a3565b949350505050565b7f4a4e46543a204a6f75726e657920646f6573206e6f74206578697374000000005f82015250565b5f612864601c83611f8f565b915061286f82612830565b602082019050919050565b5f6020820190508181035f83015261289181612858565b9050919050565b7f4a4e46543a20496e73756666696369656e7420636170616369747900000000005f82015250565b5f6128cc601b83611f8f565b91506128d782612898565b602082019050919050565b5f6020820190508181035f8301526128f9816128c0565b9050919050565b7f4e487b71000000000000000000000000000000000000000000000000000000005f52601160045260245ffd5b5f61293782612015565b915061294283612015565b925082820390508181111561295a57612959612900565b5b92915050565b5f81905092915050565b5f61297482611f85565b61297e8185612960565b935061298e818560208601611f9f565b80840191505092915050565b5f6129a5828561296a565b91506129b1828461296a565b91508190509392505050565b5f815190506129cb816120cb565b92915050565b5f602082840312156129e6576129e5611eca565b5b5f6129f3848285016129bd565b91505092915050565b7f4a4e46543a204e6f74207468652076657373656c206f776e65720000000000005f82015250565b5f612a30601a83611f8f565b9150612a3b826129fc565b602082019050919050565b5f6020820190508181035f830152612a5d81612a24565b9050919050565b7f4a4e46543a204361706163697479206d75737420626520706f736974697665005f82015250565b5f612a98601f83611f8f565b9150612aa382612a64565b602082019050919050565b5f6020820190508181035f830152612ac581612a8c565b9050919050565b7f4a4e46543a20446570617274757265206d75737420626520696e2074686520665f8201527f7574757265000000000000000000000000000000000000000000000000000000602082015250565b5f612b26602583611f8f565b9150612b3182612acc565b604082019050919050565b5f6020820190508181035f830152612b5381612b1a565b9050919050565b5f612b6482612015565b91507fffffffffffffffffffffffffffffffffffffffffffffffffffffffffffffffff8203612b9657612b95612900565b5b600182019050919050565b5f819050815f5260205f209050919050565b5f6020601f8301049050919050565b5f82821b905092915050565b5f60088302612bfd7fffffffffffffffffffffffffffffffffffffffffffffffffffffffffffffffff82612bc2565b612c078683612bc2565b95508019841693508086168417925050509392505050565b5f612c39612c34612c2f84612015565b612133565b612015565b9050919050565b5f819050919050565b612c5283612c1f565b612c66612c5e82612c40565b848454612bce565b825550505050565b5f90565b612c7a612c6e565b612c85818484612c49565b505050565b5b81811015612ca857612c9d5f82612c72565b600181019050612c8b565b5050565b601f821115612ced57612cbe81612ba1565b612cc784612bb3565b81016020851015612cd6578190505b612cea612ce285612bb3565b830182612c8a565b50505b505050565b5f82821c905092915050565b5f612d0d5f1984600802612cf2565b1980831691505092915050565b5f612d258383612cfe565b9150826002028217905092915050565b612d3e82611f85565b67ffffffffffffffff811115612d5757612d566124a8565b5b612d6182546127cb565b612d6c828285612cac565b5f60209050601f831160018114612d9d575f8415612d8b578287015190505b612d958582612d1a565b865550612dfc565b601f198416612dab86612ba1565b5f5b82811015612dd257848901518255600182019150602085019450602081019050612dad565b86831015612def5784890151612deb601f891682612cfe565b8355505b6001600288020188555050505b505050505050565b5f81519050919050565b5f82825260208201905092915050565b5f612e2882612e04565b612e328185612e0e565b9350612e42818560208601611f9f565b612e4b81611fad565b840191505092915050565b5f608082019050612e695f8301876120a3565b612e7660208301866120a3565b612e836040830185612260565b8181036060830152612e958184612e1e565b905095945050505050565b5f81519050612eae81611efd565b92915050565b5f60208284031215612ec957612ec8611eca565b5b5f612ed684828501612ea0565b91505092915050565b7f4e487b71000000000000000000000000000000000000000000000000000000005f52601260045260245ffd5b5f604082019050612f1f5f8301856120a3565b612f2c6020830184612260565b939250505056fea26469706673582212201b06c53087d3bf10afcde1a7643b5c1c1c5e58d50b4b2ce280623f0601e20d1c64736f6c634300081a0033",
    "linkReferences": {}
  },
  "methodIdentifiers": {
    "approve(address,uint256)": "095ea7b3",
    "balanceOf(address)": "70a08231",
    "decreaseJourneyCapacity(uint256,uint256)": "51dfa0cd",
    "getApproved(uint256)": "081812fc",
    "getJourneyDetails(uint256)": "9cb50c9f",
    "isApprovedForAll(address,address)": "e985e9c5",
    "journeys(uint256)": "8df5a9fa",
    "mintJourney(uint256,string,string,uint256,uint256)": "ead159bd",
    "name()": "06fdde03",
    "ownerOf(uint256)": "6352211e",
    "safeTransferFrom(address,address,uint256)": "42842e0e",
    "safeTransferFrom(address,address,uint256,bytes)": "b88d4fde",
    "setApprovalForAll(address,bool)": "a22cb465",
    "supportsInterface(bytes4)": "01ffc9a7",
    "symbol()": "95d89b41",
    "tokenURI(uint256)": "c87b56dd",
    "transferFrom(address,address,uint256)": "23b872dd",
    "vesselNFT()": "1e92351c"
  },
  "id": 14
}