{
  "abi": [
    {
      "type": "constructor",
      "inputs": [
        {
          "name": "_vesselNFTAddress",
          "type": "address",
          "internalType": "address"
        }
      ],
      "stateMutability": "nonpayable"
    },
    {
      "type": "function",
      "name": "addStopToRoute",
      "inputs": [
        {
          "name": "_journeyTokenId",
          "type": "uint256",
          "internalType": "uint256"
        },
        {
          "name": "_location",
          "type": "string",
          "internalType": "string"
        }
      ],
      "outputs": [],
      "stateMutability": "nonpayable"
    },
    {
      "type": "function",
      "name": "approve",
      "inputs": [
        {
          "name": "to",
          "type": "address",
          "internalType": "address"
        },
        {
          "name": "tokenId",
          "type": "uint256",
          "internalType": "uint256"
        }
      ],
      "outputs": [],
      "stateMutability": "nonpayable"
    },
    {
      "type": "function",
      "name": "arriveAtStop",
      "inputs": [
        {
          "name": "_journeyTokenId",
          "type": "uint256",
          "internalType": "uint256"
        },
        {
          "name": "_stopIndex",
          "type": "uint256",
          "internalType": "uint256"
        }
      ],
      "outputs": [],
      "stateMutability": "nonpayable"
    },
    {
      "type": "function",
      "name": "balanceOf",
      "inputs": [
        {
          "name": "owner",
          "type": "address",
          "internalType": "address"
        }
      ],
      "outputs": [
        {
          "name": "",
          "type": "uint256",
          "internalType": "uint256"
        }
      ],
      "stateMutability": "view"
    },
    {
      "type": "function",
      "name": "decreaseJourneyCapacity",
      "inputs": [
        {
          "name": "_journeyTokenId",
          "type": "uint256",
          "internalType": "uint256"
        },
        {
          "name": "_cargoWeight",
          "type": "uint256",
          "internalType": "uint256"
        }
      ],
      "outputs": [],
      "stateMutability": "nonpayable"
    },
    {
      "type": "function",
      "name": "getApproved",
      "inputs": [
        {
          "name": "tokenId",
          "type": "uint256",
          "internalType": "uint256"
        }
      ],
      "outputs": [
        {
          "name": "",
          "type": "address",
          "internalType": "address"
        }
      ],
      "stateMutability": "view"
    },
    {
      "type": "function",
      "name": "getJourneyDetails",
      "inputs": [
        {
          "name": "_journeyTokenId",
          "type": "uint256",
          "internalType": "uint256"
        }
      ],
      "outputs": [
        {
          "name": "",
          "type": "tuple",
          "internalType": "struct JourneyNFT.Journey",
          "components": [
            {
              "name": "vesselTokenId",
              "type": "uint256",
              "internalType": "uint256"
            },
            {
              "name": "vesselOwner",
              "type": "address",
              "internalType": "address"
            },
            {
              "name": "originPort",
              "type": "string",
              "internalType": "string"
            },
            {
              "name": "destinationPort",
              "type": "string",
              "internalType": "string"
            },
            {
              "name": "departureTimestamp",
              "type": "uint256",
              "internalType": "uint256"
            },
            {
              "name": "expectedArrivalTimestamp",
              "type": "uint256",
              "internalType": "uint256"
            },
            {
              "name": "availableCapacity",
              "type": "uint256",
              "internalType": "uint256"
            },
            {
              "name": "isListed",
              "type": "bool",
              "internalType": "bool"
            }
          ]
        }
      ],
      "stateMutability": "view"
    },
    {
      "type": "function",
      "name": "getJourneyRoute",
      "inputs": [
        {
          "name": "_journeyTokenId",
          "type": "uint256",
          "internalType": "uint256"
        }
      ],
      "outputs": [
        {
          "name": "",
          "type": "tuple[]",
          "internalType": "struct JourneyNFT.RouteStop[]",
          "components": [
            {
              "name": "location",
              "type": "string",
              "internalType": "string"
            },
            {
              "name": "arrivalTimestamp",
              "type": "uint256",
              "internalType": "uint256"
            }
          ]
        }
      ],
      "stateMutability": "view"
    },
    {
      "type": "function",
      "name": "isApprovedForAll",
      "inputs": [
        {
          "name": "owner",
          "type": "address",
          "internalType": "address"
        },
        {
          "name": "operator",
          "type": "address",
          "internalType": "address"
        }
      ],
      "outputs": [
        {
          "name": "",
          "type": "bool",
          "internalType": "bool"
        }
      ],
      "stateMutability": "view"
    },
    {
      "type": "function",
      "name": "journeyRoute",
      "inputs": [
        {
          "name": "",
          "type": "uint256",
          "internalType": "uint256"
        },
        {
          "name": "",
          "type": "uint256",
          "internalType": "uint256"
        }
      ],
      "outputs": [
        {
          "name": "location",
          "type": "string",
          "internalType": "string"
        },
        {
          "name": "arrivalTimestamp",
          "type": "uint256",
          "internalType": "uint256"
        }
      ],
      "stateMutability": "view"
    },
    {
      "type": "function",
      "name": "journeys",
      "inputs": [
        {
          "name": "",
          "type": "uint256",
          "internalType": "uint256"
        }
      ],
      "outputs": [
        {
          "name": "vesselTokenId",
          "type": "uint256",
          "internalType": "uint256"
        },
        {
          "name": "vesselOwner",
          "type": "address",
          "internalType": "address"
        },
        {
          "name": "originPort",
          "type": "string",
          "internalType": "string"
        },
        {
          "name": "destinationPort",
          "type": "string",
          "internalType": "string"
        },
        {
          "name": "departureTimestamp",
          "type": "uint256",
          "internalType": "uint256"
        },
        {
          "name": "expectedArrivalTimestamp",
          "type": "uint256",
          "internalType": "uint256"
        },
        {
          "name": "availableCapacity",
          "type": "uint256",
          "internalType": "uint256"
        },
        {
          "name": "isListed",
          "type": "bool",
          "internalType": "bool"
        }
      ],
      "stateMutability": "view"
    },
    {
      "type": "function",
      "name": "mintJourney",
      "inputs": [
        {
          "name": "_vesselTokenId",
          "type": "uint256",
          "internalType": "uint256"
        },
        {
          "name": "_originPort",
          "type": "string",
          "internalType": "string"
        },
        {
          "name": "_destinationPort",
          "type": "string",
          "internalType": "string"
        },
        {
          "name": "_departureTimestamp",
          "type": "uint256",
          "internalType": "uint256"
        },
        {
          "name": "_expectedArrivalTimestamp",
          "type": "uint256",
          "internalType": "uint256"
        },
        {
          "name": "_availableCapacity",
          "type": "uint256",
          "internalType": "uint256"
        }
      ],
      "outputs": [],
      "stateMutability": "nonpayable"
    },
    {
      "type": "function",
      "name": "name",
      "inputs": [],
      "outputs": [
        {
          "name": "",
          "type": "string",
          "internalType": "string"
        }
      ],
      "stateMutability": "view"
    },
    {
      "type": "function",
      "name": "ownerOf",
      "inputs": [
        {
          "name": "tokenId",
          "type": "uint256",
          "internalType": "uint256"
        }
      ],
      "outputs": [
        {
          "name": "",
          "type": "address",
          "internalType": "address"
        }
      ],
      "stateMutability": "view"
    },
    {
      "type": "function",
      "name": "safeTransferFrom",
      "inputs": [
        {
          "name": "from",
          "type": "address",
          "internalType": "address"
        },
        {
          "name": "to",
          "type": "address",
          "internalType": "address"
        },
        {
          "name": "tokenId",
          "type": "uint256",
          "internalType": "uint256"
        }
      ],
      "outputs": [],
      "stateMutability": "nonpayable"
    },
    {
      "type": "function",
      "name": "safeTransferFrom",
      "inputs": [
        {
          "name": "from",
          "type": "address",
          "internalType": "address"
        },
        {
          "name": "to",
          "type": "address",
          "internalType": "address"
        },
        {
          "name": "tokenId",
          "type": "uint256",
          "internalType": "uint256"
        },
        {
          "name": "data",
          "type": "bytes",
          "internalType": "bytes"
        }
      ],
      "outputs": [],
      "stateMutability": "nonpayable"
    },
    {
      "type": "function",
      "name": "setApprovalForAll",
      "inputs": [
        {
          "name": "operator",
          "type": "address",
          "internalType": "address"
        },
        {
          "name": "approved",
          "type": "bool",
          "internalType": "bool"
        }
      ],
      "outputs": [],
      "stateMutability": "nonpayable"
    },
    {
      "type": "function",
      "name": "supportsInterface",
      "inputs": [
        {
          "name": "interfaceId",
          "type": "bytes4",
          "internalType": "bytes4"
        }
      ],
      "outputs": [
        {
          "name": "",
          "type": "bool",
          "internalType": "bool"
        }
      ],
      "stateMutability": "view"
    },
    {
      "type": "function",
      "name": "symbol",
      "inputs": [],
      "outputs": [
        {
          "name": "",
          "type": "string",
          "internalType": "string"
        }
      ],
      "stateMutability": "view"
    },
    {
      "type": "function",
      "name": "tokenURI",
      "inputs": [
        {
          "name": "tokenId",
          "type": "uint256",
          "internalType": "uint256"
        }
      ],
      "outputs": [
        {
          "name": "",
          "type": "string",
          "internalType": "string"
        }
      ],
      "stateMutability": "view"
    },
    {
      "type": "function",
      "name": "transferFrom",
      "inputs": [
        {
          "name": "from",
          "type": "address",
          "internalType": "address"
        },
        {
          "name": "to",
          "type": "address",
          "internalType": "address"
        },
        {
          "name": "tokenId",
          "type": "uint256",
          "internalType": "uint256"
        }
      ],
      "outputs": [],
      "stateMutability": "nonpayable"
    },
    {
      "type": "function",
      "name": "vesselNFT",
      "inputs": [],
      "outputs": [
        {
          "name": "",
          "type": "address",
          "internalType": "contract VesselNFT"
        }
      ],
      "stateMutability": "view"
    },
    {
      "type": "event",
      "name": "Approval",
      "inputs": [
        {
          "name": "owner",
          "type": "address",
          "indexed": true,
          "internalType": "address"
        },
        {
          "name": "approved",
          "type": "address",
          "indexed": true,
          "internalType": "address"
        },
        {
          "name": "tokenId",
          "type": "uint256",
          "indexed": true,
          "internalType": "uint256"
        }
      ],
      "anonymous": false
    },
    {
      "type": "event",
      "name": "ApprovalForAll",
      "inputs": [
        {
          "name": "owner",
          "type": "address",
          "indexed": true,
          "internalType": "address"
        },
        {
          "name": "operator",
          "type": "address",
          "indexed": true,
          "internalType": "address"
        },
        {
          "name": "approved",
          "type": "bool",
          "indexed": false,
          "internalType": "bool"
        }
      ],
      "anonymous": false
    },
    {
      "type": "event",
      "name": "ArrivedAtStop",
      "inputs": [
        {
          "name": "journeyTokenId",
          "type": "uint256",
          "indexed": true,
          "internalType": "uint256"
        },
        {
          "name": "stopIndex",
          "type": "uint256",
          "indexed": false,
          "internalType": "uint256"
        },
        {
          "name": "location",
          "type": "string",
          "indexed": false,
          "internalType": "string"
        },
        {
          "name": "arrivalTimestamp",
          "type": "uint256",
          "indexed": false,
          "internalType": "uint256"
        }
      ],
      "anonymous": false
    },
    {
      "type": "event",
      "name": "JourneyMinted",
      "inputs": [
        {
          "name": "journeyTokenId",
          "type": "uint256",
          "indexed": true,
          "internalType": "uint256"
        },
        {
          "name": "vesselTokenId",
          "type": "uint256",
          "indexed": true,
          "internalType": "uint256"
        },
        {
          "name": "vesselOwner",
          "type": "address",
          "indexed": true,
          "internalType": "address"
        }
      ],
      "anonymous": false
    },
    {
      "type": "event",
      "name": "StopAddedToRoute",
      "inputs": [
        {
          "name": "journeyTokenId",
          "type": "uint256",
          "indexed": true,
          "internalType": "uint256"
        },
        {
          "name": "newStopIndex",
          "type": "uint256",
          "indexed": false,
          "internalType": "uint256"
        },
        {
          "name": "location",
          "type": "string",
          "indexed": false,
          "internalType": "string"
        }
      ],
      "anonymous": false
    },
    {
      "type": "event",
      "name": "Transfer",
      "inputs": [
        {
          "name": "from",
          "type": "address",
          "indexed": true,
          "internalType": "address"
        },
        {
          "name": "to",
          "type": "address",
          "indexed": true,
          "internalType": "address"
        },
        {
          "name": "tokenId",
          "type": "uint256",
          "indexed": true,
          "internalType": "uint256"
        }
      ],
      "anonymous": false
    },
    {
      "type": "error",
      "name": "ERC721IncorrectOwner",
      "inputs": [
        {
          "name": "sender",
          "type": "address",
          "internalType": "address"
        },
        {
          "name": "tokenId",
          "type": "uint256",
          "internalType": "uint256"
        },
        {
          "name": "owner",
          "type": "address",
          "internalType": "address"
        }
      ]
    },
    {
      "type": "error",
      "name": "ERC721InsufficientApproval",
      "inputs": [
        {
          "name": "operator",
          "type": "address",
          "internalType": "address"
        },
        {
          "name": "tokenId",
          "type": "uint256",
          "internalType": "uint256"
        }
      ]
    },
    {
      "type": "error",
      "name": "ERC721InvalidApprover",
      "inputs": [
        {
          "name": "approver",
          "type": "address",
          "internalType": "address"
        }
      ]
    },
    {
      "type": "error",
      "name": "ERC721InvalidOperator",
      "inputs": [
        {
          "name": "operator",
          "type": "address",
          "internalType": "address"
        }
      ]
    },
    {
      "type": "error",
      "name": "ERC721InvalidOwner",
      "inputs": [
        {
          "name": "owner",
          "type": "address",
          "internalType": "address"
        }
      ]
    },
    {
      "type": "error",
      "name": "ERC721InvalidReceiver",
      "inputs": [
        {
          "name": "receiver",
          "type": "address",
          "internalType": "address"
        }
      ]
    },
    {
      "type": "error",
      "name": "ERC721InvalidSender",
      "inputs": [
        {
          "name": "sender",
          "type": "address",
          "internalType": "address"
        }
      ]
    },
    {
      "type": "error",
      "name": "ERC721NonexistentToken",
      "inputs": [
        {
          "name": "tokenId",
          "type": "uint256",
          "internalType": "uint256"
        }
      ]
    }
  ],
  "bytecode": {
    "object": "0x608060405234801561000f575f80fd5b50604051613db0380380613db083398181016040528101906100319190610162565b6040518060400160405280601481526020017f5368697042726f6b65726167654a6f75726e65790000000000000000000000008152506040518060400160405280600381526020017f53424a0000000000000000000000000000000000000000000000000000000000815250815f90816100ab91906103c7565b5080600190816100bb91906103c7565b5050508060065f6101000a81548173ffffffffffffffffffffffffffffffffffffffff021916908373ffffffffffffffffffffffffffffffffffffffff16021790555050610496565b5f80fd5b5f73ffffffffffffffffffffffffffffffffffffffff82169050919050565b5f61013182610108565b9050919050565b61014181610127565b811461014b575f80fd5b50565b5f8151905061015c81610138565b92915050565b5f6020828403121561017757610176610104565b5b5f6101848482850161014e565b91505092915050565b5f81519050919050565b7f4e487b71000000000000000000000000000000000000000000000000000000005f52604160045260245ffd5b7f4e487b71000000000000000000000000000000000000000000000000000000005f52602260045260245ffd5b5f600282049050600182168061020857607f821691505b60208210810361021b5761021a6101c4565b5b50919050565b5f819050815f5260205f209050919050565b5f6020601f8301049050919050565b5f82821b905092915050565b5f6008830261027d7fffffffffffffffffffffffffffffffffffffffffffffffffffffffffffffffff82610242565b6102878683610242565b95508019841693508086168417925050509392505050565b5f819050919050565b5f819050919050565b5f6102cb6102c66102c18461029f565b6102a8565b61029f565b9050919050565b5f819050919050565b6102e4836102b1565b6102f86102f0826102d2565b84845461024e565b825550505050565b5f90565b61030c610300565b6103178184846102db565b505050565b5b8181101561033a5761032f5f82610304565b60018101905061031d565b5050565b601f82111561037f5761035081610221565b61035984610233565b81016020851015610368578190505b61037c61037485610233565b83018261031c565b50505b505050565b5f82821c905092915050565b5f61039f5f1984600802610384565b1980831691505092915050565b5f6103b78383610390565b9150826002028217905092915050565b6103d08261018d565b67ffffffffffffffff8111156103e9576103e8610197565b5b6103f382546101f1565b6103fe82828561033e565b5f60209050601f83116001811461042f575f841561041d578287015190505b61042785826103ac565b86555061048e565b601f19841661043d86610221565b5f5b828110156104645784890151825560018201915060208501945060208101905061043f565b86831015610481578489015161047d601f891682610390565b8355505b6001600288020188555050505b505050505050565b61390d806104a35f395ff3fe608060405234801561000f575f80fd5b5060043610610140575f3560e01c80635420d883116100b657806395d89b411161007a57806395d89b411461039c5780639cb50c9f146103ba578063a22cb465146103ea578063b88d4fde14610406578063c87b56dd14610422578063e985e9c51461045257610140565b80635420d883146102b95780636352211e146102e9578063667cd02d1461031957806370a08231146103355780638df5a9fa1461036557610140565b8063095ea7b311610108578063095ea7b3146101fa5780631e92351c1461021657806323b872dd146102345780633c336b091461025057806342842e0e1461028157806351dfa0cd1461029d57610140565b806301ffc9a71461014457806306381f961461017457806306ceeb301461019057806306fdde03146101ac578063081812fc146101ca575b5f80fd5b61015e60048036038101906101599190612493565b610482565b60405161016b91906124d8565b60405180910390f35b61018e60048036038101906101899190612585565b610563565b005b6101aa60048036038101906101a591906125e2565b6106d7565b005b6101b4610a3b565b6040516101c1919061271c565b60405180910390f35b6101e460048036038101906101df919061273c565b610aca565b6040516101f191906127a6565b60405180910390f35b610214600480360381019061020f91906127e9565b610ae5565b005b61021e610afb565b60405161022b9190612882565b60405180910390f35b61024e6004803603810190610249919061289b565b610b20565b005b61026a600480360381019061026591906128eb565b610c1f565b604051610278929190612938565b60405180910390f35b61029b6004803603810190610296919061289b565b610cdf565b005b6102b760048036038101906102b291906128eb565b610cfe565b005b6102d360048036038101906102ce919061273c565b610dc8565b6040516102e09190612ab2565b60405180910390f35b61030360048036038101906102fe919061273c565b610ece565b60405161031091906127a6565b60405180910390f35b610333600480360381019061032e91906128eb565b610edf565b005b61034f600480360381019061034a9190612ad2565b61106e565b60405161035c9190612afd565b60405180910390f35b61037f600480360381019061037a919061273c565b611124565b604051610393989796959493929190612b16565b60405180910390f35b6103a461129f565b6040516103b1919061271c565b60405180910390f35b6103d460048036038101906103cf919061273c565b61132f565b6040516103e19190612c72565b60405180910390f35b61040460048036038101906103ff9190612cbc565b611571565b005b610420600480360381019061041b9190612e22565b611587565b005b61043c6004803603810190610437919061273c565b6115a4565b604051610449919061271c565b60405180910390f35b61046c60048036038101906104679190612ea2565b61160a565b60405161047991906124d8565b60405180910390f35b5f7f80ac58cd000000000000000000000000000000000000000000000000000000007bffffffffffffffffffffffffffffffffffffffffffffffffffffffff1916827bffffffffffffffffffffffffffffffffffffffffffffffffffffffff1916148061054c57507f5b5e139f000000000000000000000000000000000000000000000000000000007bffffffffffffffffffffffffffffffffffffffffffffffffffffffff1916827bffffffffffffffffffffffffffffffffffffffffffffffffffffffff1916145b8061055c575061055b82611698565b5b9050919050565b3373ffffffffffffffffffffffffffffffffffffffff1661058384610ece565b73ffffffffffffffffffffffffffffffffffffffff16146105d9576040517f08c379a00000000000000000000000000000000000000000000000000000000081526004016105d090612f2a565b60405180910390fd5b5f60085f8581526020019081526020015f2090505f8180549050905081604051806040016040528086868080601f0160208091040260200160405190810160405280939291908181526020018383808284375f81840152601f19601f8201169050808301925050505050505081526020015f815250908060018154018082558091505060019003905f5260205f2090600202015f909190919091505f820151815f0190816106879190613139565b50602082015181600101555050847f54bf1b02f86deb44b4a098f76f847ea08e4460a1650a71fa7f9d03a863a5fe6f8286866040516106c893929190613234565b60405180910390a25050505050565b5f60065f9054906101000a900473ffffffffffffffffffffffffffffffffffffffff1673ffffffffffffffffffffffffffffffffffffffff16636352211e8a6040518263ffffffff1660e01b81526004016107329190612afd565b602060405180830381865afa15801561074d573d5f803e3d5ffd5b505050506040513d601f19601f820116820180604052508101906107719190613278565b90503373ffffffffffffffffffffffffffffffffffffffff168173ffffffffffffffffffffffffffffffffffffffff16146107e1576040517f08c379a00000000000000000000000000000000000000000000000000000000081526004016107d8906132ed565b60405180910390fd5b838311610823576040517f08c379a000000000000000000000000000000000000000000000000000000000815260040161081a9061337b565b60405180910390fd5b5f60095f815480929190610836906133c6565b9190505590506108468282611701565b6040518061010001604052808b81526020018373ffffffffffffffffffffffffffffffffffffffff1681526020018a8a8080601f0160208091040260200160405190810160405280939291908181526020018383808284375f81840152601f19601f82011690508083019250505050505050815260200188888080601f0160208091040260200160405190810160405280939291908181526020018383808284375f81840152601f19601f8201169050808301925050505050505081526020018681526020018581526020018481526020016001151581525060075f8381526020019081526020015f205f820151815f01556020820151816001015f6101000a81548173ffffffffffffffffffffffffffffffffffffffff021916908373ffffffffffffffffffffffffffffffffffffffff16021790555060408201518160020190816109939190613139565b5060608201518160030190816109a99190613139565b506080820151816004015560a0820151816005015560c0820151816006015560e0820151816007015f6101000a81548160ff0219169083151502179055509050508173ffffffffffffffffffffffffffffffffffffffff168a827f1621d8fe2da9c189da8e831ce04c294a3f37281d15b9b3a73472e4476d65655460405160405180910390a450505050505050505050565b60605f8054610a4990612f75565b80601f0160208091040260200160405190810160405280929190818152602001828054610a7590612f75565b8015610ac05780601f10610a9757610100808354040283529160200191610ac0565b820191905f5260205f20905b815481529060010190602001808311610aa357829003601f168201915b5050505050905090565b5f610ad48261171e565b50610ade826117a4565b9050919050565b610af78282610af26117dd565b6117e4565b5050565b60065f9054906101000a900473ffffffffffffffffffffffffffffffffffffffff1681565b5f73ffffffffffffffffffffffffffffffffffffffff168273ffffffffffffffffffffffffffffffffffffffff1603610b90575f6040517f64a0ae92000000000000000000000000000000000000000000000000000000008152600401610b8791906127a6565b60405180910390fd5b5f610ba38383610b9e6117dd565b6117f6565b90508373ffffffffffffffffffffffffffffffffffffffff168173ffffffffffffffffffffffffffffffffffffffff1614610c19578382826040517f64283d7b000000000000000000000000000000000000000000000000000000008152600401610c109392919061340d565b60405180910390fd5b50505050565b6008602052815f5260405f208181548110610c38575f80fd5b905f5260205f2090600202015f9150915050805f018054610c5890612f75565b80601f0160208091040260200160405190810160405280929190818152602001828054610c8490612f75565b8015610ccf5780601f10610ca657610100808354040283529160200191610ccf565b820191905f5260205f20905b815481529060010190602001808311610cb257829003601f168201915b5050505050908060010154905082565b610cf983838360405180602001604052805f815250611587565b505050565b5f60075f8481526020019081526020015f209050806007015f9054906101000a900460ff16610d62576040517f08c379a0000000000000000000000000000000000000000000000000000000008152600401610d599061348c565b60405180910390fd5b8181600601541015610da9576040517f08c379a0000000000000000000000000000000000000000000000000000000008152600401610da0906134f4565b60405180910390fd5b81816006015f828254610dbc9190613512565b92505081905550505050565b606060085f8381526020019081526020015f20805480602002602001604051908101604052809291908181526020015f905b82821015610ec3578382905f5260205f2090600202016040518060400160405290815f82018054610e2a90612f75565b80601f0160208091040260200160405190810160405280929190818152602001828054610e5690612f75565b8015610ea15780601f10610e7857610100808354040283529160200191610ea1565b820191905f5260205f20905b815481529060010190602001808311610e8457829003601f168201915b5050505050815260200160018201548152505081526020019060010190610dfa565b505050509050919050565b5f610ed88261171e565b9050919050565b3373ffffffffffffffffffffffffffffffffffffffff16610eff83610ece565b73ffffffffffffffffffffffffffffffffffffffff1614610f55576040517f08c379a0000000000000000000000000000000000000000000000000000000008152600401610f4c90612f2a565b60405180910390fd5b5f60085f8481526020019081526020015f208281548110610f7957610f78613545565b5b905f5260205f20906002020190505f815f018054610f9690612f75565b905011610fd8576040517f08c379a0000000000000000000000000000000000000000000000000000000008152600401610fcf906135e2565b60405180910390fd5b5f81600101541461101e576040517f08c379a000000000000000000000000000000000000000000000000000000000815260040161101590613670565b60405180910390fd5b428160010181905550827f77fdf4043753439f234d076009504a661c3c69d2fe3abb7f43c43a49fe63641983835f0184600101546040516110619392919061370f565b60405180910390a2505050565b5f8073ffffffffffffffffffffffffffffffffffffffff168273ffffffffffffffffffffffffffffffffffffffff16036110df575f6040517f89c62b640000000000000000000000000000000000000000000000000000000081526004016110d691906127a6565b60405180910390fd5b60035f8373ffffffffffffffffffffffffffffffffffffffff1673ffffffffffffffffffffffffffffffffffffffff1681526020019081526020015f20549050919050565b6007602052805f5260405f205f91509050805f015490806001015f9054906101000a900473ffffffffffffffffffffffffffffffffffffffff169080600201805461116e90612f75565b80601f016020809104026020016040519081016040528092919081815260200182805461119a90612f75565b80156111e55780601f106111bc576101008083540402835291602001916111e5565b820191905f5260205f20905b8154815290600101906020018083116111c857829003601f168201915b5050505050908060030180546111fa90612f75565b80601f016020809104026020016040519081016040528092919081815260200182805461122690612f75565b80156112715780601f1061124857610100808354040283529160200191611271565b820191905f5260205f20905b81548152906001019060200180831161125457829003601f168201915b505050505090806004015490806005015490806006015490806007015f9054906101000a900460ff16905088565b6060600180546112ae90612f75565b80601f01602080910402602001604051908101604052809291908181526020018280546112da90612f75565b80156113255780601f106112fc57610100808354040283529160200191611325565b820191905f5260205f20905b81548152906001019060200180831161130857829003601f168201915b5050505050905090565b6113376123d6565b60075f8381526020019081526020015f206007015f9054906101000a900460ff16611397576040517f08c379a000000000000000000000000000000000000000000000000000000000815260040161138e9061348c565b60405180910390fd5b60075f8381526020019081526020015f20604051806101000160405290815f8201548152602001600182015f9054906101000a900473ffffffffffffffffffffffffffffffffffffffff1673ffffffffffffffffffffffffffffffffffffffff1673ffffffffffffffffffffffffffffffffffffffff16815260200160028201805461142290612f75565b80601f016020809104026020016040519081016040528092919081815260200182805461144e90612f75565b80156114995780601f1061147057610100808354040283529160200191611499565b820191905f5260205f20905b81548152906001019060200180831161147c57829003601f168201915b505050505081526020016003820180546114b290612f75565b80601f01602080910402602001604051908101604052809291908181526020018280546114de90612f75565b80156115295780601f1061150057610100808354040283529160200191611529565b820191905f5260205f20905b81548152906001019060200180831161150c57829003601f168201915b50505050508152602001600482015481526020016005820154815260200160068201548152602001600782015f9054906101000a900460ff1615151515815250509050919050565b61158361157c6117dd565b8383611a01565b5050565b611592848484610b20565b61159e84848484611b6a565b50505050565b60606115af8261171e565b505f6115b9611d1c565b90505f8151116115d75760405180602001604052805f815250611602565b806115e184611d32565b6040516020016115f2929190613785565b6040516020818303038152906040525b915050919050565b5f60055f8473ffffffffffffffffffffffffffffffffffffffff1673ffffffffffffffffffffffffffffffffffffffff1681526020019081526020015f205f8373ffffffffffffffffffffffffffffffffffffffff1673ffffffffffffffffffffffffffffffffffffffff1681526020019081526020015f205f9054906101000a900460ff16905092915050565b5f7f01ffc9a7000000000000000000000000000000000000000000000000000000007bffffffffffffffffffffffffffffffffffffffffffffffffffffffff1916827bffffffffffffffffffffffffffffffffffffffffffffffffffffffff1916149050919050565b61171a828260405180602001604052805f815250611dfc565b5050565b5f8061172983611e17565b90505f73ffffffffffffffffffffffffffffffffffffffff168173ffffffffffffffffffffffffffffffffffffffff160361179b57826040517f7e2732890000000000000000000000000000000000000000000000000000000081526004016117929190612afd565b60405180910390fd5b80915050919050565b5f60045f8381526020019081526020015f205f9054906101000a900473ffffffffffffffffffffffffffffffffffffffff169050919050565b5f33905090565b6117f18383836001611e50565b505050565b5f8061180184611e17565b90505f73ffffffffffffffffffffffffffffffffffffffff168373ffffffffffffffffffffffffffffffffffffffff16146118425761184181848661200f565b5b5f73ffffffffffffffffffffffffffffffffffffffff168173ffffffffffffffffffffffffffffffffffffffff16146118cd576118815f855f80611e50565b600160035f8373ffffffffffffffffffffffffffffffffffffffff1673ffffffffffffffffffffffffffffffffffffffff1681526020019081526020015f205f82825403925050819055505b5f73ffffffffffffffffffffffffffffffffffffffff168573ffffffffffffffffffffffffffffffffffffffff161461194c57600160035f8773ffffffffffffffffffffffffffffffffffffffff1673ffffffffffffffffffffffffffffffffffffffff1681526020019081526020015f205f82825401925050819055505b8460025f8681526020019081526020015f205f6101000a81548173ffffffffffffffffffffffffffffffffffffffff021916908373ffffffffffffffffffffffffffffffffffffffff160217905550838573ffffffffffffffffffffffffffffffffffffffff168273ffffffffffffffffffffffffffffffffffffffff167fddf252ad1be2c89b69c2b068fc378daa952ba7f163c4a11628f55a4df523b3ef60405160405180910390a4809150509392505050565b5f73ffffffffffffffffffffffffffffffffffffffff168273ffffffffffffffffffffffffffffffffffffffff1603611a7157816040517f5b08ba18000000000000000000000000000000000000000000000000000000008152600401611a6891906127a6565b60405180910390fd5b8060055f8573ffffffffffffffffffffffffffffffffffffffff1673ffffffffffffffffffffffffffffffffffffffff1681526020019081526020015f205f8473ffffffffffffffffffffffffffffffffffffffff1673ffffffffffffffffffffffffffffffffffffffff1681526020019081526020015f205f6101000a81548160ff0219169083151502179055508173ffffffffffffffffffffffffffffffffffffffff168373ffffffffffffffffffffffffffffffffffffffff167f17307eab39ab6107e8899845ad3d59bd9653f200f220920489ca2b5937696c3183604051611b5d91906124d8565b60405180910390a3505050565b5f8373ffffffffffffffffffffffffffffffffffffffff163b1115611d16578273ffffffffffffffffffffffffffffffffffffffff1663150b7a02611bad6117dd565b8685856040518563ffffffff1660e01b8152600401611bcf94939291906137fa565b6020604051808303815f875af1925050508015611c0a57506040513d601f19601f82011682018060405250810190611c079190613858565b60015b611c8b573d805f8114611c38576040519150601f19603f3d011682016040523d82523d5f602084013e611c3d565b606091505b505f815103611c8357836040517f64a0ae92000000000000000000000000000000000000000000000000000000008152600401611c7a91906127a6565b60405180910390fd5b805181602001fd5b63150b7a0260e01b7bffffffffffffffffffffffffffffffffffffffffffffffffffffffff1916817bffffffffffffffffffffffffffffffffffffffffffffffffffffffff191614611d1457836040517f64a0ae92000000000000000000000000000000000000000000000000000000008152600401611d0b91906127a6565b60405180910390fd5b505b50505050565b606060405180602001604052805f815250905090565b60605f6001611d40846120d2565b0190505f8167ffffffffffffffff811115611d5e57611d5d612cfe565b5b6040519080825280601f01601f191660200182016040528015611d905781602001600182028036833780820191505090505b5090505f82602001820190505b600115611df1578080600190039150507f3031323334353637383961626364656600000000000000000000000000000000600a86061a8153600a8581611de657611de5613883565b5b0494505f8503611d9d575b819350505050919050565b611e068383612223565b611e125f848484611b6a565b505050565b5f60025f8381526020019081526020015f205f9054906101000a900473ffffffffffffffffffffffffffffffffffffffff169050919050565b8080611e8857505f73ffffffffffffffffffffffffffffffffffffffff168273ffffffffffffffffffffffffffffffffffffffff1614155b15611fba575f611e978461171e565b90505f73ffffffffffffffffffffffffffffffffffffffff168373ffffffffffffffffffffffffffffffffffffffff1614158015611f0157508273ffffffffffffffffffffffffffffffffffffffff168173ffffffffffffffffffffffffffffffffffffffff1614155b8015611f145750611f12818461160a565b155b15611f5657826040517fa9fbf51f000000000000000000000000000000000000000000000000000000008152600401611f4d91906127a6565b60405180910390fd5b8115611fb857838573ffffffffffffffffffffffffffffffffffffffff168273ffffffffffffffffffffffffffffffffffffffff167f8c5be1e5ebec7d5bd14f71427d1e84f3dd0314c0f7b2291e5b200ac8c7c3b92560405160405180910390a45b505b8360045f8581526020019081526020015f205f6101000a81548173ffffffffffffffffffffffffffffffffffffffff021916908373ffffffffffffffffffffffffffffffffffffffff16021790555050505050565b61201a838383612316565b6120cd575f73ffffffffffffffffffffffffffffffffffffffff168373ffffffffffffffffffffffffffffffffffffffff160361208e57806040517f7e2732890000000000000000000000000000000000000000000000000000000081526004016120859190612afd565b60405180910390fd5b81816040517f177e802f0000000000000000000000000000000000000000000000000000000081526004016120c49291906138b0565b60405180910390fd5b505050565b5f805f90507a184f03e93ff9f4daa797ed6e38ed64bf6a1f010000000000000000831061212e577a184f03e93ff9f4daa797ed6e38ed64bf6a1f010000000000000000838161212457612123613883565b5b0492506040810190505b6d04ee2d6d415b85acef8100000000831061216b576d04ee2d6d415b85acef8100000000838161216157612160613883565b5b0492506020810190505b662386f26fc10000831061219a57662386f26fc1000083816121905761218f613883565b5b0492506010810190505b6305f5e10083106121c3576305f5e10083816121b9576121b8613883565b5b0492506008810190505b61271083106121e85761271083816121de576121dd613883565b5b0492506004810190505b6064831061220b576064838161220157612200613883565b5b0492506002810190505b600a831061221a576001810190505b80915050919050565b5f73ffffffffffffffffffffffffffffffffffffffff168273ffffffffffffffffffffffffffffffffffffffff1603612293575f6040517f64a0ae9200000000000000000000000000000000000000000000000000000000815260040161228a91906127a6565b60405180910390fd5b5f61229f83835f6117f6565b90505f73ffffffffffffffffffffffffffffffffffffffff168173ffffffffffffffffffffffffffffffffffffffff1614612311575f6040517f73c6ac6e00000000000000000000000000000000000000000000000000000000815260040161230891906127a6565b60405180910390fd5b505050565b5f8073ffffffffffffffffffffffffffffffffffffffff168373ffffffffffffffffffffffffffffffffffffffff16141580156123cd57508273ffffffffffffffffffffffffffffffffffffffff168473ffffffffffffffffffffffffffffffffffffffff16148061238e575061238d848461160a565b5b806123cc57508273ffffffffffffffffffffffffffffffffffffffff166123b4836117a4565b73ffffffffffffffffffffffffffffffffffffffff16145b5b90509392505050565b6040518061010001604052805f81526020015f73ffffffffffffffffffffffffffffffffffffffff16815260200160608152602001606081526020015f81526020015f81526020015f81526020015f151581525090565b5f604051905090565b5f80fd5b5f80fd5b5f7fffffffff0000000000000000000000000000000000000000000000000000000082169050919050565b6124728161243e565b811461247c575f80fd5b50565b5f8135905061248d81612469565b92915050565b5f602082840312156124a8576124a7612436565b5b5f6124b58482850161247f565b91505092915050565b5f8115159050919050565b6124d2816124be565b82525050565b5f6020820190506124eb5f8301846124c9565b92915050565b5f819050919050565b612503816124f1565b811461250d575f80fd5b50565b5f8135905061251e816124fa565b92915050565b5f80fd5b5f80fd5b5f80fd5b5f8083601f84011261254557612544612524565b5b8235905067ffffffffffffffff81111561256257612561612528565b5b60208301915083600182028301111561257e5761257d61252c565b5b9250929050565b5f805f6040848603121561259c5761259b612436565b5b5f6125a986828701612510565b935050602084013567ffffffffffffffff8111156125ca576125c961243a565b5b6125d686828701612530565b92509250509250925092565b5f805f805f805f8060c0898b0312156125fe576125fd612436565b5b5f61260b8b828c01612510565b985050602089013567ffffffffffffffff81111561262c5761262b61243a565b5b6126388b828c01612530565b9750975050604089013567ffffffffffffffff81111561265b5761265a61243a565b5b6126678b828c01612530565b9550955050606061267a8b828c01612510565b935050608061268b8b828c01612510565b92505060a061269c8b828c01612510565b9150509295985092959890939650565b5f81519050919050565b5f82825260208201905092915050565b8281835e5f83830152505050565b5f601f19601f8301169050919050565b5f6126ee826126ac565b6126f881856126b6565b93506127088185602086016126c6565b612711816126d4565b840191505092915050565b5f6020820190508181035f83015261273481846126e4565b905092915050565b5f6020828403121561275157612750612436565b5b5f61275e84828501612510565b91505092915050565b5f73ffffffffffffffffffffffffffffffffffffffff82169050919050565b5f61279082612767565b9050919050565b6127a081612786565b82525050565b5f6020820190506127b95f830184612797565b92915050565b6127c881612786565b81146127d2575f80fd5b50565b5f813590506127e3816127bf565b92915050565b5f80604083850312156127ff576127fe612436565b5b5f61280c858286016127d5565b925050602061281d85828601612510565b9150509250929050565b5f819050919050565b5f61284a61284561284084612767565b612827565b612767565b9050919050565b5f61285b82612830565b9050919050565b5f61286c82612851565b9050919050565b61287c81612862565b82525050565b5f6020820190506128955f830184612873565b92915050565b5f805f606084860312156128b2576128b1612436565b5b5f6128bf868287016127d5565b93505060206128d0868287016127d5565b92505060406128e186828701612510565b9150509250925092565b5f806040838503121561290157612900612436565b5b5f61290e85828601612510565b925050602061291f85828601612510565b9150509250929050565b612932816124f1565b82525050565b5f6040820190508181035f83015261295081856126e4565b905061295f6020830184612929565b9392505050565b5f81519050919050565b5f82825260208201905092915050565b5f819050602082019050919050565b5f82825260208201905092915050565b5f6129a9826126ac565b6129b3818561298f565b93506129c38185602086016126c6565b6129cc816126d4565b840191505092915050565b6129e0816124f1565b82525050565b5f604083015f8301518482035f860152612a00828261299f565b9150506020830151612a1560208601826129d7565b508091505092915050565b5f612a2b83836129e6565b905092915050565b5f602082019050919050565b5f612a4982612966565b612a538185612970565b935083602082028501612a6585612980565b805f5b85811015612aa05784840389528151612a818582612a20565b9450612a8c83612a33565b925060208a01995050600181019050612a68565b50829750879550505050505092915050565b5f6020820190508181035f830152612aca8184612a3f565b905092915050565b5f60208284031215612ae757612ae6612436565b5b5f612af4848285016127d5565b91505092915050565b5f602082019050612b105f830184612929565b92915050565b5f61010082019050612b2a5f83018b612929565b612b37602083018a612797565b8181036040830152612b4981896126e4565b90508181036060830152612b5d81886126e4565b9050612b6c6080830187612929565b612b7960a0830186612929565b612b8660c0830185612929565b612b9360e08301846124c9565b9998505050505050505050565b612ba981612786565b82525050565b612bb8816124be565b82525050565b5f61010083015f830151612bd45f8601826129d7565b506020830151612be76020860182612ba0565b5060408301518482036040860152612bff828261299f565b91505060608301518482036060860152612c19828261299f565b9150506080830151612c2e60808601826129d7565b5060a0830151612c4160a08601826129d7565b5060c0830151612c5460c08601826129d7565b5060e0830151612c6760e0860182612baf565b508091505092915050565b5f6020820190508181035f830152612c8a8184612bbe565b905092915050565b612c9b816124be565b8114612ca5575f80fd5b50565b5f81359050612cb681612c92565b92915050565b5f8060408385031215612cd257612cd1612436565b5b5f612cdf858286016127d5565b9250506020612cf085828601612ca8565b9150509250929050565b5f80fd5b7f4e487b71000000000000000000000000000000000000000000000000000000005f52604160045260245ffd5b612d34826126d4565b810181811067ffffffffffffffff82111715612d5357612d52612cfe565b5b80604052505050565b5f612d6561242d565b9050612d718282612d2b565b919050565b5f67ffffffffffffffff821115612d9057612d8f612cfe565b5b612d99826126d4565b9050602081019050919050565b828183375f83830152505050565b5f612dc6612dc184612d76565b612d5c565b905082815260208101848484011115612de257612de1612cfa565b5b612ded848285612da6565b509392505050565b5f82601f830112612e0957612e08612524565b5b8135612e19848260208601612db4565b91505092915050565b5f805f8060808587031215612e3a57612e39612436565b5b5f612e47878288016127d5565b9450506020612e58878288016127d5565b9350506040612e6987828801612510565b925050606085013567ffffffffffffffff811115612e8a57612e8961243a565b5b612e9687828801612df5565b91505092959194509250565b5f8060408385031215612eb857612eb7612436565b5b5f612ec5858286016127d5565b9250506020612ed6858286016127d5565b9150509250929050565b7f4a4e46543a204e6f7420746865206a6f75726e6579206f776e657200000000005f82015250565b5f612f14601b836126b6565b9150612f1f82612ee0565b602082019050919050565b5f6020820190508181035f830152612f4181612f08565b9050919050565b7f4e487b71000000000000000000000000000000000000000000000000000000005f52602260045260245ffd5b5f6002820490506001821680612f8c57607f821691505b602082108103612f9f57612f9e612f48565b5b50919050565b5f819050815f5260205f209050919050565b5f6020601f8301049050919050565b5f82821b905092915050565b5f600883026130017fffffffffffffffffffffffffffffffffffffffffffffffffffffffffffffffff82612fc6565b61300b8683612fc6565b95508019841693508086168417925050509392505050565b5f61303d613038613033846124f1565b612827565b6124f1565b9050919050565b5f819050919050565b61305683613023565b61306a61306282613044565b848454612fd2565b825550505050565b5f90565b61307e613072565b61308981848461304d565b505050565b5b818110156130ac576130a15f82613076565b60018101905061308f565b5050565b601f8211156130f1576130c281612fa5565b6130cb84612fb7565b810160208510156130da578190505b6130ee6130e685612fb7565b83018261308e565b50505b505050565b5f82821c905092915050565b5f6131115f19846008026130f6565b1980831691505092915050565b5f6131298383613102565b9150826002028217905092915050565b613142826126ac565b67ffffffffffffffff81111561315b5761315a612cfe565b5b6131658254612f75565b6131708282856130b0565b5f60209050601f8311600181146131a1575f841561318f578287015190505b613199858261311e565b865550613200565b601f1984166131af86612fa5565b5f5b828110156131d6578489015182556001820191506020850194506020810190506131b1565b868310156131f357848901516131ef601f891682613102565b8355505b6001600288020188555050505b505050505050565b5f61321383856126b6565b9350613220838584612da6565b613229836126d4565b840190509392505050565b5f6040820190506132475f830186612929565b818103602083015261325a818486613208565b9050949350505050565b5f81519050613272816127bf565b92915050565b5f6020828403121561328d5761328c612436565b5b5f61329a84828501613264565b91505092915050565b7f4a4e46543a204e6f74207468652076657373656c206f776e65720000000000005f82015250565b5f6132d7601a836126b6565b91506132e2826132a3565b602082019050919050565b5f6020820190508181035f830152613304816132cb565b9050919050565b7f4a4e46543a204172726976616c206d75737420626520616674657220646570615f8201527f7274757265000000000000000000000000000000000000000000000000000000602082015250565b5f6133656025836126b6565b91506133708261330b565b604082019050919050565b5f6020820190508181035f83015261339281613359565b9050919050565b7f4e487b71000000000000000000000000000000000000000000000000000000005f52601160045260245ffd5b5f6133d0826124f1565b91507fffffffffffffffffffffffffffffffffffffffffffffffffffffffffffffffff820361340257613401613399565b5b600182019050919050565b5f6060820190506134205f830186612797565b61342d6020830185612929565b61343a6040830184612797565b949350505050565b7f4a4e46543a204a6f75726e657920646f6573206e6f74206578697374000000005f82015250565b5f613476601c836126b6565b915061348182613442565b602082019050919050565b5f6020820190508181035f8301526134a38161346a565b9050919050565b7f4a4e46543a20496e73756666696369656e7420636170616369747900000000005f82015250565b5f6134de601b836126b6565b91506134e9826134aa565b602082019050919050565b5f6020820190508181035f83015261350b816134d2565b9050919050565b5f61351c826124f1565b9150613527836124f1565b925082820390508181111561353f5761353e613399565b5b92915050565b7f4e487b71000000000000000000000000000000000000000000000000000000005f52603260045260245ffd5b7f4a4e46543a2053746f7020646f6573206e6f7420657869737420696e207468655f8201527f20726f7574650000000000000000000000000000000000000000000000000000602082015250565b5f6135cc6026836126b6565b91506135d782613572565b604082019050919050565b5f6020820190508181035f8301526135f9816135c0565b9050919050565b7f4a4e46543a204172726976616c20617420746869732073746f7020616c7265615f8201527f6479206c6f676765640000000000000000000000000000000000000000000000602082015250565b5f61365a6029836126b6565b915061366582613600565b604082019050919050565b5f6020820190508181035f8301526136878161364e565b9050919050565b5f815461369a81612f75565b6136a481866126b6565b9450600182165f81146136be57600181146136d457613706565b60ff198316865281151560200286019350613706565b6136dd85612fa5565b5f5b838110156136fe578154818901526001820191506020810190506136df565b808801955050505b50505092915050565b5f6060820190506137225f830186612929565b8181036020830152613734818561368e565b90506137436040830184612929565b949350505050565b5f81905092915050565b5f61375f826126ac565b613769818561374b565b93506137798185602086016126c6565b80840191505092915050565b5f6137908285613755565b915061379c8284613755565b91508190509392505050565b5f81519050919050565b5f82825260208201905092915050565b5f6137cc826137a8565b6137d681856137b2565b93506137e68185602086016126c6565b6137ef816126d4565b840191505092915050565b5f60808201905061380d5f830187612797565b61381a6020830186612797565b6138276040830185612929565b818103606083015261383981846137c2565b905095945050505050565b5f8151905061385281612469565b92915050565b5f6020828403121561386d5761386c612436565b5b5f61387a84828501613844565b91505092915050565b7f4e487b71000000000000000000000000000000000000000000000000000000005f52601260045260245ffd5b5f6040820190506138c35f830185612797565b6138d06020830184612929565b939250505056fea26469706673582212206c5f79f6bcc8c6cb158c8b4c85a6d78d124f9c2658f1c73d1117dee2e30111f264736f6c634300081a0033",
    "linkReferences": {}
  },
  "methodIdentifiers": {
    "addStopToRoute(uint256,string)": "06381f96",
    "approve(address,uint256)": "095ea7b3",
    "arriveAtStop(uint256,uint256)": "667cd02d",
    "balanceOf(address)": "70a08231",
    "decreaseJourneyCapacity(uint256,uint256)": "51dfa0cd",
    "getApproved(uint256)": "081812fc",
    "getJourneyDetails(uint256)": "9cb50c9f",
    "getJourneyRoute(uint256)": "5420d883",
    "isApprovedForAll(address,address)": "e985e9c5",
    "journeyRoute(uint256,uint256)": "3c336b09",
    "journeys(uint256)": "8df5a9fa",
    "mintJourney(uint256,string,string,uint256,uint256,uint256)": "06ceeb30",
    "name()": "06fdde03",
    "ownerOf(uint256)": "6352211e",
    "safeTransferFrom(address,address,uint256)": "42842e0e",
    "safeTransferFrom(address,address,uint256,bytes)": "b88d4fde",
    "setApprovalForAll(address,bool)": "a22cb465",
    "supportsInterface(bytes4)": "01ffc9a7",
    "symbol()": "95d89b41",
    "tokenURI(uint256)": "c87b56dd",
    "transferFrom(address,address,uint256)": "23b872dd",
    "vesselNFT()": "1e92351c"
  },
  "id": 31
}