{
  "abi": [
    {
      "type": "constructor",
      "inputs": [],
      "stateMutability": "nonpayable"
    },
    {
      "type": "function",
      "name": "approve",
      "inputs": [
        {
          "name": "to",
          "type": "address",
          "internalType": "address"
        },
        {
          "name": "tokenId",
          "type": "uint256",
          "internalType": "uint256"
        }
      ],
      "outputs": [],
      "stateMutability": "nonpayable"
    },
    {
      "type": "function",
      "name": "balanceOf",
      "inputs": [
        {
          "name": "owner",
          "type": "address",
          "internalType": "address"
        }
      ],
      "outputs": [
        {
          "name": "",
          "type": "uint256",
          "internalType": "uint256"
        }
      ],
      "stateMutability": "view"
    },
    {
      "type": "function",
      "name": "getApproved",
      "inputs": [
        {
          "name": "tokenId",
          "type": "uint256",
          "internalType": "uint256"
        }
      ],
      "outputs": [
        {
          "name": "",
          "type": "address",
          "internalType": "address"
        }
      ],
      "stateMutability": "view"
    },
    {
      "type": "function",
      "name": "isApprovedForAll",
      "inputs": [
        {
          "name": "owner",
          "type": "address",
          "internalType": "address"
        },
        {
          "name": "operator",
          "type": "address",
          "internalType": "address"
        }
      ],
      "outputs": [
        {
          "name": "",
          "type": "bool",
          "internalType": "bool"
        }
      ],
      "stateMutability": "view"
    },
    {
      "type": "function",
      "name": "mintVessel",
      "inputs": [
        {
          "name": "owner",
          "type": "address",
          "internalType": "address"
        },
        {
          "name": "name",
          "type": "string",
          "internalType": "string"
        },
        {
          "name": "imoNumber",
          "type": "string",
          "internalType": "string"
        },
        {
          "name": "capacity",
          "type": "uint256",
          "internalType": "uint256"
        }
      ],
      "outputs": [],
      "stateMutability": "nonpayable"
    },
    {
      "type": "function",
      "name": "name",
      "inputs": [],
      "outputs": [
        {
          "name": "",
          "type": "string",
          "internalType": "string"
        }
      ],
      "stateMutability": "view"
    },
    {
      "type": "function",
      "name": "ownerOf",
      "inputs": [
        {
          "name": "tokenId",
          "type": "uint256",
          "internalType": "uint256"
        }
      ],
      "outputs": [
        {
          "name": "",
          "type": "address",
          "internalType": "address"
        }
      ],
      "stateMutability": "view"
    },
    {
      "type": "function",
      "name": "safeTransferFrom",
      "inputs": [
        {
          "name": "from",
          "type": "address",
          "internalType": "address"
        },
        {
          "name": "to",
          "type": "address",
          "internalType": "address"
        },
        {
          "name": "tokenId",
          "type": "uint256",
          "internalType": "uint256"
        }
      ],
      "outputs": [],
      "stateMutability": "nonpayable"
    },
    {
      "type": "function",
      "name": "safeTransferFrom",
      "inputs": [
        {
          "name": "from",
          "type": "address",
          "internalType": "address"
        },
        {
          "name": "to",
          "type": "address",
          "internalType": "address"
        },
        {
          "name": "tokenId",
          "type": "uint256",
          "internalType": "uint256"
        },
        {
          "name": "data",
          "type": "bytes",
          "internalType": "bytes"
        }
      ],
      "outputs": [],
      "stateMutability": "nonpayable"
    },
    {
      "type": "function",
      "name": "setApprovalForAll",
      "inputs": [
        {
          "name": "operator",
          "type": "address",
          "internalType": "address"
        },
        {
          "name": "approved",
          "type": "bool",
          "internalType": "bool"
        }
      ],
      "outputs": [],
      "stateMutability": "nonpayable"
    },
    {
      "type": "function",
      "name": "supportsInterface",
      "inputs": [
        {
          "name": "interfaceId",
          "type": "bytes4",
          "internalType": "bytes4"
        }
      ],
      "outputs": [
        {
          "name": "",
          "type": "bool",
          "internalType": "bool"
        }
      ],
      "stateMutability": "view"
    },
    {
      "type": "function",
      "name": "symbol",
      "inputs": [],
      "outputs": [
        {
          "name": "",
          "type": "string",
          "internalType": "string"
        }
      ],
      "stateMutability": "view"
    },
    {
      "type": "function",
      "name": "tokenURI",
      "inputs": [
        {
          "name": "tokenId",
          "type": "uint256",
          "internalType": "uint256"
        }
      ],
      "outputs": [
        {
          "name": "",
          "type": "string",
          "internalType": "string"
        }
      ],
      "stateMutability": "view"
    },
    {
      "type": "function",
      "name": "transferFrom",
      "inputs": [
        {
          "name": "from",
          "type": "address",
          "internalType": "address"
        },
        {
          "name": "to",
          "type": "address",
          "internalType": "address"
        },
        {
          "name": "tokenId",
          "type": "uint256",
          "internalType": "uint256"
        }
      ],
      "outputs": [],
      "stateMutability": "nonpayable"
    },
    {
      "type": "function",
      "name": "vesselDetails",
      "inputs": [
        {
          "name": "",
          "type": "uint256",
          "internalType": "uint256"
        }
      ],
      "outputs": [
        {
          "name": "name",
          "type": "string",
          "internalType": "string"
        },
        {
          "name": "imoNumber",
          "type": "string",
          "internalType": "string"
        },
        {
          "name": "capacity",
          "type": "uint256",
          "internalType": "uint256"
        }
      ],
      "stateMutability": "view"
    },
    {
      "type": "event",
      "name": "Approval",
      "inputs": [
        {
          "name": "owner",
          "type": "address",
          "indexed": true,
          "internalType": "address"
        },
        {
          "name": "approved",
          "type": "address",
          "indexed": true,
          "internalType": "address"
        },
        {
          "name": "tokenId",
          "type": "uint256",
          "indexed": true,
          "internalType": "uint256"
        }
      ],
      "anonymous": false
    },
    {
      "type": "event",
      "name": "ApprovalForAll",
      "inputs": [
        {
          "name": "owner",
          "type": "address",
          "indexed": true,
          "internalType": "address"
        },
        {
          "name": "operator",
          "type": "address",
          "indexed": true,
          "internalType": "address"
        },
        {
          "name": "approved",
          "type": "bool",
          "indexed": false,
          "internalType": "bool"
        }
      ],
      "anonymous": false
    },
    {
      "type": "event",
      "name": "Transfer",
      "inputs": [
        {
          "name": "from",
          "type": "address",
          "indexed": true,
          "internalType": "address"
        },
        {
          "name": "to",
          "type": "address",
          "indexed": true,
          "internalType": "address"
        },
        {
          "name": "tokenId",
          "type": "uint256",
          "indexed": true,
          "internalType": "uint256"
        }
      ],
      "anonymous": false
    },
    {
      "type": "event",
      "name": "VesselMinted",
      "inputs": [
        {
          "name": "tokenId",
          "type": "uint256",
          "indexed": true,
          "internalType": "uint256"
        },
        {
          "name": "owner",
          "type": "address",
          "indexed": true,
          "internalType": "address"
        },
        {
          "name": "name",
          "type": "string",
          "indexed": false,
          "internalType": "string"
        },
        {
          "name": "capacity",
          "type": "uint256",
          "indexed": false,
          "internalType": "uint256"
        }
      ],
      "anonymous": false
    },
    {
      "type": "error",
      "name": "ERC721IncorrectOwner",
      "inputs": [
        {
          "name": "sender",
          "type": "address",
          "internalType": "address"
        },
        {
          "name": "tokenId",
          "type": "uint256",
          "internalType": "uint256"
        },
        {
          "name": "owner",
          "type": "address",
          "internalType": "address"
        }
      ]
    },
    {
      "type": "error",
      "name": "ERC721InsufficientApproval",
      "inputs": [
        {
          "name": "operator",
          "type": "address",
          "internalType": "address"
        },
        {
          "name": "tokenId",
          "type": "uint256",
          "internalType": "uint256"
        }
      ]
    },
    {
      "type": "error",
      "name": "ERC721InvalidApprover",
      "inputs": [
        {
          "name": "approver",
          "type": "address",
          "internalType": "address"
        }
      ]
    },
    {
      "type": "error",
      "name": "ERC721InvalidOperator",
      "inputs": [
        {
          "name": "operator",
          "type": "address",
          "internalType": "address"
        }
      ]
    },
    {
      "type": "error",
      "name": "ERC721InvalidOwner",
      "inputs": [
        {
          "name": "owner",
          "type": "address",
          "internalType": "address"
        }
      ]
    },
    {
      "type": "error",
      "name": "ERC721InvalidReceiver",
      "inputs": [
        {
          "name": "receiver",
          "type": "address",
          "internalType": "address"
        }
      ]
    },
    {
      "type": "error",
      "name": "ERC721InvalidSender",
      "inputs": [
        {
          "name": "sender",
          "type": "address",
          "internalType": "address"
        }
      ]
    },
    {
      "type": "error",
      "name": "ERC721NonexistentToken",
      "inputs": [
        {
          "name": "tokenId",
          "type": "uint256",
          "internalType": "uint256"
        }
      ]
    }
  ],
  "bytecode": {
    "object": "0x608060405234801561000f575f80fd5b506040518060400160405280601381526020017f5368697042726f6b657261676556657373656c000000000000000000000000008152506040518060400160405280600381526020017f5342560000000000000000000000000000000000000000000000000000000000815250815f908161008a91906102dc565b50806001908161009a91906102dc565b5050506103ab565b5f81519050919050565b7f4e487b71000000000000000000000000000000000000000000000000000000005f52604160045260245ffd5b7f4e487b71000000000000000000000000000000000000000000000000000000005f52602260045260245ffd5b5f600282049050600182168061011d57607f821691505b6020821081036101305761012f6100d9565b5b50919050565b5f819050815f5260205f209050919050565b5f6020601f8301049050919050565b5f82821b905092915050565b5f600883026101927fffffffffffffffffffffffffffffffffffffffffffffffffffffffffffffffff82610157565b61019c8683610157565b95508019841693508086168417925050509392505050565b5f819050919050565b5f819050919050565b5f6101e06101db6101d6846101b4565b6101bd565b6101b4565b9050919050565b5f819050919050565b6101f9836101c6565b61020d610205826101e7565b848454610163565b825550505050565b5f90565b610221610215565b61022c8184846101f0565b505050565b5b8181101561024f576102445f82610219565b600181019050610232565b5050565b601f8211156102945761026581610136565b61026e84610148565b8101602085101561027d578190505b61029161028985610148565b830182610231565b50505b505050565b5f82821c905092915050565b5f6102b45f1984600802610299565b1980831691505092915050565b5f6102cc83836102a5565b9150826002028217905092915050565b6102e5826100a2565b67ffffffffffffffff8111156102fe576102fd6100ac565b5b6103088254610106565b610313828285610253565b5f60209050601f831160018114610344575f8415610332578287015190505b61033c85826102c1565b8655506103a3565b601f19841661035286610136565b5f5b8281101561037957848901518255600182019150602085019450602081019050610354565b868310156103965784890151610392601f8916826102a5565b8355505b6001600288020188555050505b505050505050565b612480806103b85f395ff3fe608060405234801561000f575f80fd5b50600436106100f3575f3560e01c806370a0823111610095578063b88d4fde11610064578063b88d4fde1461027f578063c87b56dd1461029b578063e985e9c5146102cb578063ed1fee11146102fb576100f3565b806370a08231146101f957806395d89b41146102295780639fb1b7f414610247578063a22cb46514610263576100f3565b8063095ea7b3116100d1578063095ea7b31461017557806323b872dd1461019157806342842e0e146101ad5780636352211e146101c9576100f3565b806301ffc9a7146100f757806306fdde0314610127578063081812fc14610145575b5f80fd5b610111600480360381019061010c91906118ac565b61032d565b60405161011e91906118f1565b60405180910390f35b61012f61040e565b60405161013c919061197a565b60405180910390f35b61015f600480360381019061015a91906119cd565b61049d565b60405161016c9190611a37565b60405180910390f35b61018f600480360381019061018a9190611a7a565b6104b8565b005b6101ab60048036038101906101a69190611ab8565b6104ce565b005b6101c760048036038101906101c29190611ab8565b6105cd565b005b6101e360048036038101906101de91906119cd565b6105ec565b6040516101f09190611a37565b60405180910390f35b610213600480360381019061020e9190611b08565b6105fd565b6040516102209190611b42565b60405180910390f35b6102316106b3565b60405161023e919061197a565b60405180910390f35b610261600480360381019061025c9190611bbc565b610743565b005b61027d60048036038101906102789190611c89565b6108af565b005b61029960048036038101906102949190611def565b6108c5565b005b6102b560048036038101906102b091906119cd565b6108e2565b6040516102c2919061197a565b60405180910390f35b6102e560048036038101906102e09190611e6f565b610948565b6040516102f291906118f1565b60405180910390f35b610315600480360381019061031091906119cd565b6109d6565b60405161032493929190611ead565b60405180910390f35b5f7f80ac58cd000000000000000000000000000000000000000000000000000000007bffffffffffffffffffffffffffffffffffffffffffffffffffffffff1916827bffffffffffffffffffffffffffffffffffffffffffffffffffffffff191614806103f757507f5b5e139f000000000000000000000000000000000000000000000000000000007bffffffffffffffffffffffffffffffffffffffffffffffffffffffff1916827bffffffffffffffffffffffffffffffffffffffffffffffffffffffff1916145b80610407575061040682610b08565b5b9050919050565b60605f805461041c90611f1d565b80601f016020809104026020016040519081016040528092919081815260200182805461044890611f1d565b80156104935780601f1061046a57610100808354040283529160200191610493565b820191905f5260205f20905b81548152906001019060200180831161047657829003601f168201915b5050505050905090565b5f6104a782610b71565b506104b182610bf7565b9050919050565b6104ca82826104c5610c30565b610c37565b5050565b5f73ffffffffffffffffffffffffffffffffffffffff168273ffffffffffffffffffffffffffffffffffffffff160361053e575f6040517f64a0ae920000000000000000000000000000000000000000000000000000000081526004016105359190611a37565b60405180910390fd5b5f610551838361054c610c30565b610c49565b90508373ffffffffffffffffffffffffffffffffffffffff168173ffffffffffffffffffffffffffffffffffffffff16146105c7578382826040517f64283d7b0000000000000000000000000000000000000000000000000000000081526004016105be93929190611f4d565b60405180910390fd5b50505050565b6105e783838360405180602001604052805f8152506108c5565b505050565b5f6105f682610b71565b9050919050565b5f8073ffffffffffffffffffffffffffffffffffffffff168273ffffffffffffffffffffffffffffffffffffffff160361066e575f6040517f89c62b640000000000000000000000000000000000000000000000000000000081526004016106659190611a37565b60405180910390fd5b60035f8373ffffffffffffffffffffffffffffffffffffffff1673ffffffffffffffffffffffffffffffffffffffff1681526020019081526020015f20549050919050565b6060600180546106c290611f1d565b80601f01602080910402602001604051908101604052809291908181526020018280546106ee90611f1d565b80156107395780601f1061071057610100808354040283529160200191610739565b820191905f5260205f20905b81548152906001019060200180831161071c57829003601f168201915b5050505050905090565b5f60065490506107538782610e54565b604051806060016040528087878080601f0160208091040260200160405190810160405280939291908181526020018383808284375f81840152601f19601f82011690508083019250505050505050815260200185858080601f0160208091040260200160405190810160405280939291908181526020018383808284375f81840152601f19601f8201169050808301925050505050505081526020018381525060075f8381526020019081526020015f205f820151815f019081610818919061211f565b50602082015181600101908161082e919061211f565b506040820151816002015590505060065f81548092919061084e9061221b565b91905055508673ffffffffffffffffffffffffffffffffffffffff16817fbf91f913bb7d3fb775ad03dd22e800b52285bc6adaa6518eded787781793615788888660405161089e9392919061228e565b60405180910390a350505050505050565b6108c16108ba610c30565b8383610e71565b5050565b6108d08484846104ce565b6108dc84848484610fda565b50505050565b60606108ed82610b71565b505f6108f761118c565b90505f8151116109155760405180602001604052805f815250610940565b8061091f846111a2565b6040516020016109309291906122f8565b6040516020818303038152906040525b915050919050565b5f60055f8473ffffffffffffffffffffffffffffffffffffffff1673ffffffffffffffffffffffffffffffffffffffff1681526020019081526020015f205f8373ffffffffffffffffffffffffffffffffffffffff1673ffffffffffffffffffffffffffffffffffffffff1681526020019081526020015f205f9054906101000a900460ff16905092915050565b6007602052805f5260405f205f91509050805f0180546109f590611f1d565b80601f0160208091040260200160405190810160405280929190818152602001828054610a2190611f1d565b8015610a6c5780601f10610a4357610100808354040283529160200191610a6c565b820191905f5260205f20905b815481529060010190602001808311610a4f57829003601f168201915b505050505090806001018054610a8190611f1d565b80601f0160208091040260200160405190810160405280929190818152602001828054610aad90611f1d565b8015610af85780601f10610acf57610100808354040283529160200191610af8565b820191905f5260205f20905b815481529060010190602001808311610adb57829003601f168201915b5050505050908060020154905083565b5f7f01ffc9a7000000000000000000000000000000000000000000000000000000007bffffffffffffffffffffffffffffffffffffffffffffffffffffffff1916827bffffffffffffffffffffffffffffffffffffffffffffffffffffffff1916149050919050565b5f80610b7c8361126c565b90505f73ffffffffffffffffffffffffffffffffffffffff168173ffffffffffffffffffffffffffffffffffffffff1603610bee57826040517f7e273289000000000000000000000000000000000000000000000000000000008152600401610be59190611b42565b60405180910390fd5b80915050919050565b5f60045f8381526020019081526020015f205f9054906101000a900473ffffffffffffffffffffffffffffffffffffffff169050919050565b5f33905090565b610c4483838360016112a5565b505050565b5f80610c548461126c565b90505f73ffffffffffffffffffffffffffffffffffffffff168373ffffffffffffffffffffffffffffffffffffffff1614610c9557610c94818486611464565b5b5f73ffffffffffffffffffffffffffffffffffffffff168173ffffffffffffffffffffffffffffffffffffffff1614610d2057610cd45f855f806112a5565b600160035f8373ffffffffffffffffffffffffffffffffffffffff1673ffffffffffffffffffffffffffffffffffffffff1681526020019081526020015f205f82825403925050819055505b5f73ffffffffffffffffffffffffffffffffffffffff168573ffffffffffffffffffffffffffffffffffffffff1614610d9f57600160035f8773ffffffffffffffffffffffffffffffffffffffff1673ffffffffffffffffffffffffffffffffffffffff1681526020019081526020015f205f82825401925050819055505b8460025f8681526020019081526020015f205f6101000a81548173ffffffffffffffffffffffffffffffffffffffff021916908373ffffffffffffffffffffffffffffffffffffffff160217905550838573ffffffffffffffffffffffffffffffffffffffff168273ffffffffffffffffffffffffffffffffffffffff167fddf252ad1be2c89b69c2b068fc378daa952ba7f163c4a11628f55a4df523b3ef60405160405180910390a4809150509392505050565b610e6d828260405180602001604052805f815250611527565b5050565b5f73ffffffffffffffffffffffffffffffffffffffff168273ffffffffffffffffffffffffffffffffffffffff1603610ee157816040517f5b08ba18000000000000000000000000000000000000000000000000000000008152600401610ed89190611a37565b60405180910390fd5b8060055f8573ffffffffffffffffffffffffffffffffffffffff1673ffffffffffffffffffffffffffffffffffffffff1681526020019081526020015f205f8473ffffffffffffffffffffffffffffffffffffffff1673ffffffffffffffffffffffffffffffffffffffff1681526020019081526020015f205f6101000a81548160ff0219169083151502179055508173ffffffffffffffffffffffffffffffffffffffff168373ffffffffffffffffffffffffffffffffffffffff167f17307eab39ab6107e8899845ad3d59bd9653f200f220920489ca2b5937696c3183604051610fcd91906118f1565b60405180910390a3505050565b5f8373ffffffffffffffffffffffffffffffffffffffff163b1115611186578273ffffffffffffffffffffffffffffffffffffffff1663150b7a0261101d610c30565b8685856040518563ffffffff1660e01b815260040161103f949392919061236d565b6020604051808303815f875af192505050801561107a57506040513d601f19601f8201168201806040525081019061107791906123cb565b60015b6110fb573d805f81146110a8576040519150601f19603f3d011682016040523d82523d5f602084013e6110ad565b606091505b505f8151036110f357836040517f64a0ae920000000000000000000000000000000000000000000000000000000081526004016110ea9190611a37565b60405180910390fd5b805181602001fd5b63150b7a0260e01b7bffffffffffffffffffffffffffffffffffffffffffffffffffffffff1916817bffffffffffffffffffffffffffffffffffffffffffffffffffffffff19161461118457836040517f64a0ae9200000000000000000000000000000000000000000000000000000000815260040161117b9190611a37565b60405180910390fd5b505b50505050565b606060405180602001604052805f815250905090565b60605f60016111b084611542565b0190505f8167ffffffffffffffff8111156111ce576111cd611ccb565b5b6040519080825280601f01601f1916602001820160405280156112005781602001600182028036833780820191505090505b5090505f82602001820190505b600115611261578080600190039150507f3031323334353637383961626364656600000000000000000000000000000000600a86061a8153600a8581611256576112556123f6565b5b0494505f850361120d575b819350505050919050565b5f60025f8381526020019081526020015f205f9054906101000a900473ffffffffffffffffffffffffffffffffffffffff169050919050565b80806112dd57505f73ffffffffffffffffffffffffffffffffffffffff168273ffffffffffffffffffffffffffffffffffffffff1614155b1561140f575f6112ec84610b71565b90505f73ffffffffffffffffffffffffffffffffffffffff168373ffffffffffffffffffffffffffffffffffffffff161415801561135657508273ffffffffffffffffffffffffffffffffffffffff168173ffffffffffffffffffffffffffffffffffffffff1614155b801561136957506113678184610948565b155b156113ab57826040517fa9fbf51f0000000000000000000000000000000000000000000000000000000081526004016113a29190611a37565b60405180910390fd5b811561140d57838573ffffffffffffffffffffffffffffffffffffffff168273ffffffffffffffffffffffffffffffffffffffff167f8c5be1e5ebec7d5bd14f71427d1e84f3dd0314c0f7b2291e5b200ac8c7c3b92560405160405180910390a45b505b8360045f8581526020019081526020015f205f6101000a81548173ffffffffffffffffffffffffffffffffffffffff021916908373ffffffffffffffffffffffffffffffffffffffff16021790555050505050565b61146f838383611693565b611522575f73ffffffffffffffffffffffffffffffffffffffff168373ffffffffffffffffffffffffffffffffffffffff16036114e357806040517f7e2732890000000000000000000000000000000000000000000000000000000081526004016114da9190611b42565b60405180910390fd5b81816040517f177e802f000000000000000000000000000000000000000000000000000000008152600401611519929190612423565b60405180910390fd5b505050565b6115318383611753565b61153d5f848484610fda565b505050565b5f805f90507a184f03e93ff9f4daa797ed6e38ed64bf6a1f010000000000000000831061159e577a184f03e93ff9f4daa797ed6e38ed64bf6a1f0100000000000000008381611594576115936123f6565b5b0492506040810190505b6d04ee2d6d415b85acef810000000083106115db576d04ee2d6d415b85acef810000000083816115d1576115d06123f6565b5b0492506020810190505b662386f26fc10000831061160a57662386f26fc100008381611600576115ff6123f6565b5b0492506010810190505b6305f5e1008310611633576305f5e1008381611629576116286123f6565b5b0492506008810190505b612710831061165857612710838161164e5761164d6123f6565b5b0492506004810190505b6064831061167b5760648381611671576116706123f6565b5b0492506002810190505b600a831061168a576001810190505b80915050919050565b5f8073ffffffffffffffffffffffffffffffffffffffff168373ffffffffffffffffffffffffffffffffffffffff161415801561174a57508273ffffffffffffffffffffffffffffffffffffffff168473ffffffffffffffffffffffffffffffffffffffff16148061170b575061170a8484610948565b5b8061174957508273ffffffffffffffffffffffffffffffffffffffff1661173183610bf7565b73ffffffffffffffffffffffffffffffffffffffff16145b5b90509392505050565b5f73ffffffffffffffffffffffffffffffffffffffff168273ffffffffffffffffffffffffffffffffffffffff16036117c3575f6040517f64a0ae920000000000000000000000000000000000000000000000000000000081526004016117ba9190611a37565b60405180910390fd5b5f6117cf83835f610c49565b90505f73ffffffffffffffffffffffffffffffffffffffff168173ffffffffffffffffffffffffffffffffffffffff1614611841575f6040517f73c6ac6e0000000000000000000000000000000000000000000000000000000081526004016118389190611a37565b60405180910390fd5b505050565b5f604051905090565b5f80fd5b5f80fd5b5f7fffffffff0000000000000000000000000000000000000000000000000000000082169050919050565b61188b81611857565b8114611895575f80fd5b50565b5f813590506118a681611882565b92915050565b5f602082840312156118c1576118c061184f565b5b5f6118ce84828501611898565b91505092915050565b5f8115159050919050565b6118eb816118d7565b82525050565b5f6020820190506119045f8301846118e2565b92915050565b5f81519050919050565b5f82825260208201905092915050565b8281835e5f83830152505050565b5f601f19601f8301169050919050565b5f61194c8261190a565b6119568185611914565b9350611966818560208601611924565b61196f81611932565b840191505092915050565b5f6020820190508181035f8301526119928184611942565b905092915050565b5f819050919050565b6119ac8161199a565b81146119b6575f80fd5b50565b5f813590506119c7816119a3565b92915050565b5f602082840312156119e2576119e161184f565b5b5f6119ef848285016119b9565b91505092915050565b5f73ffffffffffffffffffffffffffffffffffffffff82169050919050565b5f611a21826119f8565b9050919050565b611a3181611a17565b82525050565b5f602082019050611a4a5f830184611a28565b92915050565b611a5981611a17565b8114611a63575f80fd5b50565b5f81359050611a7481611a50565b92915050565b5f8060408385031215611a9057611a8f61184f565b5b5f611a9d85828601611a66565b9250506020611aae858286016119b9565b9150509250929050565b5f805f60608486031215611acf57611ace61184f565b5b5f611adc86828701611a66565b9350506020611aed86828701611a66565b9250506040611afe868287016119b9565b9150509250925092565b5f60208284031215611b1d57611b1c61184f565b5b5f611b2a84828501611a66565b91505092915050565b611b3c8161199a565b82525050565b5f602082019050611b555f830184611b33565b92915050565b5f80fd5b5f80fd5b5f80fd5b5f8083601f840112611b7c57611b7b611b5b565b5b8235905067ffffffffffffffff811115611b9957611b98611b5f565b5b602083019150836001820283011115611bb557611bb4611b63565b5b9250929050565b5f805f805f8060808789031215611bd657611bd561184f565b5b5f611be389828a01611a66565b965050602087013567ffffffffffffffff811115611c0457611c03611853565b5b611c1089828a01611b67565b9550955050604087013567ffffffffffffffff811115611c3357611c32611853565b5b611c3f89828a01611b67565b93509350506060611c5289828a016119b9565b9150509295509295509295565b611c68816118d7565b8114611c72575f80fd5b50565b5f81359050611c8381611c5f565b92915050565b5f8060408385031215611c9f57611c9e61184f565b5b5f611cac85828601611a66565b9250506020611cbd85828601611c75565b9150509250929050565b5f80fd5b7f4e487b71000000000000000000000000000000000000000000000000000000005f52604160045260245ffd5b611d0182611932565b810181811067ffffffffffffffff82111715611d2057611d1f611ccb565b5b80604052505050565b5f611d32611846565b9050611d3e8282611cf8565b919050565b5f67ffffffffffffffff821115611d5d57611d5c611ccb565b5b611d6682611932565b9050602081019050919050565b828183375f83830152505050565b5f611d93611d8e84611d43565b611d29565b905082815260208101848484011115611daf57611dae611cc7565b5b611dba848285611d73565b509392505050565b5f82601f830112611dd657611dd5611b5b565b5b8135611de6848260208601611d81565b91505092915050565b5f805f8060808587031215611e0757611e0661184f565b5b5f611e1487828801611a66565b9450506020611e2587828801611a66565b9350506040611e36878288016119b9565b925050606085013567ffffffffffffffff811115611e5757611e56611853565b5b611e6387828801611dc2565b91505092959194509250565b5f8060408385031215611e8557611e8461184f565b5b5f611e9285828601611a66565b9250506020611ea385828601611a66565b9150509250929050565b5f6060820190508181035f830152611ec58186611942565b90508181036020830152611ed98185611942565b9050611ee86040830184611b33565b949350505050565b7f4e487b71000000000000000000000000000000000000000000000000000000005f52602260045260245ffd5b5f6002820490506001821680611f3457607f821691505b602082108103611f4757611f46611ef0565b5b50919050565b5f606082019050611f605f830186611a28565b611f6d6020830185611b33565b611f7a6040830184611a28565b949350505050565b5f819050815f5260205f209050919050565b5f6020601f8301049050919050565b5f82821b905092915050565b5f60088302611fde7fffffffffffffffffffffffffffffffffffffffffffffffffffffffffffffffff82611fa3565b611fe88683611fa3565b95508019841693508086168417925050509392505050565b5f819050919050565b5f61202361201e6120198461199a565b612000565b61199a565b9050919050565b5f819050919050565b61203c83612009565b6120506120488261202a565b848454611faf565b825550505050565b5f90565b612064612058565b61206f818484612033565b505050565b5b81811015612092576120875f8261205c565b600181019050612075565b5050565b601f8211156120d7576120a881611f82565b6120b184611f94565b810160208510156120c0578190505b6120d46120cc85611f94565b830182612074565b50505b505050565b5f82821c905092915050565b5f6120f75f19846008026120dc565b1980831691505092915050565b5f61210f83836120e8565b9150826002028217905092915050565b6121288261190a565b67ffffffffffffffff81111561214157612140611ccb565b5b61214b8254611f1d565b612156828285612096565b5f60209050601f831160018114612187575f8415612175578287015190505b61217f8582612104565b8655506121e6565b601f19841661219586611f82565b5f5b828110156121bc57848901518255600182019150602085019450602081019050612197565b868310156121d957848901516121d5601f8916826120e8565b8355505b6001600288020188555050505b505050505050565b7f4e487b71000000000000000000000000000000000000000000000000000000005f52601160045260245ffd5b5f6122258261199a565b91507fffffffffffffffffffffffffffffffffffffffffffffffffffffffffffffffff8203612257576122566121ee565b5b600182019050919050565b5f61226d8385611914565b935061227a838584611d73565b61228383611932565b840190509392505050565b5f6040820190508181035f8301526122a7818587612262565b90506122b66020830184611b33565b949350505050565b5f81905092915050565b5f6122d28261190a565b6122dc81856122be565b93506122ec818560208601611924565b80840191505092915050565b5f61230382856122c8565b915061230f82846122c8565b91508190509392505050565b5f81519050919050565b5f82825260208201905092915050565b5f61233f8261231b565b6123498185612325565b9350612359818560208601611924565b61236281611932565b840191505092915050565b5f6080820190506123805f830187611a28565b61238d6020830186611a28565b61239a6040830185611b33565b81810360608301526123ac8184612335565b905095945050505050565b5f815190506123c581611882565b92915050565b5f602082840312156123e0576123df61184f565b5b5f6123ed848285016123b7565b91505092915050565b7f4e487b71000000000000000000000000000000000000000000000000000000005f52601260045260245ffd5b5f6040820190506124365f830185611a28565b6124436020830184611b33565b939250505056fea2646970667358221220dc3a0f8ae26f6e3c1c89b11ab5e491ffc92f8279ce6f9ab9658c6967b373b6b364736f6c634300081a0033",
    "linkReferences": {}
  },
  "methodIdentifiers": {
    "approve(address,uint256)": "095ea7b3",
    "balanceOf(address)": "70a08231",
    "getApproved(uint256)": "081812fc",
    "isApprovedForAll(address,address)": "e985e9c5",
    "mintVessel(address,string,string,uint256)": "9fb1b7f4",
    "name()": "06fdde03",
    "ownerOf(uint256)": "6352211e",
    "safeTransferFrom(address,address,uint256)": "42842e0e",
    "safeTransferFrom(address,address,uint256,bytes)": "b88d4fde",
    "setApprovalForAll(address,bool)": "a22cb465",
    "supportsInterface(bytes4)": "01ffc9a7",
    "symbol()": "95d89b41",
    "tokenURI(uint256)": "c87b56dd",
    "transferFrom(address,address,uint256)": "23b872dd",
    "vesselDetails(uint256)": "ed1fee11"
  },
  "id": 15
}