{
  "abi": [
    {
      "type": "constructor",
      "inputs": [],
      "stateMutability": "nonpayable"
    },
    {
      "type": "function",
      "name": "approve",
      "inputs": [
        {
          "name": "to",
          "type": "address",
          "internalType": "address"
        },
        {
          "name": "tokenId",
          "type": "uint256",
          "internalType": "uint256"
        }
      ],
      "outputs": [],
      "stateMutability": "nonpayable"
    },
    {
      "type": "function",
      "name": "balanceOf",
      "inputs": [
        {
          "name": "owner",
          "type": "address",
          "internalType": "address"
        }
      ],
      "outputs": [
        {
          "name": "",
          "type": "uint256",
          "internalType": "uint256"
        }
      ],
      "stateMutability": "view"
    },
    {
      "type": "function",
      "name": "getApproved",
      "inputs": [
        {
          "name": "tokenId",
          "type": "uint256",
          "internalType": "uint256"
        }
      ],
      "outputs": [
        {
          "name": "",
          "type": "address",
          "internalType": "address"
        }
      ],
      "stateMutability": "view"
    },
    {
      "type": "function",
      "name": "isApprovedForAll",
      "inputs": [
        {
          "name": "owner",
          "type": "address",
          "internalType": "address"
        },
        {
          "name": "operator",
          "type": "address",
          "internalType": "address"
        }
      ],
      "outputs": [
        {
          "name": "",
          "type": "bool",
          "internalType": "bool"
        }
      ],
      "stateMutability": "view"
    },
    {
      "type": "function",
      "name": "mintVessel",
      "inputs": [
        {
          "name": "owner",
          "type": "address",
          "internalType": "address"
        },
        {
          "name": "name",
          "type": "string",
          "internalType": "string"
        },
        {
          "name": "imoNumber",
          "type": "string",
          "internalType": "string"
        },
        {
          "name": "vesselType",
          "type": "string",
          "internalType": "string"
        },
        {
          "name": "capacityDWT",
          "type": "uint256",
          "internalType": "uint256"
        }
      ],
      "outputs": [],
      "stateMutability": "nonpayable"
    },
    {
      "type": "function",
      "name": "name",
      "inputs": [],
      "outputs": [
        {
          "name": "",
          "type": "string",
          "internalType": "string"
        }
      ],
      "stateMutability": "view"
    },
    {
      "type": "function",
      "name": "ownerOf",
      "inputs": [
        {
          "name": "tokenId",
          "type": "uint256",
          "internalType": "uint256"
        }
      ],
      "outputs": [
        {
          "name": "",
          "type": "address",
          "internalType": "address"
        }
      ],
      "stateMutability": "view"
    },
    {
      "type": "function",
      "name": "safeTransferFrom",
      "inputs": [
        {
          "name": "from",
          "type": "address",
          "internalType": "address"
        },
        {
          "name": "to",
          "type": "address",
          "internalType": "address"
        },
        {
          "name": "tokenId",
          "type": "uint256",
          "internalType": "uint256"
        }
      ],
      "outputs": [],
      "stateMutability": "nonpayable"
    },
    {
      "type": "function",
      "name": "safeTransferFrom",
      "inputs": [
        {
          "name": "from",
          "type": "address",
          "internalType": "address"
        },
        {
          "name": "to",
          "type": "address",
          "internalType": "address"
        },
        {
          "name": "tokenId",
          "type": "uint256",
          "internalType": "uint256"
        },
        {
          "name": "data",
          "type": "bytes",
          "internalType": "bytes"
        }
      ],
      "outputs": [],
      "stateMutability": "nonpayable"
    },
    {
      "type": "function",
      "name": "setApprovalForAll",
      "inputs": [
        {
          "name": "operator",
          "type": "address",
          "internalType": "address"
        },
        {
          "name": "approved",
          "type": "bool",
          "internalType": "bool"
        }
      ],
      "outputs": [],
      "stateMutability": "nonpayable"
    },
    {
      "type": "function",
      "name": "supportsInterface",
      "inputs": [
        {
          "name": "interfaceId",
          "type": "bytes4",
          "internalType": "bytes4"
        }
      ],
      "outputs": [
        {
          "name": "",
          "type": "bool",
          "internalType": "bool"
        }
      ],
      "stateMutability": "view"
    },
    {
      "type": "function",
      "name": "symbol",
      "inputs": [],
      "outputs": [
        {
          "name": "",
          "type": "string",
          "internalType": "string"
        }
      ],
      "stateMutability": "view"
    },
    {
      "type": "function",
      "name": "tokenURI",
      "inputs": [
        {
          "name": "tokenId",
          "type": "uint256",
          "internalType": "uint256"
        }
      ],
      "outputs": [
        {
          "name": "",
          "type": "string",
          "internalType": "string"
        }
      ],
      "stateMutability": "view"
    },
    {
      "type": "function",
      "name": "transferFrom",
      "inputs": [
        {
          "name": "from",
          "type": "address",
          "internalType": "address"
        },
        {
          "name": "to",
          "type": "address",
          "internalType": "address"
        },
        {
          "name": "tokenId",
          "type": "uint256",
          "internalType": "uint256"
        }
      ],
      "outputs": [],
      "stateMutability": "nonpayable"
    },
    {
      "type": "function",
      "name": "vesselDetails",
      "inputs": [
        {
          "name": "",
          "type": "uint256",
          "internalType": "uint256"
        }
      ],
      "outputs": [
        {
          "name": "name",
          "type": "string",
          "internalType": "string"
        },
        {
          "name": "imoNumber",
          "type": "string",
          "internalType": "string"
        },
        {
          "name": "vesselType",
          "type": "string",
          "internalType": "string"
        },
        {
          "name": "capacityDWT",
          "type": "uint256",
          "internalType": "uint256"
        }
      ],
      "stateMutability": "view"
    },
    {
      "type": "event",
      "name": "Approval",
      "inputs": [
        {
          "name": "owner",
          "type": "address",
          "indexed": true,
          "internalType": "address"
        },
        {
          "name": "approved",
          "type": "address",
          "indexed": true,
          "internalType": "address"
        },
        {
          "name": "tokenId",
          "type": "uint256",
          "indexed": true,
          "internalType": "uint256"
        }
      ],
      "anonymous": false
    },
    {
      "type": "event",
      "name": "ApprovalForAll",
      "inputs": [
        {
          "name": "owner",
          "type": "address",
          "indexed": true,
          "internalType": "address"
        },
        {
          "name": "operator",
          "type": "address",
          "indexed": true,
          "internalType": "address"
        },
        {
          "name": "approved",
          "type": "bool",
          "indexed": false,
          "internalType": "bool"
        }
      ],
      "anonymous": false
    },
    {
      "type": "event",
      "name": "Transfer",
      "inputs": [
        {
          "name": "from",
          "type": "address",
          "indexed": true,
          "internalType": "address"
        },
        {
          "name": "to",
          "type": "address",
          "indexed": true,
          "internalType": "address"
        },
        {
          "name": "tokenId",
          "type": "uint256",
          "indexed": true,
          "internalType": "uint256"
        }
      ],
      "anonymous": false
    },
    {
      "type": "event",
      "name": "VesselMinted",
      "inputs": [
        {
          "name": "tokenId",
          "type": "uint256",
          "indexed": true,
          "internalType": "uint256"
        },
        {
          "name": "owner",
          "type": "address",
          "indexed": true,
          "internalType": "address"
        },
        {
          "name": "name",
          "type": "string",
          "indexed": false,
          "internalType": "string"
        },
        {
          "name": "capacityDWT",
          "type": "uint256",
          "indexed": false,
          "internalType": "uint256"
        }
      ],
      "anonymous": false
    },
    {
      "type": "error",
      "name": "ERC721IncorrectOwner",
      "inputs": [
        {
          "name": "sender",
          "type": "address",
          "internalType": "address"
        },
        {
          "name": "tokenId",
          "type": "uint256",
          "internalType": "uint256"
        },
        {
          "name": "owner",
          "type": "address",
          "internalType": "address"
        }
      ]
    },
    {
      "type": "error",
      "name": "ERC721InsufficientApproval",
      "inputs": [
        {
          "name": "operator",
          "type": "address",
          "internalType": "address"
        },
        {
          "name": "tokenId",
          "type": "uint256",
          "internalType": "uint256"
        }
      ]
    },
    {
      "type": "error",
      "name": "ERC721InvalidApprover",
      "inputs": [
        {
          "name": "approver",
          "type": "address",
          "internalType": "address"
        }
      ]
    },
    {
      "type": "error",
      "name": "ERC721InvalidOperator",
      "inputs": [
        {
          "name": "operator",
          "type": "address",
          "internalType": "address"
        }
      ]
    },
    {
      "type": "error",
      "name": "ERC721InvalidOwner",
      "inputs": [
        {
          "name": "owner",
          "type": "address",
          "internalType": "address"
        }
      ]
    },
    {
      "type": "error",
      "name": "ERC721InvalidReceiver",
      "inputs": [
        {
          "name": "receiver",
          "type": "address",
          "internalType": "address"
        }
      ]
    },
    {
      "type": "error",
      "name": "ERC721InvalidSender",
      "inputs": [
        {
          "name": "sender",
          "type": "address",
          "internalType": "address"
        }
      ]
    },
    {
      "type": "error",
      "name": "ERC721NonexistentToken",
      "inputs": [
        {
          "name": "tokenId",
          "type": "uint256",
          "internalType": "uint256"
        }
      ]
    }
  ],
  "bytecode": {
    "object": "0x608060405234801561000f575f80fd5b506040518060400160405280601381526020017f5368697042726f6b657261676556657373656c000000000000000000000000008152506040518060400160405280600381526020017f5342560000000000000000000000000000000000000000000000000000000000815250815f908161008a91906102dc565b50806001908161009a91906102dc565b5050506103ab565b5f81519050919050565b7f4e487b71000000000000000000000000000000000000000000000000000000005f52604160045260245ffd5b7f4e487b71000000000000000000000000000000000000000000000000000000005f52602260045260245ffd5b5f600282049050600182168061011d57607f821691505b6020821081036101305761012f6100d9565b5b50919050565b5f819050815f5260205f209050919050565b5f6020601f8301049050919050565b5f82821b905092915050565b5f600883026101927fffffffffffffffffffffffffffffffffffffffffffffffffffffffffffffffff82610157565b61019c8683610157565b95508019841693508086168417925050509392505050565b5f819050919050565b5f819050919050565b5f6101e06101db6101d6846101b4565b6101bd565b6101b4565b9050919050565b5f819050919050565b6101f9836101c6565b61020d610205826101e7565b848454610163565b825550505050565b5f90565b610221610215565b61022c8184846101f0565b505050565b5b8181101561024f576102445f82610219565b600181019050610232565b5050565b601f8211156102945761026581610136565b61026e84610148565b8101602085101561027d578190505b61029161028985610148565b830182610231565b50505b505050565b5f82821c905092915050565b5f6102b45f1984600802610299565b1980831691505092915050565b5f6102cc83836102a5565b9150826002028217905092915050565b6102e5826100a2565b67ffffffffffffffff8111156102fe576102fd6100ac565b5b6103088254610106565b610313828285610253565b5f60209050601f831160018114610344575f8415610332578287015190505b61033c85826102c1565b8655506103a3565b601f19841661035286610136565b5f5b8281101561037957848901518255600182019150602085019450602081019050610354565b868310156103965784890151610392601f8916826102a5565b8355505b6001600288020188555050505b505050505050565b6125b3806103b85f395ff3fe608060405234801561000f575f80fd5b50600436106100f3575f3560e01c806370a0823111610095578063b88d4fde11610064578063b88d4fde1461027f578063c87b56dd1461029b578063e985e9c5146102cb578063ed1fee11146102fb576100f3565b806370a08231146101f95780639583a83f1461022957806395d89b4114610245578063a22cb46514610263576100f3565b8063095ea7b3116100d1578063095ea7b31461017557806323b872dd1461019157806342842e0e146101ad5780636352211e146101c9576100f3565b806301ffc9a7146100f757806306fdde0314610127578063081812fc14610145575b5f80fd5b610111600480360381019061010c9190611996565b61032e565b60405161011e91906119db565b60405180910390f35b61012f61040f565b60405161013c9190611a64565b60405180910390f35b61015f600480360381019061015a9190611ab7565b61049e565b60405161016c9190611b21565b60405180910390f35b61018f600480360381019061018a9190611b64565b6104b9565b005b6101ab60048036038101906101a69190611ba2565b6104cf565b005b6101c760048036038101906101c29190611ba2565b6105ce565b005b6101e360048036038101906101de9190611ab7565b6105ed565b6040516101f09190611b21565b60405180910390f35b610213600480360381019061020e9190611bf2565b6105fe565b6040516102209190611c2c565b60405180910390f35b610243600480360381019061023e9190611ca6565b6106b4565b005b61024d61087d565b60405161025a9190611a64565b60405180910390f35b61027d60048036038101906102789190611da7565b61090d565b005b61029960048036038101906102949190611f0d565b610923565b005b6102b560048036038101906102b09190611ab7565b610940565b6040516102c29190611a64565b60405180910390f35b6102e560048036038101906102e09190611f8d565b6109a6565b6040516102f291906119db565b60405180910390f35b61031560048036038101906103109190611ab7565b610a34565b6040516103259493929190611fcb565b60405180910390f35b5f7f80ac58cd000000000000000000000000000000000000000000000000000000007bffffffffffffffffffffffffffffffffffffffffffffffffffffffff1916827bffffffffffffffffffffffffffffffffffffffffffffffffffffffff191614806103f857507f5b5e139f000000000000000000000000000000000000000000000000000000007bffffffffffffffffffffffffffffffffffffffffffffffffffffffff1916827bffffffffffffffffffffffffffffffffffffffffffffffffffffffff1916145b80610408575061040782610bf2565b5b9050919050565b60605f805461041d90612050565b80601f016020809104026020016040519081016040528092919081815260200182805461044990612050565b80156104945780601f1061046b57610100808354040283529160200191610494565b820191905f5260205f20905b81548152906001019060200180831161047757829003601f168201915b5050505050905090565b5f6104a882610c5b565b506104b282610ce1565b9050919050565b6104cb82826104c6610d1a565b610d21565b5050565b5f73ffffffffffffffffffffffffffffffffffffffff168273ffffffffffffffffffffffffffffffffffffffff160361053f575f6040517f64a0ae920000000000000000000000000000000000000000000000000000000081526004016105369190611b21565b60405180910390fd5b5f610552838361054d610d1a565b610d33565b90508373ffffffffffffffffffffffffffffffffffffffff168173ffffffffffffffffffffffffffffffffffffffff16146105c8578382826040517f64283d7b0000000000000000000000000000000000000000000000000000000081526004016105bf93929190612080565b60405180910390fd5b50505050565b6105e883838360405180602001604052805f815250610923565b505050565b5f6105f782610c5b565b9050919050565b5f8073ffffffffffffffffffffffffffffffffffffffff168273ffffffffffffffffffffffffffffffffffffffff160361066f575f6040517f89c62b640000000000000000000000000000000000000000000000000000000081526004016106669190611b21565b60405180910390fd5b60035f8373ffffffffffffffffffffffffffffffffffffffff1673ffffffffffffffffffffffffffffffffffffffff1681526020019081526020015f20549050919050565b5f60065f8154809291906106c7906120e2565b9190505590506106d78982610f3e565b604051806080016040528089898080601f0160208091040260200160405190810160405280939291908181526020018383808284375f81840152601f19601f82011690508083019250505050505050815260200187878080601f0160208091040260200160405190810160405280939291908181526020018383808284375f81840152601f19601f82011690508083019250505050505050815260200185858080601f0160208091040260200160405190810160405280939291908181526020018383808284375f81840152601f19601f8201169050808301925050505050505081526020018381525060075f8381526020019081526020015f205f820151815f0190816107e591906122c6565b5060208201518160010190816107fb91906122c6565b50604082015181600201908161081191906122c6565b50606082015181600301559050508873ffffffffffffffffffffffffffffffffffffffff16817fbf91f913bb7d3fb775ad03dd22e800b52285bc6adaa6518eded78778179361578a8a8660405161086a939291906123c1565b60405180910390a3505050505050505050565b60606001805461088c90612050565b80601f01602080910402602001604051908101604052809291908181526020018280546108b890612050565b80156109035780601f106108da57610100808354040283529160200191610903565b820191905f5260205f20905b8154815290600101906020018083116108e657829003601f168201915b5050505050905090565b61091f610918610d1a565b8383610f5b565b5050565b61092e8484846104cf565b61093a848484846110c4565b50505050565b606061094b82610c5b565b505f610955611276565b90505f8151116109735760405180602001604052805f81525061099e565b8061097d8461128c565b60405160200161098e92919061242b565b6040516020818303038152906040525b915050919050565b5f60055f8473ffffffffffffffffffffffffffffffffffffffff1673ffffffffffffffffffffffffffffffffffffffff1681526020019081526020015f205f8373ffffffffffffffffffffffffffffffffffffffff1673ffffffffffffffffffffffffffffffffffffffff1681526020019081526020015f205f9054906101000a900460ff16905092915050565b6007602052805f5260405f205f91509050805f018054610a5390612050565b80601f0160208091040260200160405190810160405280929190818152602001828054610a7f90612050565b8015610aca5780601f10610aa157610100808354040283529160200191610aca565b820191905f5260205f20905b815481529060010190602001808311610aad57829003601f168201915b505050505090806001018054610adf90612050565b80601f0160208091040260200160405190810160405280929190818152602001828054610b0b90612050565b8015610b565780601f10610b2d57610100808354040283529160200191610b56565b820191905f5260205f20905b815481529060010190602001808311610b3957829003601f168201915b505050505090806002018054610b6b90612050565b80601f0160208091040260200160405190810160405280929190818152602001828054610b9790612050565b8015610be25780601f10610bb957610100808354040283529160200191610be2565b820191905f5260205f20905b815481529060010190602001808311610bc557829003601f168201915b5050505050908060030154905084565b5f7f01ffc9a7000000000000000000000000000000000000000000000000000000007bffffffffffffffffffffffffffffffffffffffffffffffffffffffff1916827bffffffffffffffffffffffffffffffffffffffffffffffffffffffff1916149050919050565b5f80610c6683611356565b90505f73ffffffffffffffffffffffffffffffffffffffff168173ffffffffffffffffffffffffffffffffffffffff1603610cd857826040517f7e273289000000000000000000000000000000000000000000000000000000008152600401610ccf9190611c2c565b60405180910390fd5b80915050919050565b5f60045f8381526020019081526020015f205f9054906101000a900473ffffffffffffffffffffffffffffffffffffffff169050919050565b5f33905090565b610d2e838383600161138f565b505050565b5f80610d3e84611356565b90505f73ffffffffffffffffffffffffffffffffffffffff168373ffffffffffffffffffffffffffffffffffffffff1614610d7f57610d7e81848661154e565b5b5f73ffffffffffffffffffffffffffffffffffffffff168173ffffffffffffffffffffffffffffffffffffffff1614610e0a57610dbe5f855f8061138f565b600160035f8373ffffffffffffffffffffffffffffffffffffffff1673ffffffffffffffffffffffffffffffffffffffff1681526020019081526020015f205f82825403925050819055505b5f73ffffffffffffffffffffffffffffffffffffffff168573ffffffffffffffffffffffffffffffffffffffff1614610e8957600160035f8773ffffffffffffffffffffffffffffffffffffffff1673ffffffffffffffffffffffffffffffffffffffff1681526020019081526020015f205f82825401925050819055505b8460025f8681526020019081526020015f205f6101000a81548173ffffffffffffffffffffffffffffffffffffffff021916908373ffffffffffffffffffffffffffffffffffffffff160217905550838573ffffffffffffffffffffffffffffffffffffffff168273ffffffffffffffffffffffffffffffffffffffff167fddf252ad1be2c89b69c2b068fc378daa952ba7f163c4a11628f55a4df523b3ef60405160405180910390a4809150509392505050565b610f57828260405180602001604052805f815250611611565b5050565b5f73ffffffffffffffffffffffffffffffffffffffff168273ffffffffffffffffffffffffffffffffffffffff1603610fcb57816040517f5b08ba18000000000000000000000000000000000000000000000000000000008152600401610fc29190611b21565b60405180910390fd5b8060055f8573ffffffffffffffffffffffffffffffffffffffff1673ffffffffffffffffffffffffffffffffffffffff1681526020019081526020015f205f8473ffffffffffffffffffffffffffffffffffffffff1673ffffffffffffffffffffffffffffffffffffffff1681526020019081526020015f205f6101000a81548160ff0219169083151502179055508173ffffffffffffffffffffffffffffffffffffffff168373ffffffffffffffffffffffffffffffffffffffff167f17307eab39ab6107e8899845ad3d59bd9653f200f220920489ca2b5937696c31836040516110b791906119db565b60405180910390a3505050565b5f8373ffffffffffffffffffffffffffffffffffffffff163b1115611270578273ffffffffffffffffffffffffffffffffffffffff1663150b7a02611107610d1a565b8685856040518563ffffffff1660e01b815260040161112994939291906124a0565b6020604051808303815f875af192505050801561116457506040513d601f19601f8201168201806040525081019061116191906124fe565b60015b6111e5573d805f8114611192576040519150601f19603f3d011682016040523d82523d5f602084013e611197565b606091505b505f8151036111dd57836040517f64a0ae920000000000000000000000000000000000000000000000000000000081526004016111d49190611b21565b60405180910390fd5b805181602001fd5b63150b7a0260e01b7bffffffffffffffffffffffffffffffffffffffffffffffffffffffff1916817bffffffffffffffffffffffffffffffffffffffffffffffffffffffff19161461126e57836040517f64a0ae920000000000000000000000000000000000000000000000000000000081526004016112659190611b21565b60405180910390fd5b505b50505050565b606060405180602001604052805f815250905090565b60605f600161129a8461162c565b0190505f8167ffffffffffffffff8111156112b8576112b7611de9565b5b6040519080825280601f01601f1916602001820160405280156112ea5781602001600182028036833780820191505090505b5090505f82602001820190505b60011561134b578080600190039150507f3031323334353637383961626364656600000000000000000000000000000000600a86061a8153600a85816113405761133f612529565b5b0494505f85036112f7575b819350505050919050565b5f60025f8381526020019081526020015f205f9054906101000a900473ffffffffffffffffffffffffffffffffffffffff169050919050565b80806113c757505f73ffffffffffffffffffffffffffffffffffffffff168273ffffffffffffffffffffffffffffffffffffffff1614155b156114f9575f6113d684610c5b565b90505f73ffffffffffffffffffffffffffffffffffffffff168373ffffffffffffffffffffffffffffffffffffffff161415801561144057508273ffffffffffffffffffffffffffffffffffffffff168173ffffffffffffffffffffffffffffffffffffffff1614155b8015611453575061145181846109a6565b155b1561149557826040517fa9fbf51f00000000000000000000000000000000000000000000000000000000815260040161148c9190611b21565b60405180910390fd5b81156114f757838573ffffffffffffffffffffffffffffffffffffffff168273ffffffffffffffffffffffffffffffffffffffff167f8c5be1e5ebec7d5bd14f71427d1e84f3dd0314c0f7b2291e5b200ac8c7c3b92560405160405180910390a45b505b8360045f8581526020019081526020015f205f6101000a81548173ffffffffffffffffffffffffffffffffffffffff021916908373ffffffffffffffffffffffffffffffffffffffff16021790555050505050565b61155983838361177d565b61160c575f73ffffffffffffffffffffffffffffffffffffffff168373ffffffffffffffffffffffffffffffffffffffff16036115cd57806040517f7e2732890000000000000000000000000000000000000000000000000000000081526004016115c49190611c2c565b60405180910390fd5b81816040517f177e802f000000000000000000000000000000000000000000000000000000008152600401611603929190612556565b60405180910390fd5b505050565b61161b838361183d565b6116275f8484846110c4565b505050565b5f805f90507a184f03e93ff9f4daa797ed6e38ed64bf6a1f0100000000000000008310611688577a184f03e93ff9f4daa797ed6e38ed64bf6a1f010000000000000000838161167e5761167d612529565b5b0492506040810190505b6d04ee2d6d415b85acef810000000083106116c5576d04ee2d6d415b85acef810000000083816116bb576116ba612529565b5b0492506020810190505b662386f26fc1000083106116f457662386f26fc1000083816116ea576116e9612529565b5b0492506010810190505b6305f5e100831061171d576305f5e100838161171357611712612529565b5b0492506008810190505b612710831061174257612710838161173857611737612529565b5b0492506004810190505b60648310611765576064838161175b5761175a612529565b5b0492506002810190505b600a8310611774576001810190505b80915050919050565b5f8073ffffffffffffffffffffffffffffffffffffffff168373ffffffffffffffffffffffffffffffffffffffff161415801561183457508273ffffffffffffffffffffffffffffffffffffffff168473ffffffffffffffffffffffffffffffffffffffff1614806117f557506117f484846109a6565b5b8061183357508273ffffffffffffffffffffffffffffffffffffffff1661181b83610ce1565b73ffffffffffffffffffffffffffffffffffffffff16145b5b90509392505050565b5f73ffffffffffffffffffffffffffffffffffffffff168273ffffffffffffffffffffffffffffffffffffffff16036118ad575f6040517f64a0ae920000000000000000000000000000000000000000000000000000000081526004016118a49190611b21565b60405180910390fd5b5f6118b983835f610d33565b90505f73ffffffffffffffffffffffffffffffffffffffff168173ffffffffffffffffffffffffffffffffffffffff161461192b575f6040517f73c6ac6e0000000000000000000000000000000000000000000000000000000081526004016119229190611b21565b60405180910390fd5b505050565b5f604051905090565b5f80fd5b5f80fd5b5f7fffffffff0000000000000000000000000000000000000000000000000000000082169050919050565b61197581611941565b811461197f575f80fd5b50565b5f813590506119908161196c565b92915050565b5f602082840312156119ab576119aa611939565b5b5f6119b884828501611982565b91505092915050565b5f8115159050919050565b6119d5816119c1565b82525050565b5f6020820190506119ee5f8301846119cc565b92915050565b5f81519050919050565b5f82825260208201905092915050565b8281835e5f83830152505050565b5f601f19601f8301169050919050565b5f611a36826119f4565b611a4081856119fe565b9350611a50818560208601611a0e565b611a5981611a1c565b840191505092915050565b5f6020820190508181035f830152611a7c8184611a2c565b905092915050565b5f819050919050565b611a9681611a84565b8114611aa0575f80fd5b50565b5f81359050611ab181611a8d565b92915050565b5f60208284031215611acc57611acb611939565b5b5f611ad984828501611aa3565b91505092915050565b5f73ffffffffffffffffffffffffffffffffffffffff82169050919050565b5f611b0b82611ae2565b9050919050565b611b1b81611b01565b82525050565b5f602082019050611b345f830184611b12565b92915050565b611b4381611b01565b8114611b4d575f80fd5b50565b5f81359050611b5e81611b3a565b92915050565b5f8060408385031215611b7a57611b79611939565b5b5f611b8785828601611b50565b9250506020611b9885828601611aa3565b9150509250929050565b5f805f60608486031215611bb957611bb8611939565b5b5f611bc686828701611b50565b9350506020611bd786828701611b50565b9250506040611be886828701611aa3565b9150509250925092565b5f60208284031215611c0757611c06611939565b5b5f611c1484828501611b50565b91505092915050565b611c2681611a84565b82525050565b5f602082019050611c3f5f830184611c1d565b92915050565b5f80fd5b5f80fd5b5f80fd5b5f8083601f840112611c6657611c65611c45565b5b8235905067ffffffffffffffff811115611c8357611c82611c49565b5b602083019150836001820283011115611c9f57611c9e611c4d565b5b9250929050565b5f805f805f805f8060a0898b031215611cc257611cc1611939565b5b5f611ccf8b828c01611b50565b985050602089013567ffffffffffffffff811115611cf057611cef61193d565b5b611cfc8b828c01611c51565b9750975050604089013567ffffffffffffffff811115611d1f57611d1e61193d565b5b611d2b8b828c01611c51565b9550955050606089013567ffffffffffffffff811115611d4e57611d4d61193d565b5b611d5a8b828c01611c51565b93509350506080611d6d8b828c01611aa3565b9150509295985092959890939650565b611d86816119c1565b8114611d90575f80fd5b50565b5f81359050611da181611d7d565b92915050565b5f8060408385031215611dbd57611dbc611939565b5b5f611dca85828601611b50565b9250506020611ddb85828601611d93565b9150509250929050565b5f80fd5b7f4e487b71000000000000000000000000000000000000000000000000000000005f52604160045260245ffd5b611e1f82611a1c565b810181811067ffffffffffffffff82111715611e3e57611e3d611de9565b5b80604052505050565b5f611e50611930565b9050611e5c8282611e16565b919050565b5f67ffffffffffffffff821115611e7b57611e7a611de9565b5b611e8482611a1c565b9050602081019050919050565b828183375f83830152505050565b5f611eb1611eac84611e61565b611e47565b905082815260208101848484011115611ecd57611ecc611de5565b5b611ed8848285611e91565b509392505050565b5f82601f830112611ef457611ef3611c45565b5b8135611f04848260208601611e9f565b91505092915050565b5f805f8060808587031215611f2557611f24611939565b5b5f611f3287828801611b50565b9450506020611f4387828801611b50565b9350506040611f5487828801611aa3565b925050606085013567ffffffffffffffff811115611f7557611f7461193d565b5b611f8187828801611ee0565b91505092959194509250565b5f8060408385031215611fa357611fa2611939565b5b5f611fb085828601611b50565b9250506020611fc185828601611b50565b9150509250929050565b5f6080820190508181035f830152611fe38187611a2c565b90508181036020830152611ff78186611a2c565b9050818103604083015261200b8185611a2c565b905061201a6060830184611c1d565b95945050505050565b7f4e487b71000000000000000000000000000000000000000000000000000000005f52602260045260245ffd5b5f600282049050600182168061206757607f821691505b60208210810361207a57612079612023565b5b50919050565b5f6060820190506120935f830186611b12565b6120a06020830185611c1d565b6120ad6040830184611b12565b949350505050565b7f4e487b71000000000000000000000000000000000000000000000000000000005f52601160045260245ffd5b5f6120ec82611a84565b91507fffffffffffffffffffffffffffffffffffffffffffffffffffffffffffffffff820361211e5761211d6120b5565b5b600182019050919050565b5f819050815f5260205f209050919050565b5f6020601f8301049050919050565b5f82821b905092915050565b5f600883026121857fffffffffffffffffffffffffffffffffffffffffffffffffffffffffffffffff8261214a565b61218f868361214a565b95508019841693508086168417925050509392505050565b5f819050919050565b5f6121ca6121c56121c084611a84565b6121a7565b611a84565b9050919050565b5f819050919050565b6121e3836121b0565b6121f76121ef826121d1565b848454612156565b825550505050565b5f90565b61220b6121ff565b6122168184846121da565b505050565b5b818110156122395761222e5f82612203565b60018101905061221c565b5050565b601f82111561227e5761224f81612129565b6122588461213b565b81016020851015612267578190505b61227b6122738561213b565b83018261221b565b50505b505050565b5f82821c905092915050565b5f61229e5f1984600802612283565b1980831691505092915050565b5f6122b6838361228f565b9150826002028217905092915050565b6122cf826119f4565b67ffffffffffffffff8111156122e8576122e7611de9565b5b6122f28254612050565b6122fd82828561223d565b5f60209050601f83116001811461232e575f841561231c578287015190505b61232685826122ab565b86555061238d565b601f19841661233c86612129565b5f5b828110156123635784890151825560018201915060208501945060208101905061233e565b86831015612380578489015161237c601f89168261228f565b8355505b6001600288020188555050505b505050505050565b5f6123a083856119fe565b93506123ad838584611e91565b6123b683611a1c565b840190509392505050565b5f6040820190508181035f8301526123da818587612395565b90506123e96020830184611c1d565b949350505050565b5f81905092915050565b5f612405826119f4565b61240f81856123f1565b935061241f818560208601611a0e565b80840191505092915050565b5f61243682856123fb565b915061244282846123fb565b91508190509392505050565b5f81519050919050565b5f82825260208201905092915050565b5f6124728261244e565b61247c8185612458565b935061248c818560208601611a0e565b61249581611a1c565b840191505092915050565b5f6080820190506124b35f830187611b12565b6124c06020830186611b12565b6124cd6040830185611c1d565b81810360608301526124df8184612468565b905095945050505050565b5f815190506124f88161196c565b92915050565b5f6020828403121561251357612512611939565b5b5f612520848285016124ea565b91505092915050565b7f4e487b71000000000000000000000000000000000000000000000000000000005f52601260045260245ffd5b5f6040820190506125695f830185611b12565b6125766020830184611c1d565b939250505056fea2646970667358221220c475c3a0c46d99147166f2405bb6f39d1c12de0efac0ac57b4533309d03ac76864736f6c634300081a0033",
    "linkReferences": {}
  },
  "methodIdentifiers": {
    "approve(address,uint256)": "095ea7b3",
    "balanceOf(address)": "70a08231",
    "getApproved(uint256)": "081812fc",
    "isApprovedForAll(address,address)": "e985e9c5",
    "mintVessel(address,string,string,string,uint256)": "9583a83f",
    "name()": "06fdde03",
    "ownerOf(uint256)": "6352211e",
    "safeTransferFrom(address,address,uint256)": "42842e0e",
    "safeTransferFrom(address,address,uint256,bytes)": "b88d4fde",
    "setApprovalForAll(address,bool)": "a22cb465",
    "supportsInterface(bytes4)": "01ffc9a7",
    "symbol()": "95d89b41",
    "tokenURI(uint256)": "c87b56dd",
    "transferFrom(address,address,uint256)": "23b872dd",
    "vesselDetails(uint256)": "ed1fee11"
  },
  "id": 32
}